{
  "contractName": "BN256G1",
  "abi": [
    {
      "inputs": [],
      "name": "GX",
      "outputs": [
        {
          "internalType": "uint256",
          "name": "",
          "type": "uint256"
        }
      ],
      "stateMutability": "view",
      "type": "function"
    },
    {
      "inputs": [],
      "name": "GY",
      "outputs": [
        {
          "internalType": "uint256",
          "name": "",
          "type": "uint256"
        }
      ],
      "stateMutability": "view",
      "type": "function"
    }
  ],
  "bytecode": "0x60e6610052600b82828239805160001a607314610045577f4e487b7100000000000000000000000000000000000000000000000000000000600052600060045260246000fd5b30600052607381538281f3fe7300000000000000000000000000000000000000003014608060405260043610603d5760003560e01c806303a507be1460425780637a308a4c14605c575b600080fd5b60486076565b604051605391906097565b60405180910390f35b6062607b565b604051606d91906097565b60405180910390f35b600181565b600281565b6000819050919050565b6091816080565b82525050565b600060208201905060aa6000830184608a565b9291505056fea2646970667358221220923de6fbfc51a83c9722a8cc5b4c5580fad975dce6f538caf8e7cc4aeaecc69264736f6c634300080d0033",
  "immutableReferences": {},
  "source": "// SPDX-License-Identifier: MIT\npragma solidity ^0.8.0;\n\nimport \"./EllipticCurve.sol\";\n\n/**\n * @title BN256G1 Curve Library\n * @dev Added hashToPoint function from https://github.com/ChihChengLiang/bls_solidity_python\n * to https://github.com/witnet/bls-solidity\n */\nlibrary BN256G1 {\n    // Generator coordinate `x` of the EC curve\n    uint256 public constant GX = 1;\n    // Generator coordinate `y` of the EC curve\n    uint256 public constant GY = 2;\n    // Constant `a` of EC equation\n    uint256 internal constant AA = 0;\n    // Constant `b` of EC equation\n    uint256 internal constant BB = 3;\n    // Prime number of the curve\n    uint256 internal constant PP =\n        0x30644e72e131a029b85045b68181585d97816a916871ca8d3c208c16d87cfd47;\n    // Order of the curve\n    uint256 internal constant NN =\n        0x30644e72e131a029b85045b68181585d2833e84879b9709143e1f593f0000001;\n\n    // This is 0xf1f5883e65f820d099915c908786b9d3f58714d70a38f4c22ca2bc723a70f263, the last multiple of the modulus before 2^256\n    uint256 internal constant LAST_MULTIPLE_OF_PP_LOWER_THAN_2_256 =\n        0xf1f5883e65f820d099915c908786b9d3f58714d70a38f4c22ca2bc723a70f263;\n\n    /// @dev  computes P + Q\n    /// @param input: 4 values of 256 bits each\n    ///  *) x-coordinate of point P\n    ///  *) y-coordinate of point P\n    ///  *) x-coordinate of point Q\n    ///  *) y-coordinate of point Q\n    /// @return An array with x and y coordinates of P+Q.\n    function addPoint(uint256[4] memory input)\n        internal\n        returns (uint256, uint256)\n    {\n        bool success;\n        uint256[2] memory result;\n        // solhint-disable-next-line no-inline-assembly\n        assembly {\n            // 0x06     id of the bn256Add precompile\n            // 0        number of ether to transfer\n            // 128      size of call parameters, i.e. 128 bytes total\n            // 64       size of call return value, i.e. 64 bytes / 512 bit for a BN256 curve point\n            success := call(not(0), 0x06, 0, input, 128, result, 64)\n        }\n        require(success, \"bn256 addition failed\");\n\n        return (result[0], result[1]);\n    }\n\n    /// @dev  computes P*k.\n    /// @param input: 3 values of 256 bits each:\n    ///  *) x-coordinate of point P\n    ///  *) y-coordinate of point P\n    ///  *) scalar k.\n    /// @return An array with x and y coordinates of P*k.\n    function mulPoint(uint256[3] memory input)\n        internal\n        returns (uint256, uint256)\n    {\n        bool success;\n        uint256[2] memory result;\n        // solhint-disable-next-line no-inline-assembly\n        assembly {\n            // 0x07     id of the bn256ScalarMul precompile\n            // 0        number of ether to transfer\n            // 96       size of call parameters, i.e. 96 bytes total (256 bit for x, 256 bit for y, 256 bit for scalar)\n            // 64       size of call return value, i.e. 64 bytes / 512 bit for a BN256 curve point\n            success := call(not(0), 0x07, 0, input, 96, result, 64)\n        }\n        require(success, \"ec mul failed\");\n        return (result[0], result[1]);\n    }\n\n    /// @dev Checks if P is on G1 using the EllipticCurve library.\n    /// @param point: 2 values of 256 bits each:\n    ///  *) x-coordinate of point P\n    ///  *) y-coordinate of point P\n    /// @return true if P is in G1.\n    function isOnCurve(uint256[2] memory point) internal pure returns (bool) {\n        // checks if the given point is a valid point from the first elliptic curve group\n        // uses the EllipticCurve library\n        return EllipticCurve.isOnCurve(point[0], point[1], AA, BB, PP);\n    }\n\n    /// @dev Checks if e(P, Q) = e (R,S).\n    /// @param input: 12 values of 256 bits each:\n    ///  *) x-coordinate of point P\n    ///  *) y-coordinate of point P\n    ///  *) x real coordinate of point Q\n    ///  *) x imaginary coordinate of point Q\n    ///  *) y real coordinate of point Q\n    ///  *) y imaginary coordinate of point Q\n    ///  *) x-coordinate of point R\n    ///  *) y-coordinate of point R\n    ///  *) x real coordinate of point S\n    ///  *) x imaginary coordinate of point S\n    ///  *) y real coordinate of point S\n    ///  *) y imaginary coordinate of point S\n    /// @return true if e(P, Q) = e (R,S).\n    function bn256CheckPairing(uint256[12] memory input)\n        internal\n        returns (bool)\n    {\n        uint256[1] memory result;\n        bool success;\n        // solhint-disable-next-line no-inline-assembly\n        assembly {\n            // 0x08     id of the bn256CheckPairing precompile    (checking the elliptic curve pairings)\n            // 0        number of ether to transfer\n            // 0        since we have an array of fixed length, our input starts in 0\n            // 384      size of call parameters, i.e. 12*256 bits == 384 bytes\n            // 32       size of result (one 32 byte boolean!)\n            success := call(sub(gas(), 2000), 0x08, 0, input, 384, result, 32)\n        }\n        require(success, \"ec pairing failed\");\n        return result[0] == 1;\n    }\n\n    /// @dev Checks if e(P, Q) = e (R,S)*e(T,U)...\n    /// @param input: A modulo 6 length array of values of 256 bits each:\n    ///  *) x-coordinate of point P\n    ///  *) y-coordinate of point P\n    ///  *) x real coordinate of point Q\n    ///  *) x imaginary coordinate of point Q\n    ///  *) y real coordinate of point Q\n    ///  *) y imaginary coordinate of point Q\n    ///  *) x-coordinate of point R\n    ///  *) y-coordinate of point R\n    ///  *) x real coordinate of point S\n    ///  *) x imaginary coordinate of point S\n    ///  *) y real coordinate of point S\n    ///  *) y imaginary coordinate of point S\n    ///  *) and so forth with additional pairing checks\n    /// @return true if e(input[0,1], input[2,3,4,5]) = e(input[6,7], input[8,9,10,11])*e(input[12,13], input[14,15,16,17])...\n    function bn256CheckPairingBatch(uint256[] memory input)\n        internal\n        returns (bool)\n    {\n        uint256[1] memory result;\n        bool success;\n        require(input.length % 6 == 0, \"incorrect input length\");\n        uint256 inLen = input.length * 32;\n        // solhint-disable-next-line no-inline-assembly\n        assembly {\n            // 0x08     id of the bn256CheckPairing precompile     (checking the elliptic curve pairings)\n            // 0        number of ether to transfer\n            // add(input, 0x20) since we have an unbounded array, the first 256 bits refer to its length\n            // 384      size of call parameters, i.e. 12*256 bits == 384 bytes\n            // 32       size of result (one 32 byte boolean!)\n            success := call(\n                sub(gas(), 2000),\n                0x08,\n                0,\n                add(input, 0x20),\n                inLen,\n                result,\n                32\n            )\n        }\n        require(success, \"ec pairing failed\");\n        return result[0] == 1;\n    }\n\n    /// @dev Function to transform compressed bytes into a x and a y coordinate in the curve.\n    /// @param _point The point bytes\n    /// @return The coordinates `x` and `y` in an array\n    function fromCompressed(bytes memory _point)\n        internal\n        pure\n        returns (uint256, uint256)\n    {\n        require(_point.length == 33, \"invalid encoding\");\n        uint8 sign;\n        uint256 x;\n        // solhint-disable-next-line no-inline-assembly\n        assembly {\n            sign := mload(add(_point, 1))\n            x := mload(add(_point, 33))\n        }\n\n        return (x, deriveY(sign, x));\n    }\n\n    /// @dev Function to convert a `Hash(msg|DATA)` to a point in the curve as defined in [VRF-draft-04](https://tools.ietf.org/pdf/draft-irtf-cfrg-vrf-04).\n    /// @param _message The message used for computing the VRF\n    /// @return The hash point in affine coordinates\n    function hashToTryAndIncrement(bytes memory _message)\n        internal\n        pure\n        returns (uint256, uint256)\n    {\n        // Find a valid EC point\n        // Loop over counter ctr starting at 0x00 and do hash\n        for (uint8 ctr = 0; ctr < 256; ctr++) {\n            // Counter update\n            // c[cLength-1] = byte(ctr);\n            bytes32 sha = sha256(abi.encodePacked(_message, ctr));\n            // Step 4: arbitraty string to point and check if it is on curve\n            uint256 hPointX = uint256(sha);\n            // Avoid hashes that are above the last multiple of _PP, otherwise odds are biased\n            if (hPointX >= LAST_MULTIPLE_OF_PP_LOWER_THAN_2_256) {\n                continue;\n            }\n            // Do the modulus to avoid excesive iterations of the loop\n            hPointX = hPointX % PP;\n            uint256 hPointY = deriveY(2, hPointX);\n            // we do not use the subsidized one as it appears to consume more gas\n            if (isOnCurve([hPointX, hPointY])) {\n                // Step 5 (omitted): calculate H (cofactor is 1 on bn256g1)\n                // If H is not \"INVALID\" and cofactor > 1, set H = cofactor * H\n                return (hPointX, hPointY);\n            }\n        }\n        revert(\"no valid point was found\");\n    }\n\n    function hashToPointKeccak256(bytes memory data)\n        internal\n        view\n        returns (uint256[2] memory p)\n    {\n        return mapToPoint(keccak256(data));\n    }\n\n    function hashToPointSha256(bytes memory data)\n        internal\n        view\n        returns (uint256[2] memory p)\n    {\n        return mapToPoint(sha256(data));\n    }\n\n    function mapToPoint(bytes32 _x)\n        internal\n        view\n        returns (uint256[2] memory p)\n    {\n        uint256 x = uint256(_x) % PP;\n        uint256 y;\n        bool found = false;\n        while (true) {\n            y = mulmod(x, x, PP);\n            y = mulmod(y, x, PP);\n            y = addmod(y, 3, PP);\n            (y, found) = sqrt(y);\n            if (found) {\n                p[0] = x;\n                p[1] = y;\n                break;\n            }\n            x = addmod(x, 1, PP);\n        }\n    }\n\n    function sqrt(uint256 xx) internal view returns (uint256 x, bool hasRoot) {\n        bool callSuccess;\n        // solhint-disable-next-line no-inline-assembly\n        assembly {\n            let freemem := mload(0x40)\n            mstore(freemem, 0x20)\n            mstore(add(freemem, 0x20), 0x20)\n            mstore(add(freemem, 0x40), 0x20)\n            mstore(add(freemem, 0x60), xx)\n            // (N + 1) / 4 = 0xc19139cb84c680a6e14116da060561765e05aa45a1c72a34f082305b61f3f52\n            mstore(\n                add(freemem, 0x80),\n                0xc19139cb84c680a6e14116da060561765e05aa45a1c72a34f082305b61f3f52\n            )\n            // N = 0x30644e72e131a029b85045b68181585d97816a916871ca8d3c208c16d87cfd47\n            mstore(\n                add(freemem, 0xA0),\n                0x30644e72e131a029b85045b68181585d97816a916871ca8d3c208c16d87cfd47\n            )\n            callSuccess := staticcall(\n                sub(gas(), 2000),\n                5,\n                freemem,\n                0xC0,\n                freemem,\n                0x20\n            )\n            x := mload(freemem)\n            hasRoot := eq(xx, mulmod(x, x, PP))\n        }\n        require(callSuccess, \"sqrt modexp call failed\");\n    }\n\n    /// @dev Function to derive the `y` coordinate given the `x` coordinate and the parity byte (`0x03` for odd `y` and `0x04` for even `y`).\n    /// @param _yByte The parity byte following the ec point compressed format\n    /// @param _x The coordinate `x` of the point\n    /// @return The coordinate `y` of the point\n    function deriveY(uint8 _yByte, uint256 _x) internal pure returns (uint256) {\n        return EllipticCurve.deriveY(_yByte, _x, AA, BB, PP);\n    }\n}\n",
  "sourcePath": "/home/yuhang/Schnorr多重/Schnorr-multi-signature-oracle/ioporaclecontracts/contracts/crypto/BN256G1.sol",
  "compiler": {
    "name": "solc",
    "version": "0.8.13+commit.abaa5c0e.Emscripten.clang"
  },
  "schemaVersion": "3.4.14",
  "updatedAt": "2023-12-17T16:08:55.079Z",
  "devdoc": {
    "details": "Added hashToPoint function from https://github.com/ChihChengLiang/bls_solidity_python to https://github.com/witnet/bls-solidity",
    "kind": "dev",
    "methods": {},
    "title": "BN256G1 Curve Library",
    "version": 1
  },
  "userdoc": {
    "kind": "user",
    "methods": {},
    "version": 1
  }
}