{
  "contractName": "OracleContract",
  "abi": [
    {
      "inputs": [
        {
          "internalType": "address",
          "name": "registry",
          "type": "address"
        }
      ],
      "stateMutability": "nonpayable",
      "type": "constructor"
    },
    {
      "anonymous": false,
      "inputs": [
        {
          "indexed": false,
          "internalType": "enum OracleContract.ValidationType",
          "name": "typ",
          "type": "uint8"
        },
        {
          "indexed": true,
          "internalType": "address",
          "name": "from",
          "type": "address"
        },
        {
          "indexed": false,
          "internalType": "bytes32",
          "name": "hash",
          "type": "bytes32"
        },
        {
          "indexed": false,
          "internalType": "uint256",
          "name": "size",
          "type": "uint256"
        },
        {
          "indexed": false,
          "internalType": "uint256",
          "name": "minRank",
          "type": "uint256"
        }
      ],
      "name": "ValidationRequest",
      "type": "event"
    },
    {
      "inputs": [],
      "name": "AGGREGATE_FEE",
      "outputs": [
        {
          "internalType": "uint256",
          "name": "",
          "type": "uint256"
        }
      ],
      "stateMutability": "view",
      "type": "function",
      "constant": true
    },
    {
      "inputs": [],
      "name": "BASE_FEE",
      "outputs": [
        {
          "internalType": "uint256",
          "name": "",
          "type": "uint256"
        }
      ],
      "stateMutability": "view",
      "type": "function",
      "constant": true
    },
    {
      "inputs": [],
      "name": "PUBKEY_LENGTH",
      "outputs": [
        {
          "internalType": "uint256",
          "name": "",
          "type": "uint256"
        }
      ],
      "stateMutability": "view",
      "type": "function",
      "constant": true
    },
    {
      "inputs": [
        {
          "internalType": "uint256",
          "name": "size",
          "type": "uint256"
        }
      ],
      "name": "totalFee",
      "outputs": [
        {
          "internalType": "uint256",
          "name": "",
          "type": "uint256"
        }
      ],
      "stateMutability": "pure",
      "type": "function",
      "constant": true
    },
    {
      "inputs": [
        {
          "internalType": "bytes32",
          "name": "_message",
          "type": "bytes32"
        },
        {
          "internalType": "uint256",
          "name": "size",
          "type": "uint256"
        },
        {
          "internalType": "uint256",
          "name": "minRank",
          "type": "uint256"
        }
      ],
      "name": "validateBlock",
      "outputs": [],
      "stateMutability": "payable",
      "type": "function",
      "payable": true
    },
    {
      "inputs": [
        {
          "internalType": "bytes32",
          "name": "_message",
          "type": "bytes32"
        },
        {
          "internalType": "uint256",
          "name": "size",
          "type": "uint256"
        },
        {
          "internalType": "uint256",
          "name": "minRank",
          "type": "uint256"
        }
      ],
      "name": "validateTransaction",
      "outputs": [],
      "stateMutability": "payable",
      "type": "function",
      "payable": true
    },
    {
      "inputs": [
        {
          "internalType": "bool",
          "name": "_result",
          "type": "bool"
        },
        {
          "internalType": "bytes32",
          "name": "message",
          "type": "bytes32"
        },
        {
          "internalType": "uint256",
          "name": "signature",
          "type": "uint256"
        },
        {
          "internalType": "uint256",
          "name": "rx",
          "type": "uint256"
        },
        {
          "internalType": "uint256",
          "name": "ry",
          "type": "uint256"
        },
        {
          "internalType": "uint256",
          "name": "_hash",
          "type": "uint256"
        },
        {
          "internalType": "bytes",
          "name": "keyBytes",
          "type": "bytes"
        },
        {
          "internalType": "bytes",
          "name": "_sha256",
          "type": "bytes"
        },
        {
          "internalType": "uint256",
          "name": "sha256Int",
          "type": "uint256"
        },
        {
          "internalType": "address[]",
          "name": "validators",
          "type": "address[]"
        }
      ],
      "name": "submitBlockValidationResult",
      "outputs": [],
      "stateMutability": "nonpayable",
      "type": "function"
    },
    {
      "inputs": [
        {
          "internalType": "bool",
          "name": "_result",
          "type": "bool"
        },
        {
          "internalType": "bytes32",
          "name": "message",
          "type": "bytes32"
        },
        {
          "internalType": "uint256",
          "name": "signature",
          "type": "uint256"
        },
        {
          "internalType": "uint256",
          "name": "rx",
          "type": "uint256"
        },
        {
          "internalType": "uint256",
          "name": "ry",
          "type": "uint256"
        },
        {
          "internalType": "uint256",
          "name": "_hash",
          "type": "uint256"
        },
        {
          "internalType": "bytes",
          "name": "keyBytes",
          "type": "bytes"
        },
        {
          "internalType": "bytes",
          "name": "_sha256",
          "type": "bytes"
        },
        {
          "internalType": "uint256",
          "name": "sha256Int",
          "type": "uint256"
        },
        {
          "internalType": "address[]",
          "name": "validators",
          "type": "address[]"
        }
      ],
      "name": "submitTransactionValidationResult",
      "outputs": [],
      "stateMutability": "nonpayable",
      "type": "function"
    },
    {
      "inputs": [
        {
          "internalType": "bytes32",
          "name": "b",
          "type": "bytes32"
        }
      ],
      "name": "bytesToUint256",
      "outputs": [
        {
          "internalType": "uint256",
          "name": "",
          "type": "uint256"
        }
      ],
      "stateMutability": "pure",
      "type": "function",
      "constant": true
    },
    {
      "inputs": [
        {
          "internalType": "uint256",
          "name": "x",
          "type": "uint256"
        }
      ],
      "name": "toBytes",
      "outputs": [
        {
          "internalType": "bytes",
          "name": "b",
          "type": "bytes"
        }
      ],
      "stateMutability": "pure",
      "type": "function",
      "constant": true
    }
  ],
  "bytecode": "0x608060405260008060006101000a81548160ff0219169083151502179055503480156200002b57600080fd5b506040516200308c3803806200308c833981810160405281019062000051919062000103565b80600660006101000a81548173ffffffffffffffffffffffffffffffffffffffff021916908373ffffffffffffffffffffffffffffffffffffffff1602179055505062000135565b600080fd5b600073ffffffffffffffffffffffffffffffffffffffff82169050919050565b6000620000cb826200009e565b9050919050565b620000dd81620000be565b8114620000e957600080fd5b50565b600081519050620000fd81620000d2565b92915050565b6000602082840312156200011c576200011b62000099565b5b60006200012c84828501620000ec565b91505092915050565b612f4780620001456000396000f3fe6080604052600436106100915760003560e01c8063775a8f5e11610059578063775a8f5e1461016e578063a4d55d1d146101ab578063bbd1bca4146101d6578063ce9d294b146101ff578063cea74edf1461021b57610091565b806307b63d6b146100965780631471866c146100bf5780633d18651e146100ea5780633e170dd91461011557806353d62ff714610131575b600080fd5b3480156100a257600080fd5b506100bd60048036038101906100b89190611ee9565b610258565b005b3480156100cb57600080fd5b506100d46102df565b6040516100e1919061202b565b60405180910390f35b3480156100f657600080fd5b506100ff6102eb565b60405161010c919061202b565b60405180910390f35b61012f600480360381019061012a9190612046565b6102f7565b005b34801561013d57600080fd5b5061015860048036038101906101539190612099565b610424565b604051610165919061202b565b60405180910390f35b34801561017a57600080fd5b50610195600480360381019061019091906120c6565b6104bb565b6040516101a2919061217b565b60405180910390f35b3480156101b757600080fd5b506101c0610518565b6040516101cd919061202b565b60405180910390f35b3480156101e257600080fd5b506101fd60048036038101906101f89190611ee9565b61051d565b005b61021960048036038101906102149190612046565b6105a4565b005b34801561022757600080fd5b50610242600480360381019061023d91906120c6565b6106d1565b60405161024f919061202b565b60405180910390f35b60008054906101000a900460ff166102a5576040517f08c379a000000000000000000000000000000000000000000000000000000000815260040161029c906121fa565b60405180910390fd5b6102b960018b8b8b8b8b8b8b8b8b8b610701565b60008060006101000a81548160ff02191690831515021790555050505050505050505050565b6706f05b59d3b2000081565b67016345785d8a000081565b816706f05b59d3b200008167016345785d8a00006103159190612249565b61031f91906122a3565b341015610361576040517f08c379a000000000000000000000000000000000000000000000000000000000815260040161035890612345565b60405180910390fd5b60008054906101000a900460ff16156103af576040517f08c379a00000000000000000000000000000000000000000000000000000000081526004016103a6906123b1565b60405180910390fd5b60016000806101000a81548160ff0219169083151502179055503373ffffffffffffffffffffffffffffffffffffffff167fa2a630edc48d1fc0a90b61e08bbc34ce73957ce9d59455207cd0591006bd4d4b60028686866040516104169493929190612457565b60405180910390a250505050565b60008060005b602060ff168110156104b15760018161044391906122a3565b602060ff16610452919061249c565b600861045e9190612249565b600261046a9190612603565b84826020811061047d5761047c61264e565b5b1a60f81b60f81c60ff166104919190612249565b8261049c91906122a3565b915080806104a99061267d565b91505061042a565b5080915050919050565b6060602067ffffffffffffffff8111156104d8576104d7611c98565b5b6040519080825280601f01601f19166020018201604052801561050a5781602001600182028036833780820191505090505b509050816020820152919050565b602181565b60008054906101000a900460ff1661056a576040517f08c379a0000000000000000000000000000000000000000000000000000000008152600401610561906121fa565b60405180910390fd5b61057e60028b8b8b8b8b8b8b8b8b8b610701565b60008060006101000a81548160ff02191690831515021790555050505050505050505050565b816706f05b59d3b200008167016345785d8a00006105c29190612249565b6105cc91906122a3565b34101561060e576040517f08c379a000000000000000000000000000000000000000000000000000000000815260040161060590612345565b60405180910390fd5b60008054906101000a900460ff161561065c576040517f08c379a0000000000000000000000000000000000000000000000000000000008152600401610653906123b1565b60405180910390fd5b60016000806101000a81548160ff0219169083151502179055503373ffffffffffffffffffffffffffffffffffffffff167fa2a630edc48d1fc0a90b61e08bbc34ce73957ce9d59455207cd0591006bd4d4b60018686866040516106c39493929190612457565b60405180910390a250505050565b60006706f05b59d3b2000067016345785d8a0000836106f09190612249565b6106fa91906122a3565b9050919050565b60006002811115610715576107146123d1565b5b8b6002811115610728576107276123d1565b5b03610768576040517f08c379a000000000000000000000000000000000000000000000000000000000815260040161075f90612711565b60405180910390fd5b3373ffffffffffffffffffffffffffffffffffffffff16600660009054906101000a900473ffffffffffffffffffffffffffffffffffffffff1673ffffffffffffffffffffffffffffffffffffffff16633ad59dbc6040518163ffffffff1660e01b8152600401602060405180830381865afa1580156107ec573d6000803e3d6000fd5b505050506040513d601f19601f820116820180604052508101906108109190612746565b73ffffffffffffffffffffffffffffffffffffffff1614610866576040517f08c379a000000000000000000000000000000000000000000000000000000000815260040161085d906127bf565b60405180910390fd5b60005b81518163ffffffff161015610acc576000600660009054906101000a900473ffffffffffffffffffffffffffffffffffffffff1673ffffffffffffffffffffffffffffffffffffffff1663bc66e9cb848463ffffffff16815181106108d1576108d061264e565b5b60200260200101516040518263ffffffff1660e01b81526004016108f591906127ee565b602060405180830381865afa158015610912573d6000803e3d6000fd5b505050506040513d601f19601f82011682018060405250810190610936919061281e565b905060015481101561097d576040517f08c379a000000000000000000000000000000000000000000000000000000000815260040161097490612897565b60405180910390fd5b6000600660009054906101000a900473ffffffffffffffffffffffffffffffffffffffff1673ffffffffffffffffffffffffffffffffffffffff1663fb9fb18a858563ffffffff16815181106109d6576109d561264e565b5b60200260200101516040518263ffffffff1660e01b81526004016109fa91906127ee565b600060405180830381865afa158015610a17573d6000803e3d6000fd5b505050506040513d6000823e3d601f19601f82011682018060405250810190610a409190612a2b565b905060005b8151811015610ab6576005828281518110610a6357610a6261264e565b5b60200260200101519080600181540180825580915050600190039060005260206000209060020201600090919091909150906002610aa2929190611b2c565b508080610aae9061267d565b915050610a45565b5050508080610ac490612a84565b915050610869565b506001546005805490501015610b17576040517f08c379a0000000000000000000000000000000000000000000000000000000008152600401610b0e90612afc565b60405180910390fd5b600060406001600580549050610b2d91906122a3565b610b379190612249565b67ffffffffffffffff811115610b5057610b4f611c98565b5b6040519080825280601f01601f191660200182016040528015610b825781602001600182028036833780820191505090505b50905060006040905060005b6005805490508163ffffffff161015610f095760005b60028163ffffffff161015610ef5576000610bff60058463ffffffff1681548110610bd257610bd161264e565b5b90600052602060002090600202018363ffffffff1660028110610bf857610bf761264e565b5b01546104bb565b905060005b81518163ffffffff161015610c9a57818163ffffffff1681518110610c2c57610c2b61264e565b5b602001015160f81c60f81b868681518110610c4a57610c4961264e565b5b60200101907effffffffffffffffffffffffffffffffffffffffffffffffffffffffffffff1916908160001a9053508480610c849061267d565b9550508080610c9290612a84565b915050610c04565b5088600081518110610caf57610cae61264e565b5b602001015160f81c60f81b7effffffffffffffffffffffffffffffffffffffffffffffffffffffffffffff191681600081518110610cf057610cef61264e565b5b602001015160f81c60f81b7effffffffffffffffffffffffffffffffffffffffffffffffffffffffffffff191614610d5d576040517f08c379a0000000000000000000000000000000000000000000000000000000008152600401610d5490612b68565b60405180910390fd5b88600181518110610d7157610d7061264e565b5b602001015160f81c60f81b7effffffffffffffffffffffffffffffffffffffffffffffffffffffffffffff191681600181518110610db257610db161264e565b5b602001015160f81c60f81b7effffffffffffffffffffffffffffffffffffffffffffffffffffffffffffff191614610e1f576040517f08c379a0000000000000000000000000000000000000000000000000000000008152600401610e1690612bd4565b60405180910390fd5b88600281518110610e3357610e3261264e565b5b602001015160f81c60f81b7effffffffffffffffffffffffffffffffffffffffffffffffffffffffffffff191681600281518110610e7457610e7361264e565b5b602001015160f81c60f81b7effffffffffffffffffffffffffffffffffffffffffffffffffffffffffffff191614610ee1576040517f08c379a0000000000000000000000000000000000000000000000000000000008152600401610ed890612c40565b60405180910390fd5b508080610eed90612a84565b915050610ba4565b508080610f0190612a84565b915050610b8e565b5060008060005b6005805490508163ffffffff1610156114fb57600060058263ffffffff1681548110610f3f57610f3e61264e565b5b9060005260206000209060020201600060028110610f6057610f5f61264e565b5b01549050600060058363ffffffff1681548110610f8057610f7f61264e565b5b9060005260206000209060020201600160028110610fa157610fa061264e565b5b0154905060005b6020811015611032576000610fbc846104bb565b9050808281518110610fd157610fd061264e565b5b602001015160f81c60f81b898381518110610fef57610fee61264e565b5b60200101907effffffffffffffffffffffffffffffffffffffffffffffffffffffffffffff1916908160001a90535050808061102a9061267d565b915050610fa8565b5060005b60208110156110cc57600061104a836104bb565b905080828151811061105f5761105e61264e565b5b602001015160f81c60f81b8960208461107891906122a3565b815181106110895761108861264e565b5b60200101907effffffffffffffffffffffffffffffffffffffffffffffffffffffffffffff1916908160001a9053505080806110c49061267d565b915050611036565b50896000815181106110e1576110e061264e565b5b602001015160f81c60f81b7effffffffffffffffffffffffffffffffffffffffffffffffffffffffffffff191660028860405161111e9190612c9c565b602060405180830381855afa15801561113b573d6000803e3d6000fd5b5050506040513d601f19601f8201168201806040525081019061115e9190612cc8565b6000602081106111715761117061264e565b5b1a60f81b7effffffffffffffffffffffffffffffffffffffffffffffffffffffffffffff1916146111d7576040517f08c379a00000000000000000000000000000000000000000000000000000000081526004016111ce90612d41565b60405180910390fd5b896001815181106111eb576111ea61264e565b5b602001015160f81c60f81b7effffffffffffffffffffffffffffffffffffffffffffffffffffffffffffff19166002886040516112289190612c9c565b602060405180830381855afa158015611245573d6000803e3d6000fd5b5050506040513d601f19601f820116820180604052508101906112689190612cc8565b60016020811061127b5761127a61264e565b5b1a60f81b7effffffffffffffffffffffffffffffffffffffffffffffffffffffffffffff1916146112e1576040517f08c379a00000000000000000000000000000000000000000000000000000000081526004016112d890612d41565b60405180910390fd5b896002815181106112f5576112f461264e565b5b602001015160f81c60f81b7effffffffffffffffffffffffffffffffffffffffffffffffffffffffffffff19166002886040516113329190612c9c565b602060405180830381855afa15801561134f573d6000803e3d6000fd5b5050506040513d601f19601f820116820180604052508101906113729190612cc8565b6002602081106113855761138461264e565b5b1a60f81b7effffffffffffffffffffffffffffffffffffffffffffffffffffffffffffff1916146113eb576040517f08c379a00000000000000000000000000000000000000000000000000000000081526004016113e290612d41565b60405180910390fd5b60006114456002896040516114009190612c9c565b602060405180830381855afa15801561141d573d6000803e3d6000fd5b5050506040513d601f19601f820116820180604052508101906114409190612cc8565b610424565b9050808a14611489576040517f08c379a000000000000000000000000000000000000000000000000000000000815260040161148090612dad565b60405180910390fd5b6114ac6040518060600160405280858152602001848152602001838152506118fa565b80935081945050506114dd604051806080016040528085815260200184815260200188815260200187815250611994565b809650819750505050505080806114f390612a84565b915050610f10565b5061150a8c83838e8e8e611a2e565b611549576040517f08c379a000000000000000000000000000000000000000000000000000000000815260040161154090612e19565b60405180910390fd5b6001600281111561155d5761155c6123d1565b5b8f60028111156115705761156f6123d1565b5b036115a5578d600360008f815260200190815260200160002060006101000a81548160ff0219169083151502179055506115fd565b6002808111156115b8576115b76123d1565b5b8f60028111156115cb576115ca6123d1565b5b036115fc578d600460008f815260200190815260200160002060006101000a81548160ff0219169083151502179055505b5b3373ffffffffffffffffffffffffffffffffffffffff166108fc6706f05b59d3b200009081150290604051600060405180830381858888f1935050505015801561164b573d6000803e3d6000fd5b5060005b85518163ffffffff1610156118e857600660009054906101000a900473ffffffffffffffffffffffffffffffffffffffff1673ffffffffffffffffffffffffffffffffffffffff1663bc66e9cb878363ffffffff16815181106116b5576116b461264e565b5b60200260200101516040518263ffffffff1660e01b81526004016116d991906127ee565b602060405180830381865afa1580156116f6573d6000803e3d6000fd5b505050506040513d601f19601f8201168201806040525081019061171a919061281e565b67016345785d8a000061172d9190612249565b471061186d57858163ffffffff168151811061174c5761174b61264e565b5b602002602001015173ffffffffffffffffffffffffffffffffffffffff166108fc600660009054906101000a900473ffffffffffffffffffffffffffffffffffffffff1673ffffffffffffffffffffffffffffffffffffffff1663bc66e9cb898563ffffffff16815181106117c4576117c361264e565b5b60200260200101516040518263ffffffff1660e01b81526004016117e891906127ee565b602060405180830381865afa158015611805573d6000803e3d6000fd5b505050506040513d601f19601f82011682018060405250810190611829919061281e565b67016345785d8a000061183c9190612249565b9081150290604051600060405180830381858888f19350505050158015611867573d6000803e3d6000fd5b506118d5565b858163ffffffff16815181106118865761188561264e565b5b602002602001015173ffffffffffffffffffffffffffffffffffffffff166108fc479081150290604051600060405180830381858888f193505050501580156118d3573d6000803e3d6000fd5b505b80806118e090612a84565b91505061164f565b50505050505050505050505050505050565b6000806000611907611b6c565b60408160608760006007600019f1915081611957576040517f08c379a000000000000000000000000000000000000000000000000000000000815260040161194e90612e85565b60405180910390fd5b8060006002811061196b5761196a61264e565b5b6020020151816001600281106119845761198361264e565b5b6020020151935093505050915091565b60008060006119a1611b6c565b60408160808760006006600019f19150816119f1576040517f08c379a00000000000000000000000000000000000000000000000000000000081526004016119e890612ef1565b60405180910390fd5b80600060028110611a0557611a0461264e565b5b602002015181600160028110611a1e57611a1d61264e565b5b6020020151935093505050915091565b60008060405180606001604052806001815260200160028152602001898152509050611a58611b8e565b611a61826118fa565b826000018360200182815250828152505050600060405180606001604052808a8152602001898152602001868152509050611a9a611b8e565b611aa3826118fa565b826000018360200182815250828152505050600060405180608001604052808a81526020018981526020018360000151815260200183602001518152509050611aeb81611994565b83600001846020018281525082815250505081600001518460000151148015611b1b575081602001518460200151145b955050505050509695505050505050565b8260028101928215611b5b579160200282015b82811115611b5a578251825591602001919060010190611b3f565b5b509050611b689190611ba8565b5090565b6040518060400160405280600290602082028036833780820191505090505090565b604051806040016040528060008152602001600081525090565b5b80821115611bc1576000816000905550600101611ba9565b5090565b6000604051905090565b600080fd5b600080fd5b60008115159050919050565b611bee81611bd9565b8114611bf957600080fd5b50565b600081359050611c0b81611be5565b92915050565b6000819050919050565b611c2481611c11565b8114611c2f57600080fd5b50565b600081359050611c4181611c1b565b92915050565b6000819050919050565b611c5a81611c47565b8114611c6557600080fd5b50565b600081359050611c7781611c51565b92915050565b600080fd5b600080fd5b6000601f19601f8301169050919050565b7f4e487b7100000000000000000000000000000000000000000000000000000000600052604160045260246000fd5b611cd082611c87565b810181811067ffffffffffffffff82111715611cef57611cee611c98565b5b80604052505050565b6000611d02611bc5565b9050611d0e8282611cc7565b919050565b600067ffffffffffffffff821115611d2e57611d2d611c98565b5b611d3782611c87565b9050602081019050919050565b82818337600083830152505050565b6000611d66611d6184611d13565b611cf8565b905082815260208101848484011115611d8257611d81611c82565b5b611d8d848285611d44565b509392505050565b600082601f830112611daa57611da9611c7d565b5b8135611dba848260208601611d53565b91505092915050565b600067ffffffffffffffff821115611dde57611ddd611c98565b5b602082029050602081019050919050565b600080fd5b600073ffffffffffffffffffffffffffffffffffffffff82169050919050565b6000611e1f82611df4565b9050919050565b611e2f81611e14565b8114611e3a57600080fd5b50565b600081359050611e4c81611e26565b92915050565b6000611e65611e6084611dc3565b611cf8565b90508083825260208201905060208402830185811115611e8857611e87611def565b5b835b81811015611eb15780611e9d8882611e3d565b845260208401935050602081019050611e8a565b5050509392505050565b600082601f830112611ed057611ecf611c7d565b5b8135611ee0848260208601611e52565b91505092915050565b6000806000806000806000806000806101408b8d031215611f0d57611f0c611bcf565b5b6000611f1b8d828e01611bfc565b9a50506020611f2c8d828e01611c32565b9950506040611f3d8d828e01611c68565b9850506060611f4e8d828e01611c68565b9750506080611f5f8d828e01611c68565b96505060a0611f708d828e01611c68565b95505060c08b013567ffffffffffffffff811115611f9157611f90611bd4565b5b611f9d8d828e01611d95565b94505060e08b013567ffffffffffffffff811115611fbe57611fbd611bd4565b5b611fca8d828e01611d95565b935050610100611fdc8d828e01611c68565b9250506101208b013567ffffffffffffffff811115611ffe57611ffd611bd4565b5b61200a8d828e01611ebb565b9150509295989b9194979a5092959850565b61202581611c47565b82525050565b6000602082019050612040600083018461201c565b92915050565b60008060006060848603121561205f5761205e611bcf565b5b600061206d86828701611c32565b935050602061207e86828701611c68565b925050604061208f86828701611c68565b9150509250925092565b6000602082840312156120af576120ae611bcf565b5b60006120bd84828501611c32565b91505092915050565b6000602082840312156120dc576120db611bcf565b5b60006120ea84828501611c68565b91505092915050565b600081519050919050565b600082825260208201905092915050565b60005b8381101561212d578082015181840152602081019050612112565b8381111561213c576000848401525b50505050565b600061214d826120f3565b61215781856120fe565b935061216781856020860161210f565b61217081611c87565b840191505092915050565b600060208201905081810360008301526121958184612142565b905092915050565b600082825260208201905092915050565b7f4e6f742076616c69646174652074696d65210000000000000000000000000000600082015250565b60006121e460128361219d565b91506121ef826121ae565b602082019050919050565b60006020820190508181036000830152612213816121d7565b9050919050565b7f4e487b7100000000000000000000000000000000000000000000000000000000600052601160045260246000fd5b600061225482611c47565b915061225f83611c47565b9250817fffffffffffffffffffffffffffffffffffffffffffffffffffffffffffffffff04831182151516156122985761229761221a565b5b828202905092915050565b60006122ae82611c47565b91506122b983611c47565b9250827fffffffffffffffffffffffffffffffffffffffffffffffffffffffffffffffff038211156122ee576122ed61221a565b5b828201905092915050565b7f746f6f206665772066656520616d6f756e740000000000000000000000000000600082015250565b600061232f60128361219d565b915061233a826122f9565b602082019050919050565b6000602082019050818103600083015261235e81612322565b9050919050565b7f416e6f746865722076616c696461746520697320696e2070726f677265737321600082015250565b600061239b60208361219d565b91506123a682612365565b602082019050919050565b600060208201905081810360008301526123ca8161238e565b9050919050565b7f4e487b7100000000000000000000000000000000000000000000000000000000600052602160045260246000fd5b60038110612411576124106123d1565b5b50565b600081905061242282612400565b919050565b600061243282612414565b9050919050565b61244281612427565b82525050565b61245181611c11565b82525050565b600060808201905061246c6000830187612439565b6124796020830186612448565b612486604083018561201c565b612493606083018461201c565b95945050505050565b60006124a782611c47565b91506124b283611c47565b9250828210156124c5576124c461221a565b5b828203905092915050565b60008160011c9050919050565b6000808291508390505b6001851115612527578086048111156125035761250261221a565b5b60018516156125125780820291505b8081029050612520856124d0565b94506124e7565b94509492505050565b60008261254057600190506125fc565b8161254e57600090506125fc565b8160018114612564576002811461256e5761259d565b60019150506125fc565b60ff8411156125805761257f61221a565b5b8360020a9150848211156125975761259661221a565b5b506125fc565b5060208310610133831016604e8410600b84101617156125d25782820a9050838111156125cd576125cc61221a565b5b6125fc565b6125df84848460016124dd565b925090508184048111156125f6576125f561221a565b5b81810290505b9392505050565b600061260e82611c47565b915061261983611c47565b92506126467fffffffffffffffffffffffffffffffffffffffffffffffffffffffffffffffff8484612530565b905092915050565b7f4e487b7100000000000000000000000000000000000000000000000000000000600052603260045260246000fd5b600061268882611c47565b91507fffffffffffffffffffffffffffffffffffffffffffffffffffffffffffffffff82036126ba576126b961221a565b5b600182019050919050565b7f756e6b6e6f776e2076616c69646174696f6e2074797065000000000000000000600082015250565b60006126fb60178361219d565b9150612706826126c5565b602082019050919050565b6000602082019050818103600083015261272a816126ee565b9050919050565b60008151905061274081611e26565b92915050565b60006020828403121561275c5761275b611bcf565b5b600061276a84828501612731565b91505092915050565b7f6e6f74207468652061676772656761746f720000000000000000000000000000600082015250565b60006127a960128361219d565b91506127b482612773565b602082019050919050565b600060208201905081810360008301526127d88161279c565b9050919050565b6127e881611e14565b82525050565b600060208201905061280360008301846127df565b92915050565b60008151905061281881611c51565b92915050565b60006020828403121561283457612833611bcf565b5b600061284284828501612809565b91505092915050565b7f6c6f772073696e67616c2072616e6b0000000000000000000000000000000000600082015250565b6000612881600f8361219d565b915061288c8261284b565b602082019050919050565b600060208201905081810360008301526128b081612874565b9050919050565b600067ffffffffffffffff8211156128d2576128d1611c98565b5b602082029050602081019050919050565b600067ffffffffffffffff8211156128fe576128fd611c98565b5b602082029050919050565b600061291c612917846128e3565b611cf8565b9050806020840283018581111561293657612935611def565b5b835b8181101561295f578061294b8882612809565b845260208401935050602081019050612938565b5050509392505050565b600082601f83011261297e5761297d611c7d565b5b600261298b848285612909565b91505092915050565b60006129a76129a2846128b7565b611cf8565b905080838252602082019050604084028301858111156129ca576129c9611def565b5b835b818110156129f357806129df8882612969565b8452602084019350506040810190506129cc565b5050509392505050565b600082601f830112612a1257612a11611c7d565b5b8151612a22848260208601612994565b91505092915050565b600060208284031215612a4157612a40611bcf565b5b600082015167ffffffffffffffff811115612a5f57612a5e611bd4565b5b612a6b848285016129fd565b91505092915050565b600063ffffffff82169050919050565b6000612a8f82612a74565b915063ffffffff8203612aa557612aa461221a565b5b600182019050919050565b7f6c6f7720746f74616c2072616e6b000000000000000000000000000000000000600082015250565b6000612ae6600e8361219d565b9150612af182612ab0565b602082019050919050565b60006020820190508181036000830152612b1581612ad9565b9050919050565b7f6279746573206e6f7420657175616c2020300000000000000000000000000000600082015250565b6000612b5260128361219d565b9150612b5d82612b1c565b602082019050919050565b60006020820190508181036000830152612b8181612b45565b9050919050565b7f6279746573206e6f7420657175616c2020310000000000000000000000000000600082015250565b6000612bbe60128361219d565b9150612bc982612b88565b602082019050919050565b60006020820190508181036000830152612bed81612bb1565b9050919050565b7f6279746573206e6f7420657175616c2020320000000000000000000000000000600082015250565b6000612c2a60128361219d565b9150612c3582612bf4565b602082019050919050565b60006020820190508181036000830152612c5981612c1d565b9050919050565b600081905092915050565b6000612c76826120f3565b612c808185612c60565b9350612c9081856020860161210f565b80840191505092915050565b6000612ca88284612c6b565b915081905092915050565b600081519050612cc281611c1b565b92915050565b600060208284031215612cde57612cdd611bcf565b5b6000612cec84828501612cb3565b91505092915050565b7f68617368206e6f7420657175616c000000000000000000000000000000000000600082015250565b6000612d2b600e8361219d565b9150612d3682612cf5565b602082019050919050565b60006020820190508181036000830152612d5a81612d1e565b9050919050565b7f73686132353620746f20696e74206572726f7200000000000000000000000000600082015250565b6000612d9760138361219d565b9150612da282612d61565b602082019050919050565b60006020820190508181036000830152612dc681612d8a565b9050919050565b7f7369673a206164647265737320646f65736e2774206d61746368000000000000600082015250565b6000612e03601a8361219d565b9150612e0e82612dcd565b602082019050919050565b60006020820190508181036000830152612e3281612df6565b9050919050565b7f6563206d756c206661696c656400000000000000000000000000000000000000600082015250565b6000612e6f600d8361219d565b9150612e7a82612e39565b602082019050919050565b60006020820190508181036000830152612e9e81612e62565b9050919050565b7f626e323536206164646974696f6e206661696c65640000000000000000000000600082015250565b6000612edb60158361219d565b9150612ee682612ea5565b602082019050919050565b60006020820190508181036000830152612f0a81612ece565b905091905056fea2646970667358221220541c6a706bd6df6688505a2eeb85f040863aa9e457a48bd926de966d584428ba64736f6c634300080d0033",
  "immutableReferences": {},
  "source": "// SPDX-License-Identifier: MIT\npragma solidity  >0.8.0;\n\nimport \"./RegistryContract.sol\";\nimport \"./crypto/Schnorr.sol\";\nimport \"./crypto/BN256G1.sol\";\n\ncontract OracleContract {\n\n    // \n    bool private isValidateTime = false;\n\n    // \n    uint256 public constant BASE_FEE = 0.1 ether;\n    uint256 public constant AGGREGATE_FEE = 0.5 ether;\n\n    uint256 private currentRank;\n    uint256 private currentSize;\n    uint256 public constant PUBKEY_LENGTH = 33;\n\n    // \n    mapping(bytes32 => bool) private blockValidationResults;\n    mapping(bytes32 => bool) private txValidationResults;\n\n    // ;\n    enum ValidationType { UNKNOWN, BLOCK, TRANSACTION }\n\n    // indexed\n    event ValidationRequest(ValidationType typ, address indexed from, bytes32 hash, uint256 size, uint256 minRank);\n\n    uint256[2][] allPubKeys;\n\n    RegistryContract private registryContract;\n    constructor(address registry) {\n        registryContract = RegistryContract(registry);\n    }\n\n    modifier minFee(uint size) {\n        require(msg.value >= BASE_FEE * size + AGGREGATE_FEE, \"too few fee amount\");\n        _;\n    }\n\n    function totalFee(uint256 size) public pure returns (uint256){\n        return size * BASE_FEE + AGGREGATE_FEE;\n    }\n\n    function validateBlock(bytes32 _message, uint256 size, uint256 minRank) external payable minFee(size) {\n        require(!isValidateTime, \"Another validate is in progress!\");\n        isValidateTime = true;\n        emit ValidationRequest(ValidationType.BLOCK, msg.sender, _message, size, minRank);\n    }\n\n    function validateTransaction(bytes32 _message, uint256 size, uint256 minRank) external payable minFee(size) {\n        require(!isValidateTime, \"Another validate is in progress!\");\n        isValidateTime = true;\n        emit ValidationRequest(ValidationType.TRANSACTION, msg.sender, _message, size, minRank);\n    }\n\n\n//-----------------------------------------------------------------------------------------------------------------------------------------------\n\n\n    function submitBlockValidationResult(bool _result, bytes32 message, uint256 signature, uint256 rx , uint256 ry, uint256 _hash, bytes memory keyBytes, bytes memory _sha256, uint256 sha256Int, address[] memory validators) external {\n        require(isValidateTime, \"Not validate time!\");\n        submitValidationResult(ValidationType.BLOCK, _result, message, signature, rx, ry, _hash, keyBytes, _sha256, sha256Int, validators);\n        isValidateTime = false;\n    }\n\n    function submitTransactionValidationResult(bool _result, bytes32 message, uint256 signature, uint256 rx , uint256 ry, uint256 _hash, bytes memory keyBytes, bytes memory _sha256, uint256 sha256Int, address[] memory validators) external {\n        require(isValidateTime, \"Not validate time!\");\n        submitValidationResult(ValidationType.TRANSACTION, _result, message, signature, rx, ry, _hash, keyBytes, _sha256, sha256Int, validators);\n        isValidateTime = false;\n    }\n\n    function submitValidationResult(\n        ValidationType _typ,\n        bool _result,\n        bytes32 message,\n        uint256 signature, uint256 rx , uint256 ry, uint256 _hash, bytes memory keyBytes, bytes memory _sha256, uint256 sha256Int,\n        address[] memory validators\n    ) private {\n\n        require(_typ != ValidationType.UNKNOWN, \"unknown validation type\");\n        require(registryContract.getAggregator() == msg.sender, \"not the aggregator\");  //\n        \n        \n        for(uint32 i = 0 ; i < validators.length ; i++){\n            // \n            uint256 rank = registryContract.getNodeRank(validators[i]);\n            require(rank >= currentRank, \"low singal rank\");\n            uint256[2][] memory pubKeys = registryContract.getNodePublicKeys(validators[i]);\n            for(uint j = 0; j < pubKeys.length; j++){\n                allPubKeys.push(pubKeys[j]);        \n            }\n            \n        }\n        require(allPubKeys.length >= currentRank, \"low total rank\");\n        \n        // TODO:\n        bytes memory S = new bytes((allPubKeys.length + 1) * 64);\n        uint256 index = 64;\n        for(uint32 i = 0 ; i < allPubKeys.length ; i++){\n            for(uint32 j = 0; j < 2; j++){\n                bytes memory temp = toBytes(allPubKeys[i][j]);\n                for(uint32 k = 0; k < temp.length; k++){\n                    \n                    S[index] = temp[k];\n                    index++;\n                }\n                require(temp[0] == keyBytes[0], \"bytes not equal  0\");\n                require(temp[1] == keyBytes[1], \"bytes not equal  1\");\n                require(temp[2] == keyBytes[2], \"bytes not equal  2\");\n            }\n        }\n\n        uint256 pubKeyX = 0;\n        uint256 pubKeyY = 0;\n\n        for(uint32 i = 0 ; i < allPubKeys.length ; i++){\n            uint256 tempX = allPubKeys[i][0];\n            uint256 tempY = allPubKeys[i][1];\n            for(uint k = 0; k < 32; k++){\n                bytes memory temp = toBytes(tempX);\n                S[k] = temp[k];\n            }\n            for(uint k = 0; k < 32; k++){\n                bytes memory temp = toBytes(tempY);\n                S[k + 32] = temp[k];\n            }\n            require(sha256(S)[0] == _sha256[0], \"hash not equal\");\n            require(sha256(S)[1] == _sha256[1], \"hash not equal\");\n            require(sha256(S)[2] == _sha256[2], \"hash not equal\");\n            uint256 res = bytesToUint256(sha256(S));\n            require(sha256Int == res, \"sha256 to int error\");\n            (tempX, tempY) = BN256G1.mulPoint([tempX, tempY, res]);\n            (pubKeyX, pubKeyY) = BN256G1.addPoint([tempX, tempY, pubKeyX, pubKeyY]);\n        }\n        // require(Schnorr.verify(signature, pubKeyX1, pubKeyY1, rx, ry, _hash), \"sig verify fail\");\n\n        // require(pubKeyX == pubKeyX1, \"pubKey recover fail\");\n        /*Schnorr*/\n        require(Schnorr.verify(signature, pubKeyX, pubKeyY, rx, ry, _hash), \"sig: address doesn't match\");\n\n        if (_typ == ValidationType.BLOCK) {\n            blockValidationResults[message] = _result;\n        } else if (_typ == ValidationType.TRANSACTION) {\n            txValidationResults[message] = _result;\n        }\n\n        //  \n        payable(msg.sender).transfer(AGGREGATE_FEE);     //\n        // \n\n        for(uint32 i = 0 ; i < validators.length ; i++){\n            if(address(this).balance >= BASE_FEE * registryContract.getNodeRank(validators[i])){\n                payable(validators[i]).transfer(BASE_FEE * registryContract.getNodeRank(validators[i])); \n            } else{\n                payable(validators[i]).transfer(address(this).balance); \n            }\n        }\n    }\n\n    function bytesToUint256(bytes32 b) public pure returns (uint256){\n        uint256 number;\n        for(uint i= 0; i < b.length; i++){\n            number = number + uint8(b[i])*(2**(8*(b.length-(i+1))));\n        }\n        return  number;\n    }\n\n    function toBytes(uint256 x) public pure returns (bytes memory b) {\n        b = new bytes(32);\n        assembly { mstore(add(b, 32), x) }\n    }\n}\n",
  "sourcePath": "/home/w1tness/Code/Crypto/Schnorr-multi-signature-oracle/ioporaclecontracts/contracts/OracleContract.sol",
  "compiler": {
    "name": "solc",
    "version": "0.8.13+commit.abaa5c0e.Emscripten.clang"
  },
  "schemaVersion": "3.4.16",
  "updatedAt": "2023-12-17T14:45:31.623Z",
  "networkType": "ethereum",
  "devdoc": {
    "kind": "dev",
    "methods": {},
    "version": 1
  },
  "userdoc": {
    "kind": "user",
    "methods": {},
    "version": 1
  }
}