{
  "contractName": "OracleContract",
  "abi": [
    {
      "inputs": [
        {
          "internalType": "address",
          "name": "registry",
          "type": "address"
        }
      ],
      "stateMutability": "nonpayable",
      "type": "constructor"
    },
    {
      "anonymous": false,
      "inputs": [
        {
          "indexed": false,
          "internalType": "enum OracleContract.ValidationType",
          "name": "typ",
          "type": "uint8"
        },
        {
          "indexed": true,
          "internalType": "address",
          "name": "from",
          "type": "address"
        },
        {
          "indexed": false,
          "internalType": "bytes32",
          "name": "hash",
          "type": "bytes32"
        },
        {
          "indexed": false,
          "internalType": "uint256",
          "name": "size",
          "type": "uint256"
        },
        {
          "indexed": false,
          "internalType": "uint256",
          "name": "minRank",
          "type": "uint256"
        }
      ],
      "name": "ValidationRequest",
      "type": "event"
    },
    {
      "inputs": [],
      "name": "AGGREGATE_FEE",
      "outputs": [
        {
          "internalType": "uint256",
          "name": "",
          "type": "uint256"
        }
      ],
      "stateMutability": "view",
      "type": "function",
      "constant": true
    },
    {
      "inputs": [],
      "name": "BASE_FEE",
      "outputs": [
        {
          "internalType": "uint256",
          "name": "",
          "type": "uint256"
        }
      ],
      "stateMutability": "view",
      "type": "function",
      "constant": true
    },
    {
      "inputs": [],
      "name": "PUBKEY_LENGTH",
      "outputs": [
        {
          "internalType": "uint256",
          "name": "",
          "type": "uint256"
        }
      ],
      "stateMutability": "view",
      "type": "function",
      "constant": true
    },
    {
      "inputs": [
        {
          "internalType": "bytes32",
          "name": "_message",
          "type": "bytes32"
        },
        {
          "internalType": "uint256",
          "name": "size",
          "type": "uint256"
        },
        {
          "internalType": "uint256",
          "name": "minRank",
          "type": "uint256"
        }
      ],
      "name": "validateBlock",
      "outputs": [],
      "stateMutability": "payable",
      "type": "function",
      "payable": true
    },
    {
      "inputs": [
        {
          "internalType": "bytes32",
          "name": "_message",
          "type": "bytes32"
        },
        {
          "internalType": "uint256",
          "name": "size",
          "type": "uint256"
        },
        {
          "internalType": "uint256",
          "name": "minRank",
          "type": "uint256"
        }
      ],
      "name": "validateTransaction",
      "outputs": [],
      "stateMutability": "payable",
      "type": "function",
      "payable": true
    },
    {
      "inputs": [
        {
          "internalType": "bool",
          "name": "_result",
          "type": "bool"
        },
        {
          "internalType": "bytes32",
          "name": "message",
          "type": "bytes32"
        },
        {
          "internalType": "uint256",
          "name": "signature",
          "type": "uint256"
        },
        {
          "internalType": "uint256",
          "name": "rx",
          "type": "uint256"
        },
        {
          "internalType": "uint256",
          "name": "ry",
          "type": "uint256"
        },
        {
          "internalType": "uint256",
          "name": "_hash",
          "type": "uint256"
        },
        {
          "internalType": "address[]",
          "name": "validators",
          "type": "address[]"
        }
      ],
      "name": "submitBlockValidationResult",
      "outputs": [],
      "stateMutability": "nonpayable",
      "type": "function"
    },
    {
      "inputs": [
        {
          "internalType": "bool",
          "name": "_result",
          "type": "bool"
        },
        {
          "internalType": "bytes32",
          "name": "message",
          "type": "bytes32"
        },
        {
          "internalType": "uint256",
          "name": "signature",
          "type": "uint256"
        },
        {
          "internalType": "uint256",
          "name": "rx",
          "type": "uint256"
        },
        {
          "internalType": "uint256",
          "name": "ry",
          "type": "uint256"
        },
        {
          "internalType": "uint256",
          "name": "_hash",
          "type": "uint256"
        },
        {
          "internalType": "address[]",
          "name": "validators",
          "type": "address[]"
        }
      ],
      "name": "submitTransactionValidationResult",
      "outputs": [],
      "stateMutability": "nonpayable",
      "type": "function"
    },
    {
      "inputs": [
        {
          "internalType": "bytes32",
          "name": "b",
          "type": "bytes32"
        }
      ],
      "name": "bytesToUint256",
      "outputs": [
        {
          "internalType": "uint256",
          "name": "",
          "type": "uint256"
        }
      ],
      "stateMutability": "pure",
      "type": "function",
      "constant": true
    }
  ],
  "bytecode": "0x608060405260008060006101000a81548160ff0219169083151502179055503480156200002b57600080fd5b50604051620025ac380380620025ac833981810160405281019062000051919062000103565b80600660006101000a81548173ffffffffffffffffffffffffffffffffffffffff021916908373ffffffffffffffffffffffffffffffffffffffff1602179055505062000135565b600080fd5b600073ffffffffffffffffffffffffffffffffffffffff82169050919050565b6000620000cb826200009e565b9050919050565b620000dd81620000be565b8114620000e957600080fd5b50565b600081519050620000fd81620000d2565b92915050565b6000602082840312156200011c576200011b62000099565b5b60006200012c84828501620000ec565b91505092915050565b61246780620001456000396000f3fe60806040526004361061007b5760003560e01c806353d62ff71161004e57806353d62ff71461011b5780639459142f14610158578063a4d55d1d14610181578063ce9d294b146101ac5761007b565b80631471866c146100805780632fe0bbd4146100ab5780633d18651e146100d45780633e170dd9146100ff575b600080fd5b34801561008c57600080fd5b506100956101c8565b6040516100a291906114dd565b60405180910390f35b3480156100b757600080fd5b506100d260048036038101906100cd919061175d565b6101d4565b005b3480156100e057600080fd5b506100e9610255565b6040516100f691906114dd565b60405180910390f35b6101196004803603810190610114919061181b565b610261565b005b34801561012757600080fd5b50610142600480360381019061013d919061186e565b61038e565b60405161014f91906114dd565b60405180910390f35b34801561016457600080fd5b5061017f600480360381019061017a919061175d565b610425565b005b34801561018d57600080fd5b506101966104a6565b6040516101a391906114dd565b60405180910390f35b6101c660048036038101906101c1919061181b565b6104ab565b005b6706f05b59d3b2000081565b60008054906101000a900460ff16610221576040517f08c379a0000000000000000000000000000000000000000000000000000000008152600401610218906118f8565b60405180910390fd5b6102326001888888888888886105d8565b60008060006101000a81548160ff02191690831515021790555050505050505050565b67016345785d8a000081565b816706f05b59d3b200008167016345785d8a000061027f9190611947565b61028991906119a1565b3410156102cb576040517f08c379a00000000000000000000000000000000000000000000000000000000081526004016102c290611a43565b60405180910390fd5b60008054906101000a900460ff1615610319576040517f08c379a000000000000000000000000000000000000000000000000000000000815260040161031090611aaf565b60405180910390fd5b60016000806101000a81548160ff0219169083151502179055503373ffffffffffffffffffffffffffffffffffffffff167fa2a630edc48d1fc0a90b61e08bbc34ce73957ce9d59455207cd0591006bd4d4b60028686866040516103809493929190611b55565b60405180910390a250505050565b60008060005b602060ff1681101561041b576001816103ad91906119a1565b602060ff166103bc9190611b9a565b60086103c89190611947565b60026103d49190611d01565b8482602081106103e7576103e6611d4c565b5b1a60f81b60f81c60ff166103fb9190611947565b8261040691906119a1565b9150808061041390611d7b565b915050610394565b5080915050919050565b60008054906101000a900460ff16610472576040517f08c379a0000000000000000000000000000000000000000000000000000000008152600401610469906118f8565b60405180910390fd5b6104836002888888888888886105d8565b60008060006101000a81548160ff02191690831515021790555050505050505050565b602181565b816706f05b59d3b200008167016345785d8a00006104c99190611947565b6104d391906119a1565b341015610515576040517f08c379a000000000000000000000000000000000000000000000000000000000815260040161050c90611a43565b60405180910390fd5b60008054906101000a900460ff1615610563576040517f08c379a000000000000000000000000000000000000000000000000000000000815260040161055a90611aaf565b60405180910390fd5b60016000806101000a81548160ff0219169083151502179055503373ffffffffffffffffffffffffffffffffffffffff167fa2a630edc48d1fc0a90b61e08bbc34ce73957ce9d59455207cd0591006bd4d4b60018686866040516105ca9493929190611b55565b60405180910390a250505050565b600060028111156105ec576105eb611acf565b5b8860028111156105ff576105fe611acf565b5b0361063f576040517f08c379a000000000000000000000000000000000000000000000000000000000815260040161063690611e0f565b60405180910390fd5b3373ffffffffffffffffffffffffffffffffffffffff16600660009054906101000a900473ffffffffffffffffffffffffffffffffffffffff1673ffffffffffffffffffffffffffffffffffffffff16633ad59dbc6040518163ffffffff1660e01b8152600401602060405180830381865afa1580156106c3573d6000803e3d6000fd5b505050506040513d601f19601f820116820180604052508101906106e79190611e44565b73ffffffffffffffffffffffffffffffffffffffff161461073d576040517f08c379a000000000000000000000000000000000000000000000000000000000815260040161073490611ebd565b60405180910390fd5b60005b81518163ffffffff1610156109a3576000600660009054906101000a900473ffffffffffffffffffffffffffffffffffffffff1673ffffffffffffffffffffffffffffffffffffffff1663bc66e9cb848463ffffffff16815181106107a8576107a7611d4c565b5b60200260200101516040518263ffffffff1660e01b81526004016107cc9190611eec565b602060405180830381865afa1580156107e9573d6000803e3d6000fd5b505050506040513d601f19601f8201168201806040525081019061080d9190611f1c565b9050600154811015610854576040517f08c379a000000000000000000000000000000000000000000000000000000000815260040161084b90611f95565b60405180910390fd5b6000600660009054906101000a900473ffffffffffffffffffffffffffffffffffffffff1673ffffffffffffffffffffffffffffffffffffffff1663fb9fb18a858563ffffffff16815181106108ad576108ac611d4c565b5b60200260200101516040518263ffffffff1660e01b81526004016108d19190611eec565b600060405180830381865afa1580156108ee573d6000803e3d6000fd5b505050506040513d6000823e3d601f19601f820116820180604052508101906109179190612129565b905060005b815181101561098d57600582828151811061093a57610939611d4c565b5b6020026020010151908060018154018082558091505060019003906000526020600020906002020160009091909190915090600261097992919061142b565b50808061098590611d7b565b91505061091c565b505050808061099b90612182565b915050610740565b5060015460058054905010156109ee576040517f08c379a00000000000000000000000000000000000000000000000000000000081526004016109e5906121fa565b60405180910390fd5b600060406001600580549050610a0491906119a1565b610a0e9190611947565b67ffffffffffffffff811115610a2757610a266115bc565b5b6040519080825280601f01601f191660200182016040528015610a595781602001600182028036833780820191505090505b50905060006040905060005b6005805490508163ffffffff161015610b835760005b60028163ffffffff161015610b6f57600060058363ffffffff1681548110610aa657610aa5611d4c565b5b90600052602060002090600202018263ffffffff1660028110610acc57610acb611d4c565b5b015460001b905060005b602060ff168163ffffffff161015610b5a57818163ffffffff1660208110610b0157610b00611d4c565b5b1a60f81b868681518110610b1857610b17611d4c565b5b60200101907effffffffffffffffffffffffffffffffffffffffffffffffffffffffffffff1916908160001a9053508080610b5290612182565b915050610ad6565b50508080610b6790612182565b915050610a7b565b508080610b7b90612182565b915050610a65565b5060008060005b6005805490508163ffffffff161015610dfd57600060058263ffffffff1681548110610bb957610bb8611d4c565b5b9060005260206000209060020201600060028110610bda57610bd9611d4c565b5b01549050600060058363ffffffff1681548110610bfa57610bf9611d4c565b5b9060005260206000209060020201600160028110610c1b57610c1a611d4c565b5b0154905060005b6020811015610ca05760008360001b9050808260208110610c4657610c45611d4c565b5b1a60f81b898381518110610c5d57610c5c611d4c565b5b60200101907effffffffffffffffffffffffffffffffffffffffffffffffffffffffffffff1916908160001a905350508080610c9890611d7b565b915050610c22565b5060005b6020811015610d2e5760008260001b9050808260208110610cc857610cc7611d4c565b5b1a60f81b89602084610cda91906119a1565b81518110610ceb57610cea611d4c565b5b60200101907effffffffffffffffffffffffffffffffffffffffffffffffffffffffffffff1916908160001a905350508080610d2690611d7b565b915050610ca4565b506000610d89600289604051610d449190612294565b602060405180830381855afa158015610d61573d6000803e3d6000fd5b5050506040513d601f19601f82011682018060405250810190610d8491906122c0565b61038e565b9050610dae6040518060600160405280858152602001848152602001838152506111f9565b8093508194505050610ddf604051806080016040528085815260200184815260200188815260200187815250611293565b80965081975050505050508080610df590612182565b915050610b8a565b50610e0c8983838b8b8b61132d565b610e4b576040517f08c379a0000000000000000000000000000000000000000000000000000000008152600401610e4290612339565b60405180910390fd5b60016002811115610e5f57610e5e611acf565b5b8c6002811115610e7257610e71611acf565b5b03610ea7578a600360008c815260200190815260200160002060006101000a81548160ff021916908315150217905550610eff565b600280811115610eba57610eb9611acf565b5b8c6002811115610ecd57610ecc611acf565b5b03610efe578a600460008c815260200190815260200160002060006101000a81548160ff0219169083151502179055505b5b3373ffffffffffffffffffffffffffffffffffffffff166108fc6706f05b59d3b200009081150290604051600060405180830381858888f19350505050158015610f4d573d6000803e3d6000fd5b5060005b85518163ffffffff1610156111ea57600660009054906101000a900473ffffffffffffffffffffffffffffffffffffffff1673ffffffffffffffffffffffffffffffffffffffff1663bc66e9cb878363ffffffff1681518110610fb757610fb6611d4c565b5b60200260200101516040518263ffffffff1660e01b8152600401610fdb9190611eec565b602060405180830381865afa158015610ff8573d6000803e3d6000fd5b505050506040513d601f19601f8201168201806040525081019061101c9190611f1c565b67016345785d8a000061102f9190611947565b471061116f57858163ffffffff168151811061104e5761104d611d4c565b5b602002602001015173ffffffffffffffffffffffffffffffffffffffff166108fc600660009054906101000a900473ffffffffffffffffffffffffffffffffffffffff1673ffffffffffffffffffffffffffffffffffffffff1663bc66e9cb898563ffffffff16815181106110c6576110c5611d4c565b5b60200260200101516040518263ffffffff1660e01b81526004016110ea9190611eec565b602060405180830381865afa158015611107573d6000803e3d6000fd5b505050506040513d601f19601f8201168201806040525081019061112b9190611f1c565b67016345785d8a000061113e9190611947565b9081150290604051600060405180830381858888f19350505050158015611169573d6000803e3d6000fd5b506111d7565b858163ffffffff168151811061118857611187611d4c565b5b602002602001015173ffffffffffffffffffffffffffffffffffffffff166108fc479081150290604051600060405180830381858888f193505050501580156111d5573d6000803e3d6000fd5b505b80806111e290612182565b915050610f51565b50505050505050505050505050565b600080600061120661146b565b60408160608760006007600019f1915081611256576040517f08c379a000000000000000000000000000000000000000000000000000000000815260040161124d906123a5565b60405180910390fd5b8060006002811061126a57611269611d4c565b5b60200201518160016002811061128357611282611d4c565b5b6020020151935093505050915091565b60008060006112a061146b565b60408160808760006006600019f19150816112f0576040517f08c379a00000000000000000000000000000000000000000000000000000000081526004016112e790612411565b60405180910390fd5b8060006002811061130457611303611d4c565b5b60200201518160016002811061131d5761131c611d4c565b5b6020020151935093505050915091565b6000806040518060600160405280600181526020016002815260200189815250905061135761148d565b611360826111f9565b826000018360200182815250828152505050600060405180606001604052808a815260200189815260200186815250905061139961148d565b6113a2826111f9565b826000018360200182815250828152505050600060405180608001604052808a815260200189815260200183600001518152602001836020015181525090506113ea81611293565b8360000184602001828152508281525050508160000151846000015114801561141a575081602001518460200151145b955050505050509695505050505050565b826002810192821561145a579160200282015b8281111561145957825182559160200191906001019061143e565b5b50905061146791906114a7565b5090565b6040518060400160405280600290602082028036833780820191505090505090565b604051806040016040528060008152602001600081525090565b5b808211156114c05760008160009055506001016114a8565b5090565b6000819050919050565b6114d7816114c4565b82525050565b60006020820190506114f260008301846114ce565b92915050565b6000604051905090565b600080fd5b600080fd5b60008115159050919050565b6115218161150c565b811461152c57600080fd5b50565b60008135905061153e81611518565b92915050565b6000819050919050565b61155781611544565b811461156257600080fd5b50565b6000813590506115748161154e565b92915050565b611583816114c4565b811461158e57600080fd5b50565b6000813590506115a08161157a565b92915050565b600080fd5b6000601f19601f8301169050919050565b7f4e487b7100000000000000000000000000000000000000000000000000000000600052604160045260246000fd5b6115f4826115ab565b810181811067ffffffffffffffff82111715611613576116126115bc565b5b80604052505050565b60006116266114f8565b905061163282826115eb565b919050565b600067ffffffffffffffff821115611652576116516115bc565b5b602082029050602081019050919050565b600080fd5b600073ffffffffffffffffffffffffffffffffffffffff82169050919050565b600061169382611668565b9050919050565b6116a381611688565b81146116ae57600080fd5b50565b6000813590506116c08161169a565b92915050565b60006116d96116d484611637565b61161c565b905080838252602082019050602084028301858111156116fc576116fb611663565b5b835b81811015611725578061171188826116b1565b8452602084019350506020810190506116fe565b5050509392505050565b600082601f830112611744576117436115a6565b5b81356117548482602086016116c6565b91505092915050565b600080600080600080600060e0888a03121561177c5761177b611502565b5b600061178a8a828b0161152f565b975050602061179b8a828b01611565565b96505060406117ac8a828b01611591565b95505060606117bd8a828b01611591565b94505060806117ce8a828b01611591565b93505060a06117df8a828b01611591565b92505060c088013567ffffffffffffffff811115611800576117ff611507565b5b61180c8a828b0161172f565b91505092959891949750929550565b60008060006060848603121561183457611833611502565b5b600061184286828701611565565b935050602061185386828701611591565b925050604061186486828701611591565b9150509250925092565b60006020828403121561188457611883611502565b5b600061189284828501611565565b91505092915050565b600082825260208201905092915050565b7f4e6f742076616c69646174652074696d65210000000000000000000000000000600082015250565b60006118e260128361189b565b91506118ed826118ac565b602082019050919050565b60006020820190508181036000830152611911816118d5565b9050919050565b7f4e487b7100000000000000000000000000000000000000000000000000000000600052601160045260246000fd5b6000611952826114c4565b915061195d836114c4565b9250817fffffffffffffffffffffffffffffffffffffffffffffffffffffffffffffffff048311821515161561199657611995611918565b5b828202905092915050565b60006119ac826114c4565b91506119b7836114c4565b9250827fffffffffffffffffffffffffffffffffffffffffffffffffffffffffffffffff038211156119ec576119eb611918565b5b828201905092915050565b7f746f6f206665772066656520616d6f756e740000000000000000000000000000600082015250565b6000611a2d60128361189b565b9150611a38826119f7565b602082019050919050565b60006020820190508181036000830152611a5c81611a20565b9050919050565b7f416e6f746865722076616c696461746520697320696e2070726f677265737321600082015250565b6000611a9960208361189b565b9150611aa482611a63565b602082019050919050565b60006020820190508181036000830152611ac881611a8c565b9050919050565b7f4e487b7100000000000000000000000000000000000000000000000000000000600052602160045260246000fd5b60038110611b0f57611b0e611acf565b5b50565b6000819050611b2082611afe565b919050565b6000611b3082611b12565b9050919050565b611b4081611b25565b82525050565b611b4f81611544565b82525050565b6000608082019050611b6a6000830187611b37565b611b776020830186611b46565b611b8460408301856114ce565b611b9160608301846114ce565b95945050505050565b6000611ba5826114c4565b9150611bb0836114c4565b925082821015611bc357611bc2611918565b5b828203905092915050565b60008160011c9050919050565b6000808291508390505b6001851115611c2557808604811115611c0157611c00611918565b5b6001851615611c105780820291505b8081029050611c1e85611bce565b9450611be5565b94509492505050565b600082611c3e5760019050611cfa565b81611c4c5760009050611cfa565b8160018114611c625760028114611c6c57611c9b565b6001915050611cfa565b60ff841115611c7e57611c7d611918565b5b8360020a915084821115611c9557611c94611918565b5b50611cfa565b5060208310610133831016604e8410600b8410161715611cd05782820a905083811115611ccb57611cca611918565b5b611cfa565b611cdd8484846001611bdb565b92509050818404811115611cf457611cf3611918565b5b81810290505b9392505050565b6000611d0c826114c4565b9150611d17836114c4565b9250611d447fffffffffffffffffffffffffffffffffffffffffffffffffffffffffffffffff8484611c2e565b905092915050565b7f4e487b7100000000000000000000000000000000000000000000000000000000600052603260045260246000fd5b6000611d86826114c4565b91507fffffffffffffffffffffffffffffffffffffffffffffffffffffffffffffffff8203611db857611db7611918565b5b600182019050919050565b7f756e6b6e6f776e2076616c69646174696f6e2074797065000000000000000000600082015250565b6000611df960178361189b565b9150611e0482611dc3565b602082019050919050565b60006020820190508181036000830152611e2881611dec565b9050919050565b600081519050611e3e8161169a565b92915050565b600060208284031215611e5a57611e59611502565b5b6000611e6884828501611e2f565b91505092915050565b7f6e6f74207468652061676772656761746f720000000000000000000000000000600082015250565b6000611ea760128361189b565b9150611eb282611e71565b602082019050919050565b60006020820190508181036000830152611ed681611e9a565b9050919050565b611ee681611688565b82525050565b6000602082019050611f016000830184611edd565b92915050565b600081519050611f168161157a565b92915050565b600060208284031215611f3257611f31611502565b5b6000611f4084828501611f07565b91505092915050565b7f6c6f772073696e67616c2072616e6b0000000000000000000000000000000000600082015250565b6000611f7f600f8361189b565b9150611f8a82611f49565b602082019050919050565b60006020820190508181036000830152611fae81611f72565b9050919050565b600067ffffffffffffffff821115611fd057611fcf6115bc565b5b602082029050602081019050919050565b600067ffffffffffffffff821115611ffc57611ffb6115bc565b5b602082029050919050565b600061201a61201584611fe1565b61161c565b9050806020840283018581111561203457612033611663565b5b835b8181101561205d57806120498882611f07565b845260208401935050602081019050612036565b5050509392505050565b600082601f83011261207c5761207b6115a6565b5b6002612089848285612007565b91505092915050565b60006120a56120a084611fb5565b61161c565b905080838252602082019050604084028301858111156120c8576120c7611663565b5b835b818110156120f157806120dd8882612067565b8452602084019350506040810190506120ca565b5050509392505050565b600082601f8301126121105761210f6115a6565b5b8151612120848260208601612092565b91505092915050565b60006020828403121561213f5761213e611502565b5b600082015167ffffffffffffffff81111561215d5761215c611507565b5b612169848285016120fb565b91505092915050565b600063ffffffff82169050919050565b600061218d82612172565b915063ffffffff82036121a3576121a2611918565b5b600182019050919050565b7f6c6f7720746f74616c2072616e6b000000000000000000000000000000000000600082015250565b60006121e4600e8361189b565b91506121ef826121ae565b602082019050919050565b60006020820190508181036000830152612213816121d7565b9050919050565b600081519050919050565b600081905092915050565b60005b8381101561224e578082015181840152602081019050612233565b8381111561225d576000848401525b50505050565b600061226e8261221a565b6122788185612225565b9350612288818560208601612230565b80840191505092915050565b60006122a08284612263565b915081905092915050565b6000815190506122ba8161154e565b92915050565b6000602082840312156122d6576122d5611502565b5b60006122e4848285016122ab565b91505092915050565b7f7369673a206164647265737320646f65736e2774206d61746368000000000000600082015250565b6000612323601a8361189b565b915061232e826122ed565b602082019050919050565b6000602082019050818103600083015261235281612316565b9050919050565b7f6563206d756c206661696c656400000000000000000000000000000000000000600082015250565b600061238f600d8361189b565b915061239a82612359565b602082019050919050565b600060208201905081810360008301526123be81612382565b9050919050565b7f626e323536206164646974696f6e206661696c65640000000000000000000000600082015250565b60006123fb60158361189b565b9150612406826123c5565b602082019050919050565b6000602082019050818103600083015261242a816123ee565b905091905056fea264697066735822122071a074734ed6cd70d5f93163b62f361ceaf34201074aaef762cef63c2909872764736f6c634300080d0033",
  "immutableReferences": {},
  "source": "// SPDX-License-Identifier: MIT\npragma solidity  >0.8.0;\n\nimport \"./RegistryContract.sol\";\nimport \"./crypto/Schnorr.sol\";\nimport \"./crypto/BN256G1.sol\";\n\ncontract OracleContract {\n\n    // \n    bool private isValidateTime = false;\n\n    // \n    uint256 public constant BASE_FEE = 0.1 ether;\n    uint256 public constant AGGREGATE_FEE = 0.5 ether;\n\n    uint256 private currentRank;\n    uint256 private currentSize;\n    uint256 public constant PUBKEY_LENGTH = 33;\n\n    // \n    mapping(bytes32 => bool) private blockValidationResults;\n    mapping(bytes32 => bool) private txValidationResults;\n\n    // ;\n    enum ValidationType { UNKNOWN, BLOCK, TRANSACTION }\n\n    // indexed\n    event ValidationRequest(ValidationType typ, address indexed from, bytes32 hash, uint256 size, uint256 minRank);\n\n    uint256[2][] allPubKeys;\n\n    RegistryContract private registryContract;\n    constructor(address registry) {\n        registryContract = RegistryContract(registry);\n    }\n\n    modifier minFee(uint size) {\n        require(msg.value >= BASE_FEE * size + AGGREGATE_FEE, \"too few fee amount\");\n        _;\n    }\n\n    function validateBlock(bytes32 _message, uint256 size, uint256 minRank) external payable minFee(size) {\n        require(!isValidateTime, \"Another validate is in progress!\");\n        isValidateTime = true;\n        emit ValidationRequest(ValidationType.BLOCK, msg.sender, _message, size, minRank);\n    }\n\n    function validateTransaction(bytes32 _message, uint256 size, uint256 minRank) external payable minFee(size) {\n        require(!isValidateTime, \"Another validate is in progress!\");\n        isValidateTime = true;\n        emit ValidationRequest(ValidationType.TRANSACTION, msg.sender, _message, size, minRank);\n    }\n\n\n//-----------------------------------------------------------------------------------------------------------------------------------------------\n\n\n    function submitBlockValidationResult(bool _result, bytes32 message, uint256 signature, uint256 rx , uint256 ry, uint256 _hash, address[] memory validators) external {\n        require(isValidateTime, \"Not validate time!\");\n        submitValidationResult(ValidationType.BLOCK, _result, message, signature, rx, ry, _hash, validators);\n        isValidateTime = false;\n    }\n\n    function submitTransactionValidationResult(bool _result, bytes32 message, uint256 signature, uint256 rx , uint256 ry, uint256 _hash, address[] memory validators) external {\n        require(isValidateTime, \"Not validate time!\");\n        submitValidationResult(ValidationType.TRANSACTION, _result, message, signature, rx, ry, _hash, validators);\n        isValidateTime = false;\n    }\n\n    function submitValidationResult(\n        ValidationType _typ,\n        bool _result,\n        bytes32 message,\n        uint256 signature, uint256 rx , uint256 ry, uint256 _hash, \n        address[] memory validators\n    ) private {\n\n        require(_typ != ValidationType.UNKNOWN, \"unknown validation type\");\n        require(registryContract.getAggregator() == msg.sender, \"not the aggregator\");  //\n        \n        \n        for(uint32 i = 0 ; i < validators.length ; i++){\n            // \n            uint256 rank = registryContract.getNodeRank(validators[i]);\n            require(rank >= currentRank, \"low singal rank\");\n            uint256[2][] memory pubKeys = registryContract.getNodePublicKeys(validators[i]);\n            for(uint j = 0; j < pubKeys.length; j++){\n                allPubKeys.push(pubKeys[j]);        \n            }\n            \n        }\n        require(allPubKeys.length >= currentRank, \"low total rank\");\n        \n        // TODO:\n        bytes memory S = new bytes((allPubKeys.length + 1) * 64);\n        uint256 index = 64;\n        for(uint32 i = 0 ; i < allPubKeys.length ; i++){\n            for(uint32 j = 0; j < 2; j++){\n                bytes32 temp = bytes32(allPubKeys[i][j]);\n                for(uint32 k = 0; k < temp.length; k++){\n                    S[index] = temp[k];\n                }\n            }\n        }\n\n        uint256 pubKeyX = 0;\n        uint256 pubKeyY = 0;\n\n        for(uint32 i = 0 ; i < allPubKeys.length ; i++){\n            uint256 tempX = allPubKeys[i][0];\n            uint256 tempY = allPubKeys[i][1];\n            for(uint k = 0; k < 32; k++){\n                bytes32 temp = bytes32(tempX);\n                S[k] = temp[k];\n            }\n            for(uint k = 0; k < 32; k++){\n                bytes32 temp = bytes32(tempY);\n                S[k + 32] = temp[k];\n            }\n            uint256 res = bytesToUint256(sha256(S));\n            (tempX, tempY) = BN256G1.mulPoint([tempX, tempY, res]);\n            (pubKeyX, pubKeyY) = BN256G1.addPoint([tempX, tempY, pubKeyX, pubKeyY]);\n        }\n\n        /*Schnorr*/\n        require(Schnorr.verify(signature, pubKeyX, pubKeyY, rx, ry, _hash), \"sig: address doesn't match\");\n\n        if (_typ == ValidationType.BLOCK) {\n            blockValidationResults[message] = _result;\n        } else if (_typ == ValidationType.TRANSACTION) {\n            txValidationResults[message] = _result;\n        }\n\n        //  \n        payable(msg.sender).transfer(AGGREGATE_FEE);     //\n        // \n\n        for(uint32 i = 0 ; i < validators.length ; i++){\n            if(address(this).balance >= BASE_FEE * registryContract.getNodeRank(validators[i])){\n                payable(validators[i]).transfer(BASE_FEE * registryContract.getNodeRank(validators[i])); \n            } else{\n                payable(validators[i]).transfer(address(this).balance); \n            }\n        }\n    }\n\n    function bytesToUint256(bytes32 b) public pure returns (uint256){\n        uint256 number;\n        for(uint i= 0; i < b.length; i++){\n            number = number + uint8(b[i])*(2**(8*(b.length-(i+1))));\n        }\n        return  number;\n    }\n\n}\n",
  "sourcePath": "/home/w1tness/Code/Crypto/Schnorr-multi-signature-oracle/ioporaclecontracts/contracts/OracleContract.sol",
  "compiler": {
    "name": "solc",
    "version": "0.8.13+commit.abaa5c0e.Emscripten.clang"
  },
  "schemaVersion": "3.4.16",
  "updatedAt": "2023-12-17T05:30:22.418Z",
  "networkType": "ethereum",
  "devdoc": {
    "kind": "dev",
    "methods": {},
    "version": 1
  },
  "userdoc": {
    "kind": "user",
    "methods": {},
    "version": 1
  }
}