{
  "contractName": "OracleContract",
  "abi": [
    {
      "inputs": [
        {
          "internalType": "address",
          "name": "registry",
          "type": "address"
        }
      ],
      "stateMutability": "nonpayable",
      "type": "constructor"
    },
    {
      "anonymous": false,
      "inputs": [
        {
          "indexed": false,
          "internalType": "enum OracleContract.ValidationType",
          "name": "typ",
          "type": "uint8"
        },
        {
          "indexed": true,
          "internalType": "address",
          "name": "from",
          "type": "address"
        },
        {
          "indexed": false,
          "internalType": "bytes32",
          "name": "hash",
          "type": "bytes32"
        },
        {
          "indexed": false,
          "internalType": "uint256",
          "name": "size",
          "type": "uint256"
        },
        {
          "indexed": false,
          "internalType": "uint256",
          "name": "minRank",
          "type": "uint256"
        }
      ],
      "name": "ValidationRequest",
      "type": "event"
    },
    {
      "inputs": [],
      "name": "AGGREGATE_FEE",
      "outputs": [
        {
          "internalType": "uint256",
          "name": "",
          "type": "uint256"
        }
      ],
      "stateMutability": "view",
      "type": "function",
      "constant": true
    },
    {
      "inputs": [],
      "name": "BASE_FEE",
      "outputs": [
        {
          "internalType": "uint256",
          "name": "",
          "type": "uint256"
        }
      ],
      "stateMutability": "view",
      "type": "function",
      "constant": true
    },
    {
      "inputs": [],
      "name": "PUBKEY_LENGTH",
      "outputs": [
        {
          "internalType": "uint256",
          "name": "",
          "type": "uint256"
        }
      ],
      "stateMutability": "view",
      "type": "function",
      "constant": true
    },
    {
      "inputs": [
        {
          "internalType": "uint256",
          "name": "size",
          "type": "uint256"
        }
      ],
      "name": "totalFee",
      "outputs": [
        {
          "internalType": "uint256",
          "name": "",
          "type": "uint256"
        }
      ],
      "stateMutability": "pure",
      "type": "function",
      "constant": true
    },
    {
      "inputs": [
        {
          "internalType": "bytes32",
          "name": "_message",
          "type": "bytes32"
        },
        {
          "internalType": "uint256",
          "name": "size",
          "type": "uint256"
        },
        {
          "internalType": "uint256",
          "name": "minRank",
          "type": "uint256"
        }
      ],
      "name": "validateBlock",
      "outputs": [],
      "stateMutability": "payable",
      "type": "function",
      "payable": true
    },
    {
      "inputs": [
        {
          "internalType": "bytes32",
          "name": "_message",
          "type": "bytes32"
        },
        {
          "internalType": "uint256",
          "name": "size",
          "type": "uint256"
        },
        {
          "internalType": "uint256",
          "name": "minRank",
          "type": "uint256"
        }
      ],
      "name": "validateTransaction",
      "outputs": [],
      "stateMutability": "payable",
      "type": "function",
      "payable": true
    },
    {
      "inputs": [
        {
          "internalType": "bool",
          "name": "_result",
          "type": "bool"
        },
        {
          "internalType": "bytes32",
          "name": "message",
          "type": "bytes32"
        },
        {
          "internalType": "uint256",
          "name": "signature",
          "type": "uint256"
        },
        {
          "internalType": "uint256",
          "name": "rx",
          "type": "uint256"
        },
        {
          "internalType": "uint256",
          "name": "ry",
          "type": "uint256"
        },
        {
          "internalType": "uint256",
          "name": "_hash",
          "type": "uint256"
        },
        {
          "internalType": "uint256",
          "name": "pubKeyX",
          "type": "uint256"
        },
        {
          "internalType": "uint256",
          "name": "pubKeyY",
          "type": "uint256"
        },
        {
          "internalType": "address[]",
          "name": "validators",
          "type": "address[]"
        }
      ],
      "name": "submitBlockValidationResult",
      "outputs": [],
      "stateMutability": "nonpayable",
      "type": "function"
    },
    {
      "inputs": [
        {
          "internalType": "bool",
          "name": "_result",
          "type": "bool"
        },
        {
          "internalType": "bytes32",
          "name": "message",
          "type": "bytes32"
        },
        {
          "internalType": "uint256",
          "name": "signature",
          "type": "uint256"
        },
        {
          "internalType": "uint256",
          "name": "rx",
          "type": "uint256"
        },
        {
          "internalType": "uint256",
          "name": "ry",
          "type": "uint256"
        },
        {
          "internalType": "uint256",
          "name": "_hash",
          "type": "uint256"
        },
        {
          "internalType": "uint256",
          "name": "pubKeyX",
          "type": "uint256"
        },
        {
          "internalType": "uint256",
          "name": "pubKeyY",
          "type": "uint256"
        },
        {
          "internalType": "address[]",
          "name": "validators",
          "type": "address[]"
        }
      ],
      "name": "submitTransactionValidationResult",
      "outputs": [],
      "stateMutability": "nonpayable",
      "type": "function"
    },
    {
      "inputs": [
        {
          "internalType": "bytes32",
          "name": "b",
          "type": "bytes32"
        }
      ],
      "name": "bytesToUint256",
      "outputs": [
        {
          "internalType": "uint256",
          "name": "",
          "type": "uint256"
        }
      ],
      "stateMutability": "pure",
      "type": "function",
      "constant": true
    }
  ],
  "bytecode": "0x608060405260008060006101000a81548160ff0219169083151502179055503480156200002b57600080fd5b50604051620027f8380380620027f8833981810160405281019062000051919062000103565b80600660006101000a81548173ffffffffffffffffffffffffffffffffffffffff021916908373ffffffffffffffffffffffffffffffffffffffff1602179055505062000135565b600080fd5b600073ffffffffffffffffffffffffffffffffffffffff82169050919050565b6000620000cb826200009e565b9050919050565b620000dd81620000be565b8114620000e957600080fd5b50565b600081519050620000fd81620000d2565b92915050565b6000602082840312156200011c576200011b62000099565b5b60006200012c84828501620000ec565b91505092915050565b6126b380620001456000396000f3fe6080604052600436106100865760003560e01c806353d62ff71161005957806353d62ff714610126578063a4d55d1d14610163578063ce9d294b1461018e578063cea74edf146101aa578063e21312de146101e757610086565b80631471866c1461008b5780632ef31c3c146100b65780633d18651e146100df5780633e170dd91461010a575b600080fd5b34801561009757600080fd5b506100a0610210565b6040516100ad91906115fc565b60405180910390f35b3480156100c257600080fd5b506100dd60048036038101906100d8919061187c565b61021c565b005b3480156100eb57600080fd5b506100f46102a1565b60405161010191906115fc565b60405180910390f35b610124600480360381019061011f9190611962565b6102ad565b005b34801561013257600080fd5b5061014d600480360381019061014891906119b5565b6103da565b60405161015a91906115fc565b60405180910390f35b34801561016f57600080fd5b50610178610471565b60405161018591906115fc565b60405180910390f35b6101a860048036038101906101a39190611962565b610476565b005b3480156101b657600080fd5b506101d160048036038101906101cc91906119e2565b6105a3565b6040516101de91906115fc565b60405180910390f35b3480156101f357600080fd5b5061020e6004803603810190610209919061187c565b6105d3565b005b6706f05b59d3b2000081565b60008054906101000a900460ff16610269576040517f08c379a000000000000000000000000000000000000000000000000000000000815260040161026090611a6c565b60405180910390fd5b61027c60028a8a8a8a8a8a8a8a8a610658565b60008060006101000a81548160ff021916908315150217905550505050505050505050565b67016345785d8a000081565b816706f05b59d3b200008167016345785d8a00006102cb9190611abb565b6102d59190611b15565b341015610317576040517f08c379a000000000000000000000000000000000000000000000000000000000815260040161030e90611bb7565b60405180910390fd5b60008054906101000a900460ff1615610365576040517f08c379a000000000000000000000000000000000000000000000000000000000815260040161035c90611c23565b60405180910390fd5b60016000806101000a81548160ff0219169083151502179055503373ffffffffffffffffffffffffffffffffffffffff167fa2a630edc48d1fc0a90b61e08bbc34ce73957ce9d59455207cd0591006bd4d4b60028686866040516103cc9493929190611cc9565b60405180910390a250505050565b60008060005b602060ff16811015610467576001816103f99190611b15565b602060ff166104089190611d0e565b60086104149190611abb565b60026104209190611e75565b84826020811061043357610432611ec0565b5b1a60f81b60f81c60ff166104479190611abb565b826104529190611b15565b9150808061045f90611eef565b9150506103e0565b5080915050919050565b602181565b816706f05b59d3b200008167016345785d8a00006104949190611abb565b61049e9190611b15565b3410156104e0576040517f08c379a00000000000000000000000000000000000000000000000000000000081526004016104d790611bb7565b60405180910390fd5b60008054906101000a900460ff161561052e576040517f08c379a000000000000000000000000000000000000000000000000000000000815260040161052590611c23565b60405180910390fd5b60016000806101000a81548160ff0219169083151502179055503373ffffffffffffffffffffffffffffffffffffffff167fa2a630edc48d1fc0a90b61e08bbc34ce73957ce9d59455207cd0591006bd4d4b60018686866040516105959493929190611cc9565b60405180910390a250505050565b60006706f05b59d3b2000067016345785d8a0000836105c29190611abb565b6105cc9190611b15565b9050919050565b60008054906101000a900460ff16610620576040517f08c379a000000000000000000000000000000000000000000000000000000000815260040161061790611a6c565b60405180910390fd5b61063360018a8a8a8a8a8a8a8a8a610658565b60008060006101000a81548160ff021916908315150217905550505050505050505050565b6000600281111561066c5761066b611c43565b5b8a600281111561067f5761067e611c43565b5b036106bf576040517f08c379a00000000000000000000000000000000000000000000000000000000081526004016106b690611f83565b60405180910390fd5b3373ffffffffffffffffffffffffffffffffffffffff16600660009054906101000a900473ffffffffffffffffffffffffffffffffffffffff1673ffffffffffffffffffffffffffffffffffffffff16633ad59dbc6040518163ffffffff1660e01b8152600401602060405180830381865afa158015610743573d6000803e3d6000fd5b505050506040513d601f19601f820116820180604052508101906107679190611fb8565b73ffffffffffffffffffffffffffffffffffffffff16146107bd576040517f08c379a00000000000000000000000000000000000000000000000000000000081526004016107b490612031565b60405180910390fd5b60005b81518163ffffffff161015610a23576000600660009054906101000a900473ffffffffffffffffffffffffffffffffffffffff1673ffffffffffffffffffffffffffffffffffffffff1663bc66e9cb848463ffffffff168151811061082857610827611ec0565b5b60200260200101516040518263ffffffff1660e01b815260040161084c9190612060565b602060405180830381865afa158015610869573d6000803e3d6000fd5b505050506040513d601f19601f8201168201806040525081019061088d9190612090565b90506001548110156108d4576040517f08c379a00000000000000000000000000000000000000000000000000000000081526004016108cb90612109565b60405180910390fd5b6000600660009054906101000a900473ffffffffffffffffffffffffffffffffffffffff1673ffffffffffffffffffffffffffffffffffffffff1663fb9fb18a858563ffffffff168151811061092d5761092c611ec0565b5b60200260200101516040518263ffffffff1660e01b81526004016109519190612060565b600060405180830381865afa15801561096e573d6000803e3d6000fd5b505050506040513d6000823e3d601f19601f82011682018060405250810190610997919061229d565b905060005b8151811015610a0d5760058282815181106109ba576109b9611ec0565b5b602002602001015190806001815401808255809150506001900390600052602060002090600202016000909190919091509060026109f992919061154a565b508080610a0590611eef565b91505061099c565b5050508080610a1b906122f6565b9150506107c0565b506001546005805490501015610a6e576040517f08c379a0000000000000000000000000000000000000000000000000000000008152600401610a659061236e565b60405180910390fd5b600060406001600580549050610a849190611b15565b610a8e9190611abb565b67ffffffffffffffff811115610aa757610aa66116db565b5b6040519080825280601f01601f191660200182016040528015610ad95781602001600182028036833780820191505090505b50905060006040905060005b6005805490508163ffffffff161015610c115760005b60028163ffffffff161015610bfd57600060058363ffffffff1681548110610b2657610b25611ec0565b5b90600052602060002090600202018263ffffffff1660028110610b4c57610b4b611ec0565b5b015460001b905060005b602060ff168163ffffffff161015610be857818163ffffffff1660208110610b8157610b80611ec0565b5b1a60f81b868681518110610b9857610b97611ec0565b5b60200101907effffffffffffffffffffffffffffffffffffffffffffffffffffffffffffff1916908160001a9053508480610bd290611eef565b9550508080610be0906122f6565b915050610b56565b50508080610bf5906122f6565b915050610afb565b508080610c09906122f6565b915050610ae5565b5060008060005b6005805490508163ffffffff161015610e8b57600060058263ffffffff1681548110610c4757610c46611ec0565b5b9060005260206000209060020201600060028110610c6857610c67611ec0565b5b01549050600060058363ffffffff1681548110610c8857610c87611ec0565b5b9060005260206000209060020201600160028110610ca957610ca8611ec0565b5b0154905060005b6020811015610d2e5760008360001b9050808260208110610cd457610cd3611ec0565b5b1a60f81b898381518110610ceb57610cea611ec0565b5b60200101907effffffffffffffffffffffffffffffffffffffffffffffffffffffffffffff1916908160001a905350508080610d2690611eef565b915050610cb0565b5060005b6020811015610dbc5760008260001b9050808260208110610d5657610d55611ec0565b5b1a60f81b89602084610d689190611b15565b81518110610d7957610d78611ec0565b5b60200101907effffffffffffffffffffffffffffffffffffffffffffffffffffffffffffff1916908160001a905350508080610db490611eef565b915050610d32565b506000610e17600289604051610dd29190612408565b602060405180830381855afa158015610def573d6000803e3d6000fd5b5050506040513d601f19601f82011682018060405250810190610e129190612434565b6103da565b9050610e3c604051806060016040528085815260200184815260200183815250611318565b8093508194505050610e6d6040518060800160405280858152602001848152602001888152602001878152506113b2565b80965081975050505050508080610e83906122f6565b915050610c18565b50610e9a8b88888d8d8d61144c565b610ed9576040517f08c379a0000000000000000000000000000000000000000000000000000000008152600401610ed0906124ad565b60405180910390fd5b868214610f1b576040517f08c379a0000000000000000000000000000000000000000000000000000000008152600401610f1290612519565b60405180910390fd5b610f298b83838d8d8d61144c565b610f68576040517f08c379a0000000000000000000000000000000000000000000000000000000008152600401610f5f90612585565b60405180910390fd5b60016002811115610f7c57610f7b611c43565b5b8e6002811115610f8f57610f8e611c43565b5b03610fc4578c600360008e815260200190815260200160002060006101000a81548160ff02191690831515021790555061101c565b600280811115610fd757610fd6611c43565b5b8e6002811115610fea57610fe9611c43565b5b0361101b578c600460008e815260200190815260200160002060006101000a81548160ff0219169083151502179055505b5b3373ffffffffffffffffffffffffffffffffffffffff166108fc6706f05b59d3b200009081150290604051600060405180830381858888f1935050505015801561106a573d6000803e3d6000fd5b5060005b85518163ffffffff16101561130757600660009054906101000a900473ffffffffffffffffffffffffffffffffffffffff1673ffffffffffffffffffffffffffffffffffffffff1663bc66e9cb878363ffffffff16815181106110d4576110d3611ec0565b5b60200260200101516040518263ffffffff1660e01b81526004016110f89190612060565b602060405180830381865afa158015611115573d6000803e3d6000fd5b505050506040513d601f19601f820116820180604052508101906111399190612090565b67016345785d8a000061114c9190611abb565b471061128c57858163ffffffff168151811061116b5761116a611ec0565b5b602002602001015173ffffffffffffffffffffffffffffffffffffffff166108fc600660009054906101000a900473ffffffffffffffffffffffffffffffffffffffff1673ffffffffffffffffffffffffffffffffffffffff1663bc66e9cb898563ffffffff16815181106111e3576111e2611ec0565b5b60200260200101516040518263ffffffff1660e01b81526004016112079190612060565b602060405180830381865afa158015611224573d6000803e3d6000fd5b505050506040513d601f19601f820116820180604052508101906112489190612090565b67016345785d8a000061125b9190611abb565b9081150290604051600060405180830381858888f19350505050158015611286573d6000803e3d6000fd5b506112f4565b858163ffffffff16815181106112a5576112a4611ec0565b5b602002602001015173ffffffffffffffffffffffffffffffffffffffff166108fc479081150290604051600060405180830381858888f193505050501580156112f2573d6000803e3d6000fd5b505b80806112ff906122f6565b91505061106e565b505050505050505050505050505050565b600080600061132561158a565b60408160608760006007600019f1915081611375576040517f08c379a000000000000000000000000000000000000000000000000000000000815260040161136c906125f1565b60405180910390fd5b8060006002811061138957611388611ec0565b5b6020020151816001600281106113a2576113a1611ec0565b5b6020020151935093505050915091565b60008060006113bf61158a565b60408160808760006006600019f191508161140f576040517f08c379a00000000000000000000000000000000000000000000000000000000081526004016114069061265d565b60405180910390fd5b8060006002811061142357611422611ec0565b5b60200201518160016002811061143c5761143b611ec0565b5b6020020151935093505050915091565b600080604051806060016040528060018152602001600281526020018981525090506114766115ac565b61147f82611318565b826000018360200182815250828152505050600060405180606001604052808a81526020018981526020018681525090506114b86115ac565b6114c182611318565b826000018360200182815250828152505050600060405180608001604052808a81526020018981526020018360000151815260200183602001518152509050611509816113b2565b83600001846020018281525082815250505081600001518460000151148015611539575081602001518460200151145b955050505050509695505050505050565b8260028101928215611579579160200282015b8281111561157857825182559160200191906001019061155d565b5b50905061158691906115c6565b5090565b6040518060400160405280600290602082028036833780820191505090505090565b604051806040016040528060008152602001600081525090565b5b808211156115df5760008160009055506001016115c7565b5090565b6000819050919050565b6115f6816115e3565b82525050565b600060208201905061161160008301846115ed565b92915050565b6000604051905090565b600080fd5b600080fd5b60008115159050919050565b6116408161162b565b811461164b57600080fd5b50565b60008135905061165d81611637565b92915050565b6000819050919050565b61167681611663565b811461168157600080fd5b50565b6000813590506116938161166d565b92915050565b6116a2816115e3565b81146116ad57600080fd5b50565b6000813590506116bf81611699565b92915050565b600080fd5b6000601f19601f8301169050919050565b7f4e487b7100000000000000000000000000000000000000000000000000000000600052604160045260246000fd5b611713826116ca565b810181811067ffffffffffffffff82111715611732576117316116db565b5b80604052505050565b6000611745611617565b9050611751828261170a565b919050565b600067ffffffffffffffff821115611771576117706116db565b5b602082029050602081019050919050565b600080fd5b600073ffffffffffffffffffffffffffffffffffffffff82169050919050565b60006117b282611787565b9050919050565b6117c2816117a7565b81146117cd57600080fd5b50565b6000813590506117df816117b9565b92915050565b60006117f86117f384611756565b61173b565b9050808382526020820190506020840283018581111561181b5761181a611782565b5b835b81811015611844578061183088826117d0565b84526020840193505060208101905061181d565b5050509392505050565b600082601f830112611863576118626116c5565b5b81356118738482602086016117e5565b91505092915050565b60008060008060008060008060006101208a8c03121561189f5761189e611621565b5b60006118ad8c828d0161164e565b99505060206118be8c828d01611684565b98505060406118cf8c828d016116b0565b97505060606118e08c828d016116b0565b96505060806118f18c828d016116b0565b95505060a06119028c828d016116b0565b94505060c06119138c828d016116b0565b93505060e06119248c828d016116b0565b9250506101008a013567ffffffffffffffff81111561194657611945611626565b5b6119528c828d0161184e565b9150509295985092959850929598565b60008060006060848603121561197b5761197a611621565b5b600061198986828701611684565b935050602061199a868287016116b0565b92505060406119ab868287016116b0565b9150509250925092565b6000602082840312156119cb576119ca611621565b5b60006119d984828501611684565b91505092915050565b6000602082840312156119f8576119f7611621565b5b6000611a06848285016116b0565b91505092915050565b600082825260208201905092915050565b7f4e6f742076616c69646174652074696d65210000000000000000000000000000600082015250565b6000611a56601283611a0f565b9150611a6182611a20565b602082019050919050565b60006020820190508181036000830152611a8581611a49565b9050919050565b7f4e487b7100000000000000000000000000000000000000000000000000000000600052601160045260246000fd5b6000611ac6826115e3565b9150611ad1836115e3565b9250817fffffffffffffffffffffffffffffffffffffffffffffffffffffffffffffffff0483118215151615611b0a57611b09611a8c565b5b828202905092915050565b6000611b20826115e3565b9150611b2b836115e3565b9250827fffffffffffffffffffffffffffffffffffffffffffffffffffffffffffffffff03821115611b6057611b5f611a8c565b5b828201905092915050565b7f746f6f206665772066656520616d6f756e740000000000000000000000000000600082015250565b6000611ba1601283611a0f565b9150611bac82611b6b565b602082019050919050565b60006020820190508181036000830152611bd081611b94565b9050919050565b7f416e6f746865722076616c696461746520697320696e2070726f677265737321600082015250565b6000611c0d602083611a0f565b9150611c1882611bd7565b602082019050919050565b60006020820190508181036000830152611c3c81611c00565b9050919050565b7f4e487b7100000000000000000000000000000000000000000000000000000000600052602160045260246000fd5b60038110611c8357611c82611c43565b5b50565b6000819050611c9482611c72565b919050565b6000611ca482611c86565b9050919050565b611cb481611c99565b82525050565b611cc381611663565b82525050565b6000608082019050611cde6000830187611cab565b611ceb6020830186611cba565b611cf860408301856115ed565b611d0560608301846115ed565b95945050505050565b6000611d19826115e3565b9150611d24836115e3565b925082821015611d3757611d36611a8c565b5b828203905092915050565b60008160011c9050919050565b6000808291508390505b6001851115611d9957808604811115611d7557611d74611a8c565b5b6001851615611d845780820291505b8081029050611d9285611d42565b9450611d59565b94509492505050565b600082611db25760019050611e6e565b81611dc05760009050611e6e565b8160018114611dd65760028114611de057611e0f565b6001915050611e6e565b60ff841115611df257611df1611a8c565b5b8360020a915084821115611e0957611e08611a8c565b5b50611e6e565b5060208310610133831016604e8410600b8410161715611e445782820a905083811115611e3f57611e3e611a8c565b5b611e6e565b611e518484846001611d4f565b92509050818404811115611e6857611e67611a8c565b5b81810290505b9392505050565b6000611e80826115e3565b9150611e8b836115e3565b9250611eb87fffffffffffffffffffffffffffffffffffffffffffffffffffffffffffffffff8484611da2565b905092915050565b7f4e487b7100000000000000000000000000000000000000000000000000000000600052603260045260246000fd5b6000611efa826115e3565b91507fffffffffffffffffffffffffffffffffffffffffffffffffffffffffffffffff8203611f2c57611f2b611a8c565b5b600182019050919050565b7f756e6b6e6f776e2076616c69646174696f6e2074797065000000000000000000600082015250565b6000611f6d601783611a0f565b9150611f7882611f37565b602082019050919050565b60006020820190508181036000830152611f9c81611f60565b9050919050565b600081519050611fb2816117b9565b92915050565b600060208284031215611fce57611fcd611621565b5b6000611fdc84828501611fa3565b91505092915050565b7f6e6f74207468652061676772656761746f720000000000000000000000000000600082015250565b600061201b601283611a0f565b915061202682611fe5565b602082019050919050565b6000602082019050818103600083015261204a8161200e565b9050919050565b61205a816117a7565b82525050565b60006020820190506120756000830184612051565b92915050565b60008151905061208a81611699565b92915050565b6000602082840312156120a6576120a5611621565b5b60006120b48482850161207b565b91505092915050565b7f6c6f772073696e67616c2072616e6b0000000000000000000000000000000000600082015250565b60006120f3600f83611a0f565b91506120fe826120bd565b602082019050919050565b60006020820190508181036000830152612122816120e6565b9050919050565b600067ffffffffffffffff821115612144576121436116db565b5b602082029050602081019050919050565b600067ffffffffffffffff8211156121705761216f6116db565b5b602082029050919050565b600061218e61218984612155565b61173b565b905080602084028301858111156121a8576121a7611782565b5b835b818110156121d157806121bd888261207b565b8452602084019350506020810190506121aa565b5050509392505050565b600082601f8301126121f0576121ef6116c5565b5b60026121fd84828561217b565b91505092915050565b600061221961221484612129565b61173b565b9050808382526020820190506040840283018581111561223c5761223b611782565b5b835b81811015612265578061225188826121db565b84526020840193505060408101905061223e565b5050509392505050565b600082601f830112612284576122836116c5565b5b8151612294848260208601612206565b91505092915050565b6000602082840312156122b3576122b2611621565b5b600082015167ffffffffffffffff8111156122d1576122d0611626565b5b6122dd8482850161226f565b91505092915050565b600063ffffffff82169050919050565b6000612301826122e6565b915063ffffffff820361231757612316611a8c565b5b600182019050919050565b7f6c6f7720746f74616c2072616e6b000000000000000000000000000000000000600082015250565b6000612358600e83611a0f565b915061236382612322565b602082019050919050565b600060208201905081810360008301526123878161234b565b9050919050565b600081519050919050565b600081905092915050565b60005b838110156123c25780820151818401526020810190506123a7565b838111156123d1576000848401525b50505050565b60006123e28261238e565b6123ec8185612399565b93506123fc8185602086016123a4565b80840191505092915050565b600061241482846123d7565b915081905092915050565b60008151905061242e8161166d565b92915050565b60006020828403121561244a57612449611621565b5b60006124588482850161241f565b91505092915050565b7f73696720766572696679206661696c0000000000000000000000000000000000600082015250565b6000612497600f83611a0f565b91506124a282612461565b602082019050919050565b600060208201905081810360008301526124c68161248a565b9050919050565b7f7075624b6579207265636f766572206661696c00000000000000000000000000600082015250565b6000612503601383611a0f565b915061250e826124cd565b602082019050919050565b60006020820190508181036000830152612532816124f6565b9050919050565b7f7369673a206164647265737320646f65736e2774206d61746368000000000000600082015250565b600061256f601a83611a0f565b915061257a82612539565b602082019050919050565b6000602082019050818103600083015261259e81612562565b9050919050565b7f6563206d756c206661696c656400000000000000000000000000000000000000600082015250565b60006125db600d83611a0f565b91506125e6826125a5565b602082019050919050565b6000602082019050818103600083015261260a816125ce565b9050919050565b7f626e323536206164646974696f6e206661696c65640000000000000000000000600082015250565b6000612647601583611a0f565b915061265282612611565b602082019050919050565b600060208201905081810360008301526126768161263a565b905091905056fea26469706673582212201b4d50b1c9e5935869048f7f49724a721d32d1b36cc17868ddc5141d6b87a38164736f6c634300080d0033",
  "immutableReferences": {},
  "source": "// SPDX-License-Identifier: MIT\npragma solidity  >0.8.0;\n\nimport \"./RegistryContract.sol\";\nimport \"./crypto/Schnorr.sol\";\nimport \"./crypto/BN256G1.sol\";\n\ncontract OracleContract {\n\n    // \n    bool private isValidateTime = false;\n\n    // \n    uint256 public constant BASE_FEE = 0.1 ether;\n    uint256 public constant AGGREGATE_FEE = 0.5 ether;\n\n    uint256 private currentRank;\n    uint256 private currentSize;\n    uint256 public constant PUBKEY_LENGTH = 33;\n\n    // \n    mapping(bytes32 => bool) private blockValidationResults;\n    mapping(bytes32 => bool) private txValidationResults;\n\n    // ;\n    enum ValidationType { UNKNOWN, BLOCK, TRANSACTION }\n\n    // indexed\n    event ValidationRequest(ValidationType typ, address indexed from, bytes32 hash, uint256 size, uint256 minRank);\n\n    uint256[2][] allPubKeys;\n\n    RegistryContract private registryContract;\n    constructor(address registry) {\n        registryContract = RegistryContract(registry);\n    }\n\n    modifier minFee(uint size) {\n        require(msg.value >= BASE_FEE * size + AGGREGATE_FEE, \"too few fee amount\");\n        _;\n    }\n\n    function totalFee(uint256 size) public pure returns (uint256){\n        return size * BASE_FEE + AGGREGATE_FEE;\n    }\n\n    function validateBlock(bytes32 _message, uint256 size, uint256 minRank) external payable minFee(size) {\n        require(!isValidateTime, \"Another validate is in progress!\");\n        isValidateTime = true;\n        emit ValidationRequest(ValidationType.BLOCK, msg.sender, _message, size, minRank);\n    }\n\n    function validateTransaction(bytes32 _message, uint256 size, uint256 minRank) external payable minFee(size) {\n        require(!isValidateTime, \"Another validate is in progress!\");\n        isValidateTime = true;\n        emit ValidationRequest(ValidationType.TRANSACTION, msg.sender, _message, size, minRank);\n    }\n\n\n//-----------------------------------------------------------------------------------------------------------------------------------------------\n\n\n    function submitBlockValidationResult(bool _result, bytes32 message, uint256 signature, uint256 rx , uint256 ry, uint256 _hash, uint256 pubKeyX, uint256 pubKeyY, address[] memory validators) external {\n        require(isValidateTime, \"Not validate time!\");\n        submitValidationResult(ValidationType.BLOCK, _result, message, signature, rx, ry, _hash, pubKeyX, pubKeyY, validators);\n        isValidateTime = false;\n    }\n\n    function submitTransactionValidationResult(bool _result, bytes32 message, uint256 signature, uint256 rx , uint256 ry, uint256 _hash, uint256 pubKeyX, uint256 pubKeyY, address[] memory validators) external {\n        require(isValidateTime, \"Not validate time!\");\n        submitValidationResult(ValidationType.TRANSACTION, _result, message, signature, rx, ry, _hash, pubKeyX, pubKeyY, validators);\n        isValidateTime = false;\n    }\n\n    function submitValidationResult(\n        ValidationType _typ,\n        bool _result,\n        bytes32 message,\n        uint256 signature, uint256 rx , uint256 ry, uint256 _hash, uint256 pubKeyX1, uint256 pubKeyY1,\n        address[] memory validators\n    ) private {\n\n        require(_typ != ValidationType.UNKNOWN, \"unknown validation type\");\n        require(registryContract.getAggregator() == msg.sender, \"not the aggregator\");  //\n        \n        \n        for(uint32 i = 0 ; i < validators.length ; i++){\n            // \n            uint256 rank = registryContract.getNodeRank(validators[i]);\n            require(rank >= currentRank, \"low singal rank\");\n            uint256[2][] memory pubKeys = registryContract.getNodePublicKeys(validators[i]);\n            for(uint j = 0; j < pubKeys.length; j++){\n                allPubKeys.push(pubKeys[j]);        \n            }\n            \n        }\n        require(allPubKeys.length >= currentRank, \"low total rank\");\n        \n        // TODO:\n        bytes memory S = new bytes((allPubKeys.length + 1) * 64);\n        uint256 index = 64;\n        for(uint32 i = 0 ; i < allPubKeys.length ; i++){\n            for(uint32 j = 0; j < 2; j++){\n                bytes32 temp = bytes32(allPubKeys[i][j]);\n                for(uint32 k = 0; k < temp.length; k++){\n                    S[index] = temp[k];\n                    index++;\n                }\n            }\n        }\n\n        uint256 pubKeyX = 0;\n        uint256 pubKeyY = 0;\n\n        for(uint32 i = 0 ; i < allPubKeys.length ; i++){\n            uint256 tempX = allPubKeys[i][0];\n            uint256 tempY = allPubKeys[i][1];\n            for(uint k = 0; k < 32; k++){\n                bytes32 temp = bytes32(tempX);\n                S[k] = temp[k];\n            }\n            for(uint k = 0; k < 32; k++){\n                bytes32 temp = bytes32(tempY);\n                S[k + 32] = temp[k];\n            }\n            uint256 res = bytesToUint256(sha256(S));\n            (tempX, tempY) = BN256G1.mulPoint([tempX, tempY, res]);\n            (pubKeyX, pubKeyY) = BN256G1.addPoint([tempX, tempY, pubKeyX, pubKeyY]);\n        }\n        require(Schnorr.verify(signature, pubKeyX1, pubKeyY1, rx, ry, _hash), \"sig verify fail\");\n\n        require(pubKeyX == pubKeyX1, \"pubKey recover fail\");\n        /*Schnorr*/\n        require(Schnorr.verify(signature, pubKeyX, pubKeyY, rx, ry, _hash), \"sig: address doesn't match\");\n\n        if (_typ == ValidationType.BLOCK) {\n            blockValidationResults[message] = _result;\n        } else if (_typ == ValidationType.TRANSACTION) {\n            txValidationResults[message] = _result;\n        }\n\n        //  \n        payable(msg.sender).transfer(AGGREGATE_FEE);     //\n        // \n\n        for(uint32 i = 0 ; i < validators.length ; i++){\n            if(address(this).balance >= BASE_FEE * registryContract.getNodeRank(validators[i])){\n                payable(validators[i]).transfer(BASE_FEE * registryContract.getNodeRank(validators[i])); \n            } else{\n                payable(validators[i]).transfer(address(this).balance); \n            }\n        }\n    }\n\n    function bytesToUint256(bytes32 b) public pure returns (uint256){\n        uint256 number;\n        for(uint i= 0; i < b.length; i++){\n            number = number + uint8(b[i])*(2**(8*(b.length-(i+1))));\n        }\n        return  number;\n    }\n\n}\n",
  "sourcePath": "/home/yuhang/Schnorr/Schnorr-multi-signature-oracle/ioporaclecontracts/contracts/OracleContract.sol",
  "compiler": {
    "name": "solc",
    "version": "0.8.13+commit.abaa5c0e.Emscripten.clang"
  },
  "schemaVersion": "3.4.14",
  "updatedAt": "2023-12-17T13:58:00.205Z",
  "networkType": "ethereum",
  "devdoc": {
    "kind": "dev",
    "methods": {},
    "version": 1
  },
  "userdoc": {
    "kind": "user",
    "methods": {},
    "version": 1
  }
}