{
  "contractName": "OracleContract",
  "abi": [
    {
      "inputs": [
        {
          "internalType": "address",
          "name": "registry",
          "type": "address"
        }
      ],
      "stateMutability": "nonpayable",
      "type": "constructor"
    },
    {
      "anonymous": false,
      "inputs": [
        {
          "indexed": false,
          "internalType": "enum OracleContract.ValidationType",
          "name": "typ",
          "type": "uint8"
        },
        {
          "indexed": true,
          "internalType": "address",
          "name": "from",
          "type": "address"
        },
        {
          "indexed": false,
          "internalType": "bytes32",
          "name": "hash",
          "type": "bytes32"
        },
        {
          "indexed": false,
          "internalType": "uint256",
          "name": "size",
          "type": "uint256"
        },
        {
          "indexed": false,
          "internalType": "uint256",
          "name": "minRank",
          "type": "uint256"
        }
      ],
      "name": "ValidationRequest",
      "type": "event"
    },
    {
      "inputs": [],
      "name": "AGGREGATE_FEE",
      "outputs": [
        {
          "internalType": "uint256",
          "name": "",
          "type": "uint256"
        }
      ],
      "stateMutability": "view",
      "type": "function",
      "constant": true
    },
    {
      "inputs": [],
      "name": "BASE_FEE",
      "outputs": [
        {
          "internalType": "uint256",
          "name": "",
          "type": "uint256"
        }
      ],
      "stateMutability": "view",
      "type": "function",
      "constant": true
    },
    {
      "inputs": [],
      "name": "PUBKEY_LENGTH",
      "outputs": [
        {
          "internalType": "uint256",
          "name": "",
          "type": "uint256"
        }
      ],
      "stateMutability": "view",
      "type": "function",
      "constant": true
    },
    {
      "inputs": [
        {
          "internalType": "uint256",
          "name": "",
          "type": "uint256"
        },
        {
          "internalType": "uint256",
          "name": "",
          "type": "uint256"
        }
      ],
      "name": "allPubKeys",
      "outputs": [
        {
          "internalType": "uint256",
          "name": "",
          "type": "uint256"
        }
      ],
      "stateMutability": "view",
      "type": "function",
      "constant": true
    },
    {
      "inputs": [
        {
          "internalType": "uint256",
          "name": "size",
          "type": "uint256"
        }
      ],
      "name": "totalFee",
      "outputs": [
        {
          "internalType": "uint256",
          "name": "",
          "type": "uint256"
        }
      ],
      "stateMutability": "pure",
      "type": "function",
      "constant": true
    },
    {
      "inputs": [
        {
          "internalType": "bytes32",
          "name": "_message",
          "type": "bytes32"
        },
        {
          "internalType": "uint256",
          "name": "size",
          "type": "uint256"
        },
        {
          "internalType": "uint256",
          "name": "minRank",
          "type": "uint256"
        }
      ],
      "name": "validateBlock",
      "outputs": [],
      "stateMutability": "payable",
      "type": "function",
      "payable": true
    },
    {
      "inputs": [
        {
          "internalType": "bytes32",
          "name": "_message",
          "type": "bytes32"
        },
        {
          "internalType": "uint256",
          "name": "size",
          "type": "uint256"
        },
        {
          "internalType": "uint256",
          "name": "minRank",
          "type": "uint256"
        }
      ],
      "name": "validateTransaction",
      "outputs": [],
      "stateMutability": "payable",
      "type": "function",
      "payable": true
    },
    {
      "inputs": [
        {
          "internalType": "bool",
          "name": "_result",
          "type": "bool"
        },
        {
          "internalType": "bytes32",
          "name": "message",
          "type": "bytes32"
        },
        {
          "internalType": "uint256",
          "name": "signature",
          "type": "uint256"
        },
        {
          "internalType": "uint256",
          "name": "rx",
          "type": "uint256"
        },
        {
          "internalType": "uint256",
          "name": "ry",
          "type": "uint256"
        },
        {
          "internalType": "uint256",
          "name": "_hash",
          "type": "uint256"
        },
        {
          "internalType": "uint256",
          "name": "hashScalar0",
          "type": "uint256"
        },
        {
          "internalType": "uint256",
          "name": "hashScalar2",
          "type": "uint256"
        },
        {
          "internalType": "address[]",
          "name": "validators",
          "type": "address[]"
        }
      ],
      "name": "submitBlockValidationResult",
      "outputs": [],
      "stateMutability": "nonpayable",
      "type": "function"
    },
    {
      "inputs": [
        {
          "internalType": "bool",
          "name": "_result",
          "type": "bool"
        },
        {
          "internalType": "bytes32",
          "name": "message",
          "type": "bytes32"
        },
        {
          "internalType": "uint256",
          "name": "signature",
          "type": "uint256"
        },
        {
          "internalType": "uint256",
          "name": "rx",
          "type": "uint256"
        },
        {
          "internalType": "uint256",
          "name": "ry",
          "type": "uint256"
        },
        {
          "internalType": "uint256",
          "name": "_hash",
          "type": "uint256"
        },
        {
          "internalType": "uint256",
          "name": "hashScalar0",
          "type": "uint256"
        },
        {
          "internalType": "uint256",
          "name": "hashScalar2",
          "type": "uint256"
        },
        {
          "internalType": "address[]",
          "name": "validators",
          "type": "address[]"
        }
      ],
      "name": "submitTransactionValidationResult",
      "outputs": [],
      "stateMutability": "nonpayable",
      "type": "function"
    },
    {
      "inputs": [
        {
          "internalType": "bytes32",
          "name": "b",
          "type": "bytes32"
        }
      ],
      "name": "bytesToUint256",
      "outputs": [
        {
          "internalType": "uint256",
          "name": "",
          "type": "uint256"
        }
      ],
      "stateMutability": "pure",
      "type": "function",
      "constant": true
    },
    {
      "inputs": [
        {
          "internalType": "uint256",
          "name": "x",
          "type": "uint256"
        }
      ],
      "name": "toBytes",
      "outputs": [
        {
          "internalType": "bytes",
          "name": "b",
          "type": "bytes"
        }
      ],
      "stateMutability": "pure",
      "type": "function",
      "constant": true
    }
  ],
  "bytecode": "0x608060405260008060006101000a81548160ff0219169083151502179055503480156200002b57600080fd5b50604051620028e7380380620028e7833981810160405281019062000051919062000103565b80600660006101000a81548173ffffffffffffffffffffffffffffffffffffffff021916908373ffffffffffffffffffffffffffffffffffffffff1602179055505062000135565b600080fd5b600073ffffffffffffffffffffffffffffffffffffffff82169050919050565b6000620000cb826200009e565b9050919050565b620000dd81620000be565b8114620000e957600080fd5b50565b600081519050620000fd81620000d2565b92915050565b6000602082840312156200011c576200011b62000099565b5b60006200012c84828501620000ec565b91505092915050565b6127a280620001456000396000f3fe60806040526004361061009c5760003560e01c8063775a8f5e11610064578063775a8f5e14610179578063a4d55d1d146101b6578063ce9d294b146101e1578063cea74edf146101fd578063d4cff25e1461023a578063e21312de146102775761009c565b80631471866c146100a15780632ef31c3c146100cc5780633d18651e146100f55780633e170dd91461012057806353d62ff71461013c575b600080fd5b3480156100ad57600080fd5b506100b66102a0565b6040516100c39190611717565b60405180910390f35b3480156100d857600080fd5b506100f360048036038101906100ee9190611997565b6102ac565b005b34801561010157600080fd5b5061010a610331565b6040516101179190611717565b60405180910390f35b61013a60048036038101906101359190611a7d565b61033d565b005b34801561014857600080fd5b50610163600480360381019061015e9190611ad0565b61046a565b6040516101709190611717565b60405180910390f35b34801561018557600080fd5b506101a0600480360381019061019b9190611afd565b610501565b6040516101ad9190611bb2565b60405180910390f35b3480156101c257600080fd5b506101cb61055e565b6040516101d89190611717565b60405180910390f35b6101fb60048036038101906101f69190611a7d565b610563565b005b34801561020957600080fd5b50610224600480360381019061021f9190611afd565b610690565b6040516102319190611717565b60405180910390f35b34801561024657600080fd5b50610261600480360381019061025c9190611bd4565b6106c0565b60405161026e9190611717565b60405180910390f35b34801561028357600080fd5b5061029e60048036038101906102999190611997565b6106f8565b005b6706f05b59d3b2000081565b60008054906101000a900460ff166102f9576040517f08c379a00000000000000000000000000000000000000000000000000000000081526004016102f090611c71565b60405180910390fd5b61030c60028a8a8a8a8a8a8a8a8a61077d565b60008060006101000a81548160ff021916908315150217905550505050505050505050565b67016345785d8a000081565b816706f05b59d3b200008167016345785d8a000061035b9190611cc0565b6103659190611d1a565b3410156103a7576040517f08c379a000000000000000000000000000000000000000000000000000000000815260040161039e90611dbc565b60405180910390fd5b60008054906101000a900460ff16156103f5576040517f08c379a00000000000000000000000000000000000000000000000000000000081526004016103ec90611e28565b60405180910390fd5b60016000806101000a81548160ff0219169083151502179055503373ffffffffffffffffffffffffffffffffffffffff167fa2a630edc48d1fc0a90b61e08bbc34ce73957ce9d59455207cd0591006bd4d4b600286868660405161045c9493929190611ece565b60405180910390a250505050565b60008060005b602060ff168110156104f7576001816104899190611d1a565b602060ff166104989190611f13565b60086104a49190611cc0565b60026104b0919061207a565b8482602081106104c3576104c26120c5565b5b1a60f81b60f81c60ff166104d79190611cc0565b826104e29190611d1a565b915080806104ef906120f4565b915050610470565b5080915050919050565b6060602067ffffffffffffffff81111561051e5761051d6117f6565b5b6040519080825280601f01601f1916602001820160405280156105505781602001600182028036833780820191505090505b509050816020820152919050565b602181565b816706f05b59d3b200008167016345785d8a00006105819190611cc0565b61058b9190611d1a565b3410156105cd576040517f08c379a00000000000000000000000000000000000000000000000000000000081526004016105c490611dbc565b60405180910390fd5b60008054906101000a900460ff161561061b576040517f08c379a000000000000000000000000000000000000000000000000000000000815260040161061290611e28565b60405180910390fd5b60016000806101000a81548160ff0219169083151502179055503373ffffffffffffffffffffffffffffffffffffffff167fa2a630edc48d1fc0a90b61e08bbc34ce73957ce9d59455207cd0591006bd4d4b60018686866040516106829493929190611ece565b60405180910390a250505050565b60006706f05b59d3b2000067016345785d8a0000836106af9190611cc0565b6106b99190611d1a565b9050919050565b600582815481106106d057600080fd5b906000526020600020906002020181600281106106ec57600080fd5b01600091509150505481565b60008054906101000a900460ff16610745576040517f08c379a000000000000000000000000000000000000000000000000000000000815260040161073c90611c71565b60405180910390fd5b61075860018a8a8a8a8a8a8a8a8a61077d565b60008060006101000a81548160ff021916908315150217905550505050505050505050565b6000600281111561079157610790611e48565b5b8a60028111156107a4576107a3611e48565b5b036107e4576040517f08c379a00000000000000000000000000000000000000000000000000000000081526004016107db90612188565b60405180910390fd5b3373ffffffffffffffffffffffffffffffffffffffff16600660009054906101000a900473ffffffffffffffffffffffffffffffffffffffff1673ffffffffffffffffffffffffffffffffffffffff16633ad59dbc6040518163ffffffff1660e01b8152600401602060405180830381865afa158015610868573d6000803e3d6000fd5b505050506040513d601f19601f8201168201806040525081019061088c91906121bd565b73ffffffffffffffffffffffffffffffffffffffff16146108e2576040517f08c379a00000000000000000000000000000000000000000000000000000000081526004016108d990612236565b60405180910390fd5b60005b81518163ffffffff161015610b48576000600660009054906101000a900473ffffffffffffffffffffffffffffffffffffffff1673ffffffffffffffffffffffffffffffffffffffff1663bc66e9cb848463ffffffff168151811061094d5761094c6120c5565b5b60200260200101516040518263ffffffff1660e01b81526004016109719190612265565b602060405180830381865afa15801561098e573d6000803e3d6000fd5b505050506040513d601f19601f820116820180604052508101906109b29190612295565b90506001548110156109f9576040517f08c379a00000000000000000000000000000000000000000000000000000000081526004016109f09061230e565b60405180910390fd5b6000600660009054906101000a900473ffffffffffffffffffffffffffffffffffffffff1673ffffffffffffffffffffffffffffffffffffffff1663fb9fb18a858563ffffffff1681518110610a5257610a516120c5565b5b60200260200101516040518263ffffffff1660e01b8152600401610a769190612265565b600060405180830381865afa158015610a93573d6000803e3d6000fd5b505050506040513d6000823e3d601f19601f82011682018060405250810190610abc91906124a2565b905060005b8151811015610b32576005828281518110610adf57610ade6120c5565b5b60200260200101519080600181540180825580915050600190039060005260206000209060020201600090919091909150906002610b1e92919061160f565b508080610b2a906120f4565b915050610ac1565b5050508080610b40906124fb565b9150506108e5565b506001546005805490501015610b93576040517f08c379a0000000000000000000000000000000000000000000000000000000008152600401610b8a90612573565b60405180910390fd5b600060406001600580549050610ba99190611d1a565b610bb39190611cc0565b67ffffffffffffffff811115610bcc57610bcb6117f6565b5b6040519080825280601f01601f191660200182016040528015610bfe5781602001600182028036833780820191505090505b50905060006040905060005b6005805490508163ffffffff161015610d3f5760005b60028163ffffffff161015610d2b576000610c7b60058463ffffffff1681548110610c4e57610c4d6120c5565b5b90600052602060002090600202018363ffffffff1660028110610c7457610c736120c5565b5b0154610501565b905060005b81518163ffffffff161015610d1657818163ffffffff1681518110610ca857610ca76120c5565b5b602001015160f81c60f81b868681518110610cc657610cc56120c5565b5b60200101907effffffffffffffffffffffffffffffffffffffffffffffffffffffffffffff1916908160001a9053508480610d00906120f4565b9550508080610d0e906124fb565b915050610c80565b50508080610d23906124fb565b915050610c20565b508080610d37906124fb565b915050610c0a565b5060008060005b6005805490508163ffffffff161015610fd157600060058263ffffffff1681548110610d7557610d746120c5565b5b9060005260206000209060020201600060028110610d9657610d956120c5565b5b01549050600060058363ffffffff1681548110610db657610db56120c5565b5b9060005260206000209060020201600160028110610dd757610dd66120c5565b5b0154905060005b6020811015610e68576000610df284610501565b9050808281518110610e0757610e066120c5565b5b602001015160f81c60f81b898381518110610e2557610e246120c5565b5b60200101907effffffffffffffffffffffffffffffffffffffffffffffffffffffffffffff1916908160001a905350508080610e60906120f4565b915050610dde565b5060005b6020811015610f02576000610e8083610501565b9050808281518110610e9557610e946120c5565b5b602001015160f81c60f81b89602084610eae9190611d1a565b81518110610ebf57610ebe6120c5565b5b60200101907effffffffffffffffffffffffffffffffffffffffffffffffffffffffffffff1916908160001a905350508080610efa906120f4565b915050610e6c565b506000610f5d600289604051610f1891906125cf565b602060405180830381855afa158015610f35573d6000803e3d6000fd5b5050506040513d601f19601f82011682018060405250810190610f5891906125fb565b61046a565b9050610f826040518060600160405280858152602001848152602001838152506113dd565b8093508194505050610fb3604051806080016040528085815260200184815260200188815260200187815250611477565b80965081975050505050508080610fc9906124fb565b915050610d46565b50610fe08b83838d8d8d611511565b61101f576040517f08c379a000000000000000000000000000000000000000000000000000000000815260040161101690612674565b60405180910390fd5b6001600281111561103357611032611e48565b5b8e600281111561104657611045611e48565b5b0361107b578c600360008e815260200190815260200160002060006101000a81548160ff0219169083151502179055506110d3565b60028081111561108e5761108d611e48565b5b8e60028111156110a1576110a0611e48565b5b036110d2578c600460008e815260200190815260200160002060006101000a81548160ff0219169083151502179055505b5b3373ffffffffffffffffffffffffffffffffffffffff166108fc6706f05b59d3b200009081150290604051600060405180830381858888f19350505050158015611121573d6000803e3d6000fd5b5060005b85518163ffffffff1610156113be57600660009054906101000a900473ffffffffffffffffffffffffffffffffffffffff1673ffffffffffffffffffffffffffffffffffffffff1663bc66e9cb878363ffffffff168151811061118b5761118a6120c5565b5b60200260200101516040518263ffffffff1660e01b81526004016111af9190612265565b602060405180830381865afa1580156111cc573d6000803e3d6000fd5b505050506040513d601f19601f820116820180604052508101906111f09190612295565b67016345785d8a00006112039190611cc0565b471061134357858163ffffffff1681518110611222576112216120c5565b5b602002602001015173ffffffffffffffffffffffffffffffffffffffff166108fc600660009054906101000a900473ffffffffffffffffffffffffffffffffffffffff1673ffffffffffffffffffffffffffffffffffffffff1663bc66e9cb898563ffffffff168151811061129a576112996120c5565b5b60200260200101516040518263ffffffff1660e01b81526004016112be9190612265565b602060405180830381865afa1580156112db573d6000803e3d6000fd5b505050506040513d601f19601f820116820180604052508101906112ff9190612295565b67016345785d8a00006113129190611cc0565b9081150290604051600060405180830381858888f1935050505015801561133d573d6000803e3d6000fd5b506113ab565b858163ffffffff168151811061135c5761135b6120c5565b5b602002602001015173ffffffffffffffffffffffffffffffffffffffff166108fc479081150290604051600060405180830381858888f193505050501580156113a9573d6000803e3d6000fd5b505b80806113b6906124fb565b915050611125565b50600560006113cd919061164f565b5050505050505050505050505050565b60008060006113ea611673565b60408160608760006007600019f191508161143a576040517f08c379a0000000000000000000000000000000000000000000000000000000008152600401611431906126e0565b60405180910390fd5b8060006002811061144e5761144d6120c5565b5b602002015181600160028110611467576114666120c5565b5b6020020151935093505050915091565b6000806000611484611673565b60408160808760006006600019f19150816114d4576040517f08c379a00000000000000000000000000000000000000000000000000000000081526004016114cb9061274c565b60405180910390fd5b806000600281106114e8576114e76120c5565b5b602002015181600160028110611501576115006120c5565b5b6020020151935093505050915091565b6000806040518060600160405280600181526020016002815260200189815250905061153b611695565b611544826113dd565b826000018360200182815250828152505050600060405180606001604052808a815260200189815260200186815250905061157d611695565b611586826113dd565b826000018360200182815250828152505050600060405180608001604052808a815260200189815260200183600001518152602001836020015181525090506115ce81611477565b836000018460200182815250828152505050816000015184600001511480156115fe575081602001518460200151145b955050505050509695505050505050565b826002810192821561163e579160200282015b8281111561163d578251825591602001919060010190611622565b5b50905061164b91906116af565b5090565b508054600082556002029060005260206000209081019061167091906116cc565b50565b6040518060400160405280600290602082028036833780820191505090505090565b604051806040016040528060008152602001600081525090565b5b808211156116c85760008160009055506001016116b0565b5090565b5b808211156116ec57600081816116e391906116f0565b506002016116cd565b5090565b506000815560010160009055565b6000819050919050565b611711816116fe565b82525050565b600060208201905061172c6000830184611708565b92915050565b6000604051905090565b600080fd5b600080fd5b60008115159050919050565b61175b81611746565b811461176657600080fd5b50565b60008135905061177881611752565b92915050565b6000819050919050565b6117918161177e565b811461179c57600080fd5b50565b6000813590506117ae81611788565b92915050565b6117bd816116fe565b81146117c857600080fd5b50565b6000813590506117da816117b4565b92915050565b600080fd5b6000601f19601f8301169050919050565b7f4e487b7100000000000000000000000000000000000000000000000000000000600052604160045260246000fd5b61182e826117e5565b810181811067ffffffffffffffff8211171561184d5761184c6117f6565b5b80604052505050565b6000611860611732565b905061186c8282611825565b919050565b600067ffffffffffffffff82111561188c5761188b6117f6565b5b602082029050602081019050919050565b600080fd5b600073ffffffffffffffffffffffffffffffffffffffff82169050919050565b60006118cd826118a2565b9050919050565b6118dd816118c2565b81146118e857600080fd5b50565b6000813590506118fa816118d4565b92915050565b600061191361190e84611871565b611856565b905080838252602082019050602084028301858111156119365761193561189d565b5b835b8181101561195f578061194b88826118eb565b845260208401935050602081019050611938565b5050509392505050565b600082601f83011261197e5761197d6117e0565b5b813561198e848260208601611900565b91505092915050565b60008060008060008060008060006101208a8c0312156119ba576119b961173c565b5b60006119c88c828d01611769565b99505060206119d98c828d0161179f565b98505060406119ea8c828d016117cb565b97505060606119fb8c828d016117cb565b9650506080611a0c8c828d016117cb565b95505060a0611a1d8c828d016117cb565b94505060c0611a2e8c828d016117cb565b93505060e0611a3f8c828d016117cb565b9250506101008a013567ffffffffffffffff811115611a6157611a60611741565b5b611a6d8c828d01611969565b9150509295985092959850929598565b600080600060608486031215611a9657611a9561173c565b5b6000611aa48682870161179f565b9350506020611ab5868287016117cb565b9250506040611ac6868287016117cb565b9150509250925092565b600060208284031215611ae657611ae561173c565b5b6000611af48482850161179f565b91505092915050565b600060208284031215611b1357611b1261173c565b5b6000611b21848285016117cb565b91505092915050565b600081519050919050565b600082825260208201905092915050565b60005b83811015611b64578082015181840152602081019050611b49565b83811115611b73576000848401525b50505050565b6000611b8482611b2a565b611b8e8185611b35565b9350611b9e818560208601611b46565b611ba7816117e5565b840191505092915050565b60006020820190508181036000830152611bcc8184611b79565b905092915050565b60008060408385031215611beb57611bea61173c565b5b6000611bf9858286016117cb565b9250506020611c0a858286016117cb565b9150509250929050565b600082825260208201905092915050565b7f4e6f742076616c69646174652074696d65210000000000000000000000000000600082015250565b6000611c5b601283611c14565b9150611c6682611c25565b602082019050919050565b60006020820190508181036000830152611c8a81611c4e565b9050919050565b7f4e487b7100000000000000000000000000000000000000000000000000000000600052601160045260246000fd5b6000611ccb826116fe565b9150611cd6836116fe565b9250817fffffffffffffffffffffffffffffffffffffffffffffffffffffffffffffffff0483118215151615611d0f57611d0e611c91565b5b828202905092915050565b6000611d25826116fe565b9150611d30836116fe565b9250827fffffffffffffffffffffffffffffffffffffffffffffffffffffffffffffffff03821115611d6557611d64611c91565b5b828201905092915050565b7f746f6f206665772066656520616d6f756e740000000000000000000000000000600082015250565b6000611da6601283611c14565b9150611db182611d70565b602082019050919050565b60006020820190508181036000830152611dd581611d99565b9050919050565b7f416e6f746865722076616c696461746520697320696e2070726f677265737321600082015250565b6000611e12602083611c14565b9150611e1d82611ddc565b602082019050919050565b60006020820190508181036000830152611e4181611e05565b9050919050565b7f4e487b7100000000000000000000000000000000000000000000000000000000600052602160045260246000fd5b60038110611e8857611e87611e48565b5b50565b6000819050611e9982611e77565b919050565b6000611ea982611e8b565b9050919050565b611eb981611e9e565b82525050565b611ec88161177e565b82525050565b6000608082019050611ee36000830187611eb0565b611ef06020830186611ebf565b611efd6040830185611708565b611f0a6060830184611708565b95945050505050565b6000611f1e826116fe565b9150611f29836116fe565b925082821015611f3c57611f3b611c91565b5b828203905092915050565b60008160011c9050919050565b6000808291508390505b6001851115611f9e57808604811115611f7a57611f79611c91565b5b6001851615611f895780820291505b8081029050611f9785611f47565b9450611f5e565b94509492505050565b600082611fb75760019050612073565b81611fc55760009050612073565b8160018114611fdb5760028114611fe557612014565b6001915050612073565b60ff841115611ff757611ff6611c91565b5b8360020a91508482111561200e5761200d611c91565b5b50612073565b5060208310610133831016604e8410600b84101617156120495782820a90508381111561204457612043611c91565b5b612073565b6120568484846001611f54565b9250905081840481111561206d5761206c611c91565b5b81810290505b9392505050565b6000612085826116fe565b9150612090836116fe565b92506120bd7fffffffffffffffffffffffffffffffffffffffffffffffffffffffffffffffff8484611fa7565b905092915050565b7f4e487b7100000000000000000000000000000000000000000000000000000000600052603260045260246000fd5b60006120ff826116fe565b91507fffffffffffffffffffffffffffffffffffffffffffffffffffffffffffffffff820361213157612130611c91565b5b600182019050919050565b7f756e6b6e6f776e2076616c69646174696f6e2074797065000000000000000000600082015250565b6000612172601783611c14565b915061217d8261213c565b602082019050919050565b600060208201905081810360008301526121a181612165565b9050919050565b6000815190506121b7816118d4565b92915050565b6000602082840312156121d3576121d261173c565b5b60006121e1848285016121a8565b91505092915050565b7f6e6f74207468652061676772656761746f720000000000000000000000000000600082015250565b6000612220601283611c14565b915061222b826121ea565b602082019050919050565b6000602082019050818103600083015261224f81612213565b9050919050565b61225f816118c2565b82525050565b600060208201905061227a6000830184612256565b92915050565b60008151905061228f816117b4565b92915050565b6000602082840312156122ab576122aa61173c565b5b60006122b984828501612280565b91505092915050565b7f6c6f772073696e67616c2072616e6b0000000000000000000000000000000000600082015250565b60006122f8600f83611c14565b9150612303826122c2565b602082019050919050565b60006020820190508181036000830152612327816122eb565b9050919050565b600067ffffffffffffffff821115612349576123486117f6565b5b602082029050602081019050919050565b600067ffffffffffffffff821115612375576123746117f6565b5b602082029050919050565b600061239361238e8461235a565b611856565b905080602084028301858111156123ad576123ac61189d565b5b835b818110156123d657806123c28882612280565b8452602084019350506020810190506123af565b5050509392505050565b600082601f8301126123f5576123f46117e0565b5b6002612402848285612380565b91505092915050565b600061241e6124198461232e565b611856565b905080838252602082019050604084028301858111156124415761244061189d565b5b835b8181101561246a578061245688826123e0565b845260208401935050604081019050612443565b5050509392505050565b600082601f830112612489576124886117e0565b5b815161249984826020860161240b565b91505092915050565b6000602082840312156124b8576124b761173c565b5b600082015167ffffffffffffffff8111156124d6576124d5611741565b5b6124e284828501612474565b91505092915050565b600063ffffffff82169050919050565b6000612506826124eb565b915063ffffffff820361251c5761251b611c91565b5b600182019050919050565b7f6c6f7720746f74616c2072616e6b000000000000000000000000000000000000600082015250565b600061255d600e83611c14565b915061256882612527565b602082019050919050565b6000602082019050818103600083015261258c81612550565b9050919050565b600081905092915050565b60006125a982611b2a565b6125b38185612593565b93506125c3818560208601611b46565b80840191505092915050565b60006125db828461259e565b915081905092915050565b6000815190506125f581611788565b92915050565b6000602082840312156126115761261061173c565b5b600061261f848285016125e6565b91505092915050565b7f7369673a206164647265737320646f65736e2774206d61746368000000000000600082015250565b600061265e601a83611c14565b915061266982612628565b602082019050919050565b6000602082019050818103600083015261268d81612651565b9050919050565b7f6563206d756c206661696c656400000000000000000000000000000000000000600082015250565b60006126ca600d83611c14565b91506126d582612694565b602082019050919050565b600060208201905081810360008301526126f9816126bd565b9050919050565b7f626e323536206164646974696f6e206661696c65640000000000000000000000600082015250565b6000612736601583611c14565b915061274182612700565b602082019050919050565b6000602082019050818103600083015261276581612729565b905091905056fea2646970667358221220f01eb64a813c866a6a2346770e8d90feae341c15062ce56fa3ef71912d11a77264736f6c634300080d0033",
  "immutableReferences": {},
  "source": "// SPDX-License-Identifier: MIT\npragma solidity  >0.8.0;\n\nimport \"./RegistryContract.sol\";\nimport \"./crypto/Schnorr.sol\";\nimport \"./crypto/BN256G1.sol\";\n\ncontract OracleContract {\n\n    // \n    bool private isValidateTime = false;\n\n    // \n    uint256 public constant BASE_FEE = 0.1 ether;\n    uint256 public constant AGGREGATE_FEE = 0.5 ether;\n\n    uint256 private currentRank;\n    uint256 private currentSize;\n    uint256 public constant PUBKEY_LENGTH = 33;\n\n    // \n    mapping(bytes32 => bool) private blockValidationResults;\n    mapping(bytes32 => bool) private txValidationResults;\n\n    uint256[2][] public allPubKeys;\n\n    // ;\n    enum ValidationType { UNKNOWN, BLOCK, TRANSACTION }\n\n    // indexed\n    event ValidationRequest(ValidationType typ, address indexed from, bytes32 hash, uint256 size, uint256 minRank);\n\n    RegistryContract private registryContract;\n    constructor(address registry) {\n        registryContract = RegistryContract(registry);\n    }\n\n    modifier minFee(uint size) {\n        require(msg.value >= BASE_FEE * size + AGGREGATE_FEE, \"too few fee amount\");\n        _;\n    }\n\n    function totalFee(uint256 size) public pure returns (uint256){\n        return size * BASE_FEE + AGGREGATE_FEE;\n    }\n\n    function validateBlock(bytes32 _message, uint256 size, uint256 minRank) external payable minFee(size) {\n        require(!isValidateTime, \"Another validate is in progress!\");\n        isValidateTime = true;\n        emit ValidationRequest(ValidationType.BLOCK, msg.sender, _message, size, minRank);\n    }\n\n    function validateTransaction(bytes32 _message, uint256 size, uint256 minRank) external payable minFee(size) {\n        require(!isValidateTime, \"Another validate is in progress!\");\n        isValidateTime = true;\n        emit ValidationRequest(ValidationType.TRANSACTION, msg.sender, _message, size, minRank);\n    }\n\n\n//-----------------------------------------------------------------------------------------------------------------------------------------------\n\n\n    function submitBlockValidationResult(bool _result, bytes32 message, uint256 signature, uint256 rx , uint256 ry, uint256 _hash, uint256 hashScalar0,  uint256 hashScalar2, address[] memory validators) external {\n        require(isValidateTime, \"Not validate time!\");\n        submitValidationResult(ValidationType.BLOCK, _result, message, signature, rx, ry, _hash, hashScalar0, hashScalar2, validators);\n        isValidateTime = false;\n    }\n\n    function submitTransactionValidationResult(bool _result, bytes32 message, uint256 signature, uint256 rx , uint256 ry, uint256 _hash, uint256 hashScalar0,  uint256 hashScalar2, address[] memory validators) external {\n        require(isValidateTime, \"Not validate time!\");\n        submitValidationResult(ValidationType.TRANSACTION, _result, message, signature, rx, ry, _hash, hashScalar0, hashScalar2, validators);\n        isValidateTime = false;\n    }\n\n    function submitValidationResult(\n        ValidationType _typ,\n        bool _result,\n        bytes32 message,\n        uint256 signature, uint256 rx , uint256 ry, uint256 _hash, uint256 pubKeyX1,  uint256 pubKeyY1,\n        address[] memory validators\n    ) private {\n        require(_typ != ValidationType.UNKNOWN, \"unknown validation type\");\n        require(registryContract.getAggregator() == msg.sender, \"not the aggregator\");  //\n    \n        \n        for(uint32 i = 0 ; i < validators.length ; i++){\n            // \n            uint256 rank = registryContract.getNodeRank(validators[i]);\n            require(rank >= currentRank, \"low singal rank\");\n            uint256[2][] memory pubKeys = registryContract.getNodePublicKeys(validators[i]);\n            for(uint j = 0; j < pubKeys.length; j++){\n                allPubKeys.push(pubKeys[j]);        \n            }\n        }\n        require(allPubKeys.length >= currentRank, \"low total rank\");\n        \n        // TODO:\n         bytes memory S = new bytes((allPubKeys.length + 1) * 64);\n         uint256 index = 64;\n         for(uint32 i = 0 ; i < allPubKeys.length ; i++){\n             for(uint32 j = 0; j < 2; j++){\n                 bytes memory temp = toBytes(allPubKeys[i][j]);\n                 for(uint32 k = 0; k < temp.length; k++){\n                     S[index] = temp[k];\n                     index++;\n                 }\n             }\n         }\n\n         uint256 pubKeyX = 0;\n         uint256 pubKeyY = 0;\n\n         for(uint32 i = 0 ; i < allPubKeys.length ; i++){\n             uint256 tempX = allPubKeys[i][0];\n             uint256 tempY = allPubKeys[i][1];\n             for(uint k = 0; k < 32; k++){\n                 bytes memory temp = toBytes(tempX);\n                 S[k] = temp[k];\n             }\n             for(uint k = 0; k < 32; k++){\n                 bytes memory temp = toBytes(tempY);\n                 S[k + 32] = temp[k];\n             }\n             uint256 res = bytesToUint256(sha256(S));\n             (tempX, tempY) = BN256G1.mulPoint([tempX, tempY, res]);\n             (pubKeyX, pubKeyY) = BN256G1.addPoint([tempX, tempY, pubKeyX, pubKeyY]);\n         }\n        // require(Schnorr.verify(signature, pubKeyX1, pubKeyY1, rx, ry, _hash), \"sig verify fail\");\n\n        // require(pubKeyX == pubKeyX1, \"pubKey recover fail\");\n        /*Schnorr*/\n        require(Schnorr.verify(signature, pubKeyX, pubKeyY, rx, ry, _hash), \"sig: address doesn't match\");\n\n        if (_typ == ValidationType.BLOCK) {\n            blockValidationResults[message] = _result;\n        } else if (_typ == ValidationType.TRANSACTION) {\n            txValidationResults[message] = _result;\n        }\n\n        //  \n        payable(msg.sender).transfer(AGGREGATE_FEE);     //\n        // \n\n        for(uint32 i = 0 ; i < validators.length ; i++){\n            if(address(this).balance >= BASE_FEE * registryContract.getNodeRank(validators[i])){\n                payable(validators[i]).transfer(BASE_FEE * registryContract.getNodeRank(validators[i])); \n            } else{\n                payable(validators[i]).transfer(address(this).balance); \n            }\n        }\n\n        delete allPubKeys;\n    }\n\n    function bytesToUint256(bytes32 b) public pure returns (uint256){\n        uint256 number;\n        for(uint i= 0; i < b.length; i++){\n            number = number + uint8(b[i])*(2**(8*(b.length-(i+1))));\n        }\n        return  number;\n    }\n\n    function toBytes(uint256 x) public pure returns (bytes memory b) {\n        b = new bytes(32);\n        assembly { mstore(add(b, 32), x) }\n    }\n}\n",
  "sourcePath": "/home/yuhang/Schnorr/Schnorr-multi-signature-oracle/ioporaclecontracts/contracts/OracleContract.sol",
  "compiler": {
    "name": "solc",
    "version": "0.8.13+commit.abaa5c0e.Emscripten.clang"
  },
  "schemaVersion": "3.4.14",
  "updatedAt": "2023-12-18T06:03:57.220Z",
  "networkType": "ethereum",
  "devdoc": {
    "kind": "dev",
    "methods": {},
    "version": 1
  },
  "userdoc": {
    "kind": "user",
    "methods": {},
    "version": 1
  }
}