{
  "contractName": "OracleContract",
  "abi": [
    {
      "inputs": [
        {
          "internalType": "address",
          "name": "registry",
          "type": "address"
        }
      ],
      "stateMutability": "nonpayable",
      "type": "constructor"
    },
    {
      "anonymous": false,
      "inputs": [
        {
          "indexed": false,
          "internalType": "enum OracleContract.ValidationType",
          "name": "typ",
          "type": "uint8"
        },
        {
          "indexed": true,
          "internalType": "address",
          "name": "from",
          "type": "address"
        },
        {
          "indexed": false,
          "internalType": "bytes32",
          "name": "hash",
          "type": "bytes32"
        },
        {
          "indexed": false,
          "internalType": "uint256",
          "name": "size",
          "type": "uint256"
        },
        {
          "indexed": false,
          "internalType": "uint256",
          "name": "minRank",
          "type": "uint256"
        }
      ],
      "name": "ValidationRequest",
      "type": "event"
    },
    {
      "inputs": [],
      "name": "AGGREGATE_FEE",
      "outputs": [
        {
          "internalType": "uint256",
          "name": "",
          "type": "uint256"
        }
      ],
      "stateMutability": "view",
      "type": "function",
      "constant": true
    },
    {
      "inputs": [],
      "name": "BASE_FEE",
      "outputs": [
        {
          "internalType": "uint256",
          "name": "",
          "type": "uint256"
        }
      ],
      "stateMutability": "view",
      "type": "function",
      "constant": true
    },
    {
      "inputs": [],
      "name": "PUBKEY_LENGTH",
      "outputs": [
        {
          "internalType": "uint256",
          "name": "",
          "type": "uint256"
        }
      ],
      "stateMutability": "view",
      "type": "function",
      "constant": true
    },
    {
      "inputs": [
        {
          "internalType": "uint256",
          "name": "",
          "type": "uint256"
        },
        {
          "internalType": "uint256",
          "name": "",
          "type": "uint256"
        }
      ],
      "name": "allPubKeys",
      "outputs": [
        {
          "internalType": "uint256",
          "name": "",
          "type": "uint256"
        }
      ],
      "stateMutability": "view",
      "type": "function",
      "constant": true
    },
    {
      "inputs": [
        {
          "internalType": "uint256",
          "name": "size",
          "type": "uint256"
        }
      ],
      "name": "totalFee",
      "outputs": [
        {
          "internalType": "uint256",
          "name": "",
          "type": "uint256"
        }
      ],
      "stateMutability": "pure",
      "type": "function",
      "constant": true
    },
    {
      "inputs": [
        {
          "internalType": "bytes32",
          "name": "_message",
          "type": "bytes32"
        },
        {
          "internalType": "uint256",
          "name": "size",
          "type": "uint256"
        },
        {
          "internalType": "uint256",
          "name": "minRank",
          "type": "uint256"
        }
      ],
      "name": "validateBlock",
      "outputs": [],
      "stateMutability": "payable",
      "type": "function",
      "payable": true
    },
    {
      "inputs": [
        {
          "internalType": "bytes32",
          "name": "_message",
          "type": "bytes32"
        },
        {
          "internalType": "uint256",
          "name": "size",
          "type": "uint256"
        },
        {
          "internalType": "uint256",
          "name": "minRank",
          "type": "uint256"
        }
      ],
      "name": "validateTransaction",
      "outputs": [],
      "stateMutability": "payable",
      "type": "function",
      "payable": true
    },
    {
      "inputs": [
        {
          "internalType": "bool",
          "name": "_result",
          "type": "bool"
        },
        {
          "internalType": "bytes32",
          "name": "message",
          "type": "bytes32"
        },
        {
          "internalType": "uint256",
          "name": "signature",
          "type": "uint256"
        },
        {
          "internalType": "uint256",
          "name": "rx",
          "type": "uint256"
        },
        {
          "internalType": "uint256",
          "name": "ry",
          "type": "uint256"
        },
        {
          "internalType": "uint256",
          "name": "_hash",
          "type": "uint256"
        },
        {
          "internalType": "uint256",
          "name": "hashScalar0",
          "type": "uint256"
        },
        {
          "internalType": "uint256",
          "name": "hashScalar2",
          "type": "uint256"
        },
        {
          "internalType": "address[]",
          "name": "validators",
          "type": "address[]"
        }
      ],
      "name": "submitBlockValidationResult",
      "outputs": [],
      "stateMutability": "nonpayable",
      "type": "function"
    },
    {
      "inputs": [
        {
          "internalType": "bool",
          "name": "_result",
          "type": "bool"
        },
        {
          "internalType": "bytes32",
          "name": "message",
          "type": "bytes32"
        },
        {
          "internalType": "uint256",
          "name": "signature",
          "type": "uint256"
        },
        {
          "internalType": "uint256",
          "name": "rx",
          "type": "uint256"
        },
        {
          "internalType": "uint256",
          "name": "ry",
          "type": "uint256"
        },
        {
          "internalType": "uint256",
          "name": "_hash",
          "type": "uint256"
        },
        {
          "internalType": "uint256",
          "name": "hashScalar0",
          "type": "uint256"
        },
        {
          "internalType": "uint256",
          "name": "hashScalar2",
          "type": "uint256"
        },
        {
          "internalType": "address[]",
          "name": "validators",
          "type": "address[]"
        }
      ],
      "name": "submitTransactionValidationResult",
      "outputs": [],
      "stateMutability": "nonpayable",
      "type": "function"
    },
    {
      "inputs": [
        {
          "internalType": "bytes32",
          "name": "b",
          "type": "bytes32"
        }
      ],
      "name": "bytesToUint256",
      "outputs": [
        {
          "internalType": "uint256",
          "name": "",
          "type": "uint256"
        }
      ],
      "stateMutability": "pure",
      "type": "function",
      "constant": true
    }
  ],
  "bytecode": "0x608060405260008060006101000a81548160ff0219169083151502179055503480156200002b57600080fd5b50604051620027b5380380620027b5833981810160405281019062000051919062000103565b80600660006101000a81548173ffffffffffffffffffffffffffffffffffffffff021916908373ffffffffffffffffffffffffffffffffffffffff1602179055505062000135565b600080fd5b600073ffffffffffffffffffffffffffffffffffffffff82169050919050565b6000620000cb826200009e565b9050919050565b620000dd81620000be565b8114620000e957600080fd5b50565b600081519050620000fd81620000d2565b92915050565b6000602082840312156200011c576200011b62000099565b5b60006200012c84828501620000ec565b91505092915050565b61267080620001456000396000f3fe6080604052600436106100915760003560e01c8063a4d55d1d11610059578063a4d55d1d1461016e578063ce9d294b14610199578063cea74edf146101b5578063d4cff25e146101f2578063e21312de1461022f57610091565b80631471866c146100965780632ef31c3c146100c15780633d18651e146100ea5780633e170dd91461011557806353d62ff714610131575b600080fd5b3480156100a257600080fd5b506100ab610258565b6040516100b89190611651565b60405180910390f35b3480156100cd57600080fd5b506100e860048036038101906100e391906118d1565b610264565b005b3480156100f657600080fd5b506100ff6102e9565b60405161010c9190611651565b60405180910390f35b61012f600480360381019061012a91906119b7565b6102f5565b005b34801561013d57600080fd5b5061015860048036038101906101539190611a0a565b610422565b6040516101659190611651565b60405180910390f35b34801561017a57600080fd5b506101836104b9565b6040516101909190611651565b60405180910390f35b6101b360048036038101906101ae91906119b7565b6104be565b005b3480156101c157600080fd5b506101dc60048036038101906101d79190611a37565b6105eb565b6040516101e99190611651565b60405180910390f35b3480156101fe57600080fd5b5061021960048036038101906102149190611a64565b61061b565b6040516102269190611651565b60405180910390f35b34801561023b57600080fd5b50610256600480360381019061025191906118d1565b610653565b005b6706f05b59d3b2000081565b60008054906101000a900460ff166102b1576040517f08c379a00000000000000000000000000000000000000000000000000000000081526004016102a890611b01565b60405180910390fd5b6102c460028a8a8a8a8a8a8a8a8a6106d8565b60008060006101000a81548160ff021916908315150217905550505050505050505050565b67016345785d8a000081565b816706f05b59d3b200008167016345785d8a00006103139190611b50565b61031d9190611baa565b34101561035f576040517f08c379a000000000000000000000000000000000000000000000000000000000815260040161035690611c4c565b60405180910390fd5b60008054906101000a900460ff16156103ad576040517f08c379a00000000000000000000000000000000000000000000000000000000081526004016103a490611cb8565b60405180910390fd5b60016000806101000a81548160ff0219169083151502179055503373ffffffffffffffffffffffffffffffffffffffff167fa2a630edc48d1fc0a90b61e08bbc34ce73957ce9d59455207cd0591006bd4d4b60028686866040516104149493929190611d5e565b60405180910390a250505050565b60008060005b602060ff168110156104af576001816104419190611baa565b602060ff166104509190611da3565b600861045c9190611b50565b60026104689190611f0a565b84826020811061047b5761047a611f55565b5b1a60f81b60f81c60ff1661048f9190611b50565b8261049a9190611baa565b915080806104a790611f84565b915050610428565b5080915050919050565b602181565b816706f05b59d3b200008167016345785d8a00006104dc9190611b50565b6104e69190611baa565b341015610528576040517f08c379a000000000000000000000000000000000000000000000000000000000815260040161051f90611c4c565b60405180910390fd5b60008054906101000a900460ff1615610576576040517f08c379a000000000000000000000000000000000000000000000000000000000815260040161056d90611cb8565b60405180910390fd5b60016000806101000a81548160ff0219169083151502179055503373ffffffffffffffffffffffffffffffffffffffff167fa2a630edc48d1fc0a90b61e08bbc34ce73957ce9d59455207cd0591006bd4d4b60018686866040516105dd9493929190611d5e565b60405180910390a250505050565b60006706f05b59d3b2000067016345785d8a00008361060a9190611b50565b6106149190611baa565b9050919050565b6005828154811061062b57600080fd5b9060005260206000209060020201816002811061064757600080fd5b01600091509150505481565b60008054906101000a900460ff166106a0576040517f08c379a000000000000000000000000000000000000000000000000000000000815260040161069790611b01565b60405180910390fd5b6106b360018a8a8a8a8a8a8a8a8a6106d8565b60008060006101000a81548160ff021916908315150217905550505050505050505050565b600060028111156106ec576106eb611cd8565b5b8a60028111156106ff576106fe611cd8565b5b0361073f576040517f08c379a000000000000000000000000000000000000000000000000000000000815260040161073690612018565b60405180910390fd5b3373ffffffffffffffffffffffffffffffffffffffff16600660009054906101000a900473ffffffffffffffffffffffffffffffffffffffff1673ffffffffffffffffffffffffffffffffffffffff16633ad59dbc6040518163ffffffff1660e01b8152600401602060405180830381865afa1580156107c3573d6000803e3d6000fd5b505050506040513d601f19601f820116820180604052508101906107e7919061204d565b73ffffffffffffffffffffffffffffffffffffffff161461083d576040517f08c379a0000000000000000000000000000000000000000000000000000000008152600401610834906120c6565b60405180910390fd5b60005b81518163ffffffff161015610aa3576000600660009054906101000a900473ffffffffffffffffffffffffffffffffffffffff1673ffffffffffffffffffffffffffffffffffffffff1663bc66e9cb848463ffffffff16815181106108a8576108a7611f55565b5b60200260200101516040518263ffffffff1660e01b81526004016108cc91906120f5565b602060405180830381865afa1580156108e9573d6000803e3d6000fd5b505050506040513d601f19601f8201168201806040525081019061090d9190612125565b9050600154811015610954576040517f08c379a000000000000000000000000000000000000000000000000000000000815260040161094b9061219e565b60405180910390fd5b6000600660009054906101000a900473ffffffffffffffffffffffffffffffffffffffff1673ffffffffffffffffffffffffffffffffffffffff1663fb9fb18a858563ffffffff16815181106109ad576109ac611f55565b5b60200260200101516040518263ffffffff1660e01b81526004016109d191906120f5565b600060405180830381865afa1580156109ee573d6000803e3d6000fd5b505050506040513d6000823e3d601f19601f82011682018060405250810190610a179190612332565b905060005b8151811015610a8d576005828281518110610a3a57610a39611f55565b5b60200260200101519080600181540180825580915050600190039060005260206000209060020201600090919091909150906002610a79929190611549565b508080610a8590611f84565b915050610a1c565b5050508080610a9b9061238b565b915050610840565b506001546005805490501015610aee576040517f08c379a0000000000000000000000000000000000000000000000000000000008152600401610ae590612403565b60405180910390fd5b600060406001600580549050610b049190611baa565b610b0e9190611b50565b67ffffffffffffffff811115610b2757610b26611730565b5b6040519080825280601f01601f191660200182016040528015610b595781602001600182028036833780820191505090505b50905060006040905060005b6005805490508163ffffffff161015610c915760005b60028163ffffffff161015610c7d57600060058363ffffffff1681548110610ba657610ba5611f55565b5b90600052602060002090600202018263ffffffff1660028110610bcc57610bcb611f55565b5b015460001b905060005b602060ff168163ffffffff161015610c6857818163ffffffff1660208110610c0157610c00611f55565b5b1a60f81b868681518110610c1857610c17611f55565b5b60200101907effffffffffffffffffffffffffffffffffffffffffffffffffffffffffffff1916908160001a9053508480610c5290611f84565b9550508080610c609061238b565b915050610bd6565b50508080610c759061238b565b915050610b7b565b508080610c899061238b565b915050610b65565b5060008060005b6005805490508163ffffffff161015610f0b57600060058263ffffffff1681548110610cc757610cc6611f55565b5b9060005260206000209060020201600060028110610ce857610ce7611f55565b5b01549050600060058363ffffffff1681548110610d0857610d07611f55565b5b9060005260206000209060020201600160028110610d2957610d28611f55565b5b0154905060005b6020811015610dae5760008360001b9050808260208110610d5457610d53611f55565b5b1a60f81b898381518110610d6b57610d6a611f55565b5b60200101907effffffffffffffffffffffffffffffffffffffffffffffffffffffffffffff1916908160001a905350508080610da690611f84565b915050610d30565b5060005b6020811015610e3c5760008260001b9050808260208110610dd657610dd5611f55565b5b1a60f81b89602084610de89190611baa565b81518110610df957610df8611f55565b5b60200101907effffffffffffffffffffffffffffffffffffffffffffffffffffffffffffff1916908160001a905350508080610e3490611f84565b915050610db2565b506000610e97600289604051610e52919061249d565b602060405180830381855afa158015610e6f573d6000803e3d6000fd5b5050506040513d601f19601f82011682018060405250810190610e9291906124c9565b610422565b9050610ebc604051806060016040528085815260200184815260200183815250611317565b8093508194505050610eed6040518060800160405280858152602001848152602001888152602001878152506113b1565b80965081975050505050508080610f039061238b565b915050610c98565b50610f1a8b83838d8d8d61144b565b610f59576040517f08c379a0000000000000000000000000000000000000000000000000000000008152600401610f5090612542565b60405180910390fd5b60016002811115610f6d57610f6c611cd8565b5b8e6002811115610f8057610f7f611cd8565b5b03610fb5578c600360008e815260200190815260200160002060006101000a81548160ff02191690831515021790555061100d565b600280811115610fc857610fc7611cd8565b5b8e6002811115610fdb57610fda611cd8565b5b0361100c578c600460008e815260200190815260200160002060006101000a81548160ff0219169083151502179055505b5b3373ffffffffffffffffffffffffffffffffffffffff166108fc6706f05b59d3b200009081150290604051600060405180830381858888f1935050505015801561105b573d6000803e3d6000fd5b5060005b85518163ffffffff1610156112f857600660009054906101000a900473ffffffffffffffffffffffffffffffffffffffff1673ffffffffffffffffffffffffffffffffffffffff1663bc66e9cb878363ffffffff16815181106110c5576110c4611f55565b5b60200260200101516040518263ffffffff1660e01b81526004016110e991906120f5565b602060405180830381865afa158015611106573d6000803e3d6000fd5b505050506040513d601f19601f8201168201806040525081019061112a9190612125565b67016345785d8a000061113d9190611b50565b471061127d57858163ffffffff168151811061115c5761115b611f55565b5b602002602001015173ffffffffffffffffffffffffffffffffffffffff166108fc600660009054906101000a900473ffffffffffffffffffffffffffffffffffffffff1673ffffffffffffffffffffffffffffffffffffffff1663bc66e9cb898563ffffffff16815181106111d4576111d3611f55565b5b60200260200101516040518263ffffffff1660e01b81526004016111f891906120f5565b602060405180830381865afa158015611215573d6000803e3d6000fd5b505050506040513d601f19601f820116820180604052508101906112399190612125565b67016345785d8a000061124c9190611b50565b9081150290604051600060405180830381858888f19350505050158015611277573d6000803e3d6000fd5b506112e5565b858163ffffffff168151811061129657611295611f55565b5b602002602001015173ffffffffffffffffffffffffffffffffffffffff166108fc479081150290604051600060405180830381858888f193505050501580156112e3573d6000803e3d6000fd5b505b80806112f09061238b565b91505061105f565b50600560006113079190611589565b5050505050505050505050505050565b60008060006113246115ad565b60408160608760006007600019f1915081611374576040517f08c379a000000000000000000000000000000000000000000000000000000000815260040161136b906125ae565b60405180910390fd5b8060006002811061138857611387611f55565b5b6020020151816001600281106113a1576113a0611f55565b5b6020020151935093505050915091565b60008060006113be6115ad565b60408160808760006006600019f191508161140e576040517f08c379a00000000000000000000000000000000000000000000000000000000081526004016114059061261a565b60405180910390fd5b8060006002811061142257611421611f55565b5b60200201518160016002811061143b5761143a611f55565b5b6020020151935093505050915091565b600080604051806060016040528060018152602001600281526020018981525090506114756115cf565b61147e82611317565b826000018360200182815250828152505050600060405180606001604052808a81526020018981526020018681525090506114b76115cf565b6114c082611317565b826000018360200182815250828152505050600060405180608001604052808a81526020018981526020018360000151815260200183602001518152509050611508816113b1565b83600001846020018281525082815250505081600001518460000151148015611538575081602001518460200151145b955050505050509695505050505050565b8260028101928215611578579160200282015b8281111561157757825182559160200191906001019061155c565b5b50905061158591906115e9565b5090565b50805460008255600202906000526020600020908101906115aa9190611606565b50565b6040518060400160405280600290602082028036833780820191505090505090565b604051806040016040528060008152602001600081525090565b5b808211156116025760008160009055506001016115ea565b5090565b5b80821115611626576000818161161d919061162a565b50600201611607565b5090565b506000815560010160009055565b6000819050919050565b61164b81611638565b82525050565b60006020820190506116666000830184611642565b92915050565b6000604051905090565b600080fd5b600080fd5b60008115159050919050565b61169581611680565b81146116a057600080fd5b50565b6000813590506116b28161168c565b92915050565b6000819050919050565b6116cb816116b8565b81146116d657600080fd5b50565b6000813590506116e8816116c2565b92915050565b6116f781611638565b811461170257600080fd5b50565b600081359050611714816116ee565b92915050565b600080fd5b6000601f19601f8301169050919050565b7f4e487b7100000000000000000000000000000000000000000000000000000000600052604160045260246000fd5b6117688261171f565b810181811067ffffffffffffffff8211171561178757611786611730565b5b80604052505050565b600061179a61166c565b90506117a6828261175f565b919050565b600067ffffffffffffffff8211156117c6576117c5611730565b5b602082029050602081019050919050565b600080fd5b600073ffffffffffffffffffffffffffffffffffffffff82169050919050565b6000611807826117dc565b9050919050565b611817816117fc565b811461182257600080fd5b50565b6000813590506118348161180e565b92915050565b600061184d611848846117ab565b611790565b905080838252602082019050602084028301858111156118705761186f6117d7565b5b835b8181101561189957806118858882611825565b845260208401935050602081019050611872565b5050509392505050565b600082601f8301126118b8576118b761171a565b5b81356118c884826020860161183a565b91505092915050565b60008060008060008060008060006101208a8c0312156118f4576118f3611676565b5b60006119028c828d016116a3565b99505060206119138c828d016116d9565b98505060406119248c828d01611705565b97505060606119358c828d01611705565b96505060806119468c828d01611705565b95505060a06119578c828d01611705565b94505060c06119688c828d01611705565b93505060e06119798c828d01611705565b9250506101008a013567ffffffffffffffff81111561199b5761199a61167b565b5b6119a78c828d016118a3565b9150509295985092959850929598565b6000806000606084860312156119d0576119cf611676565b5b60006119de868287016116d9565b93505060206119ef86828701611705565b9250506040611a0086828701611705565b9150509250925092565b600060208284031215611a2057611a1f611676565b5b6000611a2e848285016116d9565b91505092915050565b600060208284031215611a4d57611a4c611676565b5b6000611a5b84828501611705565b91505092915050565b60008060408385031215611a7b57611a7a611676565b5b6000611a8985828601611705565b9250506020611a9a85828601611705565b9150509250929050565b600082825260208201905092915050565b7f4e6f742076616c69646174652074696d65210000000000000000000000000000600082015250565b6000611aeb601283611aa4565b9150611af682611ab5565b602082019050919050565b60006020820190508181036000830152611b1a81611ade565b9050919050565b7f4e487b7100000000000000000000000000000000000000000000000000000000600052601160045260246000fd5b6000611b5b82611638565b9150611b6683611638565b9250817fffffffffffffffffffffffffffffffffffffffffffffffffffffffffffffffff0483118215151615611b9f57611b9e611b21565b5b828202905092915050565b6000611bb582611638565b9150611bc083611638565b9250827fffffffffffffffffffffffffffffffffffffffffffffffffffffffffffffffff03821115611bf557611bf4611b21565b5b828201905092915050565b7f746f6f206665772066656520616d6f756e740000000000000000000000000000600082015250565b6000611c36601283611aa4565b9150611c4182611c00565b602082019050919050565b60006020820190508181036000830152611c6581611c29565b9050919050565b7f416e6f746865722076616c696461746520697320696e2070726f677265737321600082015250565b6000611ca2602083611aa4565b9150611cad82611c6c565b602082019050919050565b60006020820190508181036000830152611cd181611c95565b9050919050565b7f4e487b7100000000000000000000000000000000000000000000000000000000600052602160045260246000fd5b60038110611d1857611d17611cd8565b5b50565b6000819050611d2982611d07565b919050565b6000611d3982611d1b565b9050919050565b611d4981611d2e565b82525050565b611d58816116b8565b82525050565b6000608082019050611d736000830187611d40565b611d806020830186611d4f565b611d8d6040830185611642565b611d9a6060830184611642565b95945050505050565b6000611dae82611638565b9150611db983611638565b925082821015611dcc57611dcb611b21565b5b828203905092915050565b60008160011c9050919050565b6000808291508390505b6001851115611e2e57808604811115611e0a57611e09611b21565b5b6001851615611e195780820291505b8081029050611e2785611dd7565b9450611dee565b94509492505050565b600082611e475760019050611f03565b81611e555760009050611f03565b8160018114611e6b5760028114611e7557611ea4565b6001915050611f03565b60ff841115611e8757611e86611b21565b5b8360020a915084821115611e9e57611e9d611b21565b5b50611f03565b5060208310610133831016604e8410600b8410161715611ed95782820a905083811115611ed457611ed3611b21565b5b611f03565b611ee68484846001611de4565b92509050818404811115611efd57611efc611b21565b5b81810290505b9392505050565b6000611f1582611638565b9150611f2083611638565b9250611f4d7fffffffffffffffffffffffffffffffffffffffffffffffffffffffffffffffff8484611e37565b905092915050565b7f4e487b7100000000000000000000000000000000000000000000000000000000600052603260045260246000fd5b6000611f8f82611638565b91507fffffffffffffffffffffffffffffffffffffffffffffffffffffffffffffffff8203611fc157611fc0611b21565b5b600182019050919050565b7f756e6b6e6f776e2076616c69646174696f6e2074797065000000000000000000600082015250565b6000612002601783611aa4565b915061200d82611fcc565b602082019050919050565b6000602082019050818103600083015261203181611ff5565b9050919050565b6000815190506120478161180e565b92915050565b60006020828403121561206357612062611676565b5b600061207184828501612038565b91505092915050565b7f6e6f74207468652061676772656761746f720000000000000000000000000000600082015250565b60006120b0601283611aa4565b91506120bb8261207a565b602082019050919050565b600060208201905081810360008301526120df816120a3565b9050919050565b6120ef816117fc565b82525050565b600060208201905061210a60008301846120e6565b92915050565b60008151905061211f816116ee565b92915050565b60006020828403121561213b5761213a611676565b5b600061214984828501612110565b91505092915050565b7f6c6f772073696e67616c2072616e6b0000000000000000000000000000000000600082015250565b6000612188600f83611aa4565b915061219382612152565b602082019050919050565b600060208201905081810360008301526121b78161217b565b9050919050565b600067ffffffffffffffff8211156121d9576121d8611730565b5b602082029050602081019050919050565b600067ffffffffffffffff82111561220557612204611730565b5b602082029050919050565b600061222361221e846121ea565b611790565b9050806020840283018581111561223d5761223c6117d7565b5b835b8181101561226657806122528882612110565b84526020840193505060208101905061223f565b5050509392505050565b600082601f8301126122855761228461171a565b5b6002612292848285612210565b91505092915050565b60006122ae6122a9846121be565b611790565b905080838252602082019050604084028301858111156122d1576122d06117d7565b5b835b818110156122fa57806122e68882612270565b8452602084019350506040810190506122d3565b5050509392505050565b600082601f8301126123195761231861171a565b5b815161232984826020860161229b565b91505092915050565b60006020828403121561234857612347611676565b5b600082015167ffffffffffffffff8111156123665761236561167b565b5b61237284828501612304565b91505092915050565b600063ffffffff82169050919050565b60006123968261237b565b915063ffffffff82036123ac576123ab611b21565b5b600182019050919050565b7f6c6f7720746f74616c2072616e6b000000000000000000000000000000000000600082015250565b60006123ed600e83611aa4565b91506123f8826123b7565b602082019050919050565b6000602082019050818103600083015261241c816123e0565b9050919050565b600081519050919050565b600081905092915050565b60005b8381101561245757808201518184015260208101905061243c565b83811115612466576000848401525b50505050565b600061247782612423565b612481818561242e565b9350612491818560208601612439565b80840191505092915050565b60006124a9828461246c565b915081905092915050565b6000815190506124c3816116c2565b92915050565b6000602082840312156124df576124de611676565b5b60006124ed848285016124b4565b91505092915050565b7f7369673a206164647265737320646f65736e2774206d61746368000000000000600082015250565b600061252c601a83611aa4565b9150612537826124f6565b602082019050919050565b6000602082019050818103600083015261255b8161251f565b9050919050565b7f6563206d756c206661696c656400000000000000000000000000000000000000600082015250565b6000612598600d83611aa4565b91506125a382612562565b602082019050919050565b600060208201905081810360008301526125c78161258b565b9050919050565b7f626e323536206164646974696f6e206661696c65640000000000000000000000600082015250565b6000612604601583611aa4565b915061260f826125ce565b602082019050919050565b60006020820190508181036000830152612633816125f7565b905091905056fea2646970667358221220e8e17fc4255aa094bae0e2f608cb8c0678f4084415c22173209ac8efd2c57dbb64736f6c634300080d0033",
  "immutableReferences": {},
  "source": "// SPDX-License-Identifier: MIT\npragma solidity  >0.8.0;\n\nimport \"./RegistryContract.sol\";\nimport \"./crypto/Schnorr.sol\";\nimport \"./crypto/BN256G1.sol\";\n\ncontract OracleContract {\n\n    // \n    bool private isValidateTime = false;\n\n    // \n    uint256 public constant BASE_FEE = 0.1 ether;\n    uint256 public constant AGGREGATE_FEE = 0.5 ether;\n\n    uint256 private currentRank;\n    uint256 private currentSize;\n    uint256 public constant PUBKEY_LENGTH = 33;\n\n    // \n    mapping(bytes32 => bool) private blockValidationResults;\n    mapping(bytes32 => bool) private txValidationResults;\n\n    uint256[2][] public allPubKeys;\n\n    // ;\n    enum ValidationType { UNKNOWN, BLOCK, TRANSACTION }\n\n    // indexed\n    event ValidationRequest(ValidationType typ, address indexed from, bytes32 hash, uint256 size, uint256 minRank);\n\n    RegistryContract private registryContract;\n    constructor(address registry) {\n        registryContract = RegistryContract(registry);\n    }\n\n    modifier minFee(uint size) {\n        require(msg.value >= BASE_FEE * size + AGGREGATE_FEE, \"too few fee amount\");\n        _;\n    }\n\n    function totalFee(uint256 size) public pure returns (uint256){\n        return size * BASE_FEE + AGGREGATE_FEE;\n    }\n\n    function validateBlock(bytes32 _message, uint256 size, uint256 minRank) external payable minFee(size) {\n        require(!isValidateTime, \"Another validate is in progress!\");\n        isValidateTime = true;\n        emit ValidationRequest(ValidationType.BLOCK, msg.sender, _message, size, minRank);\n    }\n\n    function validateTransaction(bytes32 _message, uint256 size, uint256 minRank) external payable minFee(size) {\n        require(!isValidateTime, \"Another validate is in progress!\");\n        isValidateTime = true;\n        emit ValidationRequest(ValidationType.TRANSACTION, msg.sender, _message, size, minRank);\n    }\n\n\n//-----------------------------------------------------------------------------------------------------------------------------------------------\n\n\n    function submitBlockValidationResult(bool _result, bytes32 message, uint256 signature, uint256 rx , uint256 ry, uint256 _hash, uint256 hashScalar0,  uint256 hashScalar2, address[] memory validators) external {\n        require(isValidateTime, \"Not validate time!\");\n        submitValidationResult(ValidationType.BLOCK, _result, message, signature, rx, ry, _hash, hashScalar0, hashScalar2, validators);\n        isValidateTime = false;\n    }\n\n    function submitTransactionValidationResult(bool _result, bytes32 message, uint256 signature, uint256 rx , uint256 ry, uint256 _hash, uint256 hashScalar0,  uint256 hashScalar2, address[] memory validators) external {\n        require(isValidateTime, \"Not validate time!\");\n        submitValidationResult(ValidationType.TRANSACTION, _result, message, signature, rx, ry, _hash, hashScalar0, hashScalar2, validators);\n        isValidateTime = false;\n    }\n\n    function submitValidationResult(\n        ValidationType _typ,\n        bool _result,\n        bytes32 message,\n        uint256 signature, uint256 rx , uint256 ry, uint256 _hash, uint256 pubKeyX1,  uint256 pubKeyY1,\n        address[] memory validators\n    ) private {\n        require(_typ != ValidationType.UNKNOWN, \"unknown validation type\");\n        require(registryContract.getAggregator() == msg.sender, \"not the aggregator\");  //\n    \n        for(uint32 i = 0 ; i < validators.length ; i++){\n            // \n            uint256 rank = registryContract.getNodeRank(validators[i]);\n            require(rank >= currentRank, \"low singal rank\");\n            uint256[2][] memory pubKeys = registryContract.getNodePublicKeys(validators[i]);\n            for(uint j = 0; j < pubKeys.length; j++){\n                allPubKeys.push(pubKeys[j]);        \n            }\n        }\n        require(allPubKeys.length >= currentRank, \"low total rank\");\n        \n        // TODO:\n         bytes memory S = new bytes((allPubKeys.length + 1) * 64);\n         uint256 index = 64;\n         for(uint32 i = 0 ; i < allPubKeys.length ; i++){\n             for(uint32 j = 0; j < 2; j++){\n                 bytes32 temp = bytes32(allPubKeys[i][j]);\n                 for(uint32 k = 0; k < temp.length; k++){\n                     S[index] = temp[k];\n                     index++;\n                 }\n             }\n         }\n\n         uint256 pubKeyX = 0;\n         uint256 pubKeyY = 0;\n\n         for(uint32 i = 0 ; i < allPubKeys.length ; i++){\n             uint256 tempX = allPubKeys[i][0];\n             uint256 tempY = allPubKeys[i][1];\n             for(uint k = 0; k < 32; k++){\n                 bytes32 temp = bytes32(tempX);\n                 S[k] = temp[k];\n             }\n             for(uint k = 0; k < 32; k++){\n                 bytes32 temp = bytes32(tempY);\n                 S[k + 32] = temp[k];\n             }\n             uint256 res = bytesToUint256(sha256(S));\n             (tempX, tempY) = BN256G1.mulPoint([tempX, tempY, res]);\n             (pubKeyX, pubKeyY) = BN256G1.addPoint([tempX, tempY, pubKeyX, pubKeyY]);\n         }\n\n        // require(pubKeyX == pubKeyX1, \"pubKey recover fail\");\n        /*Schnorr*/\n        require(Schnorr.verify(signature, pubKeyX, pubKeyY, rx, ry, _hash), \"sig: address doesn't match\");\n\n        if (_typ == ValidationType.BLOCK) {\n            blockValidationResults[message] = _result;\n        } else if (_typ == ValidationType.TRANSACTION) {\n            txValidationResults[message] = _result;\n        }\n\n        //  \n        payable(msg.sender).transfer(AGGREGATE_FEE);     //\n        // \n\n        for(uint32 i = 0 ; i < validators.length ; i++){\n            if(address(this).balance >= BASE_FEE * registryContract.getNodeRank(validators[i])){\n                payable(validators[i]).transfer(BASE_FEE * registryContract.getNodeRank(validators[i])); \n            } else{\n                payable(validators[i]).transfer(address(this).balance); \n            }\n        }\n\n        delete allPubKeys;\n    }\n\n    function bytesToUint256(bytes32 b) public pure returns (uint256){\n        uint256 number;\n        for(uint i= 0; i < b.length; i++){\n            number = number + uint8(b[i])*(2**(8*(b.length-(i+1))));\n        }\n        return  number;\n    }\n}\n",
  "sourcePath": "/home/w1tness/Code/Crypto/Schnorr-multi-signature-oracle/ioporaclecontracts/contracts/OracleContract.sol",
  "compiler": {
    "name": "solc",
    "version": "0.8.13+commit.abaa5c0e.Emscripten.clang"
  },
  "schemaVersion": "3.4.16",
  "updatedAt": "2023-12-18T06:20:11.257Z",
  "networkType": "ethereum",
  "devdoc": {
    "kind": "dev",
    "methods": {},
    "version": 1
  },
  "userdoc": {
    "kind": "user",
    "methods": {},
    "version": 1
  }
}