{
  "contractName": "OracleContract",
  "abi": [
    {
      "inputs": [
        {
          "internalType": "address",
          "name": "registry",
          "type": "address"
        }
      ],
      "stateMutability": "nonpayable",
      "type": "constructor"
    },
    {
      "anonymous": false,
      "inputs": [
        {
          "indexed": false,
          "internalType": "enum OracleContract.ValidationType",
          "name": "typ",
          "type": "uint8"
        },
        {
          "indexed": true,
          "internalType": "address",
          "name": "from",
          "type": "address"
        },
        {
          "indexed": false,
          "internalType": "bytes32",
          "name": "hash",
          "type": "bytes32"
        },
        {
          "indexed": false,
          "internalType": "uint256",
          "name": "size",
          "type": "uint256"
        },
        {
          "indexed": false,
          "internalType": "uint256",
          "name": "minRank",
          "type": "uint256"
        }
      ],
      "name": "ValidationRequest",
      "type": "event"
    },
    {
      "inputs": [],
      "name": "AGGREGATE_FEE",
      "outputs": [
        {
          "internalType": "uint256",
          "name": "",
          "type": "uint256"
        }
      ],
      "stateMutability": "view",
      "type": "function",
      "constant": true
    },
    {
      "inputs": [],
      "name": "BASE_FEE",
      "outputs": [
        {
          "internalType": "uint256",
          "name": "",
          "type": "uint256"
        }
      ],
      "stateMutability": "view",
      "type": "function",
      "constant": true
    },
    {
      "inputs": [],
      "name": "PUBKEY_LENGTH",
      "outputs": [
        {
          "internalType": "uint256",
          "name": "",
          "type": "uint256"
        }
      ],
      "stateMutability": "view",
      "type": "function",
      "constant": true
    },
    {
      "inputs": [
        {
          "internalType": "uint256",
          "name": "size",
          "type": "uint256"
        }
      ],
      "name": "totalFee",
      "outputs": [
        {
          "internalType": "uint256",
          "name": "",
          "type": "uint256"
        }
      ],
      "stateMutability": "pure",
      "type": "function",
      "constant": true
    },
    {
      "inputs": [
        {
          "internalType": "bytes32",
          "name": "_message",
          "type": "bytes32"
        },
        {
          "internalType": "uint256",
          "name": "size",
          "type": "uint256"
        },
        {
          "internalType": "uint256",
          "name": "minRank",
          "type": "uint256"
        }
      ],
      "name": "validateBlock",
      "outputs": [],
      "stateMutability": "payable",
      "type": "function",
      "payable": true
    },
    {
      "inputs": [
        {
          "internalType": "bytes32",
          "name": "_message",
          "type": "bytes32"
        },
        {
          "internalType": "uint256",
          "name": "size",
          "type": "uint256"
        },
        {
          "internalType": "uint256",
          "name": "minRank",
          "type": "uint256"
        }
      ],
      "name": "validateTransaction",
      "outputs": [],
      "stateMutability": "payable",
      "type": "function",
      "payable": true
    },
    {
      "inputs": [
        {
          "internalType": "bool",
          "name": "_result",
          "type": "bool"
        },
        {
          "internalType": "bytes32",
          "name": "message",
          "type": "bytes32"
        },
        {
          "internalType": "uint256",
          "name": "signature",
          "type": "uint256"
        },
        {
          "internalType": "uint256",
          "name": "pubKeyX",
          "type": "uint256"
        },
        {
          "internalType": "uint256",
          "name": "pubKeyY",
          "type": "uint256"
        },
        {
          "internalType": "uint256",
          "name": "rx",
          "type": "uint256"
        },
        {
          "internalType": "uint256",
          "name": "ry",
          "type": "uint256"
        },
        {
          "internalType": "uint256",
          "name": "_hash",
          "type": "uint256"
        },
        {
          "internalType": "address[]",
          "name": "validators",
          "type": "address[]"
        },
        {
          "internalType": "uint256[2][]",
          "name": "pubKeyArray",
          "type": "uint256[2][]"
        }
      ],
      "name": "submitBlockValidationResult",
      "outputs": [],
      "stateMutability": "nonpayable",
      "type": "function"
    },
    {
      "inputs": [
        {
          "internalType": "bool",
          "name": "_result",
          "type": "bool"
        },
        {
          "internalType": "bytes32",
          "name": "message",
          "type": "bytes32"
        },
        {
          "internalType": "uint256",
          "name": "signature",
          "type": "uint256"
        },
        {
          "internalType": "uint256",
          "name": "pubKeyX",
          "type": "uint256"
        },
        {
          "internalType": "uint256",
          "name": "pubKeyY",
          "type": "uint256"
        },
        {
          "internalType": "uint256",
          "name": "rx",
          "type": "uint256"
        },
        {
          "internalType": "uint256",
          "name": "ry",
          "type": "uint256"
        },
        {
          "internalType": "uint256",
          "name": "_hash",
          "type": "uint256"
        },
        {
          "internalType": "address[]",
          "name": "validators",
          "type": "address[]"
        },
        {
          "internalType": "uint256[2][]",
          "name": "pubKeyArray",
          "type": "uint256[2][]"
        }
      ],
      "name": "submitTransactionValidationResult",
      "outputs": [],
      "stateMutability": "nonpayable",
      "type": "function"
    }
  ],
  "bytecode": "0x608060405260008060006101000a81548160ff0219169083151502179055503480156200002b57600080fd5b506040516200200738038062002007833981810160405281019062000051919062000103565b80600560006101000a81548173ffffffffffffffffffffffffffffffffffffffff021916908373ffffffffffffffffffffffffffffffffffffffff1602179055505062000135565b600080fd5b600073ffffffffffffffffffffffffffffffffffffffff82169050919050565b6000620000cb826200009e565b9050919050565b620000dd81620000be565b8114620000e957600080fd5b50565b600081519050620000fd81620000d2565b92915050565b6000602082840312156200011c576200011b62000099565b5b60006200012c84828501620000ec565b91505092915050565b611ec280620001456000396000f3fe60806040526004361061007b5760003560e01c8063a4d55d1d1161004e578063a4d55d1d1461011b578063a4f6c9aa14610146578063ce9d294b1461016f578063cea74edf1461018b5761007b565b80631471866c146100805780633d18651e146100ab5780633e170dd9146100d657806371097e5b146100f2575b600080fd5b34801561008c57600080fd5b506100956101c8565b6040516100a29190610fe6565b60405180910390f35b3480156100b757600080fd5b506100c06101d4565b6040516100cd9190610fe6565b60405180910390f35b6100f060048036038101906100eb9190611077565b6101e0565b005b3480156100fe57600080fd5b506101196004803603810190610114919061142d565b6102bf565b005b34801561012757600080fd5b50610130610346565b60405161013d9190610fe6565b60405180910390f35b34801561015257600080fd5b5061016d6004803603810190610168919061142d565b61034b565b005b61018960048036038101906101849190611077565b6103d2565b005b34801561019757600080fd5b506101b260048036038101906101ad9190611544565b6104ff565b6040516101bf9190610fe6565b60405180910390f35b6706f05b59d3b2000081565b67016345785d8a000081565b816706f05b59d3b200008167016345785d8a00006101fe91906115a0565b61020891906115fa565b34101561024a576040517f08c379a0000000000000000000000000000000000000000000000000000000008152600401610241906116ad565b60405180910390fd5b60016000806101000a81548160ff0219169083151502179055503373ffffffffffffffffffffffffffffffffffffffff167fa2a630edc48d1fc0a90b61e08bbc34ce73957ce9d59455207cd0591006bd4d4b60028686866040516102b19493929190611753565b60405180910390a250505050565b60008054906101000a900460ff1661030c576040517f08c379a0000000000000000000000000000000000000000000000000000000008152600401610303906117e4565b60405180910390fd5b61032060018b8b8b8b8b8b8b8b8b8b61052f565b60008060006101000a81548160ff02191690831515021790555050505050505050505050565b602181565b60008054906101000a900460ff16610398576040517f08c379a000000000000000000000000000000000000000000000000000000000815260040161038f906117e4565b60405180910390fd5b6103ac60018b8b8b8b8b8b8b8b8b8b61052f565b60008060006101000a81548160ff02191690831515021790555050505050505050505050565b816706f05b59d3b200008167016345785d8a00006103f091906115a0565b6103fa91906115fa565b34101561043c576040517f08c379a0000000000000000000000000000000000000000000000000000000008152600401610433906116ad565b60405180910390fd5b60008054906101000a900460ff161561048a576040517f08c379a000000000000000000000000000000000000000000000000000000000815260040161048190611850565b60405180910390fd5b60016000806101000a81548160ff0219169083151502179055503373ffffffffffffffffffffffffffffffffffffffff167fa2a630edc48d1fc0a90b61e08bbc34ce73957ce9d59455207cd0591006bd4d4b60018686866040516104f19493929190611753565b60405180910390a250505050565b60006706f05b59d3b2000067016345785d8a00008361051e91906115a0565b61052891906115fa565b9050919050565b60006002811115610543576105426116cd565b5b8b6002811115610556576105556116cd565b5b03610596576040517f08c379a000000000000000000000000000000000000000000000000000000000815260040161058d906118bc565b60405180910390fd5b3373ffffffffffffffffffffffffffffffffffffffff16600560009054906101000a900473ffffffffffffffffffffffffffffffffffffffff1673ffffffffffffffffffffffffffffffffffffffff16633ad59dbc6040518163ffffffff1660e01b8152600401602060405180830381865afa15801561061a573d6000803e3d6000fd5b505050506040513d601f19601f8201168201806040525081019061063e91906118f1565b73ffffffffffffffffffffffffffffffffffffffff1614610694576040517f08c379a000000000000000000000000000000000000000000000000000000000815260040161068b9061196a565b60405180910390fd5b600154815110156106da576040517f08c379a00000000000000000000000000000000000000000000000000000000081526004016106d1906119d6565b60405180910390fd5b6000805b83518161ffff161015610963576000600560009054906101000a900473ffffffffffffffffffffffffffffffffffffffff1673ffffffffffffffffffffffffffffffffffffffff1663fb9fb18a868461ffff1681518110610742576107416119f6565b5b60200260200101516040518263ffffffff1660e01b81526004016107669190611a34565b600060405180830381865afa158015610783573d6000803e3d6000fd5b505050506040513d6000823e3d601f19601f820116820180604052508101906107ac9190611b86565b9050600154815110156107f4576040517f08c379a00000000000000000000000000000000000000000000000000000000081526004016107eb90611c1b565b60405180910390fd5b60005b81518161ffff16101561094e57818161ffff168151811061081b5761081a6119f6565b5b6020026020010151600060028110610836576108356119f6565b5b6020020151858563ffffffff1681518110610854576108536119f6565b5b602002602001015160006002811061086f5761086e6119f6565b5b60200201511480156108ee5750818161ffff1681518110610893576108926119f6565b5b60200260200101516001600281106108ae576108ad6119f6565b5b6020020151858563ffffffff16815181106108cc576108cb6119f6565b5b60200260200101516001600281106108e7576108e66119f6565b5b6020020151145b61092d576040517f08c379a000000000000000000000000000000000000000000000000000000000815260040161092490611c87565b60405180910390fd5b838061093890611cb7565b945050808061094690611cf1565b9150506107f7565b5050808061095b90611cf1565b9150506106de565b50610972898989898989610d5f565b6109b1576040517f08c379a00000000000000000000000000000000000000000000000000000000081526004016109a890611d67565b60405180910390fd5b600160028111156109c5576109c46116cd565b5b8c60028111156109d8576109d76116cd565b5b03610a0d578a600360008c815260200190815260200160002060006101000a81548160ff021916908315150217905550610a65565b600280811115610a2057610a1f6116cd565b5b8c6002811115610a3357610a326116cd565b5b03610a64578a600460008c815260200190815260200160002060006101000a81548160ff0219169083151502179055505b5b3373ffffffffffffffffffffffffffffffffffffffff166108fc6706f05b59d3b200009081150290604051600060405180830381858888f19350505050158015610ab3573d6000803e3d6000fd5b5060005b83518163ffffffff161015610d5057600560009054906101000a900473ffffffffffffffffffffffffffffffffffffffff1673ffffffffffffffffffffffffffffffffffffffff1663bc66e9cb858363ffffffff1681518110610b1d57610b1c6119f6565b5b60200260200101516040518263ffffffff1660e01b8152600401610b419190611a34565b602060405180830381865afa158015610b5e573d6000803e3d6000fd5b505050506040513d601f19601f82011682018060405250810190610b829190611d87565b67016345785d8a0000610b9591906115a0565b4710610cd557838163ffffffff1681518110610bb457610bb36119f6565b5b602002602001015173ffffffffffffffffffffffffffffffffffffffff166108fc600560009054906101000a900473ffffffffffffffffffffffffffffffffffffffff1673ffffffffffffffffffffffffffffffffffffffff1663bc66e9cb878563ffffffff1681518110610c2c57610c2b6119f6565b5b60200260200101516040518263ffffffff1660e01b8152600401610c509190611a34565b602060405180830381865afa158015610c6d573d6000803e3d6000fd5b505050506040513d601f19601f82011682018060405250810190610c919190611d87565b67016345785d8a0000610ca491906115a0565b9081150290604051600060405180830381858888f19350505050158015610ccf573d6000803e3d6000fd5b50610d3d565b838163ffffffff1681518110610cee57610ced6119f6565b5b602002602001015173ffffffffffffffffffffffffffffffffffffffff166108fc479081150290604051600060405180830381858888f19350505050158015610d3b573d6000803e3d6000fd5b505b8080610d4890611cb7565b915050610ab7565b50505050505050505050505050565b60008060405180606001604052806001815260200160028152602001898152509050610d89610f91565b610d9282610e5d565b826000018360200182815250828152505050600060405180606001604052808a8152602001898152602001868152509050610dcb610f91565b610dd482610e5d565b826000018360200182815250828152505050600060405180608001604052808a81526020018981526020018360000151815260200183602001518152509050610e1c81610ef7565b83600001846020018281525082815250505081600001518460000151148015610e4c575081602001518460200151145b955050505050509695505050505050565b6000806000610e6a610fab565b60408160608760006007600019f1915081610eba576040517f08c379a0000000000000000000000000000000000000000000000000000000008152600401610eb190611e00565b60405180910390fd5b80600060028110610ece57610ecd6119f6565b5b602002015181600160028110610ee757610ee66119f6565b5b6020020151935093505050915091565b6000806000610f04610fab565b60408160808760006006600019f1915081610f54576040517f08c379a0000000000000000000000000000000000000000000000000000000008152600401610f4b90611e6c565b60405180910390fd5b80600060028110610f6857610f676119f6565b5b602002015181600160028110610f8157610f806119f6565b5b6020020151935093505050915091565b604051806040016040528060008152602001600081525090565b6040518060400160405280600290602082028036833780820191505090505090565b6000819050919050565b610fe081610fcd565b82525050565b6000602082019050610ffb6000830184610fd7565b92915050565b6000604051905090565b600080fd5b600080fd5b6000819050919050565b61102881611015565b811461103357600080fd5b50565b6000813590506110458161101f565b92915050565b61105481610fcd565b811461105f57600080fd5b50565b6000813590506110718161104b565b92915050565b6000806000606084860312156110905761108f61100b565b5b600061109e86828701611036565b93505060206110af86828701611062565b92505060406110c086828701611062565b9150509250925092565b60008115159050919050565b6110df816110ca565b81146110ea57600080fd5b50565b6000813590506110fc816110d6565b92915050565b600080fd5b6000601f19601f8301169050919050565b7f4e487b7100000000000000000000000000000000000000000000000000000000600052604160045260246000fd5b61115082611107565b810181811067ffffffffffffffff8211171561116f5761116e611118565b5b80604052505050565b6000611182611001565b905061118e8282611147565b919050565b600067ffffffffffffffff8211156111ae576111ad611118565b5b602082029050602081019050919050565b600080fd5b600073ffffffffffffffffffffffffffffffffffffffff82169050919050565b60006111ef826111c4565b9050919050565b6111ff816111e4565b811461120a57600080fd5b50565b60008135905061121c816111f6565b92915050565b600061123561123084611193565b611178565b90508083825260208201905060208402830185811115611258576112576111bf565b5b835b81811015611281578061126d888261120d565b84526020840193505060208101905061125a565b5050509392505050565b600082601f8301126112a05761129f611102565b5b81356112b0848260208601611222565b91505092915050565b600067ffffffffffffffff8211156112d4576112d3611118565b5b602082029050602081019050919050565b600067ffffffffffffffff821115611300576112ff611118565b5b602082029050919050565b600061131e611319846112e5565b611178565b90508060208402830185811115611338576113376111bf565b5b835b81811015611361578061134d8882611062565b84526020840193505060208101905061133a565b5050509392505050565b600082601f8301126113805761137f611102565b5b600261138d84828561130b565b91505092915050565b60006113a96113a4846112b9565b611178565b905080838252602082019050604084028301858111156113cc576113cb6111bf565b5b835b818110156113f557806113e1888261136b565b8452602084019350506040810190506113ce565b5050509392505050565b600082601f83011261141457611413611102565b5b8135611424848260208601611396565b91505092915050565b6000806000806000806000806000806101408b8d0312156114515761145061100b565b5b600061145f8d828e016110ed565b9a505060206114708d828e01611036565b99505060406114818d828e01611062565b98505060606114928d828e01611062565b97505060806114a38d828e01611062565b96505060a06114b48d828e01611062565b95505060c06114c58d828e01611062565b94505060e06114d68d828e01611062565b9350506101008b013567ffffffffffffffff8111156114f8576114f7611010565b5b6115048d828e0161128b565b9250506101208b013567ffffffffffffffff81111561152657611525611010565b5b6115328d828e016113ff565b9150509295989b9194979a5092959850565b60006020828403121561155a5761155961100b565b5b600061156884828501611062565b91505092915050565b7f4e487b7100000000000000000000000000000000000000000000000000000000600052601160045260246000fd5b60006115ab82610fcd565b91506115b683610fcd565b9250817fffffffffffffffffffffffffffffffffffffffffffffffffffffffffffffffff04831182151516156115ef576115ee611571565b5b828202905092915050565b600061160582610fcd565b915061161083610fcd565b9250827fffffffffffffffffffffffffffffffffffffffffffffffffffffffffffffffff0382111561164557611644611571565b5b828201905092915050565b600082825260208201905092915050565b7f746f6f206665772066656520616d6f756e740000000000000000000000000000600082015250565b6000611697601283611650565b91506116a282611661565b602082019050919050565b600060208201905081810360008301526116c68161168a565b9050919050565b7f4e487b7100000000000000000000000000000000000000000000000000000000600052602160045260246000fd5b6003811061170d5761170c6116cd565b5b50565b600081905061171e826116fc565b919050565b600061172e82611710565b9050919050565b61173e81611723565b82525050565b61174d81611015565b82525050565b60006080820190506117686000830187611735565b6117756020830186611744565b6117826040830185610fd7565b61178f6060830184610fd7565b95945050505050565b7f4e6f742076616c69646174652074696d65210000000000000000000000000000600082015250565b60006117ce601283611650565b91506117d982611798565b602082019050919050565b600060208201905081810360008301526117fd816117c1565b9050919050565b7f416e6f746865722076616c696461746520697320696e2070726f677265737321600082015250565b600061183a602083611650565b915061184582611804565b602082019050919050565b600060208201905081810360008301526118698161182d565b9050919050565b7f756e6b6e6f776e2076616c69646174696f6e2074797065000000000000000000600082015250565b60006118a6601783611650565b91506118b182611870565b602082019050919050565b600060208201905081810360008301526118d581611899565b9050919050565b6000815190506118eb816111f6565b92915050565b6000602082840312156119075761190661100b565b5b6000611915848285016118dc565b91505092915050565b7f6e6f74207468652061676772656761746f720000000000000000000000000000600082015250565b6000611954601283611650565b915061195f8261191e565b602082019050919050565b6000602082019050818103600083015261198381611947565b9050919050565b7f6c6f7720746f74616c2072616e6b000000000000000000000000000000000000600082015250565b60006119c0600e83611650565b91506119cb8261198a565b602082019050919050565b600060208201905081810360008301526119ef816119b3565b9050919050565b7f4e487b7100000000000000000000000000000000000000000000000000000000600052603260045260246000fd5b611a2e816111e4565b82525050565b6000602082019050611a496000830184611a25565b92915050565b600081519050611a5e8161104b565b92915050565b6000611a77611a72846112e5565b611178565b90508060208402830185811115611a9157611a906111bf565b5b835b81811015611aba5780611aa68882611a4f565b845260208401935050602081019050611a93565b5050509392505050565b600082601f830112611ad957611ad8611102565b5b6002611ae6848285611a64565b91505092915050565b6000611b02611afd846112b9565b611178565b90508083825260208201905060408402830185811115611b2557611b246111bf565b5b835b81811015611b4e5780611b3a8882611ac4565b845260208401935050604081019050611b27565b5050509392505050565b600082601f830112611b6d57611b6c611102565b5b8151611b7d848260208601611aef565b91505092915050565b600060208284031215611b9c57611b9b61100b565b5b600082015167ffffffffffffffff811115611bba57611bb9611010565b5b611bc684828501611b58565b91505092915050565b7f6c6f772073696e67616c2072616e6b0000000000000000000000000000000000600082015250565b6000611c05600f83611650565b9150611c1082611bcf565b602082019050919050565b60006020820190508181036000830152611c3481611bf8565b9050919050565b7f7075626b6579206e6f7420657175616c21000000000000000000000000000000600082015250565b6000611c71601183611650565b9150611c7c82611c3b565b602082019050919050565b60006020820190508181036000830152611ca081611c64565b9050919050565b600063ffffffff82169050919050565b6000611cc282611ca7565b915063ffffffff8203611cd857611cd7611571565b5b600182019050919050565b600061ffff82169050919050565b6000611cfc82611ce3565b915061ffff8203611d1057611d0f611571565b5b600182019050919050565b7f7369673a206164647265737320646f65736e2774206d61746368000000000000600082015250565b6000611d51601a83611650565b9150611d5c82611d1b565b602082019050919050565b60006020820190508181036000830152611d8081611d44565b9050919050565b600060208284031215611d9d57611d9c61100b565b5b6000611dab84828501611a4f565b91505092915050565b7f6563206d756c206661696c656400000000000000000000000000000000000000600082015250565b6000611dea600d83611650565b9150611df582611db4565b602082019050919050565b60006020820190508181036000830152611e1981611ddd565b9050919050565b7f626e323536206164646974696f6e206661696c65640000000000000000000000600082015250565b6000611e56601583611650565b9150611e6182611e20565b602082019050919050565b60006020820190508181036000830152611e8581611e49565b905091905056fea2646970667358221220dfbc27f127d1c2334b70704470d9b1361f8403c5307c0c64b91d5f2e5e2bbdb164736f6c634300080d0033",
  "immutableReferences": {},
  "source": "// SPDX-License-Identifier: MIT\npragma solidity  >0.8.0;\n\nimport \"./RegistryContract.sol\";\nimport \"./crypto/Schnorr.sol\";\nimport \"./crypto/BN256G1.sol\";\n\ncontract OracleContract {\n\n    // \n    bool private isValidateTime = false;\n\n    // \n    uint256 public constant BASE_FEE = 0.1 ether;\n    uint256 public constant AGGREGATE_FEE = 0.5 ether;\n\n    uint256 private currentRank;\n    uint256 private currentSize;\n    uint256 public constant PUBKEY_LENGTH = 33;\n\n    // \n    mapping(bytes32 => bool) private blockValidationResults;\n    mapping(bytes32 => bool) private txValidationResults;\n\n    // ;\n    enum ValidationType { UNKNOWN, BLOCK, TRANSACTION }\n\n    // indexed\n    event ValidationRequest(ValidationType typ, address indexed from, bytes32 hash, uint256 size, uint256 minRank);\n\n    RegistryContract private registryContract;\n    constructor(address registry) {\n        registryContract = RegistryContract(registry);\n    }\n\n    modifier minFee(uint size) {\n        require(msg.value >= BASE_FEE * size + AGGREGATE_FEE, \"too few fee amount\");\n        _;\n    }\n\n    function totalFee(uint256 size) public pure returns (uint256){\n        return size * BASE_FEE + AGGREGATE_FEE;\n    }\n\n    function validateBlock(bytes32 _message, uint256 size, uint256 minRank) external payable minFee(size) {\n        require(!isValidateTime, \"Another validate is in progress!\");\n        isValidateTime = true;\n        emit ValidationRequest(ValidationType.BLOCK, msg.sender, _message, size, minRank);\n    }\n\n    function validateTransaction(bytes32 _message, uint256 size, uint256 minRank) external payable minFee(size) {\n        // require(!isValidateTime, \"Another validate is in progress!\");\n        isValidateTime = true;\n        emit ValidationRequest(ValidationType.TRANSACTION, msg.sender, _message, size, minRank);\n    }\n\n\n//-----------------------------------------------------------------------------------------------------------------------------------------------\n\n\n    function submitBlockValidationResult(bool _result, bytes32 message, uint256 signature,uint256 pubKeyX, uint256 pubKeyY, uint256 rx , uint256 ry, uint256 _hash, address[] memory validators, uint256[2][] memory pubKeyArray) external {\n        require(isValidateTime, \"Not validate time!\");\n        // submitValidationResult(ValidationType.BLOCK, _result, message, signature, rx, ry, _hash, validators);\n        submitValidationResult2(ValidationType.BLOCK, _result, message, signature, pubKeyX, pubKeyY, rx, ry, _hash, validators, pubKeyArray);\n        isValidateTime = false;\n    }\n\n    function submitTransactionValidationResult(bool _result, bytes32 message, uint256 signature,uint256 pubKeyX, uint256 pubKeyY, uint256 rx , uint256 ry, uint256 _hash, address[] memory validators, uint256[2][] memory pubKeyArray) external {\n        require(isValidateTime, \"Not validate time!\");\n        // submitValidationResult(ValidationType.TRANSACTION, _result, message, signature, rx, ry, _hash, validators);\n        submitValidationResult2(ValidationType.BLOCK, _result, message, signature, pubKeyX, pubKeyY, rx, ry, _hash, validators, pubKeyArray);\n        isValidateTime = false;\n    }\n\n    // Hashgas: 440616\n    function submitValidationResult0(\n        ValidationType _typ,\n        bool _result,\n        bytes32 message,\n        uint256 signature, uint256 rx , uint256 ry, uint256 _hash, \n        address[] memory validators\n    ) private {\n        require(_typ != ValidationType.UNKNOWN, \"unknown validation type\");\n        require(registryContract.getAggregator() == msg.sender, \"not the aggregator\");  //\n    \n        uint256 totalRank = 0;\n        for(uint16 i = 0 ; i < validators.length ; i++){\n            // \n            uint256 rank = registryContract.getNodeRank(validators[i]);\n            require(rank >= currentRank, \"low singal rank\");\n            totalRank += rank;\n        }\n        require(totalRank >= currentRank, \"low total rank\");\n            \n        //\n        uint256 Sx = 0;\n        uint256 Sy = 0;\n        for(uint16 i = 0; i < validators.length; i++){\n            uint256[2][] memory keys = registryContract.getNodePublicKeys(validators[i]);\n            for(uint16 j = 0 ; j < keys.length; j++){\n                (Sx, Sy) = BN256G1.addPoint([Sx, Sy, keys[j][0], keys[j][1]]);\n            }\n        }\n        \n        uint256 pubKeyX = 0;\n        uint256 pubKeyY = 0;\n\n        for(uint16 i = 0; i < validators.length; i++){\n            uint256[2][] memory keys = registryContract.getNodePublicKeys(validators[i]);\n            for(uint16 j = 0 ; j < keys.length ; j++){\n                uint256 tempX = keys[j][0];\n                uint256 tempY = keys[j][1];\n\n                uint256 pkX;\n                uint256 pkY;\n                (pkX, pkY) = BN256G1.addPoint([tempX, tempY, Sx, Sy]);\n                \n                uint256 res = uint256(sha256(abi.encode(pkX, pkY)));\n                (tempX, tempY) = BN256G1.mulPoint([tempX, tempY, res]);\n                (pubKeyX, pubKeyY) = BN256G1.addPoint([tempX, tempY, pubKeyX, pubKeyY]);\n            }\n        }\n\n        /*Schnorr*/\n        require(Schnorr.verify(signature, pubKeyX, pubKeyY, rx, ry, _hash), \"sig: address doesn't match\");\n        // require(Schnorr.verify(signature, keyX, keyY, rx, ry, _hash), \"sig: address doesn't match\");\n\n        if (_typ == ValidationType.BLOCK) {\n            blockValidationResults[message] = _result;\n        } else if (_typ == ValidationType.TRANSACTION) {\n            txValidationResults[message] = _result;\n        }\n\n        //  \n        payable(msg.sender).transfer(AGGREGATE_FEE);     //\n        // \n\n        for(uint32 i = 0 ; i < validators.length ; i++){\n            if(address(this).balance >= BASE_FEE * registryContract.getNodeRank(validators[i])){\n                payable(validators[i]).transfer(BASE_FEE * registryContract.getNodeRank(validators[i])); \n            } else{\n                payable(validators[i]).transfer(address(this).balance); \n            }\n        }\n    }\n\n    // gas: 574237\n    function submitValidationResult1(\n        ValidationType _typ,\n        bool _result,\n        bytes32 message,\n        uint256 signature, uint256 rx , uint256 ry, uint256 _hash, \n        address[] memory validators\n    ) private {\n        require(_typ != ValidationType.UNKNOWN, \"unknown validation type\");\n        require(registryContract.getAggregator() == msg.sender, \"not the aggregator\");  //\n    \n        uint256 totalRank = 0;\n        for(uint16 i = 0 ; i < validators.length ; i++){\n            // \n            uint256 rank = registryContract.getNodeRank(validators[i]);\n            require(rank >= currentRank, \"low singal rank\");\n            totalRank += rank;\n        }\n        require(totalRank >= currentRank, \"low total rank\");\n            \n        //\n        uint256[2][] memory keys1 = registryContract.getNodePublicKeys(validators[0]);\n        bytes memory S = abi.encodePacked(bytes32(keys1[0][0]), bytes32(keys1[0][1]));\n\n        for(uint16 i = 0; i < validators.length; i++){\n            uint256[2][] memory keys = registryContract.getNodePublicKeys(validators[i]);\n            for(uint16 j = 0 ; j < keys.length; j++){\n                if(i == 0 && j == 0){\n                    continue;\n                } else{\n                    S = abi.encodePacked(S, bytes32(keys[j][0]), bytes32(keys[j][1]));\n                }\n            }\n        }\n        \n        uint256 pubKeyX = 0;\n        uint256 pubKeyY = 0;\n\n        for(uint16 i = 0; i < validators.length; i++){\n            uint256[2][] memory keys = registryContract.getNodePublicKeys(validators[i]);\n            for(uint16 j = 0 ; j < keys.length ; j++){\n                uint256 tempX = keys[j][0];\n                uint256 tempY = keys[j][1];\n                \n                uint256 res = uint256(sha256(abi.encodePacked(bytes32(keys[j][0]), bytes32(keys[j][1]), S)));\n                (tempX, tempY) = BN256G1.mulPoint([tempX, tempY, res]);\n                (pubKeyX, pubKeyY) = BN256G1.addPoint([tempX, tempY, pubKeyX, pubKeyY]);\n            }\n        }\n\n        /*Schnorr*/\n        require(Schnorr.verify(signature, pubKeyX, pubKeyY, rx, ry, _hash), \"sig: address doesn't match\");\n        // require(Schnorr.verify(signature, keyX, keyY, rx, ry, _hash), \"sig: address doesn't match\");\n\n        if (_typ == ValidationType.BLOCK) {\n            blockValidationResults[message] = _result;\n        } else if (_typ == ValidationType.TRANSACTION) {\n            txValidationResults[message] = _result;\n        }\n\n        //  \n        payable(msg.sender).transfer(AGGREGATE_FEE);     //\n        // \n\n        for(uint32 i = 0 ; i < validators.length ; i++){\n            if(address(this).balance >= BASE_FEE * registryContract.getNodeRank(validators[i])){\n                payable(validators[i]).transfer(BASE_FEE * registryContract.getNodeRank(validators[i])); \n            } else{\n                payable(validators[i]).transfer(address(this).balance); \n            }\n        }\n    }\n\n\n    // TODO: \n    function submitValidationResult2(\n        ValidationType _typ,\n        bool _result,\n        bytes32 message,\n        uint256 signature,uint256 pubKeyX, uint256 pubKeyY, uint256 rx , uint256 ry, uint256 _hash, \n        address[] memory validators, uint256[2][] memory pubKeyArray\n    ) private {\n        require(_typ != ValidationType.UNKNOWN, \"unknown validation type\");\n        require(registryContract.getAggregator() == msg.sender, \"not the aggregator\");  //\n        require(pubKeyArray.length >= currentRank, \"low total rank\");\n\n        uint32 index = 0;\n        for(uint16 i = 0 ; i < validators.length ; i++){\n            // \n            uint256[2][] memory keys = registryContract.getNodePublicKeys(validators[i]);\n            require(keys.length >= currentRank, \"low singal rank\");\n            \n            for(uint16 j = 0; j < keys.length; j++){\n                require(pubKeyArray[index][0] == keys[j][0] && pubKeyArray[index][1] == keys[j][1], \"pubkey not equal!\");\n                index++;\n            }\n        }\n\n        /*Schnorr*/\n        require(Schnorr.verify(signature, pubKeyX, pubKeyY, rx, ry, _hash), \"sig: address doesn't match\");\n        // require(Schnorr.verify(signature, keyX, keyY, rx, ry, _hash), \"sig: address doesn't match\");\n\n        if (_typ == ValidationType.BLOCK) {\n            blockValidationResults[message] = _result;\n        } else if (_typ == ValidationType.TRANSACTION) {\n            txValidationResults[message] = _result;\n        }\n\n        //  \n        payable(msg.sender).transfer(AGGREGATE_FEE);     //\n        // \n\n        for(uint32 i = 0 ; i < validators.length ; i++){\n            if(address(this).balance >= BASE_FEE * registryContract.getNodeRank(validators[i])){\n                payable(validators[i]).transfer(BASE_FEE * registryContract.getNodeRank(validators[i])); \n            } else{\n                payable(validators[i]).transfer(address(this).balance); \n            }\n        }\n    }\n}\n",
  "sourcePath": "/home/w1tness/Code/Crypto/Schnorr-multi-signature-oracle/ioporaclecontracts/contracts/OracleContract.sol",
  "compiler": {
    "name": "solc",
    "version": "0.8.13+commit.abaa5c0e.Emscripten.clang"
  },
  "schemaVersion": "3.4.16",
  "updatedAt": "2023-12-19T13:57:28.020Z",
  "networkType": "ethereum",
  "devdoc": {
    "kind": "dev",
    "methods": {},
    "version": 1
  },
  "userdoc": {
    "kind": "user",
    "methods": {},
    "version": 1
  }
}