{
  "contractName": "OracleContract",
  "abi": [
    {
      "inputs": [
        {
          "internalType": "address",
          "name": "registry",
          "type": "address"
        }
      ],
      "stateMutability": "nonpayable",
      "type": "constructor"
    },
    {
      "anonymous": false,
      "inputs": [
        {
          "indexed": false,
          "internalType": "enum OracleContract.ValidationType",
          "name": "typ",
          "type": "uint8"
        },
        {
          "indexed": true,
          "internalType": "address",
          "name": "from",
          "type": "address"
        },
        {
          "indexed": false,
          "internalType": "bytes32",
          "name": "hash",
          "type": "bytes32"
        },
        {
          "indexed": false,
          "internalType": "uint256",
          "name": "size",
          "type": "uint256"
        },
        {
          "indexed": false,
          "internalType": "uint256",
          "name": "minRank",
          "type": "uint256"
        }
      ],
      "name": "ValidationRequest",
      "type": "event"
    },
    {
      "inputs": [],
      "name": "AGGREGATE_FEE",
      "outputs": [
        {
          "internalType": "uint256",
          "name": "",
          "type": "uint256"
        }
      ],
      "stateMutability": "view",
      "type": "function",
      "constant": true
    },
    {
      "inputs": [],
      "name": "BASE_FEE",
      "outputs": [
        {
          "internalType": "uint256",
          "name": "",
          "type": "uint256"
        }
      ],
      "stateMutability": "view",
      "type": "function",
      "constant": true
    },
    {
      "inputs": [],
      "name": "PUBKEY_LENGTH",
      "outputs": [
        {
          "internalType": "uint256",
          "name": "",
          "type": "uint256"
        }
      ],
      "stateMutability": "view",
      "type": "function",
      "constant": true
    },
    {
      "inputs": [
        {
          "internalType": "uint256",
          "name": "",
          "type": "uint256"
        },
        {
          "internalType": "uint256",
          "name": "",
          "type": "uint256"
        }
      ],
      "name": "allPubKeys",
      "outputs": [
        {
          "internalType": "uint256",
          "name": "",
          "type": "uint256"
        }
      ],
      "stateMutability": "view",
      "type": "function",
      "constant": true
    },
    {
      "inputs": [
        {
          "internalType": "uint256",
          "name": "size",
          "type": "uint256"
        }
      ],
      "name": "totalFee",
      "outputs": [
        {
          "internalType": "uint256",
          "name": "",
          "type": "uint256"
        }
      ],
      "stateMutability": "pure",
      "type": "function",
      "constant": true
    },
    {
      "inputs": [
        {
          "internalType": "bytes32",
          "name": "_message",
          "type": "bytes32"
        },
        {
          "internalType": "uint256",
          "name": "size",
          "type": "uint256"
        },
        {
          "internalType": "uint256",
          "name": "minRank",
          "type": "uint256"
        }
      ],
      "name": "validateBlock",
      "outputs": [],
      "stateMutability": "payable",
      "type": "function",
      "payable": true
    },
    {
      "inputs": [
        {
          "internalType": "bytes32",
          "name": "_message",
          "type": "bytes32"
        },
        {
          "internalType": "uint256",
          "name": "size",
          "type": "uint256"
        },
        {
          "internalType": "uint256",
          "name": "minRank",
          "type": "uint256"
        }
      ],
      "name": "validateTransaction",
      "outputs": [],
      "stateMutability": "payable",
      "type": "function",
      "payable": true
    },
    {
      "inputs": [
        {
          "internalType": "bool",
          "name": "_result",
          "type": "bool"
        },
        {
          "internalType": "bytes32",
          "name": "message",
          "type": "bytes32"
        },
        {
          "internalType": "uint256",
          "name": "signature",
          "type": "uint256"
        },
        {
          "internalType": "uint256",
          "name": "rx",
          "type": "uint256"
        },
        {
          "internalType": "uint256",
          "name": "ry",
          "type": "uint256"
        },
        {
          "internalType": "uint256",
          "name": "_hash",
          "type": "uint256"
        },
        {
          "internalType": "uint256",
          "name": "hashScalar0",
          "type": "uint256"
        },
        {
          "internalType": "uint256",
          "name": "hashScalar2",
          "type": "uint256"
        },
        {
          "internalType": "address[]",
          "name": "validators",
          "type": "address[]"
        }
      ],
      "name": "submitBlockValidationResult",
      "outputs": [],
      "stateMutability": "nonpayable",
      "type": "function"
    },
    {
      "inputs": [
        {
          "internalType": "bool",
          "name": "_result",
          "type": "bool"
        },
        {
          "internalType": "bytes32",
          "name": "message",
          "type": "bytes32"
        },
        {
          "internalType": "uint256",
          "name": "signature",
          "type": "uint256"
        },
        {
          "internalType": "uint256",
          "name": "rx",
          "type": "uint256"
        },
        {
          "internalType": "uint256",
          "name": "ry",
          "type": "uint256"
        },
        {
          "internalType": "uint256",
          "name": "_hash",
          "type": "uint256"
        },
        {
          "internalType": "uint256",
          "name": "hashScalar0",
          "type": "uint256"
        },
        {
          "internalType": "uint256",
          "name": "hashScalar2",
          "type": "uint256"
        },
        {
          "internalType": "address[]",
          "name": "validators",
          "type": "address[]"
        }
      ],
      "name": "submitTransactionValidationResult",
      "outputs": [],
      "stateMutability": "nonpayable",
      "type": "function"
    },
    {
      "inputs": [
        {
          "internalType": "bytes32",
          "name": "b",
          "type": "bytes32"
        }
      ],
      "name": "bytesToUint256",
      "outputs": [
        {
          "internalType": "uint256",
          "name": "",
          "type": "uint256"
        }
      ],
      "stateMutability": "pure",
      "type": "function",
      "constant": true
    },
    {
      "inputs": [
        {
          "internalType": "uint256",
          "name": "x",
          "type": "uint256"
        }
      ],
      "name": "toBytes",
      "outputs": [
        {
          "internalType": "bytes",
          "name": "b",
          "type": "bytes"
        }
      ],
      "stateMutability": "pure",
      "type": "function",
      "constant": true
    }
  ],
  "bytecode": "0x608060405260008060006101000a81548160ff0219169083151502179055503480156200002b57600080fd5b506040516200240f3803806200240f833981810160405281019062000051919062000103565b80600660006101000a81548173ffffffffffffffffffffffffffffffffffffffff021916908373ffffffffffffffffffffffffffffffffffffffff1602179055505062000135565b600080fd5b600073ffffffffffffffffffffffffffffffffffffffff82169050919050565b6000620000cb826200009e565b9050919050565b620000dd81620000be565b8114620000e957600080fd5b50565b600081519050620000fd81620000d2565b92915050565b6000602082840312156200011c576200011b62000099565b5b60006200012c84828501620000ec565b91505092915050565b6122ca80620001456000396000f3fe60806040526004361061009c5760003560e01c8063775a8f5e11610064578063775a8f5e14610179578063a4d55d1d146101b6578063ce9d294b146101e1578063cea74edf146101fd578063d4cff25e1461023a578063e21312de146102775761009c565b80631471866c146100a15780632ef31c3c146100cc5780633d18651e146100f55780633e170dd91461012057806353d62ff71461013c575b600080fd5b3480156100ad57600080fd5b506100b66102a0565b6040516100c391906112d4565b60405180910390f35b3480156100d857600080fd5b506100f360048036038101906100ee9190611554565b6102ac565b005b34801561010157600080fd5b5061010a610331565b60405161011791906112d4565b60405180910390f35b61013a6004803603810190610135919061163a565b61033d565b005b34801561014857600080fd5b50610163600480360381019061015e919061168d565b61046a565b60405161017091906112d4565b60405180910390f35b34801561018557600080fd5b506101a0600480360381019061019b91906116ba565b610501565b6040516101ad919061176f565b60405180910390f35b3480156101c257600080fd5b506101cb61055e565b6040516101d891906112d4565b60405180910390f35b6101fb60048036038101906101f6919061163a565b610563565b005b34801561020957600080fd5b50610224600480360381019061021f91906116ba565b610690565b60405161023191906112d4565b60405180910390f35b34801561024657600080fd5b50610261600480360381019061025c9190611791565b6106c0565b60405161026e91906112d4565b60405180910390f35b34801561028357600080fd5b5061029e60048036038101906102999190611554565b6106f8565b005b6706f05b59d3b2000081565b60008054906101000a900460ff166102f9576040517f08c379a00000000000000000000000000000000000000000000000000000000081526004016102f09061182e565b60405180910390fd5b61030c60028a8a8a8a8a8a8a8a8a61077d565b60008060006101000a81548160ff021916908315150217905550505050505050505050565b67016345785d8a000081565b816706f05b59d3b200008167016345785d8a000061035b919061187d565b61036591906118d7565b3410156103a7576040517f08c379a000000000000000000000000000000000000000000000000000000000815260040161039e90611979565b60405180910390fd5b60008054906101000a900460ff16156103f5576040517f08c379a00000000000000000000000000000000000000000000000000000000081526004016103ec906119e5565b60405180910390fd5b60016000806101000a81548160ff0219169083151502179055503373ffffffffffffffffffffffffffffffffffffffff167fa2a630edc48d1fc0a90b61e08bbc34ce73957ce9d59455207cd0591006bd4d4b600286868660405161045c9493929190611a8b565b60405180910390a250505050565b60008060005b602060ff168110156104f75760018161048991906118d7565b602060ff166104989190611ad0565b60086104a4919061187d565b60026104b09190611c37565b8482602081106104c3576104c2611c82565b5b1a60f81b60f81c60ff166104d7919061187d565b826104e291906118d7565b915080806104ef90611cb1565b915050610470565b5080915050919050565b6060602067ffffffffffffffff81111561051e5761051d6113b3565b5b6040519080825280601f01601f1916602001820160405280156105505781602001600182028036833780820191505090505b509050816020820152919050565b602181565b816706f05b59d3b200008167016345785d8a0000610581919061187d565b61058b91906118d7565b3410156105cd576040517f08c379a00000000000000000000000000000000000000000000000000000000081526004016105c490611979565b60405180910390fd5b60008054906101000a900460ff161561061b576040517f08c379a0000000000000000000000000000000000000000000000000000000008152600401610612906119e5565b60405180910390fd5b60016000806101000a81548160ff0219169083151502179055503373ffffffffffffffffffffffffffffffffffffffff167fa2a630edc48d1fc0a90b61e08bbc34ce73957ce9d59455207cd0591006bd4d4b60018686866040516106829493929190611a8b565b60405180910390a250505050565b60006706f05b59d3b2000067016345785d8a0000836106af919061187d565b6106b991906118d7565b9050919050565b600582815481106106d057600080fd5b906000526020600020906002020181600281106106ec57600080fd5b01600091509150505481565b60008054906101000a900460ff16610745576040517f08c379a000000000000000000000000000000000000000000000000000000000815260040161073c9061182e565b60405180910390fd5b61075860018a8a8a8a8a8a8a8a8a61077d565b60008060006101000a81548160ff021916908315150217905550505050505050505050565b6000600281111561079157610790611a05565b5b8a60028111156107a4576107a3611a05565b5b036107e4576040517f08c379a00000000000000000000000000000000000000000000000000000000081526004016107db90611d45565b60405180910390fd5b3373ffffffffffffffffffffffffffffffffffffffff16600660009054906101000a900473ffffffffffffffffffffffffffffffffffffffff1673ffffffffffffffffffffffffffffffffffffffff16633ad59dbc6040518163ffffffff1660e01b8152600401602060405180830381865afa158015610868573d6000803e3d6000fd5b505050506040513d601f19601f8201168201806040525081019061088c9190611d7a565b73ffffffffffffffffffffffffffffffffffffffff16146108e2576040517f08c379a00000000000000000000000000000000000000000000000000000000081526004016108d990611df3565b60405180910390fd5b60005b81518163ffffffff161015610b48576000600660009054906101000a900473ffffffffffffffffffffffffffffffffffffffff1673ffffffffffffffffffffffffffffffffffffffff1663bc66e9cb848463ffffffff168151811061094d5761094c611c82565b5b60200260200101516040518263ffffffff1660e01b81526004016109719190611e22565b602060405180830381865afa15801561098e573d6000803e3d6000fd5b505050506040513d601f19601f820116820180604052508101906109b29190611e52565b90506001548110156109f9576040517f08c379a00000000000000000000000000000000000000000000000000000000081526004016109f090611ecb565b60405180910390fd5b6000600660009054906101000a900473ffffffffffffffffffffffffffffffffffffffff1673ffffffffffffffffffffffffffffffffffffffff1663fb9fb18a858563ffffffff1681518110610a5257610a51611c82565b5b60200260200101516040518263ffffffff1660e01b8152600401610a769190611e22565b600060405180830381865afa158015610a93573d6000803e3d6000fd5b505050506040513d6000823e3d601f19601f82011682018060405250810190610abc919061205f565b905060005b8151811015610b32576005828281518110610adf57610ade611c82565b5b60200260200101519080600181540180825580915050600190039060005260206000209060020201600090919091909150906002610b1e9291906111cc565b508080610b2a90611cb1565b915050610ac1565b5050508080610b40906120b8565b9150506108e5565b506001546005805490501015610b93576040517f08c379a0000000000000000000000000000000000000000000000000000000008152600401610b8a90612130565b60405180910390fd5b610ba1878484898989610f9a565b610be0576040517f08c379a0000000000000000000000000000000000000000000000000000000008152600401610bd79061219c565b60405180910390fd5b60016002811115610bf457610bf3611a05565b5b8a6002811115610c0757610c06611a05565b5b03610c3c5788600360008a815260200190815260200160002060006101000a81548160ff021916908315150217905550610c94565b600280811115610c4f57610c4e611a05565b5b8a6002811115610c6257610c61611a05565b5b03610c935788600460008a815260200190815260200160002060006101000a81548160ff0219169083151502179055505b5b3373ffffffffffffffffffffffffffffffffffffffff166108fc6706f05b59d3b200009081150290604051600060405180830381858888f19350505050158015610ce2573d6000803e3d6000fd5b5060005b81518163ffffffff161015610f7f57600660009054906101000a900473ffffffffffffffffffffffffffffffffffffffff1673ffffffffffffffffffffffffffffffffffffffff1663bc66e9cb838363ffffffff1681518110610d4c57610d4b611c82565b5b60200260200101516040518263ffffffff1660e01b8152600401610d709190611e22565b602060405180830381865afa158015610d8d573d6000803e3d6000fd5b505050506040513d601f19601f82011682018060405250810190610db19190611e52565b67016345785d8a0000610dc4919061187d565b4710610f0457818163ffffffff1681518110610de357610de2611c82565b5b602002602001015173ffffffffffffffffffffffffffffffffffffffff166108fc600660009054906101000a900473ffffffffffffffffffffffffffffffffffffffff1673ffffffffffffffffffffffffffffffffffffffff1663bc66e9cb858563ffffffff1681518110610e5b57610e5a611c82565b5b60200260200101516040518263ffffffff1660e01b8152600401610e7f9190611e22565b602060405180830381865afa158015610e9c573d6000803e3d6000fd5b505050506040513d601f19601f82011682018060405250810190610ec09190611e52565b67016345785d8a0000610ed3919061187d565b9081150290604051600060405180830381858888f19350505050158015610efe573d6000803e3d6000fd5b50610f6c565b818163ffffffff1681518110610f1d57610f1c611c82565b5b602002602001015173ffffffffffffffffffffffffffffffffffffffff166108fc479081150290604051600060405180830381858888f19350505050158015610f6a573d6000803e3d6000fd5b505b8080610f77906120b8565b915050610ce6565b5060056000610f8e919061120c565b50505050505050505050565b60008060405180606001604052806001815260200160028152602001898152509050610fc4611230565b610fcd82611098565b826000018360200182815250828152505050600060405180606001604052808a8152602001898152602001868152509050611006611230565b61100f82611098565b826000018360200182815250828152505050600060405180608001604052808a8152602001898152602001836000015181526020018360200151815250905061105781611132565b83600001846020018281525082815250505081600001518460000151148015611087575081602001518460200151145b955050505050509695505050505050565b60008060006110a561124a565b60408160608760006007600019f19150816110f5576040517f08c379a00000000000000000000000000000000000000000000000000000000081526004016110ec90612208565b60405180910390fd5b8060006002811061110957611108611c82565b5b60200201518160016002811061112257611121611c82565b5b6020020151935093505050915091565b600080600061113f61124a565b60408160808760006006600019f191508161118f576040517f08c379a000000000000000000000000000000000000000000000000000000000815260040161118690612274565b60405180910390fd5b806000600281106111a3576111a2611c82565b5b6020020151816001600281106111bc576111bb611c82565b5b6020020151935093505050915091565b82600281019282156111fb579160200282015b828111156111fa5782518255916020019190600101906111df565b5b509050611208919061126c565b5090565b508054600082556002029060005260206000209081019061122d9190611289565b50565b604051806040016040528060008152602001600081525090565b6040518060400160405280600290602082028036833780820191505090505090565b5b8082111561128557600081600090555060010161126d565b5090565b5b808211156112a957600081816112a091906112ad565b5060020161128a565b5090565b506000815560010160009055565b6000819050919050565b6112ce816112bb565b82525050565b60006020820190506112e960008301846112c5565b92915050565b6000604051905090565b600080fd5b600080fd5b60008115159050919050565b61131881611303565b811461132357600080fd5b50565b6000813590506113358161130f565b92915050565b6000819050919050565b61134e8161133b565b811461135957600080fd5b50565b60008135905061136b81611345565b92915050565b61137a816112bb565b811461138557600080fd5b50565b60008135905061139781611371565b92915050565b600080fd5b6000601f19601f8301169050919050565b7f4e487b7100000000000000000000000000000000000000000000000000000000600052604160045260246000fd5b6113eb826113a2565b810181811067ffffffffffffffff8211171561140a576114096113b3565b5b80604052505050565b600061141d6112ef565b905061142982826113e2565b919050565b600067ffffffffffffffff821115611449576114486113b3565b5b602082029050602081019050919050565b600080fd5b600073ffffffffffffffffffffffffffffffffffffffff82169050919050565b600061148a8261145f565b9050919050565b61149a8161147f565b81146114a557600080fd5b50565b6000813590506114b781611491565b92915050565b60006114d06114cb8461142e565b611413565b905080838252602082019050602084028301858111156114f3576114f261145a565b5b835b8181101561151c578061150888826114a8565b8452602084019350506020810190506114f5565b5050509392505050565b600082601f83011261153b5761153a61139d565b5b813561154b8482602086016114bd565b91505092915050565b60008060008060008060008060006101208a8c031215611577576115766112f9565b5b60006115858c828d01611326565b99505060206115968c828d0161135c565b98505060406115a78c828d01611388565b97505060606115b88c828d01611388565b96505060806115c98c828d01611388565b95505060a06115da8c828d01611388565b94505060c06115eb8c828d01611388565b93505060e06115fc8c828d01611388565b9250506101008a013567ffffffffffffffff81111561161e5761161d6112fe565b5b61162a8c828d01611526565b9150509295985092959850929598565b600080600060608486031215611653576116526112f9565b5b60006116618682870161135c565b935050602061167286828701611388565b925050604061168386828701611388565b9150509250925092565b6000602082840312156116a3576116a26112f9565b5b60006116b18482850161135c565b91505092915050565b6000602082840312156116d0576116cf6112f9565b5b60006116de84828501611388565b91505092915050565b600081519050919050565b600082825260208201905092915050565b60005b83811015611721578082015181840152602081019050611706565b83811115611730576000848401525b50505050565b6000611741826116e7565b61174b81856116f2565b935061175b818560208601611703565b611764816113a2565b840191505092915050565b600060208201905081810360008301526117898184611736565b905092915050565b600080604083850312156117a8576117a76112f9565b5b60006117b685828601611388565b92505060206117c785828601611388565b9150509250929050565b600082825260208201905092915050565b7f4e6f742076616c69646174652074696d65210000000000000000000000000000600082015250565b60006118186012836117d1565b9150611823826117e2565b602082019050919050565b600060208201905081810360008301526118478161180b565b9050919050565b7f4e487b7100000000000000000000000000000000000000000000000000000000600052601160045260246000fd5b6000611888826112bb565b9150611893836112bb565b9250817fffffffffffffffffffffffffffffffffffffffffffffffffffffffffffffffff04831182151516156118cc576118cb61184e565b5b828202905092915050565b60006118e2826112bb565b91506118ed836112bb565b9250827fffffffffffffffffffffffffffffffffffffffffffffffffffffffffffffffff038211156119225761192161184e565b5b828201905092915050565b7f746f6f206665772066656520616d6f756e740000000000000000000000000000600082015250565b60006119636012836117d1565b915061196e8261192d565b602082019050919050565b6000602082019050818103600083015261199281611956565b9050919050565b7f416e6f746865722076616c696461746520697320696e2070726f677265737321600082015250565b60006119cf6020836117d1565b91506119da82611999565b602082019050919050565b600060208201905081810360008301526119fe816119c2565b9050919050565b7f4e487b7100000000000000000000000000000000000000000000000000000000600052602160045260246000fd5b60038110611a4557611a44611a05565b5b50565b6000819050611a5682611a34565b919050565b6000611a6682611a48565b9050919050565b611a7681611a5b565b82525050565b611a858161133b565b82525050565b6000608082019050611aa06000830187611a6d565b611aad6020830186611a7c565b611aba60408301856112c5565b611ac760608301846112c5565b95945050505050565b6000611adb826112bb565b9150611ae6836112bb565b925082821015611af957611af861184e565b5b828203905092915050565b60008160011c9050919050565b6000808291508390505b6001851115611b5b57808604811115611b3757611b3661184e565b5b6001851615611b465780820291505b8081029050611b5485611b04565b9450611b1b565b94509492505050565b600082611b745760019050611c30565b81611b825760009050611c30565b8160018114611b985760028114611ba257611bd1565b6001915050611c30565b60ff841115611bb457611bb361184e565b5b8360020a915084821115611bcb57611bca61184e565b5b50611c30565b5060208310610133831016604e8410600b8410161715611c065782820a905083811115611c0157611c0061184e565b5b611c30565b611c138484846001611b11565b92509050818404811115611c2a57611c2961184e565b5b81810290505b9392505050565b6000611c42826112bb565b9150611c4d836112bb565b9250611c7a7fffffffffffffffffffffffffffffffffffffffffffffffffffffffffffffffff8484611b64565b905092915050565b7f4e487b7100000000000000000000000000000000000000000000000000000000600052603260045260246000fd5b6000611cbc826112bb565b91507fffffffffffffffffffffffffffffffffffffffffffffffffffffffffffffffff8203611cee57611ced61184e565b5b600182019050919050565b7f756e6b6e6f776e2076616c69646174696f6e2074797065000000000000000000600082015250565b6000611d2f6017836117d1565b9150611d3a82611cf9565b602082019050919050565b60006020820190508181036000830152611d5e81611d22565b9050919050565b600081519050611d7481611491565b92915050565b600060208284031215611d9057611d8f6112f9565b5b6000611d9e84828501611d65565b91505092915050565b7f6e6f74207468652061676772656761746f720000000000000000000000000000600082015250565b6000611ddd6012836117d1565b9150611de882611da7565b602082019050919050565b60006020820190508181036000830152611e0c81611dd0565b9050919050565b611e1c8161147f565b82525050565b6000602082019050611e376000830184611e13565b92915050565b600081519050611e4c81611371565b92915050565b600060208284031215611e6857611e676112f9565b5b6000611e7684828501611e3d565b91505092915050565b7f6c6f772073696e67616c2072616e6b0000000000000000000000000000000000600082015250565b6000611eb5600f836117d1565b9150611ec082611e7f565b602082019050919050565b60006020820190508181036000830152611ee481611ea8565b9050919050565b600067ffffffffffffffff821115611f0657611f056113b3565b5b602082029050602081019050919050565b600067ffffffffffffffff821115611f3257611f316113b3565b5b602082029050919050565b6000611f50611f4b84611f17565b611413565b90508060208402830185811115611f6a57611f6961145a565b5b835b81811015611f935780611f7f8882611e3d565b845260208401935050602081019050611f6c565b5050509392505050565b600082601f830112611fb257611fb161139d565b5b6002611fbf848285611f3d565b91505092915050565b6000611fdb611fd684611eeb565b611413565b90508083825260208201905060408402830185811115611ffe57611ffd61145a565b5b835b8181101561202757806120138882611f9d565b845260208401935050604081019050612000565b5050509392505050565b600082601f8301126120465761204561139d565b5b8151612056848260208601611fc8565b91505092915050565b600060208284031215612075576120746112f9565b5b600082015167ffffffffffffffff811115612093576120926112fe565b5b61209f84828501612031565b91505092915050565b600063ffffffff82169050919050565b60006120c3826120a8565b915063ffffffff82036120d9576120d861184e565b5b600182019050919050565b7f6c6f7720746f74616c2072616e6b000000000000000000000000000000000000600082015250565b600061211a600e836117d1565b9150612125826120e4565b602082019050919050565b600060208201905081810360008301526121498161210d565b9050919050565b7f7369673a206164647265737320646f65736e2774206d61746368000000000000600082015250565b6000612186601a836117d1565b915061219182612150565b602082019050919050565b600060208201905081810360008301526121b581612179565b9050919050565b7f6563206d756c206661696c656400000000000000000000000000000000000000600082015250565b60006121f2600d836117d1565b91506121fd826121bc565b602082019050919050565b60006020820190508181036000830152612221816121e5565b9050919050565b7f626e323536206164646974696f6e206661696c65640000000000000000000000600082015250565b600061225e6015836117d1565b915061226982612228565b602082019050919050565b6000602082019050818103600083015261228d81612251565b905091905056fea2646970667358221220754234d18439a4af3814ee15b6ed5d9eb1e1cb51fd8f3860da24169b7bc5bcb164736f6c634300080d0033",
  "immutableReferences": {},
  "source": "// SPDX-License-Identifier: MIT\npragma solidity  >0.8.0;\n\nimport \"./RegistryContract.sol\";\nimport \"./crypto/Schnorr.sol\";\nimport \"./crypto/BN256G1.sol\";\n\ncontract OracleContract {\n\n    // \n    bool private isValidateTime = false;\n\n    // \n    uint256 public constant BASE_FEE = 0.1 ether;\n    uint256 public constant AGGREGATE_FEE = 0.5 ether;\n\n    uint256 private currentRank;\n    uint256 private currentSize;\n    uint256 public constant PUBKEY_LENGTH = 33;\n\n    // \n    mapping(bytes32 => bool) private blockValidationResults;\n    mapping(bytes32 => bool) private txValidationResults;\n\n    uint256[2][] public allPubKeys;\n\n    // ;\n    enum ValidationType { UNKNOWN, BLOCK, TRANSACTION }\n\n    // indexed\n    event ValidationRequest(ValidationType typ, address indexed from, bytes32 hash, uint256 size, uint256 minRank);\n\n    RegistryContract private registryContract;\n    constructor(address registry) {\n        registryContract = RegistryContract(registry);\n    }\n\n    modifier minFee(uint size) {\n        require(msg.value >= BASE_FEE * size + AGGREGATE_FEE, \"too few fee amount\");\n        _;\n    }\n\n    function totalFee(uint256 size) public pure returns (uint256){\n        return size * BASE_FEE + AGGREGATE_FEE;\n    }\n\n    function validateBlock(bytes32 _message, uint256 size, uint256 minRank) external payable minFee(size) {\n        require(!isValidateTime, \"Another validate is in progress!\");\n        isValidateTime = true;\n        emit ValidationRequest(ValidationType.BLOCK, msg.sender, _message, size, minRank);\n    }\n\n    function validateTransaction(bytes32 _message, uint256 size, uint256 minRank) external payable minFee(size) {\n        require(!isValidateTime, \"Another validate is in progress!\");\n        isValidateTime = true;\n        emit ValidationRequest(ValidationType.TRANSACTION, msg.sender, _message, size, minRank);\n    }\n\n\n//-----------------------------------------------------------------------------------------------------------------------------------------------\n\n\n    function submitBlockValidationResult(bool _result, bytes32 message, uint256 signature, uint256 rx , uint256 ry, uint256 _hash, uint256 hashScalar0,  uint256 hashScalar2, address[] memory validators) external {\n        require(isValidateTime, \"Not validate time!\");\n        submitValidationResult(ValidationType.BLOCK, _result, message, signature, rx, ry, _hash, hashScalar0, hashScalar2, validators);\n        isValidateTime = false;\n    }\n\n    function submitTransactionValidationResult(bool _result, bytes32 message, uint256 signature, uint256 rx , uint256 ry, uint256 _hash, uint256 hashScalar0,  uint256 hashScalar2, address[] memory validators) external {\n        require(isValidateTime, \"Not validate time!\");\n        submitValidationResult(ValidationType.TRANSACTION, _result, message, signature, rx, ry, _hash, hashScalar0, hashScalar2, validators);\n        isValidateTime = false;\n    }\n\n    function submitValidationResult(\n        ValidationType _typ,\n        bool _result,\n        bytes32 message,\n        uint256 signature, uint256 rx , uint256 ry, uint256 _hash, uint256 pubKeyX1,  uint256 pubKeyY1,\n        address[] memory validators\n    ) private {\n        require(_typ != ValidationType.UNKNOWN, \"unknown validation type\");\n        require(registryContract.getAggregator() == msg.sender, \"not the aggregator\");  //\n    \n        \n        for(uint32 i = 0 ; i < validators.length ; i++){\n            // \n            uint256 rank = registryContract.getNodeRank(validators[i]);\n            require(rank >= currentRank, \"low singal rank\");\n            uint256[2][] memory pubKeys = registryContract.getNodePublicKeys(validators[i]);\n            for(uint j = 0; j < pubKeys.length; j++){\n                allPubKeys.push(pubKeys[j]);        \n            }\n        }\n        require(allPubKeys.length >= currentRank, \"low total rank\");\n        \n        // TODO:\n        // bytes memory S = new bytes((allPubKeys.length + 1) * 64);\n        // uint256 index = 64;\n        // for(uint32 i = 0 ; i < allPubKeys.length ; i++){\n        //     for(uint32 j = 0; j < 2; j++){\n        //         bytes memory temp = toBytes(allPubKeys[i][j]);\n        //         for(uint32 k = 0; k < temp.length; k++){                   \n        //             S[index] = temp[k];\n        //             index++;\n        //         }               \n        //     }\n        // }\n\n        // uint256 pubKeyX = 0;\n        // uint256 pubKeyY = 0;\n\n        // for(uint32 i = 0 ; i < allPubKeys.length ; i++){\n        //     uint256 tempX = allPubKeys[i][0];\n        //     uint256 tempY = allPubKeys[i][1];\n        //     for(uint k = 0; k < 32; k++){\n        //         bytes memory temp = toBytes(tempX);\n        //         S[k] = temp[k];\n        //     }\n        //     for(uint k = 0; k < 32; k++){\n        //         bytes memory temp = toBytes(tempY);\n        //         S[k + 32] = temp[k];\n        //     }\n        //     uint256 res = bytesToUint256(sha256(S));\n        //     (tempX, tempY) = BN256G1.mulPoint([tempX, tempY, res]);\n        //     (pubKeyX, pubKeyY) = BN256G1.addPoint([tempX, tempY, pubKeyX, pubKeyY]);\n        // }\n        // require(Schnorr.verify(signature, pubKeyX1, pubKeyY1, rx, ry, _hash), \"sig verify fail\");\n\n        // require(pubKeyX == pubKeyX1, \"pubKey recover fail\");\n        /*Schnorr*/\n        require(Schnorr.verify(signature, pubKeyX1, pubKeyY1, rx, ry, _hash), \"sig: address doesn't match\");\n\n        if (_typ == ValidationType.BLOCK) {\n            blockValidationResults[message] = _result;\n        } else if (_typ == ValidationType.TRANSACTION) {\n            txValidationResults[message] = _result;\n        }\n\n        //  \n        payable(msg.sender).transfer(AGGREGATE_FEE);     //\n        // \n\n        for(uint32 i = 0 ; i < validators.length ; i++){\n            if(address(this).balance >= BASE_FEE * registryContract.getNodeRank(validators[i])){\n                payable(validators[i]).transfer(BASE_FEE * registryContract.getNodeRank(validators[i])); \n            } else{\n                payable(validators[i]).transfer(address(this).balance); \n            }\n        }\n\n        delete allPubKeys;\n    }\n\n    function bytesToUint256(bytes32 b) public pure returns (uint256){\n        uint256 number;\n        for(uint i= 0; i < b.length; i++){\n            number = number + uint8(b[i])*(2**(8*(b.length-(i+1))));\n        }\n        return  number;\n    }\n\n    function toBytes(uint256 x) public pure returns (bytes memory b) {\n        b = new bytes(32);\n        assembly { mstore(add(b, 32), x) }\n    }\n}\n",
  "sourcePath": "/home/yuhang/Schnorr/Schnorr-multi-signature-oracle/ioporaclecontracts/contracts/OracleContract.sol",
  "compiler": {
    "name": "solc",
    "version": "0.8.13+commit.abaa5c0e.Emscripten.clang"
  },
  "schemaVersion": "3.4.14",
  "updatedAt": "2023-12-18T04:27:02.251Z",
  "networkType": "ethereum",
  "devdoc": {
    "kind": "dev",
    "methods": {},
    "version": 1
  },
  "userdoc": {
    "kind": "user",
    "methods": {},
    "version": 1
  }
}