{
  "contractName": "OracleContract",
  "abi": [
    {
      "inputs": [
        {
          "internalType": "address",
          "name": "registry",
          "type": "address"
        }
      ],
      "stateMutability": "nonpayable",
      "type": "constructor"
    },
    {
      "anonymous": false,
      "inputs": [
        {
          "indexed": false,
          "internalType": "enum OracleContract.ValidationType",
          "name": "typ",
          "type": "uint8"
        },
        {
          "indexed": true,
          "internalType": "address",
          "name": "from",
          "type": "address"
        },
        {
          "indexed": false,
          "internalType": "bytes32",
          "name": "hash",
          "type": "bytes32"
        },
        {
          "indexed": false,
          "internalType": "uint256",
          "name": "size",
          "type": "uint256"
        },
        {
          "indexed": false,
          "internalType": "uint256",
          "name": "minRank",
          "type": "uint256"
        }
      ],
      "name": "ValidationRequest",
      "type": "event"
    },
    {
      "inputs": [],
      "name": "AGGREGATE_FEE",
      "outputs": [
        {
          "internalType": "uint256",
          "name": "",
          "type": "uint256"
        }
      ],
      "stateMutability": "view",
      "type": "function",
      "constant": true
    },
    {
      "inputs": [],
      "name": "BASE_FEE",
      "outputs": [
        {
          "internalType": "uint256",
          "name": "",
          "type": "uint256"
        }
      ],
      "stateMutability": "view",
      "type": "function",
      "constant": true
    },
    {
      "inputs": [],
      "name": "PUBKEY_LENGTH",
      "outputs": [
        {
          "internalType": "uint256",
          "name": "",
          "type": "uint256"
        }
      ],
      "stateMutability": "view",
      "type": "function",
      "constant": true
    },
    {
      "inputs": [
        {
          "internalType": "bytes32",
          "name": "_message",
          "type": "bytes32"
        },
        {
          "internalType": "uint256",
          "name": "size",
          "type": "uint256"
        },
        {
          "internalType": "uint256",
          "name": "minRank",
          "type": "uint256"
        }
      ],
      "name": "validateBlock",
      "outputs": [],
      "stateMutability": "payable",
      "type": "function",
      "payable": true
    },
    {
      "inputs": [
        {
          "internalType": "bytes32",
          "name": "_message",
          "type": "bytes32"
        },
        {
          "internalType": "uint256",
          "name": "size",
          "type": "uint256"
        },
        {
          "internalType": "uint256",
          "name": "minRank",
          "type": "uint256"
        }
      ],
      "name": "validateTransaction",
      "outputs": [],
      "stateMutability": "payable",
      "type": "function",
      "payable": true
    },
    {
      "inputs": [
        {
          "internalType": "bool",
          "name": "_result",
          "type": "bool"
        },
        {
          "internalType": "bytes32",
          "name": "message",
          "type": "bytes32"
        },
        {
          "internalType": "uint256",
          "name": "signature",
          "type": "uint256"
        },
        {
          "internalType": "uint256",
          "name": "rx",
          "type": "uint256"
        },
        {
          "internalType": "uint256",
          "name": "ry",
          "type": "uint256"
        },
        {
          "internalType": "uint256",
          "name": "_hash",
          "type": "uint256"
        },
        {
          "internalType": "address[]",
          "name": "validators",
          "type": "address[]"
        }
      ],
      "name": "submitBlockValidationResult",
      "outputs": [],
      "stateMutability": "nonpayable",
      "type": "function"
    },
    {
      "inputs": [
        {
          "internalType": "bool",
          "name": "_result",
          "type": "bool"
        },
        {
          "internalType": "bytes32",
          "name": "message",
          "type": "bytes32"
        },
        {
          "internalType": "uint256",
          "name": "signature",
          "type": "uint256"
        },
        {
          "internalType": "uint256",
          "name": "rx",
          "type": "uint256"
        },
        {
          "internalType": "uint256",
          "name": "ry",
          "type": "uint256"
        },
        {
          "internalType": "uint256",
          "name": "_hash",
          "type": "uint256"
        },
        {
          "internalType": "address[]",
          "name": "validators",
          "type": "address[]"
        }
      ],
      "name": "submitTransactionValidationResult",
      "outputs": [],
      "stateMutability": "nonpayable",
      "type": "function"
    },
    {
      "inputs": [
        {
          "internalType": "bytes32",
          "name": "b",
          "type": "bytes32"
        }
      ],
      "name": "bytesToUint256",
      "outputs": [
        {
          "internalType": "uint256",
          "name": "",
          "type": "uint256"
        }
      ],
      "stateMutability": "pure",
      "type": "function",
      "constant": true
    }
  ],
  "bytecode": "0x608060405260008060006101000a81548160ff0219169083151502179055503480156200002b57600080fd5b5060405162002b3938038062002b39833981810160405281019062000051919062000103565b80600560006101000a81548173ffffffffffffffffffffffffffffffffffffffff021916908373ffffffffffffffffffffffffffffffffffffffff1602179055505062000135565b600080fd5b600073ffffffffffffffffffffffffffffffffffffffff82169050919050565b6000620000cb826200009e565b9050919050565b620000dd81620000be565b8114620000e957600080fd5b50565b600081519050620000fd81620000d2565b92915050565b6000602082840312156200011c576200011b62000099565b5b60006200012c84828501620000ec565b91505092915050565b6129f480620001456000396000f3fe60806040526004361061007b5760003560e01c806353d62ff71161004e57806353d62ff71461011b5780639459142f14610158578063a4d55d1d14610181578063ce9d294b146101ac5761007b565b80631471866c146100805780632fe0bbd4146100ab5780633d18651e146100d45780633e170dd9146100ff575b600080fd5b34801561008c57600080fd5b506100956101c8565b6040516100a29190611815565b60405180910390f35b3480156100b757600080fd5b506100d260048036038101906100cd9190611a95565b6101d4565b005b3480156100e057600080fd5b506100e9610255565b6040516100f69190611815565b60405180910390f35b61011960048036038101906101149190611b53565b610261565b005b34801561012757600080fd5b50610142600480360381019061013d9190611ba6565b61038e565b60405161014f9190611815565b60405180910390f35b34801561016457600080fd5b5061017f600480360381019061017a9190611a95565b610425565b005b34801561018d57600080fd5b506101966104a6565b6040516101a39190611815565b60405180910390f35b6101c660048036038101906101c19190611b53565b6104ab565b005b6706f05b59d3b2000081565b60008054906101000a900460ff16610221576040517f08c379a000000000000000000000000000000000000000000000000000000000815260040161021890611c30565b60405180910390fd5b6102326001888888888888886105d8565b60008060006101000a81548160ff02191690831515021790555050505050505050565b67016345785d8a000081565b816706f05b59d3b200008167016345785d8a000061027f9190611c7f565b6102899190611cd9565b3410156102cb576040517f08c379a00000000000000000000000000000000000000000000000000000000081526004016102c290611d7b565b60405180910390fd5b60008054906101000a900460ff1615610319576040517f08c379a000000000000000000000000000000000000000000000000000000000815260040161031090611de7565b60405180910390fd5b60016000806101000a81548160ff0219169083151502179055503373ffffffffffffffffffffffffffffffffffffffff167fa2a630edc48d1fc0a90b61e08bbc34ce73957ce9d59455207cd0591006bd4d4b60028686866040516103809493929190611e8d565b60405180910390a250505050565b60008060005b602060ff1681101561041b576001816103ad9190611cd9565b602060ff166103bc9190611ed2565b60086103c89190611c7f565b60026103d49190612039565b8482602081106103e7576103e6612084565b5b1a60f81b60f81c60ff166103fb9190611c7f565b826104069190611cd9565b91508080610413906120b3565b915050610394565b5080915050919050565b60008054906101000a900460ff16610472576040517f08c379a000000000000000000000000000000000000000000000000000000000815260040161046990611c30565b60405180910390fd5b6104836002888888888888886105d8565b60008060006101000a81548160ff02191690831515021790555050505050505050565b602181565b816706f05b59d3b200008167016345785d8a00006104c99190611c7f565b6104d39190611cd9565b341015610515576040517f08c379a000000000000000000000000000000000000000000000000000000000815260040161050c90611d7b565b60405180910390fd5b60008054906101000a900460ff1615610563576040517f08c379a000000000000000000000000000000000000000000000000000000000815260040161055a90611de7565b60405180910390fd5b60016000806101000a81548160ff0219169083151502179055503373ffffffffffffffffffffffffffffffffffffffff167fa2a630edc48d1fc0a90b61e08bbc34ce73957ce9d59455207cd0591006bd4d4b60018686866040516105ca9493929190611e8d565b60405180910390a250505050565b600060028111156105ec576105eb611e07565b5b8860028111156105ff576105fe611e07565b5b0361063f576040517f08c379a000000000000000000000000000000000000000000000000000000000815260040161063690612147565b60405180910390fd5b3373ffffffffffffffffffffffffffffffffffffffff16600560009054906101000a900473ffffffffffffffffffffffffffffffffffffffff1673ffffffffffffffffffffffffffffffffffffffff16633ad59dbc6040518163ffffffff1660e01b8152600401602060405180830381865afa1580156106c3573d6000803e3d6000fd5b505050506040513d601f19601f820116820180604052508101906106e7919061217c565b73ffffffffffffffffffffffffffffffffffffffff161461073d576040517f08c379a0000000000000000000000000000000000000000000000000000000008152600401610734906121f5565b60405180910390fd5b600080825167ffffffffffffffff81111561075b5761075a6118f4565b5b60405190808252806020026020018201604052801561078e57816020015b60608152602001906001900390816107795790505b50905060005b83518163ffffffff1610156109b5576000600560009054906101000a900473ffffffffffffffffffffffffffffffffffffffff1673ffffffffffffffffffffffffffffffffffffffff1663bc66e9cb868463ffffffff16815181106107fc576107fb612084565b5b60200260200101516040518263ffffffff1660e01b81526004016108209190612224565b602060405180830381865afa15801561083d573d6000803e3d6000fd5b505050506040513d601f19601f820116820180604052508101906108619190612254565b90506001548110156108a8576040517f08c379a000000000000000000000000000000000000000000000000000000000815260040161089f906122cd565b60405180910390fd5b80846108b49190611cd9565b93506000600560009054906101000a900473ffffffffffffffffffffffffffffffffffffffff1673ffffffffffffffffffffffffffffffffffffffff1663fb9fb18a878563ffffffff168151811061090f5761090e612084565b5b60200260200101516040518263ffffffff1660e01b81526004016109339190612224565b600060405180830381865afa158015610950573d6000803e3d6000fd5b505050506040513d6000823e3d601f19601f8201168201806040525081019061097991906124bb565b905080848463ffffffff168151811061099557610994612084565b5b6020026020010181905250505080806109ad90612514565b915050610794565b506001548210156109fb576040517f08c379a00000000000000000000000000000000000000000000000000000000081526004016109f29061258c565b60405180910390fd5b60006021600184610a0c9190611cd9565b610a169190611c7f565b67ffffffffffffffff811115610a2f57610a2e6118f4565b5b6040519080825280601f01601f191660200182016040528015610a615781602001600182028036833780820191505090505b50905060006021905060005b83518163ffffffff161015610beb5760005b848263ffffffff1681518110610a9857610a97612084565b5b6020026020010151518163ffffffff161015610bd75760005b858363ffffffff1681518110610aca57610ac9612084565b5b60200260200101518263ffffffff1681518110610aea57610ae9612084565b5b60200260200101515060218163ffffffff161015610bc357858363ffffffff1681518110610b1b57610b1a612084565b5b60200260200101518263ffffffff1681518110610b3b57610b3a612084565b5b60200260200101518163ffffffff1660218110610b5b57610b5a612084565b5b6020020151858581518110610b7357610b72612084565b5b60200101907effffffffffffffffffffffffffffffffffffffffffffffffffffffffffffff1916908160001a9053508380610bad906120b3565b9450508080610bbb90612514565b915050610ab1565b508080610bcf90612514565b915050610a7f565b508080610be390612514565b915050610a6d565b5060008060005b85518163ffffffff161015610ed65760005b868263ffffffff1681518110610c1d57610c1c612084565b5b6020026020010151518163ffffffff161015610ec2576000806000602167ffffffffffffffff811115610c5357610c526118f4565b5b6040519080825280601f01601f191660200182016040528015610c855781602001600182028036833780820191505090505b50905060005b6021811015610de1578a8663ffffffff1681518110610cad57610cac612084565b5b60200260200101518563ffffffff1681518110610ccd57610ccc612084565b5b60200260200101518160218110610ce757610ce6612084565b5b6020020151828763ffffffff1681518110610d0557610d04612084565b5b60200101907effffffffffffffffffffffffffffffffffffffffffffffffffffffffffffff1916908160001a9053508a8663ffffffff1681518110610d4d57610d4c612084565b5b60200260200101518563ffffffff1681518110610d6d57610d6c612084565b5b60200260200101518160218110610d8757610d86612084565b5b60200201518a8281518110610d9f57610d9e612084565b5b60200101907effffffffffffffffffffffffffffffffffffffffffffffffffffffffffffff1916908160001a9053508080610dd9906120b3565b915050610c8b565b50610deb816112d4565b80935081945050506000610e4d60028b604051610e089190612626565b602060405180830381855afa158015610e25573d6000803e3d6000fd5b5050506040513d601f19601f82011682018060405250810190610e489190612652565b61038e565b9050610e72604051806060016040528086815260200185815260200183815250611342565b8094508195505050610ea360405180608001604052808681526020018581526020018a8152602001898152506113dc565b8098508199505050505050508080610eba90612514565b915050610c04565b508080610ece90612514565b915050610bf2565b50610ee58b83838d8d8d611476565b610f24576040517f08c379a0000000000000000000000000000000000000000000000000000000008152600401610f1b906126cb565b60405180910390fd5b60016002811115610f3857610f37611e07565b5b8e6002811115610f4b57610f4a611e07565b5b03610f80578c600360008e815260200190815260200160002060006101000a81548160ff021916908315150217905550610fd8565b600280811115610f9357610f92611e07565b5b8e6002811115610fa657610fa5611e07565b5b03610fd7578c600460008e815260200190815260200160002060006101000a81548160ff0219169083151502179055505b5b3373ffffffffffffffffffffffffffffffffffffffff166108fc6706f05b59d3b200009081150290604051600060405180830381858888f19350505050158015611026573d6000803e3d6000fd5b5060005b87518163ffffffff1610156112c357600560009054906101000a900473ffffffffffffffffffffffffffffffffffffffff1673ffffffffffffffffffffffffffffffffffffffff1663bc66e9cb898363ffffffff16815181106110905761108f612084565b5b60200260200101516040518263ffffffff1660e01b81526004016110b49190612224565b602060405180830381865afa1580156110d1573d6000803e3d6000fd5b505050506040513d601f19601f820116820180604052508101906110f59190612254565b67016345785d8a00006111089190611c7f565b471061124857878163ffffffff168151811061112757611126612084565b5b602002602001015173ffffffffffffffffffffffffffffffffffffffff166108fc600560009054906101000a900473ffffffffffffffffffffffffffffffffffffffff1673ffffffffffffffffffffffffffffffffffffffff1663bc66e9cb8b8563ffffffff168151811061119f5761119e612084565b5b60200260200101516040518263ffffffff1660e01b81526004016111c39190612224565b602060405180830381865afa1580156111e0573d6000803e3d6000fd5b505050506040513d601f19601f820116820180604052508101906112049190612254565b67016345785d8a00006112179190611c7f565b9081150290604051600060405180830381858888f19350505050158015611242573d6000803e3d6000fd5b506112b0565b878163ffffffff168151811061126157611260612084565b5b602002602001015173ffffffffffffffffffffffffffffffffffffffff166108fc479081150290604051600060405180830381858888f193505050501580156112ae573d6000803e3d6000fd5b505b80806112bb90612514565b91505061102a565b505050505050505050505050505050565b600080602183511461131b576040517f08c379a000000000000000000000000000000000000000000000000000000000815260040161131290612737565b60405180910390fd5b6000806001850151915060218501519050806113378383611574565b935093505050915091565b600080600061134f6117c0565b60408160608760006007600019f191508161139f576040517f08c379a0000000000000000000000000000000000000000000000000000000008152600401611396906127a3565b60405180910390fd5b806000600281106113b3576113b2612084565b5b6020020151816001600281106113cc576113cb612084565b5b6020020151935093505050915091565b60008060006113e96117c0565b60408160808760006006600019f1915081611439576040517f08c379a00000000000000000000000000000000000000000000000000000000081526004016114309061280f565b60405180910390fd5b8060006002811061144d5761144c612084565b5b60200201518160016002811061146657611465612084565b5b6020020151935093505050915091565b600080604051806060016040528060018152602001600281526020018981525090506114a06117e2565b6114a982611342565b826000018360200182815250828152505050600060405180606001604052808a81526020018981526020018681525090506114e26117e2565b6114eb82611342565b826000018360200182815250828152505050600060405180608001604052808a81526020018981526020018360000151815260200183602001518152509050611533816113dc565b83600001846020018281525082815250505081600001518460000151148015611563575081602001518460200151145b955050505050509695505050505050565b60006115a58383600060037f30644e72e131a029b85045b68181585d97816a916871ca8d3c208c16d87cfd476115ad565b905092915050565b600060028660ff1614806115c4575060038660ff16145b611603576040517f08c379a00000000000000000000000000000000000000000000000000000000081526004016115fa906128a1565b60405180910390fd5b60008280611614576116136128c1565b5b8380611623576116226128c1565b5b858580611633576116326128c1565b5b888a09088480611646576116456128c1565b5b8580611655576116546128c1565b5b898a0989090890506116808160046001866116709190611cd9565b61167a91906128f0565b856116c8565b905060008060028960ff16846116969190611cd9565b6116a09190612921565b146116b65781846116b19190611ed2565b6116b8565b815b9050809250505095945050505050565b600080820361170c576040517f08c379a00000000000000000000000000000000000000000000000000000000081526004016117039061299e565b60405180910390fd5b6000840361171d57600090506117b9565b6000830361172e57600190506117b9565b60006001905060007f800000000000000000000000000000000000000000000000000000000000000090505b60008111156117b357838186161515870a85848509099150836002820486161515870a85848509099150836004820486161515870a85848509099150836008820486161515870a8584850909915060108104905061175a565b81925050505b9392505050565b6040518060400160405280600290602082028036833780820191505090505090565b604051806040016040528060008152602001600081525090565b6000819050919050565b61180f816117fc565b82525050565b600060208201905061182a6000830184611806565b92915050565b6000604051905090565b600080fd5b600080fd5b60008115159050919050565b61185981611844565b811461186457600080fd5b50565b60008135905061187681611850565b92915050565b6000819050919050565b61188f8161187c565b811461189a57600080fd5b50565b6000813590506118ac81611886565b92915050565b6118bb816117fc565b81146118c657600080fd5b50565b6000813590506118d8816118b2565b92915050565b600080fd5b6000601f19601f8301169050919050565b7f4e487b7100000000000000000000000000000000000000000000000000000000600052604160045260246000fd5b61192c826118e3565b810181811067ffffffffffffffff8211171561194b5761194a6118f4565b5b80604052505050565b600061195e611830565b905061196a8282611923565b919050565b600067ffffffffffffffff82111561198a576119896118f4565b5b602082029050602081019050919050565b600080fd5b600073ffffffffffffffffffffffffffffffffffffffff82169050919050565b60006119cb826119a0565b9050919050565b6119db816119c0565b81146119e657600080fd5b50565b6000813590506119f8816119d2565b92915050565b6000611a11611a0c8461196f565b611954565b90508083825260208201905060208402830185811115611a3457611a3361199b565b5b835b81811015611a5d5780611a4988826119e9565b845260208401935050602081019050611a36565b5050509392505050565b600082601f830112611a7c57611a7b6118de565b5b8135611a8c8482602086016119fe565b91505092915050565b600080600080600080600060e0888a031215611ab457611ab361183a565b5b6000611ac28a828b01611867565b9750506020611ad38a828b0161189d565b9650506040611ae48a828b016118c9565b9550506060611af58a828b016118c9565b9450506080611b068a828b016118c9565b93505060a0611b178a828b016118c9565b92505060c088013567ffffffffffffffff811115611b3857611b3761183f565b5b611b448a828b01611a67565b91505092959891949750929550565b600080600060608486031215611b6c57611b6b61183a565b5b6000611b7a8682870161189d565b9350506020611b8b868287016118c9565b9250506040611b9c868287016118c9565b9150509250925092565b600060208284031215611bbc57611bbb61183a565b5b6000611bca8482850161189d565b91505092915050565b600082825260208201905092915050565b7f4e6f742076616c69646174652074696d65210000000000000000000000000000600082015250565b6000611c1a601283611bd3565b9150611c2582611be4565b602082019050919050565b60006020820190508181036000830152611c4981611c0d565b9050919050565b7f4e487b7100000000000000000000000000000000000000000000000000000000600052601160045260246000fd5b6000611c8a826117fc565b9150611c95836117fc565b9250817fffffffffffffffffffffffffffffffffffffffffffffffffffffffffffffffff0483118215151615611cce57611ccd611c50565b5b828202905092915050565b6000611ce4826117fc565b9150611cef836117fc565b9250827fffffffffffffffffffffffffffffffffffffffffffffffffffffffffffffffff03821115611d2457611d23611c50565b5b828201905092915050565b7f746f6f206665772066656520616d6f756e740000000000000000000000000000600082015250565b6000611d65601283611bd3565b9150611d7082611d2f565b602082019050919050565b60006020820190508181036000830152611d9481611d58565b9050919050565b7f416e6f746865722076616c696461746520697320696e2070726f677265737321600082015250565b6000611dd1602083611bd3565b9150611ddc82611d9b565b602082019050919050565b60006020820190508181036000830152611e0081611dc4565b9050919050565b7f4e487b7100000000000000000000000000000000000000000000000000000000600052602160045260246000fd5b60038110611e4757611e46611e07565b5b50565b6000819050611e5882611e36565b919050565b6000611e6882611e4a565b9050919050565b611e7881611e5d565b82525050565b611e878161187c565b82525050565b6000608082019050611ea26000830187611e6f565b611eaf6020830186611e7e565b611ebc6040830185611806565b611ec96060830184611806565b95945050505050565b6000611edd826117fc565b9150611ee8836117fc565b925082821015611efb57611efa611c50565b5b828203905092915050565b60008160011c9050919050565b6000808291508390505b6001851115611f5d57808604811115611f3957611f38611c50565b5b6001851615611f485780820291505b8081029050611f5685611f06565b9450611f1d565b94509492505050565b600082611f765760019050612032565b81611f845760009050612032565b8160018114611f9a5760028114611fa457611fd3565b6001915050612032565b60ff841115611fb657611fb5611c50565b5b8360020a915084821115611fcd57611fcc611c50565b5b50612032565b5060208310610133831016604e8410600b84101617156120085782820a90508381111561200357612002611c50565b5b612032565b6120158484846001611f13565b9250905081840481111561202c5761202b611c50565b5b81810290505b9392505050565b6000612044826117fc565b915061204f836117fc565b925061207c7fffffffffffffffffffffffffffffffffffffffffffffffffffffffffffffffff8484611f66565b905092915050565b7f4e487b7100000000000000000000000000000000000000000000000000000000600052603260045260246000fd5b60006120be826117fc565b91507fffffffffffffffffffffffffffffffffffffffffffffffffffffffffffffffff82036120f0576120ef611c50565b5b600182019050919050565b7f756e6b6e6f776e2076616c69646174696f6e2074797065000000000000000000600082015250565b6000612131601783611bd3565b915061213c826120fb565b602082019050919050565b6000602082019050818103600083015261216081612124565b9050919050565b600081519050612176816119d2565b92915050565b6000602082840312156121925761219161183a565b5b60006121a084828501612167565b91505092915050565b7f6e6f74207468652061676772656761746f720000000000000000000000000000600082015250565b60006121df601283611bd3565b91506121ea826121a9565b602082019050919050565b6000602082019050818103600083015261220e816121d2565b9050919050565b61221e816119c0565b82525050565b60006020820190506122396000830184612215565b92915050565b60008151905061224e816118b2565b92915050565b60006020828403121561226a5761226961183a565b5b60006122788482850161223f565b91505092915050565b7f6c6f772073696e67616c2072616e6b0000000000000000000000000000000000600082015250565b60006122b7600f83611bd3565b91506122c282612281565b602082019050919050565b600060208201905081810360008301526122e6816122aa565b9050919050565b600067ffffffffffffffff821115612308576123076118f4565b5b602082029050602081019050919050565b600067ffffffffffffffff821115612334576123336118f4565b5b602082029050919050565b60007fff0000000000000000000000000000000000000000000000000000000000000082169050919050565b6123748161233f565b811461237f57600080fd5b50565b6000815190506123918161236b565b92915050565b60006123aa6123a584612319565b611954565b905080602084028301858111156123c4576123c361199b565b5b835b818110156123ed57806123d98882612382565b8452602084019350506020810190506123c6565b5050509392505050565b600082601f83011261240c5761240b6118de565b5b6021612419848285612397565b91505092915050565b6000612435612430846122ed565b611954565b90508083825260208201905061042084028301858111156124595761245861199b565b5b835b81811015612483578061246e88826123f7565b8452602084019350506104208101905061245b565b5050509392505050565b600082601f8301126124a2576124a16118de565b5b81516124b2848260208601612422565b91505092915050565b6000602082840312156124d1576124d061183a565b5b600082015167ffffffffffffffff8111156124ef576124ee61183f565b5b6124fb8482850161248d565b91505092915050565b600063ffffffff82169050919050565b600061251f82612504565b915063ffffffff820361253557612534611c50565b5b600182019050919050565b7f6c6f7720746f74616c2072616e6b000000000000000000000000000000000000600082015250565b6000612576600e83611bd3565b915061258182612540565b602082019050919050565b600060208201905081810360008301526125a581612569565b9050919050565b600081519050919050565b600081905092915050565b60005b838110156125e05780820151818401526020810190506125c5565b838111156125ef576000848401525b50505050565b6000612600826125ac565b61260a81856125b7565b935061261a8185602086016125c2565b80840191505092915050565b600061263282846125f5565b915081905092915050565b60008151905061264c81611886565b92915050565b6000602082840312156126685761266761183a565b5b60006126768482850161263d565b91505092915050565b7f7369673a206164647265737320646f65736e2774206d61746368000000000000600082015250565b60006126b5601a83611bd3565b91506126c08261267f565b602082019050919050565b600060208201905081810360008301526126e4816126a8565b9050919050565b7f696e76616c696420656e636f64696e6700000000000000000000000000000000600082015250565b6000612721601083611bd3565b915061272c826126eb565b602082019050919050565b6000602082019050818103600083015261275081612714565b9050919050565b7f6563206d756c206661696c656400000000000000000000000000000000000000600082015250565b600061278d600d83611bd3565b915061279882612757565b602082019050919050565b600060208201905081810360008301526127bc81612780565b9050919050565b7f626e323536206164646974696f6e206661696c65640000000000000000000000600082015250565b60006127f9601583611bd3565b9150612804826127c3565b602082019050919050565b60006020820190508181036000830152612828816127ec565b9050919050565b7f496e76616c696420636f6d7072657373656420454320706f696e74207072656660008201527f6978000000000000000000000000000000000000000000000000000000000000602082015250565b600061288b602283611bd3565b91506128968261282f565b604082019050919050565b600060208201905081810360008301526128ba8161287e565b9050919050565b7f4e487b7100000000000000000000000000000000000000000000000000000000600052601260045260246000fd5b60006128fb826117fc565b9150612906836117fc565b925082612916576129156128c1565b5b828204905092915050565b600061292c826117fc565b9150612937836117fc565b925082612947576129466128c1565b5b828206905092915050565b7f4d6f64756c7573206973207a65726f0000000000000000000000000000000000600082015250565b6000612988600f83611bd3565b915061299382612952565b602082019050919050565b600060208201905081810360008301526129b78161297b565b905091905056fea2646970667358221220de8b8c2b100003b99f0ed0a8e28490098a4577a41c905a9e84218b2d25a417ed64736f6c634300080d0033",
  "immutableReferences": {},
  "source": "// SPDX-License-Identifier: MIT\npragma solidity  >0.8.0;\n\nimport \"./RegistryContract.sol\";\nimport \"./crypto/Schnorr.sol\";\nimport \"./crypto/BN256G1.sol\";\n\ncontract OracleContract {\n\n    // \n    bool private isValidateTime = false;\n\n    // \n    uint256 public constant BASE_FEE = 0.1 ether;\n    uint256 public constant AGGREGATE_FEE = 0.5 ether;\n\n    uint256 private currentRank;\n    uint256 private currentSize;\n    uint256 public constant PUBKEY_LENGTH = 33;\n\n    // \n    mapping(bytes32 => bool) private blockValidationResults;\n    mapping(bytes32 => bool) private txValidationResults;\n\n    // ;\n    enum ValidationType { UNKNOWN, BLOCK, TRANSACTION }\n\n    // indexed\n    event ValidationRequest(ValidationType typ, address indexed from, bytes32 hash, uint256 size, uint256 minRank);\n\n    RegistryContract private registryContract;\n    constructor(address registry) {\n        registryContract = RegistryContract(registry);\n    }\n\n    modifier minFee(uint size) {\n        require(msg.value >= BASE_FEE * size + AGGREGATE_FEE, \"too few fee amount\");\n        _;\n    }\n\n    function validateBlock(bytes32 _message, uint256 size, uint256 minRank) external payable minFee(size) {\n        require(!isValidateTime, \"Another validate is in progress!\");\n        isValidateTime = true;\n        emit ValidationRequest(ValidationType.BLOCK, msg.sender, _message, size, minRank);\n    }\n\n    function validateTransaction(bytes32 _message, uint256 size, uint256 minRank) external payable minFee(size) {\n        require(!isValidateTime, \"Another validate is in progress!\");\n        isValidateTime = true;\n        emit ValidationRequest(ValidationType.TRANSACTION, msg.sender, _message, size, minRank);\n    }\n\n\n//-----------------------------------------------------------------------------------------------------------------------------------------------\n\n\n    function submitBlockValidationResult(bool _result, bytes32 message, uint256 signature, uint256 rx , uint256 ry, uint256 _hash, address[] memory validators) external {\n        require(isValidateTime, \"Not validate time!\");\n        submitValidationResult(ValidationType.BLOCK, _result, message, signature, rx, ry, _hash, validators);\n        isValidateTime = false;\n    }\n\n    function submitTransactionValidationResult(bool _result, bytes32 message, uint256 signature, uint256 rx , uint256 ry, uint256 _hash, address[] memory validators) external {\n        require(isValidateTime, \"Not validate time!\");\n        submitValidationResult(ValidationType.TRANSACTION, _result, message, signature, rx, ry, _hash, validators);\n        isValidateTime = false;\n    }\n\n    function submitValidationResult(\n        ValidationType _typ,\n        bool _result,\n        bytes32 message,\n        uint256 signature, uint256 rx , uint256 ry, uint256 _hash, \n        address[] memory validators\n    ) private {\n\n        require(_typ != ValidationType.UNKNOWN, \"unknown validation type\");\n        require(registryContract.getAggregator() == msg.sender, \"not the aggregator\");  //\n        \n        \n        uint256 totalRank = 0;\n        bytes1[33][][] memory allPubKeys = new bytes1[33][][](validators.length);\n        for(uint32 i = 0 ; i < validators.length ; i++){\n            // \n            uint256 rank = registryContract.getNodeRank(validators[i]);\n            require(rank >= currentRank, \"low singal rank\");\n            totalRank += rank;\n            \n            bytes1[33][] memory pubKeys = registryContract.getNodePublicKeys(validators[i]);\n            allPubKeys[i] = pubKeys;\n        }\n        require(totalRank >= currentRank, \"low total rank\");\n        \n        // TODO:\n        bytes memory S = new bytes((totalRank + 1) * PUBKEY_LENGTH);\n        uint256 index = PUBKEY_LENGTH;\n        for(uint32 i = 0 ; i < allPubKeys.length ; i++){\n            for(uint32 j = 0; j < allPubKeys[i].length; j++){\n                for(uint32 k = 0; k < allPubKeys[i][j].length; k++){\n                    S[index] = allPubKeys[i][j][k];\n                    index++;\n                }\n            }\n        }\n\n        uint256 pubKeyX = 0;\n        uint256 pubKeyY = 0;\n\n        for(uint32 i = 0 ; i < allPubKeys.length ; i++){\n            for(uint32 j = 0; j < allPubKeys[i].length; j++){\n                uint256 tempX;\n                uint256 tempY;\n                bytes memory temp = new bytes(33);\n                for(uint k = 0; k < 33; k++){\n                    temp[i] = allPubKeys[i][j][k];\n                    S[k] = allPubKeys[i][j][k];\n                }\n                (tempX, tempY) = BN256G1.fromCompressed(temp);\n                uint256 res = bytesToUint256(sha256(S));\n                (tempX, tempY) = BN256G1.mulPoint([tempX, tempY, res]);\n\n                (pubKeyX, pubKeyY) = BN256G1.addPoint([tempX, tempY, pubKeyX, pubKeyY]);\n            }\n        }\n\n\n        /*Schnorr*/\n        require(Schnorr.verify(signature, pubKeyX, pubKeyY, rx, ry, _hash), \"sig: address doesn't match\");\n\n        if (_typ == ValidationType.BLOCK) {\n            blockValidationResults[message] = _result;\n        } else if (_typ == ValidationType.TRANSACTION) {\n            txValidationResults[message] = _result;\n        }\n\n        //  \n        payable(msg.sender).transfer(AGGREGATE_FEE);     //\n        // \n\n        for(uint32 i = 0 ; i < validators.length ; i++){\n            if(address(this).balance >= BASE_FEE * registryContract.getNodeRank(validators[i])){\n                payable(validators[i]).transfer(BASE_FEE * registryContract.getNodeRank(validators[i])); \n            } else{\n                payable(validators[i]).transfer(address(this).balance); \n            }\n        }\n    }\n\n    function bytesToUint256(bytes32 b) public pure returns (uint256){\n        uint256 number;\n        for(uint i= 0; i < b.length; i++){\n            number = number + uint8(b[i])*(2**(8*(b.length-(i+1))));\n        }\n        return  number;\n    }\n}\n",
  "sourcePath": "/home/w1tness/Code/Crypto/Schnorr-multi-signature-oracle/ioporaclecontracts/contracts/OracleContract.sol",
  "compiler": {
    "name": "solc",
    "version": "0.8.13+commit.abaa5c0e.Emscripten.clang"
  },
  "schemaVersion": "3.4.16",
  "updatedAt": "2023-12-17T03:34:39.307Z",
  "networkType": "ethereum",
  "devdoc": {
    "kind": "dev",
    "methods": {},
    "version": 1
  },
  "userdoc": {
    "kind": "user",
    "methods": {},
    "version": 1
  }
}