{
  "contractName": "OracleContract",
  "abi": [
    {
      "inputs": [
        {
          "internalType": "address",
          "name": "registry",
          "type": "address"
        }
      ],
      "stateMutability": "nonpayable",
      "type": "constructor"
    },
    {
      "anonymous": false,
      "inputs": [
        {
          "indexed": false,
          "internalType": "enum OracleContract.ValidationType",
          "name": "typ",
          "type": "uint8"
        },
        {
          "indexed": true,
          "internalType": "address",
          "name": "from",
          "type": "address"
        },
        {
          "indexed": false,
          "internalType": "bytes32",
          "name": "hash",
          "type": "bytes32"
        },
        {
          "indexed": false,
          "internalType": "uint256",
          "name": "size",
          "type": "uint256"
        },
        {
          "indexed": false,
          "internalType": "uint256",
          "name": "minRank",
          "type": "uint256"
        }
      ],
      "name": "ValidationRequest",
      "type": "event"
    },
    {
      "inputs": [],
      "name": "AGGREGATE_FEE",
      "outputs": [
        {
          "internalType": "uint256",
          "name": "",
          "type": "uint256"
        }
      ],
      "stateMutability": "view",
      "type": "function",
      "constant": true
    },
    {
      "inputs": [],
      "name": "BASE_FEE",
      "outputs": [
        {
          "internalType": "uint256",
          "name": "",
          "type": "uint256"
        }
      ],
      "stateMutability": "view",
      "type": "function",
      "constant": true
    },
    {
      "inputs": [],
      "name": "PUBKEY_LENGTH",
      "outputs": [
        {
          "internalType": "uint256",
          "name": "",
          "type": "uint256"
        }
      ],
      "stateMutability": "view",
      "type": "function",
      "constant": true
    },
    {
      "inputs": [
        {
          "internalType": "uint256",
          "name": "size",
          "type": "uint256"
        }
      ],
      "name": "totalFee",
      "outputs": [
        {
          "internalType": "uint256",
          "name": "",
          "type": "uint256"
        }
      ],
      "stateMutability": "pure",
      "type": "function",
      "constant": true
    },
    {
      "inputs": [
        {
          "internalType": "bytes32",
          "name": "_message",
          "type": "bytes32"
        },
        {
          "internalType": "uint256",
          "name": "size",
          "type": "uint256"
        },
        {
          "internalType": "uint256",
          "name": "minRank",
          "type": "uint256"
        }
      ],
      "name": "validateBlock",
      "outputs": [],
      "stateMutability": "payable",
      "type": "function",
      "payable": true
    },
    {
      "inputs": [
        {
          "internalType": "bytes32",
          "name": "_message",
          "type": "bytes32"
        },
        {
          "internalType": "uint256",
          "name": "size",
          "type": "uint256"
        },
        {
          "internalType": "uint256",
          "name": "minRank",
          "type": "uint256"
        }
      ],
      "name": "validateTransaction",
      "outputs": [],
      "stateMutability": "payable",
      "type": "function",
      "payable": true
    },
    {
      "inputs": [
        {
          "internalType": "bool",
          "name": "_result",
          "type": "bool"
        },
        {
          "internalType": "bytes32",
          "name": "message",
          "type": "bytes32"
        },
        {
          "internalType": "uint256",
          "name": "signature",
          "type": "uint256"
        },
        {
          "internalType": "uint256",
          "name": "rx",
          "type": "uint256"
        },
        {
          "internalType": "uint256",
          "name": "ry",
          "type": "uint256"
        },
        {
          "internalType": "uint256",
          "name": "_hash",
          "type": "uint256"
        },
        {
          "internalType": "address[]",
          "name": "validators",
          "type": "address[]"
        }
      ],
      "name": "submitBlockValidationResult",
      "outputs": [],
      "stateMutability": "nonpayable",
      "type": "function"
    },
    {
      "inputs": [
        {
          "internalType": "bool",
          "name": "_result",
          "type": "bool"
        },
        {
          "internalType": "bytes32",
          "name": "message",
          "type": "bytes32"
        },
        {
          "internalType": "uint256",
          "name": "signature",
          "type": "uint256"
        },
        {
          "internalType": "uint256",
          "name": "rx",
          "type": "uint256"
        },
        {
          "internalType": "uint256",
          "name": "ry",
          "type": "uint256"
        },
        {
          "internalType": "uint256",
          "name": "_hash",
          "type": "uint256"
        },
        {
          "internalType": "address[]",
          "name": "validators",
          "type": "address[]"
        }
      ],
      "name": "submitTransactionValidationResult",
      "outputs": [],
      "stateMutability": "nonpayable",
      "type": "function"
    },
    {
      "inputs": [
        {
          "internalType": "bytes32",
          "name": "b",
          "type": "bytes32"
        }
      ],
      "name": "bytesToUint256",
      "outputs": [
        {
          "internalType": "uint256",
          "name": "",
          "type": "uint256"
        }
      ],
      "stateMutability": "pure",
      "type": "function",
      "constant": true
    }
  ],
  "bytecode": "0x608060405260008060006101000a81548160ff0219169083151502179055503480156200002b57600080fd5b506040516200265f3803806200265f833981810160405281019062000051919062000103565b80600660006101000a81548173ffffffffffffffffffffffffffffffffffffffff021916908373ffffffffffffffffffffffffffffffffffffffff1602179055505062000135565b600080fd5b600073ffffffffffffffffffffffffffffffffffffffff82169050919050565b6000620000cb826200009e565b9050919050565b620000dd81620000be565b8114620000e957600080fd5b50565b600081519050620000fd81620000d2565b92915050565b6000602082840312156200011c576200011b62000099565b5b60006200012c84828501620000ec565b91505092915050565b61251a80620001456000396000f3fe6080604052600436106100865760003560e01c806353d62ff71161005957806353d62ff7146101265780639459142f14610163578063a4d55d1d1461018c578063ce9d294b146101b7578063cea74edf146101d357610086565b80631471866c1461008b5780632fe0bbd4146100b65780633d18651e146100df5780633e170dd91461010a575b600080fd5b34801561009757600080fd5b506100a0610210565b6040516100ad9190611563565b60405180910390f35b3480156100c257600080fd5b506100dd60048036038101906100d891906117e3565b61021c565b005b3480156100eb57600080fd5b506100f461029d565b6040516101019190611563565b60405180910390f35b610124600480360381019061011f91906118a1565b6102a9565b005b34801561013257600080fd5b5061014d600480360381019061014891906118f4565b6103d6565b60405161015a9190611563565b60405180910390f35b34801561016f57600080fd5b5061018a600480360381019061018591906117e3565b61046d565b005b34801561019857600080fd5b506101a16104ee565b6040516101ae9190611563565b60405180910390f35b6101d160048036038101906101cc91906118a1565b6104f3565b005b3480156101df57600080fd5b506101fa60048036038101906101f59190611921565b610620565b6040516102079190611563565b60405180910390f35b6706f05b59d3b2000081565b60008054906101000a900460ff16610269576040517f08c379a0000000000000000000000000000000000000000000000000000000008152600401610260906119ab565b60405180910390fd5b61027a600188888888888888610650565b60008060006101000a81548160ff02191690831515021790555050505050505050565b67016345785d8a000081565b816706f05b59d3b200008167016345785d8a00006102c791906119fa565b6102d19190611a54565b341015610313576040517f08c379a000000000000000000000000000000000000000000000000000000000815260040161030a90611af6565b60405180910390fd5b60008054906101000a900460ff1615610361576040517f08c379a000000000000000000000000000000000000000000000000000000000815260040161035890611b62565b60405180910390fd5b60016000806101000a81548160ff0219169083151502179055503373ffffffffffffffffffffffffffffffffffffffff167fa2a630edc48d1fc0a90b61e08bbc34ce73957ce9d59455207cd0591006bd4d4b60028686866040516103c89493929190611c08565b60405180910390a250505050565b60008060005b602060ff16811015610463576001816103f59190611a54565b602060ff166104049190611c4d565b600861041091906119fa565b600261041c9190611db4565b84826020811061042f5761042e611dff565b5b1a60f81b60f81c60ff1661044391906119fa565b8261044e9190611a54565b9150808061045b90611e2e565b9150506103dc565b5080915050919050565b60008054906101000a900460ff166104ba576040517f08c379a00000000000000000000000000000000000000000000000000000000081526004016104b1906119ab565b60405180910390fd5b6104cb600288888888888888610650565b60008060006101000a81548160ff02191690831515021790555050505050505050565b602181565b816706f05b59d3b200008167016345785d8a000061051191906119fa565b61051b9190611a54565b34101561055d576040517f08c379a000000000000000000000000000000000000000000000000000000000815260040161055490611af6565b60405180910390fd5b60008054906101000a900460ff16156105ab576040517f08c379a00000000000000000000000000000000000000000000000000000000081526004016105a290611b62565b60405180910390fd5b60016000806101000a81548160ff0219169083151502179055503373ffffffffffffffffffffffffffffffffffffffff167fa2a630edc48d1fc0a90b61e08bbc34ce73957ce9d59455207cd0591006bd4d4b60018686866040516106129493929190611c08565b60405180910390a250505050565b60006706f05b59d3b2000067016345785d8a00008361063f91906119fa565b6106499190611a54565b9050919050565b6000600281111561066457610663611b82565b5b88600281111561067757610676611b82565b5b036106b7576040517f08c379a00000000000000000000000000000000000000000000000000000000081526004016106ae90611ec2565b60405180910390fd5b3373ffffffffffffffffffffffffffffffffffffffff16600660009054906101000a900473ffffffffffffffffffffffffffffffffffffffff1673ffffffffffffffffffffffffffffffffffffffff16633ad59dbc6040518163ffffffff1660e01b8152600401602060405180830381865afa15801561073b573d6000803e3d6000fd5b505050506040513d601f19601f8201168201806040525081019061075f9190611ef7565b73ffffffffffffffffffffffffffffffffffffffff16146107b5576040517f08c379a00000000000000000000000000000000000000000000000000000000081526004016107ac90611f70565b60405180910390fd5b60005b81518163ffffffff161015610a1b576000600660009054906101000a900473ffffffffffffffffffffffffffffffffffffffff1673ffffffffffffffffffffffffffffffffffffffff1663bc66e9cb848463ffffffff16815181106108205761081f611dff565b5b60200260200101516040518263ffffffff1660e01b81526004016108449190611f9f565b602060405180830381865afa158015610861573d6000803e3d6000fd5b505050506040513d601f19601f820116820180604052508101906108859190611fcf565b90506001548110156108cc576040517f08c379a00000000000000000000000000000000000000000000000000000000081526004016108c390612048565b60405180910390fd5b6000600660009054906101000a900473ffffffffffffffffffffffffffffffffffffffff1673ffffffffffffffffffffffffffffffffffffffff1663fb9fb18a858563ffffffff168151811061092557610924611dff565b5b60200260200101516040518263ffffffff1660e01b81526004016109499190611f9f565b600060405180830381865afa158015610966573d6000803e3d6000fd5b505050506040513d6000823e3d601f19601f8201168201806040525081019061098f91906121dc565b905060005b8151811015610a055760058282815181106109b2576109b1611dff565b5b602002602001015190806001815401808255809150506001900390600052602060002090600202016000909190919091509060026109f19291906114b1565b5080806109fd90611e2e565b915050610994565b5050508080610a1390612235565b9150506107b8565b506001546005805490501015610a66576040517f08c379a0000000000000000000000000000000000000000000000000000000008152600401610a5d906122ad565b60405180910390fd5b600060406001600580549050610a7c9190611a54565b610a8691906119fa565b67ffffffffffffffff811115610a9f57610a9e611642565b5b6040519080825280601f01601f191660200182016040528015610ad15781602001600182028036833780820191505090505b50905060006040905060005b6005805490508163ffffffff161015610c095760005b60028163ffffffff161015610bf557600060058363ffffffff1681548110610b1e57610b1d611dff565b5b90600052602060002090600202018263ffffffff1660028110610b4457610b43611dff565b5b015460001b905060005b602060ff168163ffffffff161015610be057818163ffffffff1660208110610b7957610b78611dff565b5b1a60f81b868681518110610b9057610b8f611dff565b5b60200101907effffffffffffffffffffffffffffffffffffffffffffffffffffffffffffff1916908160001a9053508480610bca90611e2e565b9550508080610bd890612235565b915050610b4e565b50508080610bed90612235565b915050610af3565b508080610c0190612235565b915050610add565b5060008060005b6005805490508163ffffffff161015610e8357600060058263ffffffff1681548110610c3f57610c3e611dff565b5b9060005260206000209060020201600060028110610c6057610c5f611dff565b5b01549050600060058363ffffffff1681548110610c8057610c7f611dff565b5b9060005260206000209060020201600160028110610ca157610ca0611dff565b5b0154905060005b6020811015610d265760008360001b9050808260208110610ccc57610ccb611dff565b5b1a60f81b898381518110610ce357610ce2611dff565b5b60200101907effffffffffffffffffffffffffffffffffffffffffffffffffffffffffffff1916908160001a905350508080610d1e90611e2e565b915050610ca8565b5060005b6020811015610db45760008260001b9050808260208110610d4e57610d4d611dff565b5b1a60f81b89602084610d609190611a54565b81518110610d7157610d70611dff565b5b60200101907effffffffffffffffffffffffffffffffffffffffffffffffffffffffffffff1916908160001a905350508080610dac90611e2e565b915050610d2a565b506000610e0f600289604051610dca9190612347565b602060405180830381855afa158015610de7573d6000803e3d6000fd5b5050506040513d601f19601f82011682018060405250810190610e0a9190612373565b6103d6565b9050610e3460405180606001604052808581526020018481526020018381525061127f565b8093508194505050610e65604051806080016040528085815260200184815260200188815260200187815250611319565b80965081975050505050508080610e7b90612235565b915050610c10565b50610e928983838b8b8b6113b3565b610ed1576040517f08c379a0000000000000000000000000000000000000000000000000000000008152600401610ec8906123ec565b60405180910390fd5b60016002811115610ee557610ee4611b82565b5b8c6002811115610ef857610ef7611b82565b5b03610f2d578a600360008c815260200190815260200160002060006101000a81548160ff021916908315150217905550610f85565b600280811115610f4057610f3f611b82565b5b8c6002811115610f5357610f52611b82565b5b03610f84578a600460008c815260200190815260200160002060006101000a81548160ff0219169083151502179055505b5b3373ffffffffffffffffffffffffffffffffffffffff166108fc6706f05b59d3b200009081150290604051600060405180830381858888f19350505050158015610fd3573d6000803e3d6000fd5b5060005b85518163ffffffff16101561127057600660009054906101000a900473ffffffffffffffffffffffffffffffffffffffff1673ffffffffffffffffffffffffffffffffffffffff1663bc66e9cb878363ffffffff168151811061103d5761103c611dff565b5b60200260200101516040518263ffffffff1660e01b81526004016110619190611f9f565b602060405180830381865afa15801561107e573d6000803e3d6000fd5b505050506040513d601f19601f820116820180604052508101906110a29190611fcf565b67016345785d8a00006110b591906119fa565b47106111f557858163ffffffff16815181106110d4576110d3611dff565b5b602002602001015173ffffffffffffffffffffffffffffffffffffffff166108fc600660009054906101000a900473ffffffffffffffffffffffffffffffffffffffff1673ffffffffffffffffffffffffffffffffffffffff1663bc66e9cb898563ffffffff168151811061114c5761114b611dff565b5b60200260200101516040518263ffffffff1660e01b81526004016111709190611f9f565b602060405180830381865afa15801561118d573d6000803e3d6000fd5b505050506040513d601f19601f820116820180604052508101906111b19190611fcf565b67016345785d8a00006111c491906119fa565b9081150290604051600060405180830381858888f193505050501580156111ef573d6000803e3d6000fd5b5061125d565b858163ffffffff168151811061120e5761120d611dff565b5b602002602001015173ffffffffffffffffffffffffffffffffffffffff166108fc479081150290604051600060405180830381858888f1935050505015801561125b573d6000803e3d6000fd5b505b808061126890612235565b915050610fd7565b50505050505050505050505050565b600080600061128c6114f1565b60408160608760006007600019f19150816112dc576040517f08c379a00000000000000000000000000000000000000000000000000000000081526004016112d390612458565b60405180910390fd5b806000600281106112f0576112ef611dff565b5b60200201518160016002811061130957611308611dff565b5b6020020151935093505050915091565b60008060006113266114f1565b60408160808760006006600019f1915081611376576040517f08c379a000000000000000000000000000000000000000000000000000000000815260040161136d906124c4565b60405180910390fd5b8060006002811061138a57611389611dff565b5b6020020151816001600281106113a3576113a2611dff565b5b6020020151935093505050915091565b600080604051806060016040528060018152602001600281526020018981525090506113dd611513565b6113e68261127f565b826000018360200182815250828152505050600060405180606001604052808a815260200189815260200186815250905061141f611513565b6114288261127f565b826000018360200182815250828152505050600060405180608001604052808a8152602001898152602001836000015181526020018360200151815250905061147081611319565b836000018460200182815250828152505050816000015184600001511480156114a0575081602001518460200151145b955050505050509695505050505050565b82600281019282156114e0579160200282015b828111156114df5782518255916020019190600101906114c4565b5b5090506114ed919061152d565b5090565b6040518060400160405280600290602082028036833780820191505090505090565b604051806040016040528060008152602001600081525090565b5b8082111561154657600081600090555060010161152e565b5090565b6000819050919050565b61155d8161154a565b82525050565b60006020820190506115786000830184611554565b92915050565b6000604051905090565b600080fd5b600080fd5b60008115159050919050565b6115a781611592565b81146115b257600080fd5b50565b6000813590506115c48161159e565b92915050565b6000819050919050565b6115dd816115ca565b81146115e857600080fd5b50565b6000813590506115fa816115d4565b92915050565b6116098161154a565b811461161457600080fd5b50565b60008135905061162681611600565b92915050565b600080fd5b6000601f19601f8301169050919050565b7f4e487b7100000000000000000000000000000000000000000000000000000000600052604160045260246000fd5b61167a82611631565b810181811067ffffffffffffffff8211171561169957611698611642565b5b80604052505050565b60006116ac61157e565b90506116b88282611671565b919050565b600067ffffffffffffffff8211156116d8576116d7611642565b5b602082029050602081019050919050565b600080fd5b600073ffffffffffffffffffffffffffffffffffffffff82169050919050565b6000611719826116ee565b9050919050565b6117298161170e565b811461173457600080fd5b50565b60008135905061174681611720565b92915050565b600061175f61175a846116bd565b6116a2565b90508083825260208201905060208402830185811115611782576117816116e9565b5b835b818110156117ab57806117978882611737565b845260208401935050602081019050611784565b5050509392505050565b600082601f8301126117ca576117c961162c565b5b81356117da84826020860161174c565b91505092915050565b600080600080600080600060e0888a03121561180257611801611588565b5b60006118108a828b016115b5565b97505060206118218a828b016115eb565b96505060406118328a828b01611617565b95505060606118438a828b01611617565b94505060806118548a828b01611617565b93505060a06118658a828b01611617565b92505060c088013567ffffffffffffffff8111156118865761188561158d565b5b6118928a828b016117b5565b91505092959891949750929550565b6000806000606084860312156118ba576118b9611588565b5b60006118c8868287016115eb565b93505060206118d986828701611617565b92505060406118ea86828701611617565b9150509250925092565b60006020828403121561190a57611909611588565b5b6000611918848285016115eb565b91505092915050565b60006020828403121561193757611936611588565b5b600061194584828501611617565b91505092915050565b600082825260208201905092915050565b7f4e6f742076616c69646174652074696d65210000000000000000000000000000600082015250565b600061199560128361194e565b91506119a08261195f565b602082019050919050565b600060208201905081810360008301526119c481611988565b9050919050565b7f4e487b7100000000000000000000000000000000000000000000000000000000600052601160045260246000fd5b6000611a058261154a565b9150611a108361154a565b9250817fffffffffffffffffffffffffffffffffffffffffffffffffffffffffffffffff0483118215151615611a4957611a486119cb565b5b828202905092915050565b6000611a5f8261154a565b9150611a6a8361154a565b9250827fffffffffffffffffffffffffffffffffffffffffffffffffffffffffffffffff03821115611a9f57611a9e6119cb565b5b828201905092915050565b7f746f6f206665772066656520616d6f756e740000000000000000000000000000600082015250565b6000611ae060128361194e565b9150611aeb82611aaa565b602082019050919050565b60006020820190508181036000830152611b0f81611ad3565b9050919050565b7f416e6f746865722076616c696461746520697320696e2070726f677265737321600082015250565b6000611b4c60208361194e565b9150611b5782611b16565b602082019050919050565b60006020820190508181036000830152611b7b81611b3f565b9050919050565b7f4e487b7100000000000000000000000000000000000000000000000000000000600052602160045260246000fd5b60038110611bc257611bc1611b82565b5b50565b6000819050611bd382611bb1565b919050565b6000611be382611bc5565b9050919050565b611bf381611bd8565b82525050565b611c02816115ca565b82525050565b6000608082019050611c1d6000830187611bea565b611c2a6020830186611bf9565b611c376040830185611554565b611c446060830184611554565b95945050505050565b6000611c588261154a565b9150611c638361154a565b925082821015611c7657611c756119cb565b5b828203905092915050565b60008160011c9050919050565b6000808291508390505b6001851115611cd857808604811115611cb457611cb36119cb565b5b6001851615611cc35780820291505b8081029050611cd185611c81565b9450611c98565b94509492505050565b600082611cf15760019050611dad565b81611cff5760009050611dad565b8160018114611d155760028114611d1f57611d4e565b6001915050611dad565b60ff841115611d3157611d306119cb565b5b8360020a915084821115611d4857611d476119cb565b5b50611dad565b5060208310610133831016604e8410600b8410161715611d835782820a905083811115611d7e57611d7d6119cb565b5b611dad565b611d908484846001611c8e565b92509050818404811115611da757611da66119cb565b5b81810290505b9392505050565b6000611dbf8261154a565b9150611dca8361154a565b9250611df77fffffffffffffffffffffffffffffffffffffffffffffffffffffffffffffffff8484611ce1565b905092915050565b7f4e487b7100000000000000000000000000000000000000000000000000000000600052603260045260246000fd5b6000611e398261154a565b91507fffffffffffffffffffffffffffffffffffffffffffffffffffffffffffffffff8203611e6b57611e6a6119cb565b5b600182019050919050565b7f756e6b6e6f776e2076616c69646174696f6e2074797065000000000000000000600082015250565b6000611eac60178361194e565b9150611eb782611e76565b602082019050919050565b60006020820190508181036000830152611edb81611e9f565b9050919050565b600081519050611ef181611720565b92915050565b600060208284031215611f0d57611f0c611588565b5b6000611f1b84828501611ee2565b91505092915050565b7f6e6f74207468652061676772656761746f720000000000000000000000000000600082015250565b6000611f5a60128361194e565b9150611f6582611f24565b602082019050919050565b60006020820190508181036000830152611f8981611f4d565b9050919050565b611f998161170e565b82525050565b6000602082019050611fb46000830184611f90565b92915050565b600081519050611fc981611600565b92915050565b600060208284031215611fe557611fe4611588565b5b6000611ff384828501611fba565b91505092915050565b7f6c6f772073696e67616c2072616e6b0000000000000000000000000000000000600082015250565b6000612032600f8361194e565b915061203d82611ffc565b602082019050919050565b6000602082019050818103600083015261206181612025565b9050919050565b600067ffffffffffffffff82111561208357612082611642565b5b602082029050602081019050919050565b600067ffffffffffffffff8211156120af576120ae611642565b5b602082029050919050565b60006120cd6120c884612094565b6116a2565b905080602084028301858111156120e7576120e66116e9565b5b835b8181101561211057806120fc8882611fba565b8452602084019350506020810190506120e9565b5050509392505050565b600082601f83011261212f5761212e61162c565b5b600261213c8482856120ba565b91505092915050565b600061215861215384612068565b6116a2565b9050808382526020820190506040840283018581111561217b5761217a6116e9565b5b835b818110156121a45780612190888261211a565b84526020840193505060408101905061217d565b5050509392505050565b600082601f8301126121c3576121c261162c565b5b81516121d3848260208601612145565b91505092915050565b6000602082840312156121f2576121f1611588565b5b600082015167ffffffffffffffff8111156122105761220f61158d565b5b61221c848285016121ae565b91505092915050565b600063ffffffff82169050919050565b600061224082612225565b915063ffffffff8203612256576122556119cb565b5b600182019050919050565b7f6c6f7720746f74616c2072616e6b000000000000000000000000000000000000600082015250565b6000612297600e8361194e565b91506122a282612261565b602082019050919050565b600060208201905081810360008301526122c68161228a565b9050919050565b600081519050919050565b600081905092915050565b60005b838110156123015780820151818401526020810190506122e6565b83811115612310576000848401525b50505050565b6000612321826122cd565b61232b81856122d8565b935061233b8185602086016122e3565b80840191505092915050565b60006123538284612316565b915081905092915050565b60008151905061236d816115d4565b92915050565b60006020828403121561238957612388611588565b5b60006123978482850161235e565b91505092915050565b7f7369673a206164647265737320646f65736e2774206d61746368000000000000600082015250565b60006123d6601a8361194e565b91506123e1826123a0565b602082019050919050565b60006020820190508181036000830152612405816123c9565b9050919050565b7f6563206d756c206661696c656400000000000000000000000000000000000000600082015250565b6000612442600d8361194e565b915061244d8261240c565b602082019050919050565b6000602082019050818103600083015261247181612435565b9050919050565b7f626e323536206164646974696f6e206661696c65640000000000000000000000600082015250565b60006124ae60158361194e565b91506124b982612478565b602082019050919050565b600060208201905081810360008301526124dd816124a1565b905091905056fea2646970667358221220cb5921bfb4d6dfec3eeefcaf530da7c4e75a32bef159357da7e544aba6274ec164736f6c634300080d0033",
  "immutableReferences": {},
  "source": "// SPDX-License-Identifier: MIT\npragma solidity  >0.8.0;\n\nimport \"./RegistryContract.sol\";\nimport \"./crypto/Schnorr.sol\";\nimport \"./crypto/BN256G1.sol\";\n\ncontract OracleContract {\n\n    // \n    bool private isValidateTime = false;\n\n    // \n    uint256 public constant BASE_FEE = 0.1 ether;\n    uint256 public constant AGGREGATE_FEE = 0.5 ether;\n\n    uint256 private currentRank;\n    uint256 private currentSize;\n    uint256 public constant PUBKEY_LENGTH = 33;\n\n    // \n    mapping(bytes32 => bool) private blockValidationResults;\n    mapping(bytes32 => bool) private txValidationResults;\n\n    // ;\n    enum ValidationType { UNKNOWN, BLOCK, TRANSACTION }\n\n    // indexed\n    event ValidationRequest(ValidationType typ, address indexed from, bytes32 hash, uint256 size, uint256 minRank);\n\n    uint256[2][] allPubKeys;\n\n    RegistryContract private registryContract;\n    constructor(address registry) {\n        registryContract = RegistryContract(registry);\n    }\n\n    modifier minFee(uint size) {\n        require(msg.value >= BASE_FEE * size + AGGREGATE_FEE, \"too few fee amount\");\n        _;\n    }\n\n    function totalFee(uint256 size) public pure returns (uint256){\n        return size * BASE_FEE + AGGREGATE_FEE;\n    }\n\n    function validateBlock(bytes32 _message, uint256 size, uint256 minRank) external payable minFee(size) {\n        require(!isValidateTime, \"Another validate is in progress!\");\n        isValidateTime = true;\n        emit ValidationRequest(ValidationType.BLOCK, msg.sender, _message, size, minRank);\n    }\n\n    function validateTransaction(bytes32 _message, uint256 size, uint256 minRank) external payable minFee(size) {\n        require(!isValidateTime, \"Another validate is in progress!\");\n        isValidateTime = true;\n        emit ValidationRequest(ValidationType.TRANSACTION, msg.sender, _message, size, minRank);\n    }\n\n\n//-----------------------------------------------------------------------------------------------------------------------------------------------\n\n\n    function submitBlockValidationResult(bool _result, bytes32 message, uint256 signature, uint256 rx , uint256 ry, uint256 _hash, address[] memory validators) external {\n        require(isValidateTime, \"Not validate time!\");\n        submitValidationResult(ValidationType.BLOCK, _result, message, signature, rx, ry, _hash, validators);\n        isValidateTime = false;\n    }\n\n    function submitTransactionValidationResult(bool _result, bytes32 message, uint256 signature, uint256 rx , uint256 ry, uint256 _hash, address[] memory validators) external {\n        require(isValidateTime, \"Not validate time!\");\n        submitValidationResult(ValidationType.TRANSACTION, _result, message, signature, rx, ry, _hash, validators);\n        isValidateTime = false;\n    }\n\n    function submitValidationResult(\n        ValidationType _typ,\n        bool _result,\n        bytes32 message,\n        uint256 signature, uint256 rx , uint256 ry, uint256 _hash, \n        address[] memory validators\n    ) private {\n\n        require(_typ != ValidationType.UNKNOWN, \"unknown validation type\");\n        require(registryContract.getAggregator() == msg.sender, \"not the aggregator\");  //\n        \n        \n        for(uint32 i = 0 ; i < validators.length ; i++){\n            // \n            uint256 rank = registryContract.getNodeRank(validators[i]);\n            require(rank >= currentRank, \"low singal rank\");\n            uint256[2][] memory pubKeys = registryContract.getNodePublicKeys(validators[i]);\n            for(uint j = 0; j < pubKeys.length; j++){\n                allPubKeys.push(pubKeys[j]);        \n            }\n            \n        }\n        require(allPubKeys.length >= currentRank, \"low total rank\");\n        \n        // TODO:\n        bytes memory S = new bytes((allPubKeys.length + 1) * 64);\n        uint256 index = 64;\n        for(uint32 i = 0 ; i < allPubKeys.length ; i++){\n            for(uint32 j = 0; j < 2; j++){\n                bytes32 temp = bytes32(allPubKeys[i][j]);\n                for(uint32 k = 0; k < temp.length; k++){\n                    S[index] = temp[k];\n                    index++;\n                }\n            }\n        }\n\n        uint256 pubKeyX = 0;\n        uint256 pubKeyY = 0;\n\n        for(uint32 i = 0 ; i < allPubKeys.length ; i++){\n            uint256 tempX = allPubKeys[i][0];\n            uint256 tempY = allPubKeys[i][1];\n            for(uint k = 0; k < 32; k++){\n                bytes32 temp = bytes32(tempX);\n                S[k] = temp[k];\n            }\n            for(uint k = 0; k < 32; k++){\n                bytes32 temp = bytes32(tempY);\n                S[k + 32] = temp[k];\n            }\n            uint256 res = bytesToUint256(sha256(S));\n            (tempX, tempY) = BN256G1.mulPoint([tempX, tempY, res]);\n            (pubKeyX, pubKeyY) = BN256G1.addPoint([tempX, tempY, pubKeyX, pubKeyY]);\n        }\n\n        /*Schnorr*/\n        require(Schnorr.verify(signature, pubKeyX, pubKeyY, rx, ry, _hash), \"sig: address doesn't match\");\n\n        if (_typ == ValidationType.BLOCK) {\n            blockValidationResults[message] = _result;\n        } else if (_typ == ValidationType.TRANSACTION) {\n            txValidationResults[message] = _result;\n        }\n\n        //  \n        payable(msg.sender).transfer(AGGREGATE_FEE);     //\n        // \n\n        for(uint32 i = 0 ; i < validators.length ; i++){\n            if(address(this).balance >= BASE_FEE * registryContract.getNodeRank(validators[i])){\n                payable(validators[i]).transfer(BASE_FEE * registryContract.getNodeRank(validators[i])); \n            } else{\n                payable(validators[i]).transfer(address(this).balance); \n            }\n        }\n    }\n\n    function bytesToUint256(bytes32 b) public pure returns (uint256){\n        uint256 number;\n        for(uint i= 0; i < b.length; i++){\n            number = number + uint8(b[i])*(2**(8*(b.length-(i+1))));\n        }\n        return  number;\n    }\n\n}\n",
  "sourcePath": "/home/yuhang/Schnorr/Schnorr-multi-signature-oracle/ioporaclecontracts/contracts/OracleContract.sol",
  "compiler": {
    "name": "solc",
    "version": "0.8.13+commit.abaa5c0e.Emscripten.clang"
  },
  "schemaVersion": "3.4.14",
  "updatedAt": "2023-12-17T13:23:13.147Z",
  "networkType": "ethereum",
  "devdoc": {
    "kind": "dev",
    "methods": {},
    "version": 1
  },
  "userdoc": {
    "kind": "user",
    "methods": {},
    "version": 1
  }
}