{
  "contractName": "OracleContract",
  "abi": [
    {
      "inputs": [
        {
          "internalType": "address",
          "name": "registry",
          "type": "address"
        }
      ],
      "stateMutability": "nonpayable",
      "type": "constructor"
    },
    {
      "anonymous": false,
      "inputs": [
        {
          "indexed": false,
          "internalType": "enum OracleContract.ValidationType",
          "name": "typ",
          "type": "uint8"
        },
        {
          "indexed": true,
          "internalType": "address",
          "name": "from",
          "type": "address"
        },
        {
          "indexed": false,
          "internalType": "bytes32",
          "name": "hash",
          "type": "bytes32"
        },
        {
          "indexed": false,
          "internalType": "uint256",
          "name": "size",
          "type": "uint256"
        },
        {
          "indexed": false,
          "internalType": "uint256",
          "name": "minRank",
          "type": "uint256"
        }
      ],
      "name": "ValidationRequest",
      "type": "event"
    },
    {
      "inputs": [],
      "name": "AGGREGATE_FEE",
      "outputs": [
        {
          "internalType": "uint256",
          "name": "",
          "type": "uint256"
        }
      ],
      "stateMutability": "view",
      "type": "function",
      "constant": true
    },
    {
      "inputs": [],
      "name": "BASE_FEE",
      "outputs": [
        {
          "internalType": "uint256",
          "name": "",
          "type": "uint256"
        }
      ],
      "stateMutability": "view",
      "type": "function",
      "constant": true
    },
    {
      "inputs": [],
      "name": "PUBKEY_LENGTH",
      "outputs": [
        {
          "internalType": "uint256",
          "name": "",
          "type": "uint256"
        }
      ],
      "stateMutability": "view",
      "type": "function",
      "constant": true
    },
    {
      "inputs": [
        {
          "internalType": "uint256",
          "name": "size",
          "type": "uint256"
        }
      ],
      "name": "totalFee",
      "outputs": [
        {
          "internalType": "uint256",
          "name": "",
          "type": "uint256"
        }
      ],
      "stateMutability": "pure",
      "type": "function",
      "constant": true
    },
    {
      "inputs": [
        {
          "internalType": "bytes32",
          "name": "_message",
          "type": "bytes32"
        },
        {
          "internalType": "uint256",
          "name": "size",
          "type": "uint256"
        },
        {
          "internalType": "uint256",
          "name": "minRank",
          "type": "uint256"
        }
      ],
      "name": "validateBlock",
      "outputs": [],
      "stateMutability": "payable",
      "type": "function",
      "payable": true
    },
    {
      "inputs": [
        {
          "internalType": "bytes32",
          "name": "_message",
          "type": "bytes32"
        },
        {
          "internalType": "uint256",
          "name": "size",
          "type": "uint256"
        },
        {
          "internalType": "uint256",
          "name": "minRank",
          "type": "uint256"
        }
      ],
      "name": "validateTransaction",
      "outputs": [],
      "stateMutability": "payable",
      "type": "function",
      "payable": true
    },
    {
      "inputs": [
        {
          "internalType": "bool",
          "name": "_result",
          "type": "bool"
        },
        {
          "internalType": "bytes32",
          "name": "message",
          "type": "bytes32"
        },
        {
          "internalType": "uint256",
          "name": "signature",
          "type": "uint256"
        },
        {
          "internalType": "uint256",
          "name": "rx",
          "type": "uint256"
        },
        {
          "internalType": "uint256",
          "name": "ry",
          "type": "uint256"
        },
        {
          "internalType": "uint256",
          "name": "_hash",
          "type": "uint256"
        },
        {
          "internalType": "uint256",
          "name": "firstPubKeyX",
          "type": "uint256"
        },
        {
          "internalType": "bytes",
          "name": "_sha256",
          "type": "bytes"
        },
        {
          "internalType": "uint256",
          "name": "sha256Int",
          "type": "uint256"
        },
        {
          "internalType": "address[]",
          "name": "validators",
          "type": "address[]"
        }
      ],
      "name": "submitBlockValidationResult",
      "outputs": [],
      "stateMutability": "nonpayable",
      "type": "function"
    },
    {
      "inputs": [
        {
          "internalType": "bool",
          "name": "_result",
          "type": "bool"
        },
        {
          "internalType": "bytes32",
          "name": "message",
          "type": "bytes32"
        },
        {
          "internalType": "uint256",
          "name": "signature",
          "type": "uint256"
        },
        {
          "internalType": "uint256",
          "name": "rx",
          "type": "uint256"
        },
        {
          "internalType": "uint256",
          "name": "ry",
          "type": "uint256"
        },
        {
          "internalType": "uint256",
          "name": "_hash",
          "type": "uint256"
        },
        {
          "internalType": "uint256",
          "name": "firstPubKeyX",
          "type": "uint256"
        },
        {
          "internalType": "bytes",
          "name": "_sha256",
          "type": "bytes"
        },
        {
          "internalType": "uint256",
          "name": "sha256Int",
          "type": "uint256"
        },
        {
          "internalType": "address[]",
          "name": "validators",
          "type": "address[]"
        }
      ],
      "name": "submitTransactionValidationResult",
      "outputs": [],
      "stateMutability": "nonpayable",
      "type": "function"
    },
    {
      "inputs": [
        {
          "internalType": "bytes32",
          "name": "b",
          "type": "bytes32"
        }
      ],
      "name": "bytesToUint256",
      "outputs": [
        {
          "internalType": "uint256",
          "name": "",
          "type": "uint256"
        }
      ],
      "stateMutability": "pure",
      "type": "function",
      "constant": true
    }
  ],
  "bytecode": "0x608060405260008060006101000a81548160ff0219169083151502179055503480156200002b57600080fd5b5060405162002c9938038062002c99833981810160405281019062000051919062000103565b80600660006101000a81548173ffffffffffffffffffffffffffffffffffffffff021916908373ffffffffffffffffffffffffffffffffffffffff1602179055505062000135565b600080fd5b600073ffffffffffffffffffffffffffffffffffffffff82169050919050565b6000620000cb826200009e565b9050919050565b620000dd81620000be565b8114620000e957600080fd5b50565b600081519050620000fd81620000d2565b92915050565b6000602082840312156200011c576200011b62000099565b5b60006200012c84828501620000ec565b91505092915050565b612b5480620001456000396000f3fe6080604052600436106100865760003560e01c806394a10c921161005957806394a10c921461013a578063a4d55d1d14610163578063a7ba57281461018e578063ce9d294b146101b7578063cea74edf146101d357610086565b80631471866c1461008b5780633d18651e146100b65780633e170dd9146100e157806353d62ff7146100fd575b600080fd5b34801561009757600080fd5b506100a0610210565b6040516100ad919061194b565b60405180910390f35b3480156100c257600080fd5b506100cb61021c565b6040516100d8919061194b565b60405180910390f35b6100fb60048036038101906100f691906119dc565b610228565b005b34801561010957600080fd5b50610124600480360381019061011f9190611a2f565b610355565b604051610131919061194b565b60405180910390f35b34801561014657600080fd5b50610161600480360381019061015c9190611d00565b6103ec565b005b34801561016f57600080fd5b50610178610473565b604051610185919061194b565b60405180910390f35b34801561019a57600080fd5b506101b560048036038101906101b09190611d00565b610478565b005b6101d160048036038101906101cc91906119dc565b6104ff565b005b3480156101df57600080fd5b506101fa60048036038101906101f59190611e17565b61062c565b604051610207919061194b565b60405180910390f35b6706f05b59d3b2000081565b67016345785d8a000081565b816706f05b59d3b200008167016345785d8a00006102469190611e73565b6102509190611ecd565b341015610292576040517f08c379a000000000000000000000000000000000000000000000000000000000815260040161028990611f80565b60405180910390fd5b60008054906101000a900460ff16156102e0576040517f08c379a00000000000000000000000000000000000000000000000000000000081526004016102d790611fec565b60405180910390fd5b60016000806101000a81548160ff0219169083151502179055503373ffffffffffffffffffffffffffffffffffffffff167fa2a630edc48d1fc0a90b61e08bbc34ce73957ce9d59455207cd0591006bd4d4b60028686866040516103479493929190612092565b60405180910390a250505050565b60008060005b602060ff168110156103e2576001816103749190611ecd565b602060ff1661038391906120d7565b600861038f9190611e73565b600261039b919061223e565b8482602081106103ae576103ad612289565b5b1a60f81b60f81c60ff166103c29190611e73565b826103cd9190611ecd565b915080806103da906122b8565b91505061035b565b5080915050919050565b60008054906101000a900460ff16610439576040517f08c379a00000000000000000000000000000000000000000000000000000000081526004016104309061234c565b60405180910390fd5b61044d60018b8b8b8b8b8b8b8b8b8b61065c565b60008060006101000a81548160ff02191690831515021790555050505050505050505050565b602181565b60008054906101000a900460ff166104c5576040517f08c379a00000000000000000000000000000000000000000000000000000000081526004016104bc9061234c565b60405180910390fd5b6104d960028b8b8b8b8b8b8b8b8b8b61065c565b60008060006101000a81548160ff02191690831515021790555050505050505050505050565b816706f05b59d3b200008167016345785d8a000061051d9190611e73565b6105279190611ecd565b341015610569576040517f08c379a000000000000000000000000000000000000000000000000000000000815260040161056090611f80565b60405180910390fd5b60008054906101000a900460ff16156105b7576040517f08c379a00000000000000000000000000000000000000000000000000000000081526004016105ae90611fec565b60405180910390fd5b60016000806101000a81548160ff0219169083151502179055503373ffffffffffffffffffffffffffffffffffffffff167fa2a630edc48d1fc0a90b61e08bbc34ce73957ce9d59455207cd0591006bd4d4b600186868660405161061e9493929190612092565b60405180910390a250505050565b60006706f05b59d3b2000067016345785d8a00008361064b9190611e73565b6106559190611ecd565b9050919050565b600060028111156106705761066f61200c565b5b8b60028111156106835761068261200c565b5b036106c3576040517f08c379a00000000000000000000000000000000000000000000000000000000081526004016106ba906123b8565b60405180910390fd5b3373ffffffffffffffffffffffffffffffffffffffff16600660009054906101000a900473ffffffffffffffffffffffffffffffffffffffff1673ffffffffffffffffffffffffffffffffffffffff16633ad59dbc6040518163ffffffff1660e01b8152600401602060405180830381865afa158015610747573d6000803e3d6000fd5b505050506040513d601f19601f8201168201806040525081019061076b91906123ed565b73ffffffffffffffffffffffffffffffffffffffff16146107c1576040517f08c379a00000000000000000000000000000000000000000000000000000000081526004016107b890612466565b60405180910390fd5b60005b81518163ffffffff161015610a27576000600660009054906101000a900473ffffffffffffffffffffffffffffffffffffffff1673ffffffffffffffffffffffffffffffffffffffff1663bc66e9cb848463ffffffff168151811061082c5761082b612289565b5b60200260200101516040518263ffffffff1660e01b81526004016108509190612495565b602060405180830381865afa15801561086d573d6000803e3d6000fd5b505050506040513d601f19601f8201168201806040525081019061089191906124c5565b90506001548110156108d8576040517f08c379a00000000000000000000000000000000000000000000000000000000081526004016108cf9061253e565b60405180910390fd5b6000600660009054906101000a900473ffffffffffffffffffffffffffffffffffffffff1673ffffffffffffffffffffffffffffffffffffffff1663fb9fb18a858563ffffffff168151811061093157610930612289565b5b60200260200101516040518263ffffffff1660e01b81526004016109559190612495565b600060405180830381865afa158015610972573d6000803e3d6000fd5b505050506040513d6000823e3d601f19601f8201168201806040525081019061099b91906126d2565b905060005b8151811015610a115760058282815181106109be576109bd612289565b5b602002602001015190806001815401808255809150506001900390600052602060002090600202016000909190919091509060026109fd929190611899565b508080610a09906122b8565b9150506109a0565b5050508080610a1f9061272b565b9150506107c4565b506001546005805490501015610a72576040517f08c379a0000000000000000000000000000000000000000000000000000000008152600401610a69906127a3565b60405180910390fd5b836005600081548110610a8857610a87612289565b5b9060005260206000209060020201600060028110610aa957610aa8612289565b5b015414610aeb576040517f08c379a0000000000000000000000000000000000000000000000000000000008152600401610ae29061280f565b60405180910390fd5b600060406001600580549050610b019190611ecd565b610b0b9190611e73565b67ffffffffffffffff811115610b2457610b23611aaf565b5b6040519080825280601f01601f191660200182016040528015610b565781602001600182028036833780820191505090505b50905060006040905060005b6005805490508163ffffffff161015610c8e5760005b60028163ffffffff161015610c7a57600060058363ffffffff1681548110610ba357610ba2612289565b5b90600052602060002090600202018263ffffffff1660028110610bc957610bc8612289565b5b015460001b905060005b602060ff168163ffffffff161015610c6557818163ffffffff1660208110610bfe57610bfd612289565b5b1a60f81b868681518110610c1557610c14612289565b5b60200101907effffffffffffffffffffffffffffffffffffffffffffffffffffffffffffff1916908160001a9053508480610c4f906122b8565b9550508080610c5d9061272b565b915050610bd3565b50508080610c729061272b565b915050610b78565b508080610c869061272b565b915050610b62565b5060008060005b6005805490508163ffffffff16101561126857600060058263ffffffff1681548110610cc457610cc3612289565b5b9060005260206000209060020201600060028110610ce557610ce4612289565b5b01549050600060058363ffffffff1681548110610d0557610d04612289565b5b9060005260206000209060020201600160028110610d2657610d25612289565b5b0154905060005b6020811015610dab5760008360001b9050808260208110610d5157610d50612289565b5b1a60f81b898381518110610d6857610d67612289565b5b60200101907effffffffffffffffffffffffffffffffffffffffffffffffffffffffffffff1916908160001a905350508080610da3906122b8565b915050610d2d565b5060005b6020811015610e395760008260001b9050808260208110610dd357610dd2612289565b5b1a60f81b89602084610de59190611ecd565b81518110610df657610df5612289565b5b60200101907effffffffffffffffffffffffffffffffffffffffffffffffffffffffffffff1916908160001a905350508080610e31906122b8565b915050610daf565b5089600081518110610e4e57610e4d612289565b5b602001015160f81c60f81b7effffffffffffffffffffffffffffffffffffffffffffffffffffffffffffff1916600288604051610e8b91906128a9565b602060405180830381855afa158015610ea8573d6000803e3d6000fd5b5050506040513d601f19601f82011682018060405250810190610ecb91906128d5565b600060208110610ede57610edd612289565b5b1a60f81b7effffffffffffffffffffffffffffffffffffffffffffffffffffffffffffff191614610f44576040517f08c379a0000000000000000000000000000000000000000000000000000000008152600401610f3b9061294e565b60405180910390fd5b89600181518110610f5857610f57612289565b5b602001015160f81c60f81b7effffffffffffffffffffffffffffffffffffffffffffffffffffffffffffff1916600288604051610f9591906128a9565b602060405180830381855afa158015610fb2573d6000803e3d6000fd5b5050506040513d601f19601f82011682018060405250810190610fd591906128d5565b600160208110610fe857610fe7612289565b5b1a60f81b7effffffffffffffffffffffffffffffffffffffffffffffffffffffffffffff19161461104e576040517f08c379a00000000000000000000000000000000000000000000000000000000081526004016110459061294e565b60405180910390fd5b8960028151811061106257611061612289565b5b602001015160f81c60f81b7effffffffffffffffffffffffffffffffffffffffffffffffffffffffffffff191660028860405161109f91906128a9565b602060405180830381855afa1580156110bc573d6000803e3d6000fd5b5050506040513d601f19601f820116820180604052508101906110df91906128d5565b6002602081106110f2576110f1612289565b5b1a60f81b7effffffffffffffffffffffffffffffffffffffffffffffffffffffffffffff191614611158576040517f08c379a000000000000000000000000000000000000000000000000000000000815260040161114f9061294e565b60405180910390fd5b60006111b260028960405161116d91906128a9565b602060405180830381855afa15801561118a573d6000803e3d6000fd5b5050506040513d601f19601f820116820180604052508101906111ad91906128d5565b610355565b9050808a146111f6576040517f08c379a00000000000000000000000000000000000000000000000000000000081526004016111ed906129ba565b60405180910390fd5b611219604051806060016040528085815260200184815260200183815250611667565b809350819450505061124a604051806080016040528085815260200184815260200188815260200187815250611701565b809650819750505050505080806112609061272b565b915050610c95565b506112778c83838e8e8e61179b565b6112b6576040517f08c379a00000000000000000000000000000000000000000000000000000000081526004016112ad90612a26565b60405180910390fd5b600160028111156112ca576112c961200c565b5b8f60028111156112dd576112dc61200c565b5b03611312578d600360008f815260200190815260200160002060006101000a81548160ff02191690831515021790555061136a565b6002808111156113255761132461200c565b5b8f60028111156113385761133761200c565b5b03611369578d600460008f815260200190815260200160002060006101000a81548160ff0219169083151502179055505b5b3373ffffffffffffffffffffffffffffffffffffffff166108fc6706f05b59d3b200009081150290604051600060405180830381858888f193505050501580156113b8573d6000803e3d6000fd5b5060005b85518163ffffffff16101561165557600660009054906101000a900473ffffffffffffffffffffffffffffffffffffffff1673ffffffffffffffffffffffffffffffffffffffff1663bc66e9cb878363ffffffff168151811061142257611421612289565b5b60200260200101516040518263ffffffff1660e01b81526004016114469190612495565b602060405180830381865afa158015611463573d6000803e3d6000fd5b505050506040513d601f19601f8201168201806040525081019061148791906124c5565b67016345785d8a000061149a9190611e73565b47106115da57858163ffffffff16815181106114b9576114b8612289565b5b602002602001015173ffffffffffffffffffffffffffffffffffffffff166108fc600660009054906101000a900473ffffffffffffffffffffffffffffffffffffffff1673ffffffffffffffffffffffffffffffffffffffff1663bc66e9cb898563ffffffff168151811061153157611530612289565b5b60200260200101516040518263ffffffff1660e01b81526004016115559190612495565b602060405180830381865afa158015611572573d6000803e3d6000fd5b505050506040513d601f19601f8201168201806040525081019061159691906124c5565b67016345785d8a00006115a99190611e73565b9081150290604051600060405180830381858888f193505050501580156115d4573d6000803e3d6000fd5b50611642565b858163ffffffff16815181106115f3576115f2612289565b5b602002602001015173ffffffffffffffffffffffffffffffffffffffff166108fc479081150290604051600060405180830381858888f19350505050158015611640573d6000803e3d6000fd5b505b808061164d9061272b565b9150506113bc565b50505050505050505050505050505050565b60008060006116746118d9565b60408160608760006007600019f19150816116c4576040517f08c379a00000000000000000000000000000000000000000000000000000000081526004016116bb90612a92565b60405180910390fd5b806000600281106116d8576116d7612289565b5b6020020151816001600281106116f1576116f0612289565b5b6020020151935093505050915091565b600080600061170e6118d9565b60408160808760006006600019f191508161175e576040517f08c379a000000000000000000000000000000000000000000000000000000000815260040161175590612afe565b60405180910390fd5b8060006002811061177257611771612289565b5b60200201518160016002811061178b5761178a612289565b5b6020020151935093505050915091565b600080604051806060016040528060018152602001600281526020018981525090506117c56118fb565b6117ce82611667565b826000018360200182815250828152505050600060405180606001604052808a81526020018981526020018681525090506118076118fb565b61181082611667565b826000018360200182815250828152505050600060405180608001604052808a8152602001898152602001836000015181526020018360200151815250905061185881611701565b83600001846020018281525082815250505081600001518460000151148015611888575081602001518460200151145b955050505050509695505050505050565b82600281019282156118c8579160200282015b828111156118c75782518255916020019190600101906118ac565b5b5090506118d59190611915565b5090565b6040518060400160405280600290602082028036833780820191505090505090565b604051806040016040528060008152602001600081525090565b5b8082111561192e576000816000905550600101611916565b5090565b6000819050919050565b61194581611932565b82525050565b6000602082019050611960600083018461193c565b92915050565b6000604051905090565b600080fd5b600080fd5b6000819050919050565b61198d8161197a565b811461199857600080fd5b50565b6000813590506119aa81611984565b92915050565b6119b981611932565b81146119c457600080fd5b50565b6000813590506119d6816119b0565b92915050565b6000806000606084860312156119f5576119f4611970565b5b6000611a038682870161199b565b9350506020611a14868287016119c7565b9250506040611a25868287016119c7565b9150509250925092565b600060208284031215611a4557611a44611970565b5b6000611a538482850161199b565b91505092915050565b60008115159050919050565b611a7181611a5c565b8114611a7c57600080fd5b50565b600081359050611a8e81611a68565b92915050565b600080fd5b600080fd5b6000601f19601f8301169050919050565b7f4e487b7100000000000000000000000000000000000000000000000000000000600052604160045260246000fd5b611ae782611a9e565b810181811067ffffffffffffffff82111715611b0657611b05611aaf565b5b80604052505050565b6000611b19611966565b9050611b258282611ade565b919050565b600067ffffffffffffffff821115611b4557611b44611aaf565b5b611b4e82611a9e565b9050602081019050919050565b82818337600083830152505050565b6000611b7d611b7884611b2a565b611b0f565b905082815260208101848484011115611b9957611b98611a99565b5b611ba4848285611b5b565b509392505050565b600082601f830112611bc157611bc0611a94565b5b8135611bd1848260208601611b6a565b91505092915050565b600067ffffffffffffffff821115611bf557611bf4611aaf565b5b602082029050602081019050919050565b600080fd5b600073ffffffffffffffffffffffffffffffffffffffff82169050919050565b6000611c3682611c0b565b9050919050565b611c4681611c2b565b8114611c5157600080fd5b50565b600081359050611c6381611c3d565b92915050565b6000611c7c611c7784611bda565b611b0f565b90508083825260208201905060208402830185811115611c9f57611c9e611c06565b5b835b81811015611cc85780611cb48882611c54565b845260208401935050602081019050611ca1565b5050509392505050565b600082601f830112611ce757611ce6611a94565b5b8135611cf7848260208601611c69565b91505092915050565b6000806000806000806000806000806101408b8d031215611d2457611d23611970565b5b6000611d328d828e01611a7f565b9a50506020611d438d828e0161199b565b9950506040611d548d828e016119c7565b9850506060611d658d828e016119c7565b9750506080611d768d828e016119c7565b96505060a0611d878d828e016119c7565b95505060c0611d988d828e016119c7565b94505060e08b013567ffffffffffffffff811115611db957611db8611975565b5b611dc58d828e01611bac565b935050610100611dd78d828e016119c7565b9250506101208b013567ffffffffffffffff811115611df957611df8611975565b5b611e058d828e01611cd2565b9150509295989b9194979a5092959850565b600060208284031215611e2d57611e2c611970565b5b6000611e3b848285016119c7565b91505092915050565b7f4e487b7100000000000000000000000000000000000000000000000000000000600052601160045260246000fd5b6000611e7e82611932565b9150611e8983611932565b9250817fffffffffffffffffffffffffffffffffffffffffffffffffffffffffffffffff0483118215151615611ec257611ec1611e44565b5b828202905092915050565b6000611ed882611932565b9150611ee383611932565b9250827fffffffffffffffffffffffffffffffffffffffffffffffffffffffffffffffff03821115611f1857611f17611e44565b5b828201905092915050565b600082825260208201905092915050565b7f746f6f206665772066656520616d6f756e740000000000000000000000000000600082015250565b6000611f6a601283611f23565b9150611f7582611f34565b602082019050919050565b60006020820190508181036000830152611f9981611f5d565b9050919050565b7f416e6f746865722076616c696461746520697320696e2070726f677265737321600082015250565b6000611fd6602083611f23565b9150611fe182611fa0565b602082019050919050565b6000602082019050818103600083015261200581611fc9565b9050919050565b7f4e487b7100000000000000000000000000000000000000000000000000000000600052602160045260246000fd5b6003811061204c5761204b61200c565b5b50565b600081905061205d8261203b565b919050565b600061206d8261204f565b9050919050565b61207d81612062565b82525050565b61208c8161197a565b82525050565b60006080820190506120a76000830187612074565b6120b46020830186612083565b6120c1604083018561193c565b6120ce606083018461193c565b95945050505050565b60006120e282611932565b91506120ed83611932565b925082821015612100576120ff611e44565b5b828203905092915050565b60008160011c9050919050565b6000808291508390505b60018511156121625780860481111561213e5761213d611e44565b5b600185161561214d5780820291505b808102905061215b8561210b565b9450612122565b94509492505050565b60008261217b5760019050612237565b816121895760009050612237565b816001811461219f57600281146121a9576121d8565b6001915050612237565b60ff8411156121bb576121ba611e44565b5b8360020a9150848211156121d2576121d1611e44565b5b50612237565b5060208310610133831016604e8410600b841016171561220d5782820a90508381111561220857612207611e44565b5b612237565b61221a8484846001612118565b9250905081840481111561223157612230611e44565b5b81810290505b9392505050565b600061224982611932565b915061225483611932565b92506122817fffffffffffffffffffffffffffffffffffffffffffffffffffffffffffffffff848461216b565b905092915050565b7f4e487b7100000000000000000000000000000000000000000000000000000000600052603260045260246000fd5b60006122c382611932565b91507fffffffffffffffffffffffffffffffffffffffffffffffffffffffffffffffff82036122f5576122f4611e44565b5b600182019050919050565b7f4e6f742076616c69646174652074696d65210000000000000000000000000000600082015250565b6000612336601283611f23565b915061234182612300565b602082019050919050565b6000602082019050818103600083015261236581612329565b9050919050565b7f756e6b6e6f776e2076616c69646174696f6e2074797065000000000000000000600082015250565b60006123a2601783611f23565b91506123ad8261236c565b602082019050919050565b600060208201905081810360008301526123d181612395565b9050919050565b6000815190506123e781611c3d565b92915050565b60006020828403121561240357612402611970565b5b6000612411848285016123d8565b91505092915050565b7f6e6f74207468652061676772656761746f720000000000000000000000000000600082015250565b6000612450601283611f23565b915061245b8261241a565b602082019050919050565b6000602082019050818103600083015261247f81612443565b9050919050565b61248f81611c2b565b82525050565b60006020820190506124aa6000830184612486565b92915050565b6000815190506124bf816119b0565b92915050565b6000602082840312156124db576124da611970565b5b60006124e9848285016124b0565b91505092915050565b7f6c6f772073696e67616c2072616e6b0000000000000000000000000000000000600082015250565b6000612528600f83611f23565b9150612533826124f2565b602082019050919050565b600060208201905081810360008301526125578161251b565b9050919050565b600067ffffffffffffffff82111561257957612578611aaf565b5b602082029050602081019050919050565b600067ffffffffffffffff8211156125a5576125a4611aaf565b5b602082029050919050565b60006125c36125be8461258a565b611b0f565b905080602084028301858111156125dd576125dc611c06565b5b835b8181101561260657806125f288826124b0565b8452602084019350506020810190506125df565b5050509392505050565b600082601f83011261262557612624611a94565b5b60026126328482856125b0565b91505092915050565b600061264e6126498461255e565b611b0f565b9050808382526020820190506040840283018581111561267157612670611c06565b5b835b8181101561269a57806126868882612610565b845260208401935050604081019050612673565b5050509392505050565b600082601f8301126126b9576126b8611a94565b5b81516126c984826020860161263b565b91505092915050565b6000602082840312156126e8576126e7611970565b5b600082015167ffffffffffffffff81111561270657612705611975565b5b612712848285016126a4565b91505092915050565b600063ffffffff82169050919050565b60006127368261271b565b915063ffffffff820361274c5761274b611e44565b5b600182019050919050565b7f6c6f7720746f74616c2072616e6b000000000000000000000000000000000000600082015250565b600061278d600e83611f23565b915061279882612757565b602082019050919050565b600060208201905081810360008301526127bc81612780565b9050919050565b7f7075626b65792073657175656e6365206572726f720000000000000000000000600082015250565b60006127f9601583611f23565b9150612804826127c3565b602082019050919050565b60006020820190508181036000830152612828816127ec565b9050919050565b600081519050919050565b600081905092915050565b60005b83811015612863578082015181840152602081019050612848565b83811115612872576000848401525b50505050565b60006128838261282f565b61288d818561283a565b935061289d818560208601612845565b80840191505092915050565b60006128b58284612878565b915081905092915050565b6000815190506128cf81611984565b92915050565b6000602082840312156128eb576128ea611970565b5b60006128f9848285016128c0565b91505092915050565b7f68617368206e6f7420657175616c000000000000000000000000000000000000600082015250565b6000612938600e83611f23565b915061294382612902565b602082019050919050565b600060208201905081810360008301526129678161292b565b9050919050565b7f73686132353620746f20696e74206572726f7200000000000000000000000000600082015250565b60006129a4601383611f23565b91506129af8261296e565b602082019050919050565b600060208201905081810360008301526129d381612997565b9050919050565b7f7369673a206164647265737320646f65736e2774206d61746368000000000000600082015250565b6000612a10601a83611f23565b9150612a1b826129da565b602082019050919050565b60006020820190508181036000830152612a3f81612a03565b9050919050565b7f6563206d756c206661696c656400000000000000000000000000000000000000600082015250565b6000612a7c600d83611f23565b9150612a8782612a46565b602082019050919050565b60006020820190508181036000830152612aab81612a6f565b9050919050565b7f626e323536206164646974696f6e206661696c65640000000000000000000000600082015250565b6000612ae8601583611f23565b9150612af382612ab2565b602082019050919050565b60006020820190508181036000830152612b1781612adb565b905091905056fea26469706673582212204cd7cb6de979bc9ec78411ee814ca9bf085fb1da9d1316028607aa0208a624a964736f6c634300080d0033",
  "immutableReferences": {},
  "source": "// SPDX-License-Identifier: MIT\npragma solidity  >0.8.0;\n\nimport \"./RegistryContract.sol\";\nimport \"./crypto/Schnorr.sol\";\nimport \"./crypto/BN256G1.sol\";\n\ncontract OracleContract {\n\n    // \n    bool private isValidateTime = false;\n\n    // \n    uint256 public constant BASE_FEE = 0.1 ether;\n    uint256 public constant AGGREGATE_FEE = 0.5 ether;\n\n    uint256 private currentRank;\n    uint256 private currentSize;\n    uint256 public constant PUBKEY_LENGTH = 33;\n\n    // \n    mapping(bytes32 => bool) private blockValidationResults;\n    mapping(bytes32 => bool) private txValidationResults;\n\n    // ;\n    enum ValidationType { UNKNOWN, BLOCK, TRANSACTION }\n\n    // indexed\n    event ValidationRequest(ValidationType typ, address indexed from, bytes32 hash, uint256 size, uint256 minRank);\n\n    uint256[2][] allPubKeys;\n\n    RegistryContract private registryContract;\n    constructor(address registry) {\n        registryContract = RegistryContract(registry);\n    }\n\n    modifier minFee(uint size) {\n        require(msg.value >= BASE_FEE * size + AGGREGATE_FEE, \"too few fee amount\");\n        _;\n    }\n\n    function totalFee(uint256 size) public pure returns (uint256){\n        return size * BASE_FEE + AGGREGATE_FEE;\n    }\n\n    function validateBlock(bytes32 _message, uint256 size, uint256 minRank) external payable minFee(size) {\n        require(!isValidateTime, \"Another validate is in progress!\");\n        isValidateTime = true;\n        emit ValidationRequest(ValidationType.BLOCK, msg.sender, _message, size, minRank);\n    }\n\n    function validateTransaction(bytes32 _message, uint256 size, uint256 minRank) external payable minFee(size) {\n        require(!isValidateTime, \"Another validate is in progress!\");\n        isValidateTime = true;\n        emit ValidationRequest(ValidationType.TRANSACTION, msg.sender, _message, size, minRank);\n    }\n\n\n//-----------------------------------------------------------------------------------------------------------------------------------------------\n\n\n    function submitBlockValidationResult(bool _result, bytes32 message, uint256 signature, uint256 rx , uint256 ry, uint256 _hash, uint256 firstPubKeyX, bytes memory _sha256, uint256 sha256Int, address[] memory validators) external {\n        require(isValidateTime, \"Not validate time!\");\n        submitValidationResult(ValidationType.BLOCK, _result, message, signature, rx, ry, _hash, firstPubKeyX, _sha256, sha256Int, validators);\n        isValidateTime = false;\n    }\n\n    function submitTransactionValidationResult(bool _result, bytes32 message, uint256 signature, uint256 rx , uint256 ry, uint256 _hash, uint256 firstPubKeyX, bytes memory _sha256, uint256 sha256Int, address[] memory validators) external {\n        require(isValidateTime, \"Not validate time!\");\n        submitValidationResult(ValidationType.TRANSACTION, _result, message, signature, rx, ry, _hash, firstPubKeyX, _sha256, sha256Int, validators);\n        isValidateTime = false;\n    }\n\n    function submitValidationResult(\n        ValidationType _typ,\n        bool _result,\n        bytes32 message,\n        uint256 signature, uint256 rx , uint256 ry, uint256 _hash, uint256 firstPubKeyX, bytes memory _sha256, uint256 sha256Int,\n        address[] memory validators\n    ) private {\n\n        require(_typ != ValidationType.UNKNOWN, \"unknown validation type\");\n        require(registryContract.getAggregator() == msg.sender, \"not the aggregator\");  //\n        \n        \n        for(uint32 i = 0 ; i < validators.length ; i++){\n            // \n            uint256 rank = registryContract.getNodeRank(validators[i]);\n            require(rank >= currentRank, \"low singal rank\");\n            uint256[2][] memory pubKeys = registryContract.getNodePublicKeys(validators[i]);\n            for(uint j = 0; j < pubKeys.length; j++){\n                allPubKeys.push(pubKeys[j]);        \n            }\n            \n        }\n        require(allPubKeys.length >= currentRank, \"low total rank\");\n        require(allPubKeys[0][0] == firstPubKeyX, \"pubkey sequence error\");\n        \n        // TODO:\n        bytes memory S = new bytes((allPubKeys.length + 1) * 64);\n        uint256 index = 64;\n        for(uint32 i = 0 ; i < allPubKeys.length ; i++){\n            for(uint32 j = 0; j < 2; j++){\n                bytes32 temp = bytes32(allPubKeys[i][j]);\n                for(uint32 k = 0; k < temp.length; k++){\n                    S[index] = temp[k];\n                    index++;\n                }\n            }\n        }\n\n        uint256 pubKeyX = 0;\n        uint256 pubKeyY = 0;\n\n        for(uint32 i = 0 ; i < allPubKeys.length ; i++){\n            uint256 tempX = allPubKeys[i][0];\n            uint256 tempY = allPubKeys[i][1];\n            for(uint k = 0; k < 32; k++){\n                bytes32 temp = bytes32(tempX);\n                S[k] = temp[k];\n            }\n            for(uint k = 0; k < 32; k++){\n                bytes32 temp = bytes32(tempY);\n                S[k + 32] = temp[k];\n            }\n            require(sha256(S)[0] == _sha256[0], \"hash not equal\");\n            require(sha256(S)[1] == _sha256[1], \"hash not equal\");\n            require(sha256(S)[2] == _sha256[2], \"hash not equal\");\n            uint256 res = bytesToUint256(sha256(S));\n            require(sha256Int == res, \"sha256 to int error\");\n            (tempX, tempY) = BN256G1.mulPoint([tempX, tempY, res]);\n            (pubKeyX, pubKeyY) = BN256G1.addPoint([tempX, tempY, pubKeyX, pubKeyY]);\n        }\n        // require(Schnorr.verify(signature, pubKeyX1, pubKeyY1, rx, ry, _hash), \"sig verify fail\");\n\n        // require(pubKeyX == pubKeyX1, \"pubKey recover fail\");\n        /*Schnorr*/\n        require(Schnorr.verify(signature, pubKeyX, pubKeyY, rx, ry, _hash), \"sig: address doesn't match\");\n\n        if (_typ == ValidationType.BLOCK) {\n            blockValidationResults[message] = _result;\n        } else if (_typ == ValidationType.TRANSACTION) {\n            txValidationResults[message] = _result;\n        }\n\n        //  \n        payable(msg.sender).transfer(AGGREGATE_FEE);     //\n        // \n\n        for(uint32 i = 0 ; i < validators.length ; i++){\n            if(address(this).balance >= BASE_FEE * registryContract.getNodeRank(validators[i])){\n                payable(validators[i]).transfer(BASE_FEE * registryContract.getNodeRank(validators[i])); \n            } else{\n                payable(validators[i]).transfer(address(this).balance); \n            }\n        }\n    }\n\n    function bytesToUint256(bytes32 b) public pure returns (uint256){\n        uint256 number;\n        for(uint i= 0; i < b.length; i++){\n            number = number + uint8(b[i])*(2**(8*(b.length-(i+1))));\n        }\n        return  number;\n    }\n\n}\n",
  "sourcePath": "/home/w1tness/Code/Crypto/Schnorr-multi-signature-oracle/ioporaclecontracts/contracts/OracleContract.sol",
  "compiler": {
    "name": "solc",
    "version": "0.8.13+commit.abaa5c0e.Emscripten.clang"
  },
  "schemaVersion": "3.4.16",
  "updatedAt": "2023-12-17T14:22:20.544Z",
  "networkType": "ethereum",
  "devdoc": {
    "kind": "dev",
    "methods": {},
    "version": 1
  },
  "userdoc": {
    "kind": "user",
    "methods": {},
    "version": 1
  }
}