{
  "contractName": "OracleContract",
  "abi": [
    {
      "inputs": [
        {
          "internalType": "address",
          "name": "registry",
          "type": "address"
        }
      ],
      "stateMutability": "nonpayable",
      "type": "constructor"
    },
    {
      "anonymous": false,
      "inputs": [
        {
          "indexed": false,
          "internalType": "enum OracleContract.ValidationType",
          "name": "typ",
          "type": "uint8"
        },
        {
          "indexed": true,
          "internalType": "address",
          "name": "from",
          "type": "address"
        },
        {
          "indexed": false,
          "internalType": "bytes32",
          "name": "hash",
          "type": "bytes32"
        },
        {
          "indexed": false,
          "internalType": "uint256",
          "name": "size",
          "type": "uint256"
        },
        {
          "indexed": false,
          "internalType": "uint256",
          "name": "minRank",
          "type": "uint256"
        }
      ],
      "name": "ValidationRequest",
      "type": "event"
    },
    {
      "inputs": [],
      "name": "AGGREGATE_FEE",
      "outputs": [
        {
          "internalType": "uint256",
          "name": "",
          "type": "uint256"
        }
      ],
      "stateMutability": "view",
      "type": "function",
      "constant": true
    },
    {
      "inputs": [],
      "name": "BASE_FEE",
      "outputs": [
        {
          "internalType": "uint256",
          "name": "",
          "type": "uint256"
        }
      ],
      "stateMutability": "view",
      "type": "function",
      "constant": true
    },
    {
      "inputs": [],
      "name": "PUBKEY_LENGTH",
      "outputs": [
        {
          "internalType": "uint256",
          "name": "",
          "type": "uint256"
        }
      ],
      "stateMutability": "view",
      "type": "function",
      "constant": true
    },
    {
      "inputs": [
        {
          "internalType": "uint256",
          "name": "size",
          "type": "uint256"
        }
      ],
      "name": "totalFee",
      "outputs": [
        {
          "internalType": "uint256",
          "name": "",
          "type": "uint256"
        }
      ],
      "stateMutability": "pure",
      "type": "function",
      "constant": true
    },
    {
      "inputs": [
        {
          "internalType": "bytes32",
          "name": "_message",
          "type": "bytes32"
        },
        {
          "internalType": "uint256",
          "name": "size",
          "type": "uint256"
        },
        {
          "internalType": "uint256",
          "name": "minRank",
          "type": "uint256"
        }
      ],
      "name": "validateBlock",
      "outputs": [],
      "stateMutability": "payable",
      "type": "function",
      "payable": true
    },
    {
      "inputs": [
        {
          "internalType": "bytes32",
          "name": "_message",
          "type": "bytes32"
        },
        {
          "internalType": "uint256",
          "name": "size",
          "type": "uint256"
        },
        {
          "internalType": "uint256",
          "name": "minRank",
          "type": "uint256"
        }
      ],
      "name": "validateTransaction",
      "outputs": [],
      "stateMutability": "payable",
      "type": "function",
      "payable": true
    },
    {
      "inputs": [
        {
          "internalType": "bool",
          "name": "_result",
          "type": "bool"
        },
        {
          "internalType": "bytes32",
          "name": "message",
          "type": "bytes32"
        },
        {
          "internalType": "uint256",
          "name": "signature",
          "type": "uint256"
        },
        {
          "internalType": "uint256",
          "name": "rx",
          "type": "uint256"
        },
        {
          "internalType": "uint256",
          "name": "ry",
          "type": "uint256"
        },
        {
          "internalType": "uint256",
          "name": "_hash",
          "type": "uint256"
        },
        {
          "internalType": "address[]",
          "name": "validators",
          "type": "address[]"
        }
      ],
      "name": "submitBlockValidationResult",
      "outputs": [],
      "stateMutability": "nonpayable",
      "type": "function"
    },
    {
      "inputs": [
        {
          "internalType": "bool",
          "name": "_result",
          "type": "bool"
        },
        {
          "internalType": "bytes32",
          "name": "message",
          "type": "bytes32"
        },
        {
          "internalType": "uint256",
          "name": "signature",
          "type": "uint256"
        },
        {
          "internalType": "uint256",
          "name": "rx",
          "type": "uint256"
        },
        {
          "internalType": "uint256",
          "name": "ry",
          "type": "uint256"
        },
        {
          "internalType": "uint256",
          "name": "_hash",
          "type": "uint256"
        },
        {
          "internalType": "address[]",
          "name": "validators",
          "type": "address[]"
        }
      ],
      "name": "submitTransactionValidationResult",
      "outputs": [],
      "stateMutability": "nonpayable",
      "type": "function"
    }
  ],
  "bytecode": "0x608060405260008060006101000a81548160ff0219169083151502179055503480156200002b57600080fd5b506040516200243838038062002438833981810160405281019062000051919062000103565b80600560006101000a81548173ffffffffffffffffffffffffffffffffffffffff021916908373ffffffffffffffffffffffffffffffffffffffff1602179055505062000135565b600080fd5b600073ffffffffffffffffffffffffffffffffffffffff82169050919050565b6000620000cb826200009e565b9050919050565b620000dd81620000be565b8114620000e957600080fd5b50565b600081519050620000fd81620000d2565b92915050565b6000602082840312156200011c576200011b62000099565b5b60006200012c84828501620000ec565b91505092915050565b6122f380620001456000396000f3fe60806040526004361061007b5760003560e01c80639459142f1161004e5780639459142f1461011b578063a4d55d1d14610144578063ce9d294b1461016f578063cea74edf1461018b5761007b565b80631471866c146100805780632fe0bbd4146100ab5780633d18651e146100d45780633e170dd9146100ff575b600080fd5b34801561008c57600080fd5b506100956101c8565b6040516100a291906114ab565b60405180910390f35b3480156100b757600080fd5b506100d260048036038101906100cd919061172b565b6101d4565b005b3480156100e057600080fd5b506100e9610255565b6040516100f691906114ab565b60405180910390f35b610119600480360381019061011491906117e9565b610261565b005b34801561012757600080fd5b50610142600480360381019061013d919061172b565b61038e565b005b34801561015057600080fd5b5061015961040f565b60405161016691906114ab565b60405180910390f35b610189600480360381019061018491906117e9565b610414565b005b34801561019757600080fd5b506101b260048036038101906101ad919061183c565b610541565b6040516101bf91906114ab565b60405180910390f35b6706f05b59d3b2000081565b60008054906101000a900460ff16610221576040517f08c379a0000000000000000000000000000000000000000000000000000000008152600401610218906118c6565b60405180910390fd5b610232600188888888888888610571565b60008060006101000a81548160ff02191690831515021790555050505050505050565b67016345785d8a000081565b816706f05b59d3b200008167016345785d8a000061027f9190611915565b610289919061196f565b3410156102cb576040517f08c379a00000000000000000000000000000000000000000000000000000000081526004016102c290611a11565b60405180910390fd5b60008054906101000a900460ff1615610319576040517f08c379a000000000000000000000000000000000000000000000000000000000815260040161031090611a7d565b60405180910390fd5b60016000806101000a81548160ff0219169083151502179055503373ffffffffffffffffffffffffffffffffffffffff167fa2a630edc48d1fc0a90b61e08bbc34ce73957ce9d59455207cd0591006bd4d4b60028686866040516103809493929190611b23565b60405180910390a250505050565b60008054906101000a900460ff166103db576040517f08c379a00000000000000000000000000000000000000000000000000000000081526004016103d2906118c6565b60405180910390fd5b6103ec600288888888888888610571565b60008060006101000a81548160ff02191690831515021790555050505050505050565b602181565b816706f05b59d3b200008167016345785d8a00006104329190611915565b61043c919061196f565b34101561047e576040517f08c379a000000000000000000000000000000000000000000000000000000000815260040161047590611a11565b60405180910390fd5b60008054906101000a900460ff16156104cc576040517f08c379a00000000000000000000000000000000000000000000000000000000081526004016104c390611a7d565b60405180910390fd5b60016000806101000a81548160ff0219169083151502179055503373ffffffffffffffffffffffffffffffffffffffff167fa2a630edc48d1fc0a90b61e08bbc34ce73957ce9d59455207cd0591006bd4d4b60018686866040516105339493929190611b23565b60405180910390a250505050565b60006706f05b59d3b2000067016345785d8a0000836105609190611915565b61056a919061196f565b9050919050565b6000600281111561058557610584611a9d565b5b88600281111561059857610597611a9d565b5b036105d8576040517f08c379a00000000000000000000000000000000000000000000000000000000081526004016105cf90611bb4565b60405180910390fd5b3373ffffffffffffffffffffffffffffffffffffffff16600560009054906101000a900473ffffffffffffffffffffffffffffffffffffffff1673ffffffffffffffffffffffffffffffffffffffff16633ad59dbc6040518163ffffffff1660e01b8152600401602060405180830381865afa15801561065c573d6000803e3d6000fd5b505050506040513d601f19601f820116820180604052508101906106809190611be9565b73ffffffffffffffffffffffffffffffffffffffff16146106d6576040517f08c379a00000000000000000000000000000000000000000000000000000000081526004016106cd90611c62565b60405180910390fd5b6000805b82518161ffff16101561080c576000600560009054906101000a900473ffffffffffffffffffffffffffffffffffffffff1673ffffffffffffffffffffffffffffffffffffffff1663bc66e9cb858461ffff168151811061073e5761073d611c82565b5b60200260200101516040518263ffffffff1660e01b81526004016107629190611cc0565b602060405180830381865afa15801561077f573d6000803e3d6000fd5b505050506040513d601f19601f820116820180604052508101906107a39190611cf0565b90506001548110156107ea576040517f08c379a00000000000000000000000000000000000000000000000000000000081526004016107e190611d69565b60405180910390fd5b80836107f6919061196f565b925050808061080490611d97565b9150506106da565b50600154811015610852576040517f08c379a000000000000000000000000000000000000000000000000000000000815260040161084990611e0d565b60405180910390fd5b60006040600183610863919061196f565b61086d9190611915565b67ffffffffffffffff8111156108865761088561158a565b5b6040519080825280601f01601f1916602001820160405280156108b85781602001600182028036833780820191505090505b50905060006040905060005b84518161ffff161015610ac4576000600560009054906101000a900473ffffffffffffffffffffffffffffffffffffffff1673ffffffffffffffffffffffffffffffffffffffff1663fb9fb18a878461ffff168151811061092857610927611c82565b5b60200260200101516040518263ffffffff1660e01b815260040161094c9190611cc0565b600060405180830381865afa158015610969573d6000803e3d6000fd5b505050506040513d6000823e3d601f19601f820116820180604052508101906109929190611fa1565b905060005b81518161ffff161015610aaf5760005b60028161ffff161015610a9b576000838361ffff16815181106109cd576109cc611c82565b5b60200260200101518261ffff16600281106109eb576109ea611c82565b5b602002015160001b905060005b602060ff168161ffff161015610a8657818161ffff1660208110610a1f57610a1e611c82565b5b1a60f81b888881518110610a3657610a35611c82565b5b60200101907effffffffffffffffffffffffffffffffffffffffffffffffffffffffffffff1916908160001a9053508680610a7090611fea565b9750508080610a7e90611d97565b9150506109f8565b50508080610a9390611d97565b9150506109a7565b508080610aa790611d97565b915050610997565b50508080610abc90611d97565b9150506108c4565b5060008060005b86518161ffff161015610e27576000600560009054906101000a900473ffffffffffffffffffffffffffffffffffffffff1673ffffffffffffffffffffffffffffffffffffffff1663fb9fb18a898461ffff1681518110610b2f57610b2e611c82565b5b60200260200101516040518263ffffffff1660e01b8152600401610b539190611cc0565b600060405180830381865afa158015610b70573d6000803e3d6000fd5b505050506040513d6000823e3d601f19601f82011682018060405250810190610b999190611fa1565b905060005b81518161ffff161015610e12576000828261ffff1681518110610bc457610bc3611c82565b5b6020026020010151600060028110610bdf57610bde611c82565b5b602002015190506000838361ffff1681518110610bff57610bfe611c82565b5b6020026020010151600160028110610c1a57610c19611c82565b5b6020020151905060005b60208161ffff161015610cae5760008360001b9050808261ffff1660208110610c5057610c4f611c82565b5b1a60f81b8b8361ffff1681518110610c6b57610c6a611c82565b5b60200101907effffffffffffffffffffffffffffffffffffffffffffffffffffffffffffff1916908160001a905350508080610ca690611d97565b915050610c24565b5060005b60208161ffff161015610d485760008260001b9050808261ffff1660208110610cde57610cdd611c82565b5b1a60f81b8b602084610cf09190612032565b61ffff1681518110610d0557610d04611c82565b5b60200101907effffffffffffffffffffffffffffffffffffffffffffffffffffffffffffff1916908160001a905350508080610d4090611d97565b915050610cb2565b50600060028a604051610d5b91906120e4565b602060405180830381855afa158015610d78573d6000803e3d6000fd5b5050506040513d601f19601f82011682018060405250810190610d9b9190612110565b60001c9050610dc3604051806060016040528085815260200184815260200183815250611224565b8093508194505050610df460405180608001604052808581526020018481526020018a8152602001898152506112be565b80985081995050505050508080610e0a90611d97565b915050610b9e565b50508080610e1f90611d97565b915050610acb565b50610e368a83838c8c8c611358565b610e75576040517f08c379a0000000000000000000000000000000000000000000000000000000008152600401610e6c90612189565b60405180910390fd5b60016002811115610e8957610e88611a9d565b5b8d6002811115610e9c57610e9b611a9d565b5b03610ed1578b600360008d815260200190815260200160002060006101000a81548160ff021916908315150217905550610f29565b600280811115610ee457610ee3611a9d565b5b8d6002811115610ef757610ef6611a9d565b5b03610f28578b600460008d815260200190815260200160002060006101000a81548160ff0219169083151502179055505b5b3373ffffffffffffffffffffffffffffffffffffffff166108fc6706f05b59d3b200009081150290604051600060405180830381858888f19350505050158015610f77573d6000803e3d6000fd5b5060005b86518163ffffffff16101561121457600560009054906101000a900473ffffffffffffffffffffffffffffffffffffffff1673ffffffffffffffffffffffffffffffffffffffff1663bc66e9cb888363ffffffff1681518110610fe157610fe0611c82565b5b60200260200101516040518263ffffffff1660e01b81526004016110059190611cc0565b602060405180830381865afa158015611022573d6000803e3d6000fd5b505050506040513d601f19601f820116820180604052508101906110469190611cf0565b67016345785d8a00006110599190611915565b471061119957868163ffffffff168151811061107857611077611c82565b5b602002602001015173ffffffffffffffffffffffffffffffffffffffff166108fc600560009054906101000a900473ffffffffffffffffffffffffffffffffffffffff1673ffffffffffffffffffffffffffffffffffffffff1663bc66e9cb8a8563ffffffff16815181106110f0576110ef611c82565b5b60200260200101516040518263ffffffff1660e01b81526004016111149190611cc0565b602060405180830381865afa158015611131573d6000803e3d6000fd5b505050506040513d601f19601f820116820180604052508101906111559190611cf0565b67016345785d8a00006111689190611915565b9081150290604051600060405180830381858888f19350505050158015611193573d6000803e3d6000fd5b50611201565b868163ffffffff16815181106111b2576111b1611c82565b5b602002602001015173ffffffffffffffffffffffffffffffffffffffff166108fc479081150290604051600060405180830381858888f193505050501580156111ff573d6000803e3d6000fd5b505b808061120c906121b9565b915050610f7b565b5050505050505050505050505050565b6000806000611231611456565b60408160608760006007600019f1915081611281576040517f08c379a000000000000000000000000000000000000000000000000000000000815260040161127890612231565b60405180910390fd5b8060006002811061129557611294611c82565b5b6020020151816001600281106112ae576112ad611c82565b5b6020020151935093505050915091565b60008060006112cb611456565b60408160808760006006600019f191508161131b576040517f08c379a00000000000000000000000000000000000000000000000000000000081526004016113129061229d565b60405180910390fd5b8060006002811061132f5761132e611c82565b5b60200201518160016002811061134857611347611c82565b5b6020020151935093505050915091565b60008060405180606001604052806001815260200160028152602001898152509050611382611478565b61138b82611224565b826000018360200182815250828152505050600060405180606001604052808a81526020018981526020018681525090506113c4611478565b6113cd82611224565b826000018360200182815250828152505050600060405180608001604052808a81526020018981526020018360000151815260200183602001518152509050611415816112be565b83600001846020018281525082815250505081600001518460000151148015611445575081602001518460200151145b955050505050509695505050505050565b6040518060400160405280600290602082028036833780820191505090505090565b604051806040016040528060008152602001600081525090565b6000819050919050565b6114a581611492565b82525050565b60006020820190506114c0600083018461149c565b92915050565b6000604051905090565b600080fd5b600080fd5b60008115159050919050565b6114ef816114da565b81146114fa57600080fd5b50565b60008135905061150c816114e6565b92915050565b6000819050919050565b61152581611512565b811461153057600080fd5b50565b6000813590506115428161151c565b92915050565b61155181611492565b811461155c57600080fd5b50565b60008135905061156e81611548565b92915050565b600080fd5b6000601f19601f8301169050919050565b7f4e487b7100000000000000000000000000000000000000000000000000000000600052604160045260246000fd5b6115c282611579565b810181811067ffffffffffffffff821117156115e1576115e061158a565b5b80604052505050565b60006115f46114c6565b905061160082826115b9565b919050565b600067ffffffffffffffff8211156116205761161f61158a565b5b602082029050602081019050919050565b600080fd5b600073ffffffffffffffffffffffffffffffffffffffff82169050919050565b600061166182611636565b9050919050565b61167181611656565b811461167c57600080fd5b50565b60008135905061168e81611668565b92915050565b60006116a76116a284611605565b6115ea565b905080838252602082019050602084028301858111156116ca576116c9611631565b5b835b818110156116f357806116df888261167f565b8452602084019350506020810190506116cc565b5050509392505050565b600082601f83011261171257611711611574565b5b8135611722848260208601611694565b91505092915050565b600080600080600080600060e0888a03121561174a576117496114d0565b5b60006117588a828b016114fd565b97505060206117698a828b01611533565b965050604061177a8a828b0161155f565b955050606061178b8a828b0161155f565b945050608061179c8a828b0161155f565b93505060a06117ad8a828b0161155f565b92505060c088013567ffffffffffffffff8111156117ce576117cd6114d5565b5b6117da8a828b016116fd565b91505092959891949750929550565b600080600060608486031215611802576118016114d0565b5b600061181086828701611533565b93505060206118218682870161155f565b92505060406118328682870161155f565b9150509250925092565b600060208284031215611852576118516114d0565b5b60006118608482850161155f565b91505092915050565b600082825260208201905092915050565b7f4e6f742076616c69646174652074696d65210000000000000000000000000000600082015250565b60006118b0601283611869565b91506118bb8261187a565b602082019050919050565b600060208201905081810360008301526118df816118a3565b9050919050565b7f4e487b7100000000000000000000000000000000000000000000000000000000600052601160045260246000fd5b600061192082611492565b915061192b83611492565b9250817fffffffffffffffffffffffffffffffffffffffffffffffffffffffffffffffff0483118215151615611964576119636118e6565b5b828202905092915050565b600061197a82611492565b915061198583611492565b9250827fffffffffffffffffffffffffffffffffffffffffffffffffffffffffffffffff038211156119ba576119b96118e6565b5b828201905092915050565b7f746f6f206665772066656520616d6f756e740000000000000000000000000000600082015250565b60006119fb601283611869565b9150611a06826119c5565b602082019050919050565b60006020820190508181036000830152611a2a816119ee565b9050919050565b7f416e6f746865722076616c696461746520697320696e2070726f677265737321600082015250565b6000611a67602083611869565b9150611a7282611a31565b602082019050919050565b60006020820190508181036000830152611a9681611a5a565b9050919050565b7f4e487b7100000000000000000000000000000000000000000000000000000000600052602160045260246000fd5b60038110611add57611adc611a9d565b5b50565b6000819050611aee82611acc565b919050565b6000611afe82611ae0565b9050919050565b611b0e81611af3565b82525050565b611b1d81611512565b82525050565b6000608082019050611b386000830187611b05565b611b456020830186611b14565b611b52604083018561149c565b611b5f606083018461149c565b95945050505050565b7f756e6b6e6f776e2076616c69646174696f6e2074797065000000000000000000600082015250565b6000611b9e601783611869565b9150611ba982611b68565b602082019050919050565b60006020820190508181036000830152611bcd81611b91565b9050919050565b600081519050611be381611668565b92915050565b600060208284031215611bff57611bfe6114d0565b5b6000611c0d84828501611bd4565b91505092915050565b7f6e6f74207468652061676772656761746f720000000000000000000000000000600082015250565b6000611c4c601283611869565b9150611c5782611c16565b602082019050919050565b60006020820190508181036000830152611c7b81611c3f565b9050919050565b7f4e487b7100000000000000000000000000000000000000000000000000000000600052603260045260246000fd5b611cba81611656565b82525050565b6000602082019050611cd56000830184611cb1565b92915050565b600081519050611cea81611548565b92915050565b600060208284031215611d0657611d056114d0565b5b6000611d1484828501611cdb565b91505092915050565b7f6c6f772073696e67616c2072616e6b0000000000000000000000000000000000600082015250565b6000611d53600f83611869565b9150611d5e82611d1d565b602082019050919050565b60006020820190508181036000830152611d8281611d46565b9050919050565b600061ffff82169050919050565b6000611da282611d89565b915061ffff8203611db657611db56118e6565b5b600182019050919050565b7f6c6f7720746f74616c2072616e6b000000000000000000000000000000000000600082015250565b6000611df7600e83611869565b9150611e0282611dc1565b602082019050919050565b60006020820190508181036000830152611e2681611dea565b9050919050565b600067ffffffffffffffff821115611e4857611e4761158a565b5b602082029050602081019050919050565b600067ffffffffffffffff821115611e7457611e7361158a565b5b602082029050919050565b6000611e92611e8d84611e59565b6115ea565b90508060208402830185811115611eac57611eab611631565b5b835b81811015611ed55780611ec18882611cdb565b845260208401935050602081019050611eae565b5050509392505050565b600082601f830112611ef457611ef3611574565b5b6002611f01848285611e7f565b91505092915050565b6000611f1d611f1884611e2d565b6115ea565b90508083825260208201905060408402830185811115611f4057611f3f611631565b5b835b81811015611f695780611f558882611edf565b845260208401935050604081019050611f42565b5050509392505050565b600082601f830112611f8857611f87611574565b5b8151611f98848260208601611f0a565b91505092915050565b600060208284031215611fb757611fb66114d0565b5b600082015167ffffffffffffffff811115611fd557611fd46114d5565b5b611fe184828501611f73565b91505092915050565b6000611ff582611492565b91507fffffffffffffffffffffffffffffffffffffffffffffffffffffffffffffffff8203612027576120266118e6565b5b600182019050919050565b600061203d82611d89565b915061204883611d89565b92508261ffff0382111561205f5761205e6118e6565b5b828201905092915050565b600081519050919050565b600081905092915050565b60005b8381101561209e578082015181840152602081019050612083565b838111156120ad576000848401525b50505050565b60006120be8261206a565b6120c88185612075565b93506120d8818560208601612080565b80840191505092915050565b60006120f082846120b3565b915081905092915050565b60008151905061210a8161151c565b92915050565b600060208284031215612126576121256114d0565b5b6000612134848285016120fb565b91505092915050565b7f7369673a206164647265737320646f65736e2774206d61746368000000000000600082015250565b6000612173601a83611869565b915061217e8261213d565b602082019050919050565b600060208201905081810360008301526121a281612166565b9050919050565b600063ffffffff82169050919050565b60006121c4826121a9565b915063ffffffff82036121da576121d96118e6565b5b600182019050919050565b7f6563206d756c206661696c656400000000000000000000000000000000000000600082015250565b600061221b600d83611869565b9150612226826121e5565b602082019050919050565b6000602082019050818103600083015261224a8161220e565b9050919050565b7f626e323536206164646974696f6e206661696c65640000000000000000000000600082015250565b6000612287601583611869565b915061229282612251565b602082019050919050565b600060208201905081810360008301526122b68161227a565b905091905056fea26469706673582212208563a5fe8996a0705d69d363527d23bed7195db3a07278f29522d23fdea65e4064736f6c634300080d0033",
  "immutableReferences": {},
  "source": "// SPDX-License-Identifier: MIT\npragma solidity  >0.8.0;\n\nimport \"./RegistryContract.sol\";\nimport \"./crypto/Schnorr.sol\";\nimport \"./crypto/BN256G1.sol\";\n\ncontract OracleContract {\n\n    // \n    bool private isValidateTime = false;\n\n    // \n    uint256 public constant BASE_FEE = 0.1 ether;\n    uint256 public constant AGGREGATE_FEE = 0.5 ether;\n\n    uint256 private currentRank;\n    uint256 private currentSize;\n    uint256 public constant PUBKEY_LENGTH = 33;\n\n    // \n    mapping(bytes32 => bool) private blockValidationResults;\n    mapping(bytes32 => bool) private txValidationResults;\n\n    // ;\n    enum ValidationType { UNKNOWN, BLOCK, TRANSACTION }\n\n    // indexed\n    event ValidationRequest(ValidationType typ, address indexed from, bytes32 hash, uint256 size, uint256 minRank);\n\n    RegistryContract private registryContract;\n    constructor(address registry) {\n        registryContract = RegistryContract(registry);\n    }\n\n    modifier minFee(uint size) {\n        require(msg.value >= BASE_FEE * size + AGGREGATE_FEE, \"too few fee amount\");\n        _;\n    }\n\n    function totalFee(uint256 size) public pure returns (uint256){\n        return size * BASE_FEE + AGGREGATE_FEE;\n    }\n\n    function validateBlock(bytes32 _message, uint256 size, uint256 minRank) external payable minFee(size) {\n        require(!isValidateTime, \"Another validate is in progress!\");\n        isValidateTime = true;\n        emit ValidationRequest(ValidationType.BLOCK, msg.sender, _message, size, minRank);\n    }\n\n    function validateTransaction(bytes32 _message, uint256 size, uint256 minRank) external payable minFee(size) {\n        require(!isValidateTime, \"Another validate is in progress!\");\n        isValidateTime = true;\n        emit ValidationRequest(ValidationType.TRANSACTION, msg.sender, _message, size, minRank);\n    }\n\n\n//-----------------------------------------------------------------------------------------------------------------------------------------------\n\n\n    function submitBlockValidationResult(bool _result, bytes32 message, uint256 signature, uint256 rx , uint256 ry, uint256 _hash, address[] memory validators) external {\n        require(isValidateTime, \"Not validate time!\");\n        submitValidationResult(ValidationType.BLOCK, _result, message, signature, rx, ry, _hash, validators);\n        isValidateTime = false;\n    }\n\n    function submitTransactionValidationResult(bool _result, bytes32 message, uint256 signature, uint256 rx , uint256 ry, uint256 _hash, address[] memory validators) external {\n        require(isValidateTime, \"Not validate time!\");\n        submitValidationResult(ValidationType.TRANSACTION, _result, message, signature, rx, ry, _hash, validators);\n        isValidateTime = false;\n    }\n\n    function submitValidationResult(\n        ValidationType _typ,\n        bool _result,\n        bytes32 message,\n        uint256 signature, uint256 rx , uint256 ry, uint256 _hash, \n        address[] memory validators\n    ) private {\n        require(_typ != ValidationType.UNKNOWN, \"unknown validation type\");\n        require(registryContract.getAggregator() == msg.sender, \"not the aggregator\");  //\n    \n        uint256 totalRank = 0;\n        for(uint16 i = 0 ; i < validators.length ; i++){\n            // \n            uint256 rank = registryContract.getNodeRank(validators[i]);\n            require(rank >= currentRank, \"low singal rank\");\n            totalRank += rank;\n        }\n        require(totalRank >= currentRank, \"low total rank\");\n            \n        //\n        bytes memory S = new bytes((totalRank + 1) * 64);\n        uint256 index = 64;\n        for(uint16 i = 0; i < validators.length; i++){\n            uint256[2][] memory keys = registryContract.getNodePublicKeys(validators[i]);\n            for(uint16 j = 0 ; j < keys.length; j++){\n                for(uint16 k = 0; k < 2; k++){\n                    bytes32 temp = bytes32(keys[j][k]);\n                    for(uint16 l = 0; l < temp.length; l++){\n                        S[index] = temp[l];\n                        index++;\n                    }\n                }\n            }\n        }\n        \n        uint256 pubKeyX = 0;\n        uint256 pubKeyY = 0;\n\n        for(uint16 i = 0; i < validators.length; i++){\n            uint256[2][] memory keys = registryContract.getNodePublicKeys(validators[i]);\n            for(uint16 j = 0 ; j < keys.length ; j++){\n                uint256 tempX = keys[j][0];\n                uint256 tempY = keys[j][1];\n                for(uint16 k = 0; k < 32; k++){\n                    bytes32 temp = bytes32(tempX);\n                    S[k] = temp[k];\n                }\n                for(uint16 k = 0; k < 32; k++){\n                    bytes32 temp = bytes32(tempY);\n                    S[k + 32] = temp[k];\n                }\n                uint256 res = uint256(sha256(S));\n                (tempX, tempY) = BN256G1.mulPoint([tempX, tempY, res]);\n                (pubKeyX, pubKeyY) = BN256G1.addPoint([tempX, tempY, pubKeyX, pubKeyY]);\n            }\n        }\n\n        /*Schnorr*/\n        require(Schnorr.verify(signature, pubKeyX, pubKeyY, rx, ry, _hash), \"sig: address doesn't match\");\n        // require(Schnorr.verify(signature, keyX, keyY, rx, ry, _hash), \"sig: address doesn't match\");\n\n        if (_typ == ValidationType.BLOCK) {\n            blockValidationResults[message] = _result;\n        } else if (_typ == ValidationType.TRANSACTION) {\n            txValidationResults[message] = _result;\n        }\n\n        //  \n        payable(msg.sender).transfer(AGGREGATE_FEE);     //\n        // \n\n        for(uint32 i = 0 ; i < validators.length ; i++){\n            if(address(this).balance >= BASE_FEE * registryContract.getNodeRank(validators[i])){\n                payable(validators[i]).transfer(BASE_FEE * registryContract.getNodeRank(validators[i])); \n            } else{\n                payable(validators[i]).transfer(address(this).balance); \n            }\n        }\n    }\n\n}\n",
  "sourcePath": "/home/w1tness/Code/Crypto/Schnorr-multi-signature-oracle/ioporaclecontracts/contracts/OracleContract.sol",
  "compiler": {
    "name": "solc",
    "version": "0.8.13+commit.abaa5c0e.Emscripten.clang"
  },
  "schemaVersion": "3.4.16",
  "updatedAt": "2023-12-18T08:39:20.548Z",
  "networkType": "ethereum",
  "devdoc": {
    "kind": "dev",
    "methods": {},
    "version": 1
  },
  "userdoc": {
    "kind": "user",
    "methods": {},
    "version": 1
  }
}