{
  "contractName": "RegistryContract",
  "abi": [
    {
      "anonymous": false,
      "inputs": [
        {
          "indexed": true,
          "internalType": "address",
          "name": "sender",
          "type": "address"
        }
      ],
      "name": "RegisterOracleNode",
      "type": "event"
    },
    {
      "inputs": [],
      "name": "MIN_STAKE",
      "outputs": [
        {
          "internalType": "uint256",
          "name": "",
          "type": "uint256"
        }
      ],
      "stateMutability": "view",
      "type": "function",
      "constant": true
    },
    {
      "inputs": [
        {
          "internalType": "string",
          "name": "_ipAddr",
          "type": "string"
        },
        {
          "internalType": "uint256[2][]",
          "name": "_pubKey",
          "type": "uint256[2][]"
        },
        {
          "internalType": "uint256",
          "name": "rank",
          "type": "uint256"
        }
      ],
      "name": "registerOracleNode",
      "outputs": [],
      "stateMutability": "payable",
      "type": "function",
      "payable": true
    },
    {
      "inputs": [
        {
          "internalType": "address",
          "name": "_addr",
          "type": "address"
        }
      ],
      "name": "oracleNodeIsRegistered",
      "outputs": [
        {
          "internalType": "bool",
          "name": "",
          "type": "bool"
        }
      ],
      "stateMutability": "view",
      "type": "function",
      "constant": true
    },
    {
      "inputs": [
        {
          "internalType": "address",
          "name": "_addr",
          "type": "address"
        }
      ],
      "name": "findOracleNodeByAddress",
      "outputs": [
        {
          "components": [
            {
              "internalType": "address",
              "name": "addr",
              "type": "address"
            },
            {
              "internalType": "string",
              "name": "ipAddr",
              "type": "string"
            },
            {
              "internalType": "uint256[2][]",
              "name": "pubKeys",
              "type": "uint256[2][]"
            },
            {
              "internalType": "uint256",
              "name": "stake",
              "type": "uint256"
            },
            {
              "internalType": "uint256",
              "name": "rank",
              "type": "uint256"
            },
            {
              "internalType": "uint256",
              "name": "index",
              "type": "uint256"
            }
          ],
          "internalType": "struct RegistryContract.OracleNode",
          "name": "",
          "type": "tuple"
        }
      ],
      "stateMutability": "view",
      "type": "function",
      "constant": true
    },
    {
      "inputs": [
        {
          "internalType": "uint256",
          "name": "_index",
          "type": "uint256"
        }
      ],
      "name": "findOracleNodeByIndex",
      "outputs": [
        {
          "components": [
            {
              "internalType": "address",
              "name": "addr",
              "type": "address"
            },
            {
              "internalType": "string",
              "name": "ipAddr",
              "type": "string"
            },
            {
              "internalType": "uint256[2][]",
              "name": "pubKeys",
              "type": "uint256[2][]"
            },
            {
              "internalType": "uint256",
              "name": "stake",
              "type": "uint256"
            },
            {
              "internalType": "uint256",
              "name": "rank",
              "type": "uint256"
            },
            {
              "internalType": "uint256",
              "name": "index",
              "type": "uint256"
            }
          ],
          "internalType": "struct RegistryContract.OracleNode",
          "name": "",
          "type": "tuple"
        }
      ],
      "stateMutability": "view",
      "type": "function",
      "constant": true
    },
    {
      "inputs": [
        {
          "internalType": "address",
          "name": "unregisterAddr",
          "type": "address"
        }
      ],
      "name": "unregister",
      "outputs": [],
      "stateMutability": "nonpayable",
      "type": "function"
    },
    {
      "inputs": [
        {
          "internalType": "address",
          "name": "addr",
          "type": "address"
        }
      ],
      "name": "deleteNode",
      "outputs": [],
      "stateMutability": "nonpayable",
      "type": "function"
    },
    {
      "inputs": [],
      "name": "countOracleNodes",
      "outputs": [
        {
          "internalType": "uint256",
          "name": "",
          "type": "uint256"
        }
      ],
      "stateMutability": "view",
      "type": "function",
      "constant": true
    },
    {
      "inputs": [
        {
          "internalType": "address",
          "name": "addr",
          "type": "address"
        }
      ],
      "name": "getNodeRank",
      "outputs": [
        {
          "internalType": "uint256",
          "name": "",
          "type": "uint256"
        }
      ],
      "stateMutability": "view",
      "type": "function",
      "constant": true
    },
    {
      "inputs": [
        {
          "internalType": "address",
          "name": "addr",
          "type": "address"
        }
      ],
      "name": "getNodePublicKeys",
      "outputs": [
        {
          "internalType": "uint256[2][]",
          "name": "",
          "type": "uint256[2][]"
        }
      ],
      "stateMutability": "view",
      "type": "function",
      "constant": true
    },
    {
      "inputs": [
        {
          "internalType": "address",
          "name": "_addr",
          "type": "address"
        }
      ],
      "name": "isAggregator",
      "outputs": [
        {
          "internalType": "bool",
          "name": "",
          "type": "bool"
        }
      ],
      "stateMutability": "view",
      "type": "function",
      "constant": true
    },
    {
      "inputs": [],
      "name": "getAggregator",
      "outputs": [
        {
          "internalType": "address",
          "name": "",
          "type": "address"
        }
      ],
      "stateMutability": "view",
      "type": "function",
      "constant": true
    },
    {
      "inputs": [],
      "name": "getAggregatorIP",
      "outputs": [
        {
          "internalType": "string",
          "name": "",
          "type": "string"
        }
      ],
      "stateMutability": "view",
      "type": "function",
      "constant": true
    }
  ],
  "bytecode": "0x608060405234801561001057600080fd5b50611f34806100206000396000f3fe6080604052600436106100c25760003560e01c80633ad59dbc1161007f578063836f187a11610059578063836f187a1461027f578063bc66e9cb146102aa578063cb1c2b5c146102e7578063fb9fb18a14610312576100c2565b80633ad59dbc146101ec5780635b21790714610217578063655a102f14610242576100c2565b8063140f3daa146100c757806316951440146101045780631e8f3c9514610120578063272132e91461015d5780632d4ede931461019a5780632ec2c246146101c3575b600080fd5b3480156100d357600080fd5b506100ee60048036038101906100e991906114d7565b61034f565b6040516100fb919061151f565b60405180910390f35b61011e6004803603810190610119919061162b565b61041d565b005b34801561012c57600080fd5b50610147600480360381019061014291906114d7565b610721565b604051610154919061151f565b60405180910390f35b34801561016957600080fd5b50610184600480360381019061017f91906116c0565b61077a565b604051610191919061197f565b60405180910390f35b3480156101a657600080fd5b506101c160048036038101906101bc91906114d7565b6109fb565b005b3480156101cf57600080fd5b506101ea60048036038101906101e591906114d7565b610b22565b005b3480156101f857600080fd5b50610201610d88565b60405161020e91906119b0565b60405180910390f35b34801561022357600080fd5b5061022c610e00565b6040516102399190611a15565b60405180910390f35b34801561024e57600080fd5b50610269600480360381019061026491906114d7565b610edf565b604051610276919061197f565b60405180910390f35b34801561028b57600080fd5b50610294611116565b6040516102a19190611a46565b60405180910390f35b3480156102b657600080fd5b506102d160048036038101906102cc91906114d7565b611123565b6040516102de9190611a46565b60405180910390f35b3480156102f357600080fd5b506102fc61116f565b6040516103099190611a46565b60405180910390f35b34801561031e57600080fd5b50610339600480360381019061033491906114d7565b61117b565b6040516103469190611ad0565b60405180910390f35b600080600380549050036103665760009050610418565b8173ffffffffffffffffffffffffffffffffffffffff166003600260008573ffffffffffffffffffffffffffffffffffffffff1673ffffffffffffffffffffffffffffffffffffffff16815260200190815260200160002060050154815481106103d3576103d2611af2565b5b9060005260206000200160009054906101000a900473ffffffffffffffffffffffffffffffffffffffff1673ffffffffffffffffffffffffffffffffffffffff161490505b919050565b6104263361034f565b15610466576040517f08c379a000000000000000000000000000000000000000000000000000000000815260040161045d90611b6d565b60405180910390fd5b670de0b6b3a76400008161047a9190611bbc565b3410156104bc576040517f08c379a00000000000000000000000000000000000000000000000000000000081526004016104b390611c62565b60405180910390fd5b808383905014610501576040517f08c379a00000000000000000000000000000000000000000000000000000000081526004016104f890611cce565b60405180910390fd5b60008054906101000a900460ff166105815760016000806101000a81548160ff02191690831515021790555033600060016101000a81548173ffffffffffffffffffffffffffffffffffffffff021916908373ffffffffffffffffffffffffffffffffffffffff16021790555084846001919061057f92919061124d565b505b6000600260003373ffffffffffffffffffffffffffffffffffffffff1673ffffffffffffffffffffffffffffffffffffffff1681526020019081526020016000209050338160000160006101000a81548173ffffffffffffffffffffffffffffffffffffffff021916908373ffffffffffffffffffffffffffffffffffffffff160217905550858582600101919061061a92919061124d565b50838382600201919061062e9291906112d3565b50348160030181905550818160040181905550600380549050816005018190555060038160000160009054906101000a900473ffffffffffffffffffffffffffffffffffffffff169080600181540180825580915050600190039060005260206000200160009091909190916101000a81548173ffffffffffffffffffffffffffffffffffffffff021916908373ffffffffffffffffffffffffffffffffffffffff1602179055503373ffffffffffffffffffffffffffffffffffffffff167f463624ffd45713d944420ab743c635b5714b8dbabe9c3ae0045ba085e71fada060405160405180910390a2505050505050565b60008060019054906101000a900473ffffffffffffffffffffffffffffffffffffffff1673ffffffffffffffffffffffffffffffffffffffff168273ffffffffffffffffffffffffffffffffffffffff16149050919050565b610782611330565b60008210158015610797575060038054905082105b6107d6576040517f08c379a00000000000000000000000000000000000000000000000000000000081526004016107cd90611d3a565b60405180910390fd5b60026000600384815481106107ee576107ed611af2565b5b9060005260206000200160009054906101000a900473ffffffffffffffffffffffffffffffffffffffff1673ffffffffffffffffffffffffffffffffffffffff1673ffffffffffffffffffffffffffffffffffffffff1681526020019081526020016000206040518060c00160405290816000820160009054906101000a900473ffffffffffffffffffffffffffffffffffffffff1673ffffffffffffffffffffffffffffffffffffffff1673ffffffffffffffffffffffffffffffffffffffff1681526020016001820180546108c490611d89565b80601f01602080910402602001604051908101604052809291908181526020018280546108f090611d89565b801561093d5780601f106109125761010080835404028352916020019161093d565b820191906000526020600020905b81548152906001019060200180831161092057829003601f168201915b5050505050815260200160028201805480602002602001604051908101604052809291908181526020016000905b828210156109ce57838290600052602060002090600202016002806020026040519081016040528092919082600280156109ba576020028201915b8154815260200190600101908083116109a6575b50505050508152602001906001019061096b565b50505050815260200160038201548152602001600482015481526020016005820154815250509050919050565b6003600260008373ffffffffffffffffffffffffffffffffffffffff1673ffffffffffffffffffffffffffffffffffffffff1681526020019081526020016000206005015481548110610a5157610a50611af2565b5b9060005260206000200160006101000a81549073ffffffffffffffffffffffffffffffffffffffff0219169055600260008273ffffffffffffffffffffffffffffffffffffffff1673ffffffffffffffffffffffffffffffffffffffff168152602001908152602001600020600080820160006101000a81549073ffffffffffffffffffffffffffffffffffffffff0219169055600182016000610af5919061137c565b600282016000610b0591906113bc565b600382016000905560048201600090556005820160009055505050565b8073ffffffffffffffffffffffffffffffffffffffff163373ffffffffffffffffffffffffffffffffffffffff1614610b90576040517f08c379a0000000000000000000000000000000000000000000000000000000008152600401610b8790611e06565b60405180910390fd5b610b998161034f565b610bd8576040517f08c379a0000000000000000000000000000000000000000000000000000000008152600401610bcf90611e72565b60405180910390fd5b8073ffffffffffffffffffffffffffffffffffffffff166108fc600260008473ffffffffffffffffffffffffffffffffffffffff1673ffffffffffffffffffffffffffffffffffffffff168152602001908152602001600020600301549081150290604051600060405180830381858888f19350505050158015610c60573d6000803e3d6000fd5b506003600260008373ffffffffffffffffffffffffffffffffffffffff1673ffffffffffffffffffffffffffffffffffffffff1681526020019081526020016000206005015481548110610cb757610cb6611af2565b5b9060005260206000200160006101000a81549073ffffffffffffffffffffffffffffffffffffffff0219169055600260008273ffffffffffffffffffffffffffffffffffffffff1673ffffffffffffffffffffffffffffffffffffffff168152602001908152602001600020600080820160006101000a81549073ffffffffffffffffffffffffffffffffffffffff0219169055600182016000610d5b919061137c565b600282016000610d6b91906113bc565b600382016000905560048201600090556005820160009055505050565b60008060009054906101000a900460ff16610dd8576040517f08c379a0000000000000000000000000000000000000000000000000000000008152600401610dcf90611ede565b60405180910390fd5b600060019054906101000a900473ffffffffffffffffffffffffffffffffffffffff16905090565b606060008054906101000a900460ff16610e4f576040517f08c379a0000000000000000000000000000000000000000000000000000000008152600401610e4690611ede565b60405180910390fd5b60018054610e5c90611d89565b80601f0160208091040260200160405190810160405280929190818152602001828054610e8890611d89565b8015610ed55780601f10610eaa57610100808354040283529160200191610ed5565b820191906000526020600020905b815481529060010190602001808311610eb857829003601f168201915b5050505050905090565b610ee7611330565b610ef08261034f565b610f2f576040517f08c379a0000000000000000000000000000000000000000000000000000000008152600401610f2690611d3a565b60405180910390fd5b600260008373ffffffffffffffffffffffffffffffffffffffff1673ffffffffffffffffffffffffffffffffffffffff1681526020019081526020016000206040518060c00160405290816000820160009054906101000a900473ffffffffffffffffffffffffffffffffffffffff1673ffffffffffffffffffffffffffffffffffffffff1673ffffffffffffffffffffffffffffffffffffffff168152602001600182018054610fdf90611d89565b80601f016020809104026020016040519081016040528092919081815260200182805461100b90611d89565b80156110585780601f1061102d57610100808354040283529160200191611058565b820191906000526020600020905b81548152906001019060200180831161103b57829003601f168201915b5050505050815260200160028201805480602002602001604051908101604052809291908181526020016000905b828210156110e957838290600052602060002090600202016002806020026040519081016040528092919082600280156110d5576020028201915b8154815260200190600101908083116110c1575b505050505081526020019060010190611086565b50505050815260200160038201548152602001600482015481526020016005820154815250509050919050565b6000600380549050905090565b6000600260008373ffffffffffffffffffffffffffffffffffffffff1673ffffffffffffffffffffffffffffffffffffffff168152602001908152602001600020600401549050919050565b670de0b6b3a764000081565b6060600260008373ffffffffffffffffffffffffffffffffffffffff1673ffffffffffffffffffffffffffffffffffffffff168152602001908152602001600020600201805480602002602001604051908101604052809291908181526020016000905b82821015611242578382906000526020600020906002020160028060200260405190810160405280929190826002801561122e576020028201915b81548152602001906001019080831161121a575b5050505050815260200190600101906111df565b505050509050919050565b82805461125990611d89565b90600052602060002090601f01602090048101928261127b57600085556112c2565b82601f1061129457803560ff19168380011785556112c2565b828001600101855582156112c2579182015b828111156112c15782358255916020019190600101906112a6565b5b5090506112cf91906113e0565b5090565b82805482825590600052602060002090600202810192821561131f579160400282015b8281111561131e57828290600261130e9291906113fd565b50916040019190600201906112f6565b5b50905061132c919061143d565b5090565b6040518060c00160405280600073ffffffffffffffffffffffffffffffffffffffff16815260200160608152602001606081526020016000815260200160008152602001600081525090565b50805461138890611d89565b6000825580601f1061139a57506113b9565b601f0160209004906000526020600020908101906113b891906113e0565b5b50565b50805460008255600202906000526020600020908101906113dd919061143d565b50565b5b808211156113f95760008160009055506001016113e1565b5090565b826002810192821561142c579160200282015b8281111561142b578235825591602001919060010190611410565b5b50905061143991906113e0565b5090565b5b8082111561145d57600081816114549190611461565b5060020161143e565b5090565b506000815560010160009055565b600080fd5b600080fd5b600073ffffffffffffffffffffffffffffffffffffffff82169050919050565b60006114a482611479565b9050919050565b6114b481611499565b81146114bf57600080fd5b50565b6000813590506114d1816114ab565b92915050565b6000602082840312156114ed576114ec61146f565b5b60006114fb848285016114c2565b91505092915050565b60008115159050919050565b61151981611504565b82525050565b60006020820190506115346000830184611510565b92915050565b600080fd5b600080fd5b600080fd5b60008083601f84011261155f5761155e61153a565b5b8235905067ffffffffffffffff81111561157c5761157b61153f565b5b60208301915083600182028301111561159857611597611544565b5b9250929050565b60008083601f8401126115b5576115b461153a565b5b8235905067ffffffffffffffff8111156115d2576115d161153f565b5b6020830191508360408202830111156115ee576115ed611544565b5b9250929050565b6000819050919050565b611608816115f5565b811461161357600080fd5b50565b600081359050611625816115ff565b92915050565b6000806000806000606086880312156116475761164661146f565b5b600086013567ffffffffffffffff81111561166557611664611474565b5b61167188828901611549565b9550955050602086013567ffffffffffffffff81111561169457611693611474565b5b6116a08882890161159f565b935093505060406116b388828901611616565b9150509295509295909350565b6000602082840312156116d6576116d561146f565b5b60006116e484828501611616565b91505092915050565b6116f681611499565b82525050565b600081519050919050565b600082825260208201905092915050565b60005b8381101561173657808201518184015260208101905061171b565b83811115611745576000848401525b50505050565b6000601f19601f8301169050919050565b6000611767826116fc565b6117718185611707565b9350611781818560208601611718565b61178a8161174b565b840191505092915050565b600081519050919050565b600082825260208201905092915050565b6000819050602082019050919050565b600060029050919050565b600081905092915050565b6000819050919050565b6117ea816115f5565b82525050565b60006117fc83836117e1565b60208301905092915050565b6000602082019050919050565b61181e816117c1565b61182881846117cc565b9250611833826117d7565b8060005b8381101561186457815161184b87826117f0565b965061185683611808565b925050600181019050611837565b505050505050565b60006118788383611815565b60408301905092915050565b6000602082019050919050565b600061189c82611795565b6118a681856117a0565b93506118b1836117b1565b8060005b838110156118e25781516118c9888261186c565b97506118d483611884565b9250506001810190506118b5565b5085935050505092915050565b600060c08301600083015161190760008601826116ed565b506020830151848203602086015261191f828261175c565b915050604083015184820360408601526119398282611891565b915050606083015161194e60608601826117e1565b50608083015161196160808601826117e1565b5060a083015161197460a08601826117e1565b508091505092915050565b6000602082019050818103600083015261199981846118ef565b905092915050565b6119aa81611499565b82525050565b60006020820190506119c560008301846119a1565b92915050565b600082825260208201905092915050565b60006119e7826116fc565b6119f181856119cb565b9350611a01818560208601611718565b611a0a8161174b565b840191505092915050565b60006020820190508181036000830152611a2f81846119dc565b905092915050565b611a40816115f5565b82525050565b6000602082019050611a5b6000830184611a37565b92915050565b600082825260208201905092915050565b6000611a7d82611795565b611a878185611a61565b9350611a92836117b1565b8060005b83811015611ac3578151611aaa888261186c565b9750611ab583611884565b925050600181019050611a96565b5085935050505092915050565b60006020820190508181036000830152611aea8184611a72565b905092915050565b7f4e487b7100000000000000000000000000000000000000000000000000000000600052603260045260246000fd5b7f616c726561647920726567697374657265640000000000000000000000000000600082015250565b6000611b576012836119cb565b9150611b6282611b21565b602082019050919050565b60006020820190508181036000830152611b8681611b4a565b9050919050565b7f4e487b7100000000000000000000000000000000000000000000000000000000600052601160045260246000fd5b6000611bc7826115f5565b9150611bd2836115f5565b9250817fffffffffffffffffffffffffffffffffffffffffffffffffffffffffffffffff0483118215151615611c0b57611c0a611b8d565b5b828202905092915050565b7f6c6f77207374616b650000000000000000000000000000000000000000000000600082015250565b6000611c4c6009836119cb565b9150611c5782611c16565b602082019050919050565b60006020820190508181036000830152611c7b81611c3f565b9050919050565b7f6b6579206e756d626572206572726f7200000000000000000000000000000000600082015250565b6000611cb86010836119cb565b9150611cc382611c82565b602082019050919050565b60006020820190508181036000830152611ce781611cab565b9050919050565b7f6e6f7420666f756e640000000000000000000000000000000000000000000000600082015250565b6000611d246009836119cb565b9150611d2f82611cee565b602082019050919050565b60006020820190508181036000830152611d5381611d17565b9050919050565b7f4e487b7100000000000000000000000000000000000000000000000000000000600052602260045260246000fd5b60006002820490506001821680611da157607f821691505b602082108103611db457611db3611d5a565b5b50919050565b7f4f6e6c7920616c6c6f7720756e726567697374657220796f757273656c662100600082015250565b6000611df0601f836119cb565b9150611dfb82611dba565b602082019050919050565b60006020820190508181036000830152611e1f81611de3565b9050919050565b7f486176656e277420726567697374657265642100000000000000000000000000600082015250565b6000611e5c6013836119cb565b9150611e6782611e26565b602082019050919050565b60006020820190508181036000830152611e8b81611e4f565b9050919050565b7f6e6f2061676772656761746f7200000000000000000000000000000000000000600082015250565b6000611ec8600d836119cb565b9150611ed382611e92565b602082019050919050565b60006020820190508181036000830152611ef781611ebb565b905091905056fea26469706673582212207d997b0fd89cb575fd68a5690879b8eb31581144c79e25792a45e6c53670dc3664736f6c634300080d0033",
  "immutableReferences": {},
  "source": "// SPDX-License-Identifier: MIT\npragma solidity >0.8.0;\n\ncontract RegistryContract {\n    struct OracleNode {\n        address addr;  // \n        string ipAddr; // IP\n        uint256[2][] pubKeys;  // schnorr\n        uint256 stake; // \n        uint256 rank;  // \n        uint256 index;\n    }\n\n    uint256 public constant MIN_STAKE = 1 ether;\n    bool private hasAggregator;\n    address private aggregatorAddr;\n    string private aggregatorIP;\n\n    mapping(address => OracleNode) private oracleNodes;\n\n    address[] private oracleNodeIndices;\n\n    event RegisterOracleNode(address indexed sender);\n\n    function registerOracleNode(string calldata _ipAddr, uint256[2][] calldata _pubKey, uint256 rank)\n        external\n        payable\n    {\n        require(!oracleNodeIsRegistered(msg.sender), \"already registered\");\n        require(msg.value >= rank * MIN_STAKE, \"low stake\");\n        require(_pubKey.length == rank, \"key number error\");\n        if(!hasAggregator){\n            hasAggregator = true;\n            aggregatorAddr = msg.sender;\n            aggregatorIP = _ipAddr;\n        }\n        OracleNode storage iopNode = oracleNodes[msg.sender];\n        iopNode.addr = msg.sender;\n        iopNode.ipAddr = _ipAddr;\n        iopNode.pubKeys = _pubKey;\n        iopNode.stake = msg.value;\n        iopNode.rank = rank;\n        iopNode.index = oracleNodeIndices.length;\n        oracleNodeIndices.push(iopNode.addr);\n\n        emit RegisterOracleNode(msg.sender);\n    }\n\n    function oracleNodeIsRegistered(address _addr) public view returns (bool) {\n        if (oracleNodeIndices.length == 0) return false;\n        return (oracleNodeIndices[oracleNodes[_addr].index] == _addr);\n    }\n\n    function findOracleNodeByAddress(address _addr)\n        public\n        view\n        returns (OracleNode memory)\n    {\n        require(oracleNodeIsRegistered(_addr), \"not found\");\n        return oracleNodes[_addr];\n    }\n\n    function findOracleNodeByIndex(uint256 _index)\n        public\n        view\n        returns (OracleNode memory)\n    {\n        require(_index >= 0 && _index < oracleNodeIndices.length, \"not found\");\n        return oracleNodes[oracleNodeIndices[_index]];\n    }\n\n    function unregister(address unregisterAddr) \n        public\n    {\n        require(msg.sender == unregisterAddr, \"Only allow unregister yourself!\");\n        require(oracleNodeIsRegistered(unregisterAddr), \"Haven't registered!\");\n        payable(unregisterAddr).transfer(oracleNodes[unregisterAddr].stake); // \n        delete oracleNodeIndices[oracleNodes[unregisterAddr].index]; // \n        delete oracleNodes[unregisterAddr]; // map\n    }\n\n    function deleteNode(address addr)\n        external\n    {\n        delete oracleNodeIndices[oracleNodes[addr].index]; // \n        delete oracleNodes[addr]; // map\n    }\n\n    function countOracleNodes() external view returns (uint256) {\n        return oracleNodeIndices.length;\n    }\n\n    function getNodeRank(address addr) public view returns (uint256){\n        return oracleNodes[addr].rank;\n    }\n\n    function getNodePublicKeys(address addr) public view returns (uint256[2][] memory){\n        return oracleNodes[addr].pubKeys;\n    }\n\n    function isAggregator(address _addr) public view returns (bool) {\n        return _addr == aggregatorAddr;\n    }\n\n    function getAggregator() public view returns (address) {\n        require(hasAggregator, \"no aggregator\");\n        return aggregatorAddr;\n    }\n\n    function getAggregatorIP() public view returns (string memory) {\n        require(hasAggregator, \"no aggregator\");\n        return aggregatorIP;\n    }\n}\n",
  "sourcePath": "/home/w1tness/Code/Crypto/Schnorr-multi-signature-oracle/ioporaclecontracts/contracts/RegistryContract.sol",
  "compiler": {
    "name": "solc",
    "version": "0.8.13+commit.abaa5c0e.Emscripten.clang"
  },
  "schemaVersion": "3.4.16",
  "updatedAt": "2023-12-17T14:22:20.538Z",
  "networkType": "ethereum",
  "devdoc": {
    "kind": "dev",
    "methods": {},
    "version": 1
  },
  "userdoc": {
    "kind": "user",
    "methods": {},
    "version": 1
  }
}