{
  "contractName": "RegistryContract",
  "abi": [
    {
      "anonymous": false,
      "inputs": [
        {
          "indexed": true,
          "internalType": "address",
          "name": "sender",
          "type": "address"
        }
      ],
      "name": "RegisterOracleNode",
      "type": "event"
    },
    {
      "inputs": [],
      "name": "MIN_STAKE",
      "outputs": [
        {
          "internalType": "uint256",
          "name": "",
          "type": "uint256"
        }
      ],
      "stateMutability": "view",
      "type": "function",
      "constant": true
    },
    {
      "inputs": [
        {
          "internalType": "string",
          "name": "_ipAddr",
          "type": "string"
        },
        {
          "internalType": "bytes1[33][]",
          "name": "_pubKey",
          "type": "bytes1[33][]"
        },
        {
          "internalType": "uint256",
          "name": "rank",
          "type": "uint256"
        }
      ],
      "name": "registerOracleNode",
      "outputs": [],
      "stateMutability": "payable",
      "type": "function",
      "payable": true
    },
    {
      "inputs": [
        {
          "internalType": "address",
          "name": "_addr",
          "type": "address"
        }
      ],
      "name": "oracleNodeIsRegistered",
      "outputs": [
        {
          "internalType": "bool",
          "name": "",
          "type": "bool"
        }
      ],
      "stateMutability": "view",
      "type": "function",
      "constant": true
    },
    {
      "inputs": [
        {
          "internalType": "address",
          "name": "_addr",
          "type": "address"
        }
      ],
      "name": "findOracleNodeByAddress",
      "outputs": [
        {
          "components": [
            {
              "internalType": "address",
              "name": "addr",
              "type": "address"
            },
            {
              "internalType": "string",
              "name": "ipAddr",
              "type": "string"
            },
            {
              "internalType": "bytes1[33][]",
              "name": "pubKeys",
              "type": "bytes1[33][]"
            },
            {
              "internalType": "uint256",
              "name": "stake",
              "type": "uint256"
            },
            {
              "internalType": "uint256",
              "name": "rank",
              "type": "uint256"
            },
            {
              "internalType": "uint256",
              "name": "index",
              "type": "uint256"
            }
          ],
          "internalType": "struct RegistryContract.OracleNode",
          "name": "",
          "type": "tuple"
        }
      ],
      "stateMutability": "view",
      "type": "function",
      "constant": true
    },
    {
      "inputs": [
        {
          "internalType": "uint256",
          "name": "_index",
          "type": "uint256"
        }
      ],
      "name": "findOracleNodeByIndex",
      "outputs": [
        {
          "components": [
            {
              "internalType": "address",
              "name": "addr",
              "type": "address"
            },
            {
              "internalType": "string",
              "name": "ipAddr",
              "type": "string"
            },
            {
              "internalType": "bytes1[33][]",
              "name": "pubKeys",
              "type": "bytes1[33][]"
            },
            {
              "internalType": "uint256",
              "name": "stake",
              "type": "uint256"
            },
            {
              "internalType": "uint256",
              "name": "rank",
              "type": "uint256"
            },
            {
              "internalType": "uint256",
              "name": "index",
              "type": "uint256"
            }
          ],
          "internalType": "struct RegistryContract.OracleNode",
          "name": "",
          "type": "tuple"
        }
      ],
      "stateMutability": "view",
      "type": "function",
      "constant": true
    },
    {
      "inputs": [
        {
          "internalType": "address",
          "name": "unregisterAddr",
          "type": "address"
        }
      ],
      "name": "unregister",
      "outputs": [],
      "stateMutability": "nonpayable",
      "type": "function"
    },
    {
      "inputs": [
        {
          "internalType": "address",
          "name": "addr",
          "type": "address"
        }
      ],
      "name": "deleteNode",
      "outputs": [],
      "stateMutability": "nonpayable",
      "type": "function"
    },
    {
      "inputs": [
        {
          "internalType": "address",
          "name": "addr",
          "type": "address"
        }
      ],
      "name": "getNodeRank",
      "outputs": [
        {
          "internalType": "uint256",
          "name": "",
          "type": "uint256"
        }
      ],
      "stateMutability": "view",
      "type": "function",
      "constant": true
    },
    {
      "inputs": [
        {
          "internalType": "address",
          "name": "addr",
          "type": "address"
        }
      ],
      "name": "getNodePublicKeys",
      "outputs": [
        {
          "internalType": "bytes1[33][]",
          "name": "",
          "type": "bytes1[33][]"
        }
      ],
      "stateMutability": "view",
      "type": "function",
      "constant": true
    },
    {
      "inputs": [
        {
          "internalType": "address",
          "name": "_addr",
          "type": "address"
        }
      ],
      "name": "isAggregator",
      "outputs": [
        {
          "internalType": "bool",
          "name": "",
          "type": "bool"
        }
      ],
      "stateMutability": "view",
      "type": "function",
      "constant": true
    },
    {
      "inputs": [],
      "name": "getAggregator",
      "outputs": [
        {
          "internalType": "address",
          "name": "",
          "type": "address"
        }
      ],
      "stateMutability": "view",
      "type": "function",
      "constant": true
    },
    {
      "inputs": [],
      "name": "getAggregatorIP",
      "outputs": [
        {
          "internalType": "string",
          "name": "",
          "type": "string"
        }
      ],
      "stateMutability": "view",
      "type": "function",
      "constant": true
    }
  ],
  "bytecode": "0x608060405234801561001057600080fd5b5061206b806100206000396000f3fe6080604052600436106100a75760003560e01c80633ad59dbc116100645780633ad59dbc146101d15780635b217907146101fc578063655a102f14610227578063bc66e9cb14610264578063cb1c2b5c146102a1578063fb9fb18a146102cc576100a7565b8063140f3daa146100ac5780631e8f3c95146100e9578063272132e9146101265780632d4ede93146101635780632ec2c2461461018c5780633a213ece146101b5575b600080fd5b3480156100b857600080fd5b506100d360048036038101906100ce91906115d1565b610309565b6040516100e09190611619565b60405180910390f35b3480156100f557600080fd5b50610110600480360381019061010b91906115d1565b6103d7565b60405161011d9190611619565b60405180910390f35b34801561013257600080fd5b5061014d6004803603810190610148919061166a565b610430565b60405161015a9190611965565b60405180910390f35b34801561016f57600080fd5b5061018a600480360381019061018591906115d1565b6106f6565b005b34801561019857600080fd5b506101b360048036038101906101ae91906115d1565b61081d565b005b6101cf60048036038101906101ca9190611a43565b610a83565b005b3480156101dd57600080fd5b506101e6610d87565b6040516101f39190611ae7565b60405180910390f35b34801561020857600080fd5b50610211610dff565b60405161021e9190611b4c565b60405180910390f35b34801561023357600080fd5b5061024e600480360381019061024991906115d1565b610ede565b60405161025b9190611965565b60405180910390f35b34801561027057600080fd5b5061028b600480360381019061028691906115d1565b61115a565b6040516102989190611b7d565b60405180910390f35b3480156102ad57600080fd5b506102b66111a6565b6040516102c39190611b7d565b60405180910390f35b3480156102d857600080fd5b506102f360048036038101906102ee91906115d1565b6111b2565b6040516103009190611c07565b60405180910390f35b6000806003805490500361032057600090506103d2565b8173ffffffffffffffffffffffffffffffffffffffff166003600260008573ffffffffffffffffffffffffffffffffffffffff1673ffffffffffffffffffffffffffffffffffffffff168152602001908152602001600020600501548154811061038d5761038c611c29565b5b9060005260206000200160009054906101000a900473ffffffffffffffffffffffffffffffffffffffff1673ffffffffffffffffffffffffffffffffffffffff161490505b919050565b60008060019054906101000a900473ffffffffffffffffffffffffffffffffffffffff1673ffffffffffffffffffffffffffffffffffffffff168273ffffffffffffffffffffffffffffffffffffffff16149050919050565b6104386112c9565b6000821015801561044d575060038054905082105b61048c576040517f08c379a000000000000000000000000000000000000000000000000000000000815260040161048390611ca4565b60405180910390fd5b60026000600384815481106104a4576104a3611c29565b5b9060005260206000200160009054906101000a900473ffffffffffffffffffffffffffffffffffffffff1673ffffffffffffffffffffffffffffffffffffffff1673ffffffffffffffffffffffffffffffffffffffff1681526020019081526020016000206040518060c00160405290816000820160009054906101000a900473ffffffffffffffffffffffffffffffffffffffff1673ffffffffffffffffffffffffffffffffffffffff1673ffffffffffffffffffffffffffffffffffffffff16815260200160018201805461057a90611cf3565b80601f01602080910402602001604051908101604052809291908181526020018280546105a690611cf3565b80156105f35780601f106105c8576101008083540402835291602001916105f3565b820191906000526020600020905b8154815290600101906020018083116105d657829003601f168201915b5050505050815260200160028201805480602002602001604051908101604052809291908181526020016000905b828210156106c957838290600052602060002090600202016021806020026040519081016040528092919082602180156106b5576020028201916000905b82829054906101000a900460f81b7effffffffffffffffffffffffffffffffffffffffffffffffffffffffffffff19168152602001906001019060208260000104928301926001038202915080841161065f5790505b505050505081526020019060010190610621565b50505050815260200160038201548152602001600482015481526020016005820154815250509050919050565b6003600260008373ffffffffffffffffffffffffffffffffffffffff1673ffffffffffffffffffffffffffffffffffffffff168152602001908152602001600020600501548154811061074c5761074b611c29565b5b9060005260206000200160006101000a81549073ffffffffffffffffffffffffffffffffffffffff0219169055600260008273ffffffffffffffffffffffffffffffffffffffff1673ffffffffffffffffffffffffffffffffffffffff168152602001908152602001600020600080820160006101000a81549073ffffffffffffffffffffffffffffffffffffffff02191690556001820160006107f09190611315565b6002820160006108009190611355565b600382016000905560048201600090556005820160009055505050565b8073ffffffffffffffffffffffffffffffffffffffff163373ffffffffffffffffffffffffffffffffffffffff161461088b576040517f08c379a000000000000000000000000000000000000000000000000000000000815260040161088290611d70565b60405180910390fd5b61089481610309565b6108d3576040517f08c379a00000000000000000000000000000000000000000000000000000000081526004016108ca90611ddc565b60405180910390fd5b8073ffffffffffffffffffffffffffffffffffffffff166108fc600260008473ffffffffffffffffffffffffffffffffffffffff1673ffffffffffffffffffffffffffffffffffffffff168152602001908152602001600020600301549081150290604051600060405180830381858888f1935050505015801561095b573d6000803e3d6000fd5b506003600260008373ffffffffffffffffffffffffffffffffffffffff1673ffffffffffffffffffffffffffffffffffffffff16815260200190815260200160002060050154815481106109b2576109b1611c29565b5b9060005260206000200160006101000a81549073ffffffffffffffffffffffffffffffffffffffff0219169055600260008273ffffffffffffffffffffffffffffffffffffffff1673ffffffffffffffffffffffffffffffffffffffff168152602001908152602001600020600080820160006101000a81549073ffffffffffffffffffffffffffffffffffffffff0219169055600182016000610a569190611315565b600282016000610a669190611355565b600382016000905560048201600090556005820160009055505050565b610a8c33610309565b15610acc576040517f08c379a0000000000000000000000000000000000000000000000000000000008152600401610ac390611e48565b60405180910390fd5b670de0b6b3a764000081610ae09190611e97565b341015610b22576040517f08c379a0000000000000000000000000000000000000000000000000000000008152600401610b1990611f3d565b60405180910390fd5b808383905014610b67576040517f08c379a0000000000000000000000000000000000000000000000000000000008152600401610b5e90611fa9565b60405180910390fd5b60008054906101000a900460ff16610be75760016000806101000a81548160ff02191690831515021790555033600060016101000a81548173ffffffffffffffffffffffffffffffffffffffff021916908373ffffffffffffffffffffffffffffffffffffffff160217905550848460019190610be5929190611379565b505b6000600260003373ffffffffffffffffffffffffffffffffffffffff1673ffffffffffffffffffffffffffffffffffffffff1681526020019081526020016000209050338160000160006101000a81548173ffffffffffffffffffffffffffffffffffffffff021916908373ffffffffffffffffffffffffffffffffffffffff1602179055508585826001019190610c80929190611379565b508383826002019190610c949291906113ff565b50348160030181905550818160040181905550600380549050816005018190555060038160000160009054906101000a900473ffffffffffffffffffffffffffffffffffffffff169080600181540180825580915050600190039060005260206000200160009091909190916101000a81548173ffffffffffffffffffffffffffffffffffffffff021916908373ffffffffffffffffffffffffffffffffffffffff1602179055503373ffffffffffffffffffffffffffffffffffffffff167f463624ffd45713d944420ab743c635b5714b8dbabe9c3ae0045ba085e71fada060405160405180910390a2505050505050565b60008060009054906101000a900460ff16610dd7576040517f08c379a0000000000000000000000000000000000000000000000000000000008152600401610dce90612015565b60405180910390fd5b600060019054906101000a900473ffffffffffffffffffffffffffffffffffffffff16905090565b606060008054906101000a900460ff16610e4e576040517f08c379a0000000000000000000000000000000000000000000000000000000008152600401610e4590612015565b60405180910390fd5b60018054610e5b90611cf3565b80601f0160208091040260200160405190810160405280929190818152602001828054610e8790611cf3565b8015610ed45780601f10610ea957610100808354040283529160200191610ed4565b820191906000526020600020905b815481529060010190602001808311610eb757829003601f168201915b5050505050905090565b610ee66112c9565b610eef82610309565b610f2e576040517f08c379a0000000000000000000000000000000000000000000000000000000008152600401610f2590611ca4565b60405180910390fd5b600260008373ffffffffffffffffffffffffffffffffffffffff1673ffffffffffffffffffffffffffffffffffffffff1681526020019081526020016000206040518060c00160405290816000820160009054906101000a900473ffffffffffffffffffffffffffffffffffffffff1673ffffffffffffffffffffffffffffffffffffffff1673ffffffffffffffffffffffffffffffffffffffff168152602001600182018054610fde90611cf3565b80601f016020809104026020016040519081016040528092919081815260200182805461100a90611cf3565b80156110575780601f1061102c57610100808354040283529160200191611057565b820191906000526020600020905b81548152906001019060200180831161103a57829003601f168201915b5050505050815260200160028201805480602002602001604051908101604052809291908181526020016000905b8282101561112d5783829060005260206000209060020201602180602002604051908101604052809291908260218015611119576020028201916000905b82829054906101000a900460f81b7effffffffffffffffffffffffffffffffffffffffffffffffffffffffffffff1916815260200190600101906020826000010492830192600103820291508084116110c35790505b505050505081526020019060010190611085565b50505050815260200160038201548152602001600482015481526020016005820154815250509050919050565b6000600260008373ffffffffffffffffffffffffffffffffffffffff1673ffffffffffffffffffffffffffffffffffffffff168152602001908152602001600020600401549050919050565b670de0b6b3a764000081565b6060600260008373ffffffffffffffffffffffffffffffffffffffff1673ffffffffffffffffffffffffffffffffffffffff168152602001908152602001600020600201805480602002602001604051908101604052809291908181526020016000905b828210156112be57838290600052602060002090600202016021806020026040519081016040528092919082602180156112aa576020028201916000905b82829054906101000a900460f81b7effffffffffffffffffffffffffffffffffffffffffffffffffffffffffffff1916815260200190600101906020826000010492830192600103820291508084116112545790505b505050505081526020019060010190611216565b505050509050919050565b6040518060c00160405280600073ffffffffffffffffffffffffffffffffffffffff16815260200160608152602001606081526020016000815260200160008152602001600081525090565b50805461132190611cf3565b6000825580601f106113335750611352565b601f016020900490600052602060002090810190611351919061145e565b5b50565b5080546000825560020290600052602060002090810190611376919061147b565b50565b82805461138590611cf3565b90600052602060002090601f0160209004810192826113a757600085556113ee565b82601f106113c057803560ff19168380011785556113ee565b828001600101855582156113ee579182015b828111156113ed5782358255916020019190600101906113d2565b5b5090506113fb919061145e565b5090565b82805482825590600052602060002090600202810192821561144d57916104200282015b8281111561144c57828290602161143b92919061149f565b509161042001919060020190611423565b5b50905061145a919061147b565b5090565b5b8082111561147757600081600090555060010161145f565b5090565b5b8082111561149b5760008181611492919061155b565b5060020161147c565b5090565b826021601f0160209004810192821561154a5791602002820160005b8382111561151b5783357effffffffffffffffffffffffffffffffffffffffffffffffffffffffffffff191683826101000a81548160ff021916908360f81c021790555092602001926001016020816000010492830192600103026114bb565b80156115485782816101000a81549060ff021916905560010160208160000104928301926001030261151b565b505b509050611557919061145e565b5090565b506000815560010160009055565b600080fd5b600080fd5b600073ffffffffffffffffffffffffffffffffffffffff82169050919050565b600061159e82611573565b9050919050565b6115ae81611593565b81146115b957600080fd5b50565b6000813590506115cb816115a5565b92915050565b6000602082840312156115e7576115e6611569565b5b60006115f5848285016115bc565b91505092915050565b60008115159050919050565b611613816115fe565b82525050565b600060208201905061162e600083018461160a565b92915050565b6000819050919050565b61164781611634565b811461165257600080fd5b50565b6000813590506116648161163e565b92915050565b6000602082840312156116805761167f611569565b5b600061168e84828501611655565b91505092915050565b6116a081611593565b82525050565b600081519050919050565b600082825260208201905092915050565b60005b838110156116e05780820151818401526020810190506116c5565b838111156116ef576000848401525b50505050565b6000601f19601f8301169050919050565b6000611711826116a6565b61171b81856116b1565b935061172b8185602086016116c2565b611734816116f5565b840191505092915050565b600081519050919050565b600082825260208201905092915050565b6000819050602082019050919050565b600060219050919050565b600081905092915050565b6000819050919050565b60007fff0000000000000000000000000000000000000000000000000000000000000082169050919050565b6117c08161178b565b82525050565b60006117d283836117b7565b60208301905092915050565b6000602082019050919050565b6117f48161176b565b6117fe8184611776565b925061180982611781565b8060005b8381101561183a57815161182187826117c6565b965061182c836117de565b92505060018101905061180d565b505050505050565b600061184e83836117eb565b6104208301905092915050565b6000602082019050919050565b60006118738261173f565b61187d818561174a565b93506118888361175b565b8060005b838110156118b95781516118a08882611842565b97506118ab8361185b565b92505060018101905061188c565b5085935050505092915050565b6118cf81611634565b82525050565b600060c0830160008301516118ed6000860182611697565b50602083015184820360208601526119058282611706565b9150506040830151848203604086015261191f8282611868565b915050606083015161193460608601826118c6565b50608083015161194760808601826118c6565b5060a083015161195a60a08601826118c6565b508091505092915050565b6000602082019050818103600083015261197f81846118d5565b905092915050565b600080fd5b600080fd5b600080fd5b60008083601f8401126119ac576119ab611987565b5b8235905067ffffffffffffffff8111156119c9576119c861198c565b5b6020830191508360018202830111156119e5576119e4611991565b5b9250929050565b60008083601f840112611a0257611a01611987565b5b8235905067ffffffffffffffff811115611a1f57611a1e61198c565b5b60208301915083610420820283011115611a3c57611a3b611991565b5b9250929050565b600080600080600060608688031215611a5f57611a5e611569565b5b600086013567ffffffffffffffff811115611a7d57611a7c61156e565b5b611a8988828901611996565b9550955050602086013567ffffffffffffffff811115611aac57611aab61156e565b5b611ab8888289016119ec565b93509350506040611acb88828901611655565b9150509295509295909350565b611ae181611593565b82525050565b6000602082019050611afc6000830184611ad8565b92915050565b600082825260208201905092915050565b6000611b1e826116a6565b611b288185611b02565b9350611b388185602086016116c2565b611b41816116f5565b840191505092915050565b60006020820190508181036000830152611b668184611b13565b905092915050565b611b7781611634565b82525050565b6000602082019050611b926000830184611b6e565b92915050565b600082825260208201905092915050565b6000611bb48261173f565b611bbe8185611b98565b9350611bc98361175b565b8060005b83811015611bfa578151611be18882611842565b9750611bec8361185b565b925050600181019050611bcd565b5085935050505092915050565b60006020820190508181036000830152611c218184611ba9565b905092915050565b7f4e487b7100000000000000000000000000000000000000000000000000000000600052603260045260246000fd5b7f6e6f7420666f756e640000000000000000000000000000000000000000000000600082015250565b6000611c8e600983611b02565b9150611c9982611c58565b602082019050919050565b60006020820190508181036000830152611cbd81611c81565b9050919050565b7f4e487b7100000000000000000000000000000000000000000000000000000000600052602260045260246000fd5b60006002820490506001821680611d0b57607f821691505b602082108103611d1e57611d1d611cc4565b5b50919050565b7f4f6e6c7920616c6c6f7720756e726567697374657220796f757273656c662100600082015250565b6000611d5a601f83611b02565b9150611d6582611d24565b602082019050919050565b60006020820190508181036000830152611d8981611d4d565b9050919050565b7f486176656e277420726567697374657265642100000000000000000000000000600082015250565b6000611dc6601383611b02565b9150611dd182611d90565b602082019050919050565b60006020820190508181036000830152611df581611db9565b9050919050565b7f616c726561647920726567697374657265640000000000000000000000000000600082015250565b6000611e32601283611b02565b9150611e3d82611dfc565b602082019050919050565b60006020820190508181036000830152611e6181611e25565b9050919050565b7f4e487b7100000000000000000000000000000000000000000000000000000000600052601160045260246000fd5b6000611ea282611634565b9150611ead83611634565b9250817fffffffffffffffffffffffffffffffffffffffffffffffffffffffffffffffff0483118215151615611ee657611ee5611e68565b5b828202905092915050565b7f6c6f77207374616b650000000000000000000000000000000000000000000000600082015250565b6000611f27600983611b02565b9150611f3282611ef1565b602082019050919050565b60006020820190508181036000830152611f5681611f1a565b9050919050565b7f6b6579206e756d626572206572726f7200000000000000000000000000000000600082015250565b6000611f93601083611b02565b9150611f9e82611f5d565b602082019050919050565b60006020820190508181036000830152611fc281611f86565b9050919050565b7f6e6f2061676772656761746f7200000000000000000000000000000000000000600082015250565b6000611fff600d83611b02565b915061200a82611fc9565b602082019050919050565b6000602082019050818103600083015261202e81611ff2565b905091905056fea2646970667358221220d062f3ced1daa0bbe68b145dc727e178c780969fb31acf78216bcf69bbc4885064736f6c634300080d0033",
  "immutableReferences": {},
  "source": "// SPDX-License-Identifier: MIT\npragma solidity >0.8.0;\n\ncontract RegistryContract {\n    struct OracleNode {\n        address addr;  // \n        string ipAddr; // IP\n        bytes1[33][] pubKeys;  // schnorr\n        uint256 stake; // \n        uint256 rank;  // \n        uint256 index;\n    }\n\n    uint256 public constant MIN_STAKE = 1 ether;\n    bool private hasAggregator;\n    address private aggregatorAddr;\n    string private aggregatorIP;\n\n    mapping(address => OracleNode) private oracleNodes;\n\n    address[] private oracleNodeIndices;\n\n    event RegisterOracleNode(address indexed sender);\n\n    function registerOracleNode(string calldata _ipAddr, bytes1[33][] calldata _pubKey, uint256 rank)\n        external\n        payable\n    {\n        require(!oracleNodeIsRegistered(msg.sender), \"already registered\");\n        require(msg.value >= rank * MIN_STAKE, \"low stake\");\n        require(_pubKey.length == rank, \"key number error\");\n        if(!hasAggregator){\n            hasAggregator = true;\n            aggregatorAddr = msg.sender;\n            aggregatorIP = _ipAddr;\n        }\n        OracleNode storage iopNode = oracleNodes[msg.sender];\n        iopNode.addr = msg.sender;\n        iopNode.ipAddr = _ipAddr;\n        iopNode.pubKeys = _pubKey;\n        iopNode.stake = msg.value;\n        iopNode.rank = rank;\n        iopNode.index = oracleNodeIndices.length;\n        oracleNodeIndices.push(iopNode.addr);\n\n        emit RegisterOracleNode(msg.sender);\n    }\n\n    function oracleNodeIsRegistered(address _addr) public view returns (bool) {\n        if (oracleNodeIndices.length == 0) return false;\n        return (oracleNodeIndices[oracleNodes[_addr].index] == _addr);\n    }\n\n    function findOracleNodeByAddress(address _addr)\n        public\n        view\n        returns (OracleNode memory)\n    {\n        require(oracleNodeIsRegistered(_addr), \"not found\");\n        return oracleNodes[_addr];\n    }\n\n    function findOracleNodeByIndex(uint256 _index)\n        public\n        view\n        returns (OracleNode memory)\n    {\n        require(_index >= 0 && _index < oracleNodeIndices.length, \"not found\");\n        return oracleNodes[oracleNodeIndices[_index]];\n    }\n\n    function unregister(address unregisterAddr) \n        public\n    {\n        require(msg.sender == unregisterAddr, \"Only allow unregister yourself!\");\n        require(oracleNodeIsRegistered(unregisterAddr), \"Haven't registered!\");\n        payable(unregisterAddr).transfer(oracleNodes[unregisterAddr].stake); // \n        delete oracleNodeIndices[oracleNodes[unregisterAddr].index]; // \n        delete oracleNodes[unregisterAddr]; // map\n    }\n\n    function deleteNode(address addr)\n        external\n    {\n        delete oracleNodeIndices[oracleNodes[addr].index]; // \n        delete oracleNodes[addr]; // map\n    }\n\n    function getNodeRank(address addr) public view returns (uint256){\n        return oracleNodes[addr].rank;\n    }\n\n    function getNodePublicKeys(address addr) public view returns (bytes1[33][] memory){\n        return oracleNodes[addr].pubKeys;\n    }\n\n    function isAggregator(address _addr) public view returns (bool) {\n        return _addr == aggregatorAddr;\n    }\n\n    function getAggregator() public view returns (address) {\n        require(hasAggregator, \"no aggregator\");\n        return aggregatorAddr;\n    }\n\n    function getAggregatorIP() public view returns (string memory) {\n        require(hasAggregator, \"no aggregator\");\n        return aggregatorIP;\n    }\n}\n",
  "sourcePath": "/home/w1tness/Code/Crypto/Schnorr-multi-signature-oracle/ioporaclecontracts/contracts/RegistryContract.sol",
  "compiler": {
    "name": "solc",
    "version": "0.8.13+commit.abaa5c0e.Emscripten.clang"
  },
  "schemaVersion": "3.4.16",
  "updatedAt": "2023-12-17T03:34:39.302Z",
  "networkType": "ethereum",
  "devdoc": {
    "kind": "dev",
    "methods": {},
    "version": 1
  },
  "userdoc": {
    "kind": "user",
    "methods": {},
    "version": 1
  }
}