{
  "contractName": "Schnorr",
  "abi": [
    {
      "inputs": [],
      "name": "GX",
      "outputs": [
        {
          "internalType": "uint256",
          "name": "",
          "type": "uint256"
        }
      ],
      "stateMutability": "view",
      "type": "function"
    },
    {
      "inputs": [],
      "name": "GY",
      "outputs": [
        {
          "internalType": "uint256",
          "name": "",
          "type": "uint256"
        }
      ],
      "stateMutability": "view",
      "type": "function"
    },
    {
      "inputs": [
        {
          "internalType": "address",
          "name": "account",
          "type": "address"
        }
      ],
      "name": "toString",
      "outputs": [
        {
          "internalType": "string",
          "name": "",
          "type": "string"
        }
      ],
      "stateMutability": "pure",
      "type": "function"
    },
    {
      "inputs": [
        {
          "internalType": "uint256",
          "name": "value",
          "type": "uint256"
        }
      ],
      "name": "toString",
      "outputs": [
        {
          "internalType": "string",
          "name": "",
          "type": "string"
        }
      ],
      "stateMutability": "pure",
      "type": "function"
    },
    {
      "inputs": [
        {
          "internalType": "bytes",
          "name": "data",
          "type": "bytes"
        }
      ],
      "name": "toString",
      "outputs": [
        {
          "internalType": "string",
          "name": "",
          "type": "string"
        }
      ],
      "stateMutability": "pure",
      "type": "function"
    },
    {
      "inputs": [
        {
          "internalType": "bytes32",
          "name": "value",
          "type": "bytes32"
        }
      ],
      "name": "toString",
      "outputs": [
        {
          "internalType": "string",
          "name": "",
          "type": "string"
        }
      ],
      "stateMutability": "pure",
      "type": "function"
    }
  ],
  "bytecode": "0x610b33610053600b82828239805160001a607314610046577f4e487b7100000000000000000000000000000000000000000000000000000000600052600060045260246000fd5b30600052607381538281f3fe730000000000000000000000000000000000000000301460806040526004361061006c5760003560e01c806303a507be1461007157806356ca623e1461008f5780636900a3ae146100bf57806371aad10d146100ef5780637a308a4c1461011f578063b11a19e81461013d575b600080fd5b61007961016d565b604051610086919061051d565b60405180910390f35b6100a960048036038101906100a491906105aa565b610172565b6040516100b69190610670565b60405180910390f35b6100d960048036038101906100d491906106be565b6101a3565b6040516100e69190610670565b60405180910390f35b61010960048036038101906101049190610820565b6101d4565b6040516101169190610670565b60405180910390f35b6101276104ce565b604051610134919061051d565b60405180910390f35b6101576004803603810190610152919061089f565b6104d3565b6040516101649190610670565b60405180910390f35b600181565b606061019c826040516020016101889190610914565b6040516020818303038152906040526101d4565b9050919050565b60606101cd826040516020016101b99190610950565b6040516020818303038152906040526101d4565b9050919050565b606060006040518060400160405280601081526020017f30313233343536373839616263646566000000000000000000000000000000008152509050600060028451610220919061099a565b600261022c91906109f4565b67ffffffffffffffff811115610245576102446106f5565b5b6040519080825280601f01601f1916602001820160405280156102775781602001600182028036833780820191505090505b5090507f3000000000000000000000000000000000000000000000000000000000000000816000815181106102af576102ae610a4a565b5b60200101907effffffffffffffffffffffffffffffffffffffffffffffffffffffffffffff1916908160001a9053507f78000000000000000000000000000000000000000000000000000000000000008160018151811061031357610312610a4a565b5b60200101907effffffffffffffffffffffffffffffffffffffffffffffffffffffffffffff1916908160001a90535060005b84518110156104c35782600486838151811061036457610363610a4a565b5b602001015160f81c60f81b7effffffffffffffffffffffffffffffffffffffffffffffffffffffffffffff1916901c60f81c60ff16815181106103aa576103a9610a4a565b5b602001015160f81c60f81b826002836103c3919061099a565b60026103cf91906109f4565b815181106103e0576103df610a4a565b5b60200101907effffffffffffffffffffffffffffffffffffffffffffffffffffffffffffff1916908160001a90535082600f60f81b86838151811061042857610427610a4a565b5b602001015160f81c60f81b1660f81c60ff168151811061044b5761044a610a4a565b5b602001015160f81c60f81b82600283610464919061099a565b600361047091906109f4565b8151811061048157610480610a4a565b5b60200101907effffffffffffffffffffffffffffffffffffffffffffffffffffffffffffff1916908160001a90535080806104bb90610a79565b915050610345565b508092505050919050565b600281565b60606104fd826040516020016104e99190610ae2565b6040516020818303038152906040526101d4565b9050919050565b6000819050919050565b61051781610504565b82525050565b6000602082019050610532600083018461050e565b92915050565b6000604051905090565b600080fd5b600080fd5b600073ffffffffffffffffffffffffffffffffffffffff82169050919050565b60006105778261054c565b9050919050565b6105878161056c565b811461059257600080fd5b50565b6000813590506105a48161057e565b92915050565b6000602082840312156105c0576105bf610542565b5b60006105ce84828501610595565b91505092915050565b600081519050919050565b600082825260208201905092915050565b60005b838110156106115780820151818401526020810190506105f6565b83811115610620576000848401525b50505050565b6000601f19601f8301169050919050565b6000610642826105d7565b61064c81856105e2565b935061065c8185602086016105f3565b61066581610626565b840191505092915050565b6000602082019050818103600083015261068a8184610637565b905092915050565b61069b81610504565b81146106a657600080fd5b50565b6000813590506106b881610692565b92915050565b6000602082840312156106d4576106d3610542565b5b60006106e2848285016106a9565b91505092915050565b600080fd5b600080fd5b7f4e487b7100000000000000000000000000000000000000000000000000000000600052604160045260246000fd5b61072d82610626565b810181811067ffffffffffffffff8211171561074c5761074b6106f5565b5b80604052505050565b600061075f610538565b905061076b8282610724565b919050565b600067ffffffffffffffff82111561078b5761078a6106f5565b5b61079482610626565b9050602081019050919050565b82818337600083830152505050565b60006107c36107be84610770565b610755565b9050828152602081018484840111156107df576107de6106f0565b5b6107ea8482856107a1565b509392505050565b600082601f830112610807576108066106eb565b5b81356108178482602086016107b0565b91505092915050565b60006020828403121561083657610835610542565b5b600082013567ffffffffffffffff81111561085457610853610547565b5b610860848285016107f2565b91505092915050565b6000819050919050565b61087c81610869565b811461088757600080fd5b50565b60008135905061089981610873565b92915050565b6000602082840312156108b5576108b4610542565b5b60006108c38482850161088a565b91505092915050565b60008160601b9050919050565b60006108e4826108cc565b9050919050565b60006108f6826108d9565b9050919050565b61090e6109098261056c565b6108eb565b82525050565b600061092082846108fd565b60148201915081905092915050565b6000819050919050565b61094a61094582610504565b61092f565b82525050565b600061095c8284610939565b60208201915081905092915050565b7f4e487b7100000000000000000000000000000000000000000000000000000000600052601160045260246000fd5b60006109a582610504565b91506109b083610504565b9250817fffffffffffffffffffffffffffffffffffffffffffffffffffffffffffffffff04831182151516156109e9576109e861096b565b5b828202905092915050565b60006109ff82610504565b9150610a0a83610504565b9250827fffffffffffffffffffffffffffffffffffffffffffffffffffffffffffffffff03821115610a3f57610a3e61096b565b5b828201905092915050565b7f4e487b7100000000000000000000000000000000000000000000000000000000600052603260045260246000fd5b6000610a8482610504565b91507fffffffffffffffffffffffffffffffffffffffffffffffffffffffffffffffff8203610ab657610ab561096b565b5b600182019050919050565b6000819050919050565b610adc610ad782610869565b610ac1565b82525050565b6000610aee8284610acb565b6020820191508190509291505056fea264697066735822122095f3df7885973cfd9b6e99121e1672ad5149050b3034eed6c3aebb9229a13d0164736f6c634300080d0033",
  "immutableReferences": {},
  "source": "// SPDX-License-Identifier: MIT\npragma solidity ^0.8.0;\n\nimport \"./BN256G1.sol\";\n\n/**\n * @title Schnorr Signature Verify on BN256 Elliptic Curve\n * @author W1tnezz\n */\nlibrary  Schnorr {\n  uint256 public constant GX = 1;\n  uint256 public constant GY = 2;\n\n  struct ECPoint {\n    uint256 x;\n    uint256 y;\n  }\n\n  function toString(address account) public pure returns (string memory) {\n    return toString(abi.encodePacked(account));\n  }\n\n  function toString(uint256 value) public pure returns (string memory) {\n    return toString(abi.encodePacked(value));\n  }\n\n  function toString(bytes32 value) public pure returns (string memory) {\n    return toString(abi.encodePacked(value));\n  }\n\n  function toString(bytes memory data) public pure returns (string memory) {\n    bytes memory alphabet = \"0123456789abcdef\";\n    bytes memory str = new bytes(2 + data.length * 2);\n    str[0] = \"0\";\n    str[1] = \"x\";\n    for (uint i = 0; i < data.length; i++) {\n      str[2 + i * 2] = alphabet[uint(uint8(data[i] >> 4))];\n      str[3 + i * 2] = alphabet[uint(uint8(data[i] & 0x0f))];\n    }\n    return string(str);\n  }\n\n  function verify(uint256 signature, uint256 pubKeyX, uint256 pubKeyY, uint256 RX , uint256 RY, uint256 _hash) internal returns (bool) {\n    uint256[3] memory input1 =\n    [\n    GX,\n    GY,\n    signature\n    ];\n    // S1 = sig * G;\n    ECPoint memory S1;\n    (S1.x, S1.y) = BN256G1.mulPoint(input1);\n\n    uint256[3] memory input2 =\n    [\n    pubKeyX,\n    pubKeyY,\n    _hash\n    ];\n\n    // S2 = R + _hash * PubKey;\n    ECPoint memory S2;\n    (S2.x, S2.y) = BN256G1.mulPoint(input2);\n\n    uint256[4] memory input3 =\n    [\n    RX,\n    RY,\n    S2.x,\n    S2.y\n    ];\n    (S2.x, S2.y) = BN256G1.addPoint(input3);\n    // S1 == S2;\n    return S1.x == S2.x && S1.y == S2.y;\n  }\n}",
  "sourcePath": "/home/w1tness/Code/Crypto/Schnorr-multi-signature-oracle/ioporaclecontracts/contracts/crypto/Schnorr.sol",
  "compiler": {
    "name": "solc",
    "version": "0.8.13+commit.abaa5c0e.Emscripten.clang"
  },
  "schemaVersion": "3.4.16",
  "updatedAt": "2023-12-19T13:45:23.864Z",
  "devdoc": {
    "author": "W1tnezz",
    "kind": "dev",
    "methods": {},
    "title": "Schnorr Signature Verify on BN256 Elliptic Curve",
    "version": 1
  },
  "userdoc": {
    "kind": "user",
    "methods": {},
    "version": 1
  }
}